:020000040000FA
:040000004EEF00F0CF
:100008005D829EA00AEF00F00CEF00F025EF00F0F3
:100018005BC0CEFF5CC0CFFF0001812B89B017EF1A
:1000280000F01AEF00F0010E1BEF00F0000EFF0ABF
:10003800016E89500118FE0B0118896E9E9025EFFC
:1000480000F08C0E00018119D8A42DEF00F02FEFDD
:1000580000F04CEF00F08005D8A435EF00F037EF42
:1000680000F04CEF00F0000E816F89B23EEF00F017
:1000780041EF00F0010E42EF00F0000EFF0A016EA2
:10008800014689500118FD0B0118896E4CEF00F0EC
:080098005D92110089EF2EF0CA
:1010000000446967697461726520756E612066725B
:10101000657175656E7A6120696E746572613A20DA
:101020000042616368202D20626164696E657269A7
:0F1030002E0A0D000A0D52455345540A0D0000BB
:10104000000E4C6E7B0E4B6E000E4E6E7A0E4D6E89
:101050008EEC2BF0000E036E780E026EF0EC2DF08D
:10106000040E4C6E960E4B6E000E4E6E560E4D6E6E
:101070008EEC2BF0000E036E1F0E026EF0EC2DF0C6
:10108000030E4C6EDB0E4B6E000E4E6E390E4D6E27
:101090008EEC2BF0000E036E460E026EF0EC2DF07F
:1010A000000E4C6E920E4B6E000E4E6E6D0E4D6E1F
:1010B0008EEC2BF0000E036E860E026EF0EC2DF01F
:1010C000000E4C6E7B0E4B6E000E4E6E7D0E4D6E06
:1010D0008EEC2BF0000E036E670E026EF0EC2DF01E
:1010E000020E4C6E4B0E4B6E000E4E6E9C0E4D6EF5
:1010F0008EEC2BF0000E036E5A0E026EF0EC2DF00B
:10110000000E4C6E920E4B6E000E4E6E900E4D6E9B
:101110008EEC2BF0000E036E760E026EF0EC2DF0CE
:10112000010E4C6EED0E4B6E000E4E6EB30E4D6EFC
:101130008EEC2BF0000E036E460E026EF0EC2DF0DE
:10114000000E4C6EB80E4B6E000E4E6E7A0E4D6E4B
:101150008EEC2BF0000E036E810E026EF0EC2DF083
:10116000010E4C6E710E4B6E000E4E6E720E4D6E79
:101170008EEC2BF0000E036E0E0E026EF0EC2DF0D6
:10118000010E4C6EED0E4B6E000E4E6E580E4D6EF7
:101190008EEC2BF0000E036E160E026EF0EC2DF0AE
:1011A000000E4C6E7B0E4B6E000E4E6E790E4D6E29
:1011B0008EEC2BF0000E036E0C0E026EF0EC2DF098
:1011C000010E4C6EED0E4B6E000E4E6E4A0E4D6EC5
:1011D0008EEC2BF0000E036E1F0E026EF0EC2DF065
:1011E000010E4C6E870E4B6E000E4E6E8A0E4D6ECB
:1011F0008EEC2BF0010E4C6EED0E4B6E000E4E6E13
:101200004E0E4D6E8EEC2BF0000E036E2D0E026E08
:10121000F0EC2DF0010E4C6EED0E4B6E000E4E6E8E
:10122000920E4D6E8EEC2BF0000E036E610E026E70
:10123000F0EC2DF0020E4C6E2A0E4B6E000E4E6E30
:101240007D0E4D6E8EEC2BF0000E036E060E026EC0
:10125000F0EC2DF0020E4C6E2A0E4B6E000E4E6E10
:10126000660E4D6E8EEC2BF0000E036E140E026EA9
:10127000F0EC2DF0020E4C6E930E4B6E000E4E6E87
:10128000650E4D6E8EEC2BF0000E036E100E026E8E
:10129000F0EC2DF0020E4C6E2A0E4B6E000E4E6ED0
:1012A0004E0E4D6E8EEC2BF0000E036E360E026E5F
:1012B000F0EC2DF0010E4C6EED0E4B6E000E4E6EEE
:1012C000830E4D6E8EEC2BF0000E036E650E026EDB
:1012D000F0EC2DF0000E4C6E920E4B6E000E4E6E2A
:1012E0005A0E4D6E8EEC2BF0000E036E200E026E29
:1012F000F0EC2DF0000E4C6E8A0E4B6E000E4E6E12
:10130000570E4D6E8EEC2BF0000E036E320E026EF9
:10131000F0EC2DF0000E4C6E7B0E4B6E000E4E6E00
:10132000760E4D6E8EEC2BF0000E036E7C0E026E70
:10133000F0EC2DF0040E4C6E960E4B6E000E4E6EC1
:10134000590E4D6E8EEC2BF0000E036E160E026ED3
:10135000F0EC2DF0030E4C6EDB0E4B6E000E4E6E5D
:101360003E0E4D6E8EEC2BF0000E036E550E026E8F
:10137000F0EC2DF0020E4C6EE30E4B6E000E4E6E36
:10138000CF0E4D6E8EEC2BF0000E036E1B0E026E18
:10139000F0EC2DF0000E4C6E7B0E4B6E000E4E6E80
:1013A0007B0E4D6E8EEC2BF0000E036E7E0E026EE9
:1013B000F0EC2DF0020E4C6E4B0E4B6E000E4E6E8E
:1013C0008B0E4D6E8EEC2BF0000E036E660E026ED1
:1013D000F0EC2DF0000E4C6E920E4B6E000E4E6E29
:1013E000840E4D6E8EEC2BF0000E036E020E026E1C
:1013F000F0EC2DF0020E4C6E4B0E4B6E000E4E6E4E
:101400004D0E4D6E8EEC2BF0000E036E1D0E026E17
:10141000F0EC2DF0010E4C6E250E4B6E000E4E6E54
:10142000B90E4D6E8EEC2BF0000E036E570E026E51
:10143000F0EC2DF0000E4C6EB80E4B6E000E4E6EA2
:10144000760E4D6E8EEC2BF0000E036E780E026E53
:10145000F0EC2DF0010E4C6E710E4B6E000E4E6EC8
:101460007E0E4D6E8EEC2BF0000E036E750E026E2E
:10147000F0EC2DF0020E4C6E4B0E4B6E010E4E6ECC
:10148000350E4D6E8EEC2BF0000E036E3C0E026E90
:10149000F0EC2DF0020E4C6E2A0E4B6E000E4E6ECE
:1014A000640E4D6E8EEC2BF0000E036E160E026E67
:1014B000F0EC2DF0020E4C6E4B0E4B6E010E4E6E8C
:1014C000310E4D6E8EEC2BF0000E036E440E026E4C
:1014D000F0EC2DF0030E4C6EDB0E4B6E000E4E6EDC
:1014E0004E0E4D6E8EEC2BF0000E036E2B0E026E28
:1014F000F0EC2DF0020E4C6E4B0E4B6E000E4E6E4D
:10150000C10E4D6E8EEC2BF0000E036E320E026E8D
:10151000F0EC2DF0010E4C6EB80E4B6E000E4E6EC0
:10152000850E4D6E8EEC2BF0000E036E020E026ED9
:10153000F0EC2DF0020E4C6E930E4B6E000E4E6EC4
:10154000380E4D6E8EEC2BF0000E036E3C0E026ECC
:10155000F0EC2DF0010E4C6E490E4B6E000E4E6EEF
:10156000760E4D6E8EEC2BF0000E036E790E026E31
:10157000F0EC2DF0010E4C6EB80E4B6E000E4E6E60
:10158000830E4D6E8EEC2BF0000E036E7B0E026E02
:10159000F0EC2DF0020E4C6E4B0E4B6E000E4E6EAC
:1015A0007B0E4D6E8EEC2BF0000E036E080E026E5D
:1015B000F0EC2DF0010E4C6E250E4B6E000E4E6EB3
:1015C000570E4D6E8EEC2BF0000E036E190E026E50
:1015D000F0EC2DF0010E4C6E9F0E4B6E000E4E6E19
:1015E000940E4D6E8EEC2BF0000E036E5E0E026EAE
:1015F000F0EC2DF0020E4C6E4B0E4B6E000E4E6E4C
:10160000740E4D6E8EEC2BF0000E036E020E026E09
:10161000F0EC2DF0000E4C6EF60E4B6E000E4E6E82
:10162000560E4D6E8EEC2BF0000E036E250E026EE4
:10163000F0EC2DF0020E4C6E4B0E4B6E000E4E6E0B
:10164000730E4D6E8EEC2BF0040E4C6E960E4B6EA0
:10165000000E4E6E5A0E4D6E8EEC2BF0000E036E89
:10166000230E026EF0EC2DF0020E4C6EE30E4B6E6C
:10167000000E4E6EAD0E4D6E8EEC2BF0000E036E16
:10168000500E026EF0EC2DF0030E4C6E3E0E4B6EC3
:10169000000E4E6E360E4D6E8EEC2BF0000E036E6D
:1016A000120E026EF0EC2DF0020E4C6EE30E4B6E3D
:1016B000000E4E6E480E4D6E8EEC2BF0000E036E3B
:1016C000060E026EF0EC2DF0030E4C6E3E0E4B6ECD
:1016D000000E4E6E550E4D6E8EEC2BF0000E036E0E
:1016E000060E026EF0EC2DF0010E4C6E9F0E4B6E4E
:1016F000000E4E6E7F0E4D6E8EEC2BF0000E036EC4
:101700007C0E026EF0EC2DF0020E4C6EE30E4B6E72
:10171000000E4E6E7A0E4D6E8EEC2BF0000E036EA8
:10172000120E026EF0EC2DF0020E4C6EE30E4B6EBC
:10173000000E4E6E590E4D6E8EEC2BF0000E036EA9
:10174000120E026EF0EC2DF0020E4C6EE30E4B6E9C
:10175000000E4E6E770E4D6E8EEC2BF0000E036E6B
:10176000160E026EF0EC2DF0020E4C6EE30E4B6E78
:10177000000E4E6E550E4D6E8EEC2BF0000E036E6D
:10178000100E026EF0EC2DF0000E4C6EF60E4B6E4D
:10179000000E4E6E790E4D6E8EEC2BF0000E036E29
:1017A000120E026EF0EC2DF0020E4C6EE30E4B6E3C
:1017B000000E4E6E430E4D6E8EEC2BF0000E036E3F
:1017C0002F0E026EF0EC2DF0000E4C6ECF0E4B6E15
:1017D000000E4E6E750E4D6E8EEC2BF0000E036EED
:1017E000080E026EF0EC2DF0020E4C6EE30E4B6E06
:1017F000000E4E6E550E4D6E8EEC2BF0000E036EED
:10180000230E026EF0EC2DF0020E4C6EBA0E4B6EF3
:10181000000E4E6E650E4D6E8EEC2BF0000E036EBC
:101820001A0E026EF0EC2DF0030E4C6E3E0E4B6E57
:10183000000E4E6E4A0E4D6E8EEC2BF0000E036EB7
:101840002B0E026EF0EC2DF0030E4C6EDB0E4B6E89
:10185000000E4E6E6D0E4D6E8EEC2BF0000E036E74
:10186000100E026EF0EC2DF0030E4C6E3E0E4B6E21
:10187000000E4E6E400E4D6E8EEC2BF0000E036E81
:101880003A0E026EF0EC2DF0000E4C6EB80E4B6E60
:10189000000E4E6E710E4D6E8EEC2BF0000E036E30
:1018A000120E026EF0EC2DF0030E4C6E3E0E4B6EDF
:1018B000000E4E6E440E4D6E8EEC2BF0000E036E3D
:1018C0002D0E026EF0EC2DF0020E4C6EE30E4B6E00
:1018D000000E4E6E800E4D6E8EEC2BF0000E036EE1
:1018E0000A0E026EF0EC2DF0030E4C6E3E0E4B6EA7
:1018F000000E4E6E4A0E4D6E8EEC2BF0000E036EF7
:101900001B0E026EF0EC2DF0020E4C6EE30E4B6ED1
:10191000000E4E6E760E4D6E8EEC2BF0000E036EAA
:101920001E0E026EF0EC2DF0030E4C6E700E4B6E20
:10193000000E4E6E3D0E4D6E8EEC2BF0000E036EC3
:101940002B0E026EF0EC2DF0020E4C6E2A0E4B6E3A
:10195000000E4E6E770E4D6E8EEC2BF0000E036E69
:101960000A0E026EF0EC2DF0020E4C6EBA0E4B6EAB
:10197000000E4E6E760E4D6E8EEC2BF0000E036E4A
:101980000A0E026EF0EC2DF0020E4C6EE30E4B6E62
:10199000000E4E6E6B0E4D6E8EEC2BF0000E036E35
:1019A000140E026EF0EC2DF0030E4C6EDB0E4B6E3F
:1019B000000E4E6E430E4D6E8EEC2BF0000E036E3D
:1019C000380E026EF0EC2DF0010E4C6EED0E4B6EEB
:1019D000000E4E6E7A0E4D6E8EEC2BF0000E036EE6
:1019E0007B0E026EF0EC2DF0020E4C6EE30E4B6E91
:1019F000000E4E6E6B0E4D6E8EEC2BF0000E036ED5
:101A0000190E026EF0EC2DF0040E4C6E540E4B6E5F
:101A1000000E4E6E5A0E4D6E8EEC2BF0000E036EC5
:101A20001B0E026EF0EC2DF0020E4C6EE30E4B6EB0
:101A3000000E4E6E7C0E4D6E8EEC2BF0020E4C6E38
:101A4000BA0E4B6E000E4E6E900E4D6E8EEC2BF05D
:101A5000000E036E630E026EF0EC2DF0040E4C6E61
:101A6000960E4B6E000E4E6E4B0E4D6E8EEC2BF0A6
:101A7000000E036E290E026EF0EC2DF0010E4C6E7E
:101A8000250E4B6E000E4E6E7B0E4D6E8EEC2BF0C7
:101A9000000E036E780E026EF0EC2DF0000E4C6E10
:101AA000F60E4B6E000E4E6E7C0E4D6E8EEC2BF0D5
:101AB000000E036E730E026EF0EC2DF0040E4C6EF1
:101AC000540E4B6E000E4E6E4C0E4D6E8EEC2BF087
:101AD000000E036E340E026EF0EC2DF0030E4C6E11
:101AE000DB0E4B6E000E4E6E600E4D6E8EEC2BF0CC
:101AF000000E036E140E026EF0EC2DF0020E4C6E12
:101B0000E30E4B6E000E4E6E730E4D6E8EEC2BF090
:101B1000000E036E210E026EF0EC2DF0030E4C6EE3
:101B2000700E4B6E000E4E6E520E4D6E8EEC2BF004
:101B3000000E036E1B0E026EF0EC2DF0030E4C6EC9
:101B40003E0E4B6E000E4E6E770E4D6E8EEC2BF0F1
:101B5000000E036E810E026EF0EC2DF0010E4C6E45
:101B6000B80E4B6E000E4E6E790E4D6E8EEC2BF055
:101B7000000E036E820E026EF0EC2DF0020E4C6E23
:101B80002A0E4B6E000E4E6E6C0E4D6E8EEC2BF0D0
:101B9000000E036E020E026EF0EC2DF0030E4C6E82
:101BA000700E4B6E000E4E6E430E4D6E8EEC2BF093
:101BB000000E036E460E026EF0EC2DF0020E4C6E1F
:101BC000E30E4B6E000E4E6EDC0E4D6E8EEC2BF067
:101BD000010E036E1F0E026EF0EC2DF0000E4C6E27
:101BE0007B0E4B6E000E4E6E7A0E4D6E8EEC2BF011
:101BF000000E036E780E026EF0EC2DF0040E4C6EAB
:101C0000960E4B6E000E4E6E560E4D6E8EEC2BF0F9
:101C1000000E036E1F0E026EF0EC2DF0030E4C6EE4
:101C2000DB0E4B6E000E4E6E390E4D6E8EEC2BF0B1
:101C3000000E036E460E026EF0EC2DF0000E4C6EA0
:101C4000920E4B6E000E4E6E6D0E4D6E8EEC2BF0A6
:101C5000000E036E860E026EF0EC2DF0000E4C6E40
:101C60007B0E4B6E000E4E6E7D0E4D6E8EEC2BF08D
:101C7000000E036E670E026EF0EC2DF0020E4C6E3D
:101C80004B0E4B6E000E4E6E9C0E4D6E8EEC2BF07E
:101C9000000E036E5A0E026EF0EC2DF0000E4C6E2C
:101CA000920E4B6E000E4E6E900E4D6E8EEC2BF023
:101CB000000E036E760E026EF0EC2DF0010E4C6EEF
:101CC000ED0E4B6E000E4E6EB30E4D6E8EEC2BF085
:101CD000000E036E460E026EF0EC2DF0000E4C6E00
:101CE000B80E4B6E000E4E6E7A0E4D6E8EEC2BF0D3
:101CF000000E036E810E026EF0EC2DF0010E4C6EA4
:101D0000710E4B6E000E4E6E720E4D6E8EEC2BF001
:101D1000000E036E0E0E026EF0EC2DF0010E4C6EF6
:101D2000ED0E4B6E000E4E6E580E4D6E8EEC2BF07F
:101D3000000E036E160E026EF0EC2DF0000E4C6ECF
:101D40007B0E4B6E000E4E6E790E4D6E8EEC2BF0B0
:101D5000000E036E0C0E026EF0EC2DF0010E4C6EB8
:101D6000ED0E4B6E000E4E6E4A0E4D6E8EEC2BF04D
:101D7000000E036E1F0E026EF0EC2DF0010E4C6E85
:101D8000870E4B6E000E4E6E8A0E4D6E8EEC2BF053
:101D9000010E4C6EED0E4B6E000E4E6E4E0E4D6EE5
:101DA0008EEC2BF0000E036E2D0E026EF0EC2DF07B
:101DB000010E4C6EED0E4B6E000E4E6E920E4D6E81
:101DC0008EEC2BF0000E036E610E026EF0EC2DF027
:101DD000020E4C6E2A0E4B6E000E4E6E7D0E4D6E38
:101DE0008EEC2BF0000E036E060E026EF0EC2DF062
:101DF000020E4C6E2A0E4B6E000E4E6E660E4D6E2F
:101E00008EEC2BF0000E036E140E026EF0EC2DF033
:101E1000020E4C6E930E4B6E000E4E6E650E4D6EA6
:101E20008EEC2BF0000E036E100E026EF0EC2DF017
:101E3000020E4C6E2A0E4B6E000E4E6E4E0E4D6E06
:101E40008EEC2BF0000E036E360E026EF0EC2DF0D1
:101E5000010E4C6EED0E4B6E000E4E6E830E4D6EEF
:101E60008EEC2BF0000E036E650E026EF0EC2DF082
:101E7000000E4C6E920E4B6E000E4E6E5A0E4D6E54
:101E80008EEC2BF0000E036E200E026EF0EC2DF0A7
:101E9000000E4C6E8A0E4B6E000E4E6E570E4D6E3F
:101EA0008EEC2BF0000E036E320E026EF0EC2DF075
:101EB000000E4C6E7B0E4B6E000E4E6E760E4D6E0F
:101EC0008EEC2BF0000E036E7C0E026EF0EC2DF00B
:101ED000040E4C6E960E4B6E000E4E6E590E4D6EED
:101EE0008EEC2BF0000E036E160E026EF0EC2DF051
:101EF000030E4C6EDB0E4B6E000E4E6E3E0E4D6EA4
:101F00008EEC2BF0000E036E550E026EF0EC2DF0F1
:101F1000020E4C6EE30E4B6E000E4E6ECF0E4D6EEB
:101F20008EEC2BF0000E036E1B0E026EF0EC2DF00B
:101F3000000E4C6E7B0E4B6E000E4E6E7B0E4D6E89
:101F40008EEC2BF0000E036E7E0E026EF0EC2DF088
:101F5000020E4C6E4B0E4B6E000E4E6E8B0E4D6E87
:101F60008EEC2BF0000E036E660E026EF0EC2DF080
:101F7000000E4C6E920E4B6E000E4E6E840E4D6E29
:101F80008EEC2BF0000E036E020E026EF0EC2DF0C4
:101F9000020E4C6E4B0E4B6E000E4E6E4D0E4D6E85
:101FA0008EEC2BF0000E036E1D0E026EF0EC2DF089
:101FB000010E4C6E250E4B6E000E4E6EB90E4D6E20
:101FC0008EEC2BF0000E036E570E026EF0EC2DF02F
:101FD000000E4C6EB80E4B6E000E4E6E760E4D6EB1
:101FE0008EEC2BF0000E036E780E026EF0EC2DF0EE
:101FF000010E4C6E710E4B6E000E4E6E7E0E4D6ECF
:102000008EEC2BF0000E036E750E026EF0EC2DF0D0
:10201000020E4C6E4B0E4B6E010E4E6E350E4D6E1B
:102020008EEC2BF0000E036E3C0E026EF0EC2DF0E9
:10203000020E4C6E2A0E4B6E000E4E6E640E4D6EEE
:102040008EEC2BF0000E036E160E026EF0EC2DF0EF
:10205000020E4C6E4B0E4B6E010E4E6E310E4D6EDF
:102060008EEC2BF0000E036E440E026EF0EC2DF0A1
:10207000030E4C6EDB0E4B6E000E4E6E4E0E4D6E12
:102080008EEC2BF0000E036E2B0E026EF0EC2DF09A
:10209000020E4C6E4B0E4B6E000E4E6EC10E4D6E10
:1020A0008EEC2BF0000E036E320E026EF0EC2DF073
:1020B000010E4C6EB80E4B6E000E4E6E850E4D6EC0
:1020C0008EEC2BF0000E036E020E026EF0EC2DF083
:1020D000020E4C6E930E4B6E000E4E6E380E4D6E11
:1020E0008EEC2BF0000E036E3C0E026EF0EC2DF029
:1020F000010E4C6E490E4B6E000E4E6E760E4D6EFE
:102100008EEC2BF0000E036E790E026EF0EC2DF0CB
:10211000010E4C6EB80E4B6E000E4E6E830E4D6E61
:102120008EEC2BF0000E036E7B0E026EF0EC2DF0A9
:10213000020E4C6E4B0E4B6E000E4E6E7B0E4D6EB5
:102140008EEC2BF0000E036E080E026EF0EC2DF0FC
:10215000010E4C6E250E4B6E000E4E6E570E4D6EE0
:102160008EEC2BF0000E036E190E026EF0EC2DF0CB
:10217000010E4C6E9F0E4B6E000E4E6E940E4D6E09
:102180008EEC2BF0000E036E5E0E026EF0EC2DF066
:10219000020E4C6E4B0E4B6E000E4E6E740E4D6E5C
:1021A0008EEC2BF0000E036E020E026EF0EC2DF0A2
:1021B000000E4C6EF60E4B6E000E4E6E560E4D6EB1
:1021C0008EEC2BF0000E036E250E026EF0EC2DF05F
:1021D000020E4C6E4B0E4B6E000E4E6E730E4D6E1D
:1021E0008EEC2BF0040E4C6E960E4B6E000E4E6E67
:1021F0005A0E4D6E8EEC2BF0000E036E230E026E07
:10220000F0EC2DF0020E4C6EE30E4B6E000E4E6E97
:10221000AD0E4D6E8EEC2BF0000E036E500E026E66
:10222000F0EC2DF0030E4C6E3E0E4B6E000E4E6E1B
:10223000360E4D6E8EEC2BF0000E036E120E026EFB
:10224000F0EC2DF0020E4C6EE30E4B6E000E4E6E57
:10225000480E4D6E8EEC2BF0000E036E060E026ED5
:10226000F0EC2DF0030E4C6E3E0E4B6E000E4E6EDB
:10227000550E4D6E8EEC2BF0000E036E060E026EA8
:10228000F0EC2DF0010E4C6E9F0E4B6E000E4E6E5C
:102290007F0E4D6E8EEC2BF0000E036E7C0E026EE8
:1022A000F0EC2DF0020E4C6EE30E4B6E000E4E6EF7
:1022B0007A0E4D6E8EEC2BF0000E036E120E026E37
:1022C000F0EC2DF0020E4C6EE30E4B6E000E4E6ED7
:1022D000590E4D6E8EEC2BF0000E036E120E026E38
:1022E000F0EC2DF0020E4C6EE30E4B6E000E4E6EB7
:1022F000770E4D6E8EEC2BF0000E036E160E026EF6
:10230000F0EC2DF0020E4C6EE30E4B6E000E4E6E96
:10231000550E4D6E8EEC2BF0000E036E100E026EFD
:10232000F0EC2DF0000E4C6EF60E4B6E000E4E6E65
:10233000790E4D6E8EEC2BF0000E036E120E026EB7
:10234000F0EC2DF0020E4C6EE30E4B6E000E4E6E56
:10235000430E4D6E8EEC2BF0000E036E2F0E026EB0
:10236000F0EC2DF0000E4C6ECF0E4B6E000E4E6E4C
:10237000750E4D6E8EEC2BF0000E036E080E026E85
:10238000F0EC2DF0020E4C6EE30E4B6E000E4E6E16
:10239000550E4D6E8EEC2BF0000E036E230E026E6A
:1023A000F0EC2DF0020E4C6EBA0E4B6E000E4E6E1F
:1023B000650E4D6E8EEC2BF0000E036E1A0E026E43
:1023C000F0EC2DF0030E4C6E3E0E4B6E000E4E6E7A
:1023D0004A0E4D6E8EEC2BF0000E036E2B0E026E2D
:1023E000F0EC2DF0030E4C6EDB0E4B6E000E4E6EBD
:1023F0006D0E4D6E8EEC2BF0000E036E100E026E05
:10240000F0EC2DF0030E4C6E3E0E4B6E000E4E6E39
:10241000400E4D6E8EEC2BF0000E036E3A0E026EE7
:10242000F0EC2DF0000E4C6EB80E4B6E000E4E6EA2
:10243000710E4D6E8EEC2BF0000E036E120E026EBE
:10244000F0EC2DF0030E4C6E3E0E4B6E000E4E6EF9
:10245000440E4D6E8EEC2BF0000E036E2D0E026EB0
:10246000F0EC2DF0020E4C6EE30E4B6E000E4E6E35
:10247000800E4D6E8EEC2BF0000E036E0A0E026E77
:10248000F0EC2DF0030E4C6E3E0E4B6E000E4E6EB9
:102490004A0E4D6E8EEC2BF0000E036E1B0E026E7C
:1024A000F0EC2DF0020E4C6EE30E4B6E000E4E6EF5
:1024B000760E4D6E8EEC2BF0000E036E1E0E026E2D
:1024C000F0EC2DF0030E4C6E700E4B6E000E4E6E47
:1024D0003D0E4D6E8EEC2BF0000E036E2B0E026E39
:1024E000F0EC2DF0020E4C6E2A0E4B6E000E4E6E6E
:1024F000770E4D6E8EEC2BF0000E036E0A0E026E00
:10250000F0EC2DF0020E4C6EBA0E4B6E000E4E6EBD
:10251000760E4D6E8EEC2BF0000E036E0A0E026EE0
:10252000F0EC2DF0020E4C6EE30E4B6E000E4E6E74
:102530006B0E4D6E8EEC2BF0000E036E140E026EC1
:10254000F0EC2DF0030E4C6EDB0E4B6E000E4E6E5B
:10255000430E4D6E8EEC2BF0000E036E380E026EA5
:10256000F0EC2DF0010E4C6EED0E4B6E000E4E6E2B
:102570007A0E4D6E8EEC2BF0000E036E7B0E026E0B
:10258000F0EC2DF0020E4C6EE30E4B6E000E4E6E14
:102590006B0E4D6E8EEC2BF0000E036E190E026E5C
:1025A000F0EC2DF0040E4C6E540E4B6E000E4E6E81
:1025B0005A0E4D6E8EEC2BF0000E036E1B0E026E4B
:1025C000F0EC2DF0020E4C6EE30E4B6E000E4E6ED4
:1025D0007C0E4D6E8EEC2BF0020E4C6EBA0E4B6ED6
:1025E000000E4E6E900E4D6E8EEC2BF0000E036EB4
:1025F000630E026EF0EC2DF0040E4C6E960E4B6ED8
:10260000000E4E6E4B0E4D6E8EEC2BF0000E036ED8
:10261000290E026EF0EC2DF0010E4C6E250E4B6E65
:10262000000E4E6E7B0E4D6E8EEC2BF0000E036E88
:10263000780E026EF0EC2DF0000E4C6EF60E4B6E26
:10264000000E4E6E7C0E4D6E8EEC2BF0000E036E67
:10265000730E026EF0EC2DF0040E4C6E540E4B6EA9
:10266000000E4E6E4C0E4D6E8EEC2BF0000E036E77
:10267000340E026EF0EC2DF0030E4C6EDB0E4B6E42
:10268000000E4E6E600E4D6E8EEC2BF0000E036E43
:10269000140E026EF0EC2DF0020E4C6EE30E4B6E3B
:1026A000000E4E6E730E4D6E8EEC2BF0000E036E10
:1026B000210E026EF0EC2DF0030E4C6E700E4B6E80
:1026C000000E4E6E520E4D6E8EEC2BF0000E036E11
:1026D0001B0E026EF0EC2DF0030E4C6E3E0E4B6E98
:1026E000000E4E6E770E4D6E8EEC2BF0000E036ECC
:1026F000810E026EF0EC2DF0010E4C6EB80E4B6E9A
:10270000000E4E6E790E4D6E8EEC2BF0000E036EA9
:10271000820E026EF0EC2DF0020E4C6E2A0E4B6E05
:10272000000E4E6E6C0E4D6E8EEC2BF0000E036E96
:10273000020E026EF0EC2DF0030E4C6E700E4B6E1E
:10274000000E4E6E430E4D6E8EEC2BF0000E036E9F
:10275000460E026EF0EC2DF0020E4C6EE30E4B6E48
:10276000000E4E6EDC0E4D6E8EEC2BF0010E036EE5
:10277000190E026EF0EC2DF0010E4C6EB80E4B6E81
:10278000000E4E6E9C0E4D6E8EEC2BF0000E036E06
:102790006C0E026EF0EC2DF0030E4C6E700E4B6E54
:1027A000000E4E6E550E4D6E8EEC2BF0000E036E2D
:1027B000270E026EF0EC2DF0020E4C6EE30E4B6E07
:1027C000000E4E6E360E4D6E8EEC2BF0000E036E2C
:1027D000290E026EF0EC2DF0010E4C6E710E4B6E58
:1027E000000E4E6EAA0E4D6E8EEC2BF0000E036E98
:1027F000510E026EF0EC2DF0000E4C6E5C0E4B6E26
:10280000000E4E6E690E4D6E8EEC2BF0000E036EB8
:10281000250E026EF0EC2DF0020E4C6E2A0E4B6E61
:10282000000E4E6E550E4D6E8EEC2BF0000E036EAC
:10283000140E026EF0EC2DF0010E4C6EB80E4B6EC5
:10284000000E4E6EB50E4D6E8EEC2BF0000E036E2C
:10285000480E026EF0EC2DF0000E4C6E6E0E4B6EBC
:10286000000E4E6E6D0E4D6E8EEC2BF0000E036E54
:10287000060E026EF0EC2DF0010E4C6EB80E4B6E93
:10288000000E4E6E660E4D6E8EEC2BF0000E036E3B
:102890001D0E026EF0EC2DF0000E4C6EDC0E4B6E39
:1028A000000E4E6EAE0E4D6E8EEC2BF0000E036ED3
:1028B0004D0E026EF0EC2DF0000E4C6EDC0E4B6EE9
:1028C000000E4E6E5E0E4D6E8EEC2BF0000E4C6EBA
:1028D000B80E4B6E000E4E6E5B0E4D6E8EEC2BF0F6
:1028E000000E036E380E026EF0EC2DF0010E4C6EF1
:1028F000710E4B6E000E4E6EBA0E4D6E8EEC2BF0BE
:10290000000E036E3C0E026EF0EC2DF0010E4C6ECC
:10291000ED0E4B6E000E4E6E9F0E4D6E8EEC2BF03C
:10292000000E036E560E026EF0EC2DF0000E4C6E93
:102930007B0E4B6E000E4E6EDA0E4D6E8EEC2BF053
:10294000000E036E200E026EF0EC2DF0000E4C6EA9
:102950007B0E4B6E000E4E6ECF0E4D6E8EEC2BF03E
:10296000000E036E290E026EF0EC2DF0000E4C6E80
:102970007B0E4B6E000E4E6EB50E4D6E8EEC2BF038
:10298000000E036E2F0E026EF0EC2DF0000E4C6E5A
:102990007B0E4B6E000E4E6EA30E4D6E8EEC2BF02A
:1029A000000E036E5D0E026EF0EC2DF0000E4C6E0C
:1029B000A40E4B6E000E4E6EA70E4D6E8EEC2BF0DD
:1029C000000E036E4A0E026EF0EC2DF0000E4C6EFF
:1029D000F60E4B6E000E4E6E6A0E4D6E8EEC2BF0A8
:1029E000000E036E060E026EF0EC2DF0000E4C6E23
:1029F000C30E4B6E000E4E6E590E4D6E8EEC2BF0CC
:102A0000000E036E2D0E026EF0EC2DF0000E4C6EDB
:102A1000A40E4B6E000E4E6EBB0E4D6E8EEC2BF068
:102A2000000E036E3F0E026EF0EC2DF0000E4C6EA9
:102A3000C30E4B6E000E4E6E6F0E4D6E8EEC2BF075
:102A4000000E036E160E026EF0EC2DF0030E4C6EAF
:102A50000F0E4B6E000E4E6E460E4D6E8EEC2BF032
:102A6000000E036E360E026EF0EC2DF0000E4C6E72
:102A70008A0E4B6E000E4E6E9B0E4D6E8EEC2BF042
:102A8000000E036E6D0E026EF0EC2DF0000E4C6E1B
:102A90006E0E4B6E000E4E6E8F0E4D6E8EEC2BF04A
:102AA000000E036E580E026EF0EC2DF0020E4C6E0E
:102AB000930E4B6E000E4E6EB70E4D6E8EEC2BF0DD
:102AC000000E036E430E026EF0EC2DF0000E4C6E05
:102AD0008A0E4B6E000E4E6E7E0E4D6E8EEC2BF0FF
:102AE000000E036E840E026EF0EC2DF0010E4C6EA3
:102AF000490E4B6E000E4E6EC40E4D6E8EEC2BF0DA
:102B0000000E036E2B0E026EF0EC2DF0000E4C6EDC
:102B1000A40E4B6E000E4E6EAA0E4D6E8EEC2BF078
:102B2000000E036E510E026EF0EC2DF0000E4C6E96
:102B3000B80E4B6E000E4E6E960E4D6E8EEC2BF058
:102B4000000E036E5B0E026EF0EC2DF0020E4C6E6A
:102B5000E30E4B6E000E4E6E3E0E4D6E8EEC2BF065
:102B6000000E036E3A0E026EF0EC2DF0020E4C6E6B
:102B70004B0E4B6E000E4E6E4E0E4D6E8EEC2BF0CD
:102B8000000E036E2F0E026EF0EC2DF0010E4C6E57
:102B9000ED0E4B6E000E4E6E710E4D6E8EEC2BF0E8
:102BA000000E036E120E026EF0EC2DF0020E4C6E53
:102BB0004B0E4B6E000E4E6E4E0E4D6E8EEC2BF08D
:102BC000000E036E1B0E026EF0EC2DF0010E4C6E2B
:102BD000870E4B6E000E4E6E800E4D6E8EEC2BF0FF
:102BE000000E036E040E026EF0EC2DF0020E4C6E21
:102BF0004B0E4B6E000E4E6E6B0E4D6E8EEC2BF030
:102C0000000E036E0E0E026EF0EC2DF0000E4C6EF8
:102C1000DC0E4B6E000E4E6E830E4D6E8EEC2BF066
:102C2000000E036E780E026EF0EC2DF0010E4C6E6D
:102C3000B80E4B6E000E4E6E850E4D6E8EEC2BF068
:102C4000000E036E730E026EF0EC2DF0020E4C6E51
:102C5000E30E4B6E000E4E6E540E4D6E8EEC2BF04E
:102C6000000E036E1D0E026EF0EC2DF0020E4C6E87
:102C7000930E4B6E000E4E6E5A0E4D6E8EEC2BF078
:102C8000000E036E210E026EF0EC2DF0010E4C6E64
:102C9000B80E4B6E000E4E6E7D0E4D6E8EEC2BF010
:102CA000000E036E060E026EF0EC2DF0020E4C6E5E
:102CB000930E4B6E000E4E6E4E0E4D6E8EEC2BF044
:102CC000000E036E2B0E026EF0EC2DF0020E4C6E19
:102CD0004B0E4B6E000E4E6E5D0E4D6E8EEC2BF05D
:102CE000000E036E160E026EF0EC2DF0020E4C6E0E
:102CF000E30E4B6E000E4E6E400E4D6E8EEC2BF0C2
:102D0000000E036E330E026EF0EC2DF0020E4C6ED0
:102D10004B0E4B6E000E4E6E960E4D6E8EEC2BF0E3
:102D2000000E036E6E0E026EF0EC2DF0020E4C6E75
:102D30004B0E4B6E000E4E6E450E4D6E8EEC2BF014
:102D4000000E036E360E026EF0EC2DF0030E4C6E8C
:102D50000F0E4B6E000E4E6E7F0E4D6E8EEC2BF0F6
:102D6000000E036E040E026EF0EC2DF0000E4C6EA1
:102D7000C30E4B6E000E4E6E7E0E4D6E8EEC2BF023
:102D8000000E036E760E026EF0EC2DF0010E4C6E0E
:102D9000710E4B6E000E4E6EB10E4D6E8EEC2BF022
:102DA000000E036E3B0E026EF0EC2DF0000E4C6E2A
:102DB000DC0E4B6E000E4E6E7E0E4D6E8EEC2BF0CA
:102DC000000E036E020E026EF0EC2DF0020E4C6E41
:102DD0002A0E4B6E000E4E6E840E4D6E8EEC2BF056
:102DE000010E4C6E870E4B6E000E4E6EC10E4D6E78
:102DF0008EEC2BF0000E036E260E026EF0EC2DF022
:102E0000000E4C6EF60E4B6E000E4E6E860E4D6E24
:102E10008EEC2BF0000E036E060E026EF0EC2DF021
:102E2000020E4C6E2A0E4B6E000E4E6E800E4D6ED4
:102E30008EEC2BF0000E036E020E026EF0EC2DF005
:102E4000020E4C6E4B0E4B6E000E4E6E480E4D6ECB
:102E50008EEC2BF0000E036E340E026EF0EC2DF0B3
:102E6000030E4C6EDB0E4B6E000E4E6E530E4D6E0F
:102E70008EEC2BF0000E036E0E0E026EF0EC2DF0B9
:102E8000000E4C6EA40E4B6E000E4E6E820E4D6EFA
:102E90008EEC2BF0000E036E1A0E026EF0EC2DF08D
:102EA000030E4C6E0F0E4B6E000E4E6E420E4D6EAC
:102EB0008EEC2BF0000E036E1F0E026EF0EC2DF068
:102EC000010E4C6E710E4B6E000E4E6E8F0E4D6EDF
:102ED0008EEC2BF0000E036E650E026EF0EC2DF002
:102EE000010E4C6EED0E4B6E000E4E6E8B0E4D6E47
:102EF0008EEC2BF0000E036E680E026EF0EC2DF0DF
:102F0000010E4C6EB80E4B6E000E4E6E7B0E4D6E6B
:102F10008EEC2BF0000E036E830E026EF0EC2DF0A3
:102F2000010E4C6E870E4B6E000E4E6E800E4D6E77
:102F30008EEC2BF0000E036E2B0E026EF0EC2DF0DB
:102F4000020E4C6E930E4B6E000E4E6E4F0E4D6E7B
:102F50008EEC2BF0000E036E020E026EF0EC2DF0E4
:102F6000000E4C6E920E4B6E000E4E6E8A0E4D6E23
:102F70008EEC2BF0000E036E7A0E026EF0EC2DF04C
:102F8000000E4C6E6E0E4B6E000E4E6E6E0E4D6E43
:102F90008EEC2BF0000E036E780E026EF0EC2DF02E
:102FA000000E4C6E490E4B6E000E4E6E890E4D6E2D
:102FB0008EEC2BF0000E036E710E026EF0EC2DF015
:102FC000020E4C6EE30E4B6E010E4E6E3C0E4D6EBD
:102FD0008EEC2BF0000E036E310E026EF0EC2DF035
:102FE000020E4C6E930E4B6E000E4E6E500E4D6EDA
:102FF0008EEC2BF0000E036E320E026EF0EC2DF014
:10300000010E4C6EB80E4B6E000E4E6E770E4D6E6E
:103010008EEC2BF0000E036E770E026EF0EC2DF0AE
:10302000000E4C6E920E4B6E000E4E6EA40E4D6E48
:103030008EEC2BF0000E036E4F0E026EF0EC2DF0B6
:10304000020E4C6EE30E4B6E000E4E6EC30E4D6EB6
:103050008EEC2BF0000E036E3A0E026EF0EC2DF0AB
:10306000020E4C6E930E4B6E000E4E6E4A0E4D6E5F
:103070008EEC2BF0000E036E0C0E026EF0EC2DF0B9
:10308000020E4C6EE30E4B6E000E4E6E410E4D6EF8
:103090008EEC2BF0020E4C6E4B0E4B6E000E4E6EF5
:1030A000650E4D6E8EEC2BF0000E036E040E026E5C
:1030B000F0EC2DF0020E4C6E930E4B6E000E4E6E29
:1030C0008F0E4D6E8EEC2BF0000E036E5F0E026EB7
:1030D000F0EC2DF0000E4C6E740E4B6E000E4E6E2A
:1030E000770E4D6E8EEC2BF0000E036E840E026E8A
:1030F000F0EC2DF0020E4C6E930E4B6E010E4E6EE8
:103100003C0E4D6E8EEC2BF0000E036E290E026EFF
:10311000F0EC2DF0020E4C6E4B0E4B6E000E4E6E10
:103120005A0E4D6E8EEC2BF0000E036E250E026EC5
:10313000F0EC2DF0010E4C6ED20E4B6E000E4E6E6A
:10314000690E4D6E8EEC2BF0000E036E040E026EB7
:10315000F0EC2DF0000E4C6EE90E4B6E000E4E6E34
:103160005D0E4D6E8EEC2BF0000E036E2D0E026E7A
:10317000F0EC2DF0010E4C6ED20E4B6E000E4E6E2A
:10318000730E4D6E8EEC2BF0000E036E0E0E026E63
:10319000F0EC2DF0040E4C6E540E4B6E000E4E6E85
:1031A000480E4D6E8EEC2BF0000E036E1D0E026E5F
:1031B000F0EC2DF0000E4C6EE90E4B6E000E4E6ED4
:1031C000710E4D6E8EEC2BF0000E036E870E026EAC
:1031D000F0EC2DF0020E4C6EE30E4B6E000E4E6EB8
:1031E0003F0E4D6E8EEC2BF0000E036E2B0E026E1A
:1031F000F0EC2DF0020E4C6E4B0E4B6E000E4E6E30
:103200005E0E4D6E8EEC2BF0000E036E1B0E026EEA
:10321000F0EC2DF0020E4C6E4B0E4B6E000E4E6E0F
:10322000E00E4D6E8EEC2BF0000E036E390E026E2A
:10323000F0EC2DF0030E4C6EDB0E4B6E000E4E6E5E
:10324000740E4D6E8EEC2BF0000E036E760E026E39
:10325000F0EC2DF0040E4C6E960E4B6E000E4E6E82
:10326000510E4D6E8EEC2BF0000E036E270E026E8B
:10327000F0EC2DF0030E4C6EDB0E4B6E000E4E6E1E
:10328000410E4D6E8EEC2BF0000E036E380E026E6A
:10329000F0EC2DF0000E4C6EA40E4B6E010E4E6E37
:1032A000CD0E4D6E8EEC2BF0000E036E2A0E026ECC
:1032B000F0EC2DF0010E4C6E870E4B6E000E4E6E34
:1032C000840E4D6E8EEC2BF0000E036E820E026E9D
:1032D000F0EC2DF0030E4C6EDB0E4B6E000E4E6EBE
:1032E0006F0E4D6E8EEC2BF0000E036E0A0E026E0A
:1032F000F0EC2DF0030E4C6E0F0E4B6E000E4E6E6A
:10330000400E4D6E8EEC2BF0000E036E400E026EE2
:10331000F0EC2DF0000E4C6EA40E4B6E000E4E6EB7
:103320004D688EEC2BF0000E036E080E026EF0EC72
:103330002DF0010E4C6EED0E4B6E000E4E6E6B0EB0
:103340004D6E8EEC2BF0000E036E060E026EF0EC4E
:103350002DF0010E4C6E870E4B6E000E4E6E5D0E04
:103360004D6E8EEC2BF0000E036E180E026EF0EC1C
:103370002DF0010E4C6E490E4B6E000E4E6E9B0EE4
:103380004D6E8EEC2BF0000E036E5A0E026EF0ECBA
:103390002DF0030E4C6E0F0E4B6E000E4E6E760E21
:1033A0004D6E8EEC2BF0020E4C6E930E4B6E000E9B
:1033B0004E6E490E4D6E8EEC2BF0000E036E460ED7
:1033C000026EF0EC2DF0000E4C6EA40E4B6E000E53
:1033D0004E6EED0E4D6E8EEC2BF0000E036E020E57
:1033E000026EF0EC2DF0010E4C6E490E4B6E000E8D
:1033F0004E6E630E4D6E8EEC2BF0000E036E040EBF
:10340000026EF0EC2DF0020E4C6E930E4B6E000E21
:103410004E6E400E4D6E8EEC2BF0000E036E3A0E8B
:10342000026EF0EC2DF0020E4C6E0B0E4B6E000E89
:103430004E6E780E4D6E8EEC2BF0000E036E770EF6
:10344000026EF0EC2DF0020E4C6E0B0E4B6E000E69
:103450004E6E7E0E4D6E8EEC2BF0000E036E7B0ECC
:10346000026EF0EC2DF0010E4C6EED0E4B6E000E68
:103470004E6EEC0E4D6E8EEC2BF0010E4C6ED20E9D
:103480004B6E000E4E6E9E0E4D6E8EEC2BF0000EAF
:10349000036E7A0E026EF0EC2DF0010E4C6E870E6C
:1034A0004B6E000E4E6EE40E4D6E8EEC2BF0000E49
:1034B000036E1B0E026EF0EC2DF0010E4C6E150E1D
:1034C0004B6E000E4E6E790E4D6E8EEC2BF0000E94
:1034D000036E6F0E026EF0EC2DF0010E4C6EED0ED1
:1034E0004B6E000E4E6EBB0E4D6E8EEC2BF0000E32
:1034F000036E310E026EF0EC2DF0010E4C6ED20E0A
:103500004B6E000E4E6E630E4D6E8EEC2BF0000E69
:10351000036E190E026EF0EC2DF0020E4C6E2A0EA8
:103520004B6E000E4E6E540E4D6E8EEC2BF0000E58
:10353000036E2B0E026EF0EC2DF0020E4C6E2A0E76
:103540004B6E000E4E6E9D0E4D6E8EEC2BF0000EEF
:10355000036E5C0E026EF0EC2DF0020E4C6E4B0E04
:103560004B6E000E4E6E590E4D6E8EEC2BF0000E13
:10357000036E140E026EF0EC2DF0020E4C6E2A0E4D
:103580004B6E000E4E6E530E4D6E8EEC2BF0000EF9
:10359000036E2D0E026EF0EC2DF0010E4C6EED0E52
:1035A0004B6E000E4E6EE20E4D6E8EEC2BF0000E4A
:1035B000036E1E0E026EF0EC2DF0010E4C6EED0E41
:1035C0004B6E000E4E6E6C0E4D6E8EEC2BF0000EA0
:1035D000036E060E026EF0EC2DF0000E4C6EF60E31
:1035E0004B6E000E4E6E510E4D6E8EEC2BF0000E9B
:1035F000036E2D0E026EF0EC2DF0020E4C6EE30EFB
:103600004B6E000E4E6E7D0E4D6E8EEC2BF0000E4E
:10361000036E060E026EF0EC2DF0010E4C6EED0EF8
:103620004B6E000E4E6E570E4D6E8EEC2BF0000E54
:10363000036E250E026EF0EC2DF0020E4C6E4B0E5A
:103640004B6E000E4E6E600E4D6E8EEC2BF0000E2B
:10365000036E0C0E026EF0EC2DF0020E4C6EE30EBB
:103660004B6E000E4E6E560E4D6E8EEC2BF0000E15
:10367000036E2E0E026EF0EC2DF0030E4C6EDB0E80
:103680004B6E000E4E6E650E4D6E8EEC2BF0000EE6
:10369000036E8B0E026EF0EC2DF0000E4C6E7B0E66
:1036A0004B6E000E4E6E6C0E4D6E8EEC2BF0000EBF
:1036B000036E7D0E026EF0EC2DF0000E4C6EB80E17
:1036C0004B6E000E4E6E800E4D6E8EEC2BF0020E89
:1036D0004C6E4B0E4B6E000E4E6E740E4D6E8EEC9D
:1036E0002BF0000E036E160E026EF0EC2DF0020EA3
:1036F0004C6E2A0E4B6E000E4E6E5A0E4D6E8EECB8
:103700002BF0000E036E140E026EF0EC2DF0020E84
:103710004C6E4B0E4B6E000E4E6E490E4D6E8EEC87
:103720002BF0000E036E440E026EF0EC2DF0020E34
:103730004C6E2A0E4B6E010E4E6E000E4D6E8EECD0
:103740002BF0000E036EF10E026EF0EC2DF0010E68
:103750004C6EB80E4B6E000E4E6E9C0E4D6E8EEC87
:103760002BF0000E036E6C0E026EF0EC2DF0030ECB
:103770004C6E700E4B6E000E4E6E550E4D6E8EECF6
:103780002BF0000E036E270E026EF0EC2DF0020EF1
:103790004C6EE30E4B6E000E4E6E360E4D6E8EEC82
:1037A0002BF0000E036E290E026EF0EC2DF0010ED0
:1037B0004C6E710E4B6E000E4E6EAA0E4D6E8EEC60
:1037C0002BF0000E036E510E026EF0EC2DF0000E89
:1037D0004C6E5C0E4B6E000E4E6E690E4D6E8EEC96
:1037E0002BF0000E036E250E026EF0EC2DF0020E93
:1037F0004C6E2A0E4B6E000E4E6E550E4D6E8EECBC
:103800002BF0000E036E140E026EF0EC2DF0010E84
:103810004C6EB80E4B6E000E4E6EB50E4D6E8EECAD
:103820002BF0000E036E480E026EF0EC2DF0000E31
:103830004C6E6E0E4B6E000E4E6E6D0E4D6E8EEC1F
:103840002BF0000E036E060E026EF0EC2DF0010E52
:103850004C6EB80E4B6E000E4E6E660E4D6E8EECBC
:103860002BF0000E036E1D0E026EF0EC2DF0000E1C
:103870004C6EDC0E4B6E000E4E6EAE0E4D6E8EEC30
:103880002BF0000E036E4D0E026EF0EC2DF0000ECC
:103890004C6EDC0E4B6E000E4E6E5E0E4D6E8EEC60
:1038A0002BF0000E4C6EB80E4B6E000E4E6E5B0E83
:1038B0004D6E8EEC2BF0000E036E380E026EF0ECA7
:1038C0002DF0010E4C6E710E4B6E000E4E6EBA0E48
:1038D0004D6E8EEC2BF0000E036E3C0E026EF0EC83
:1038E0002DF0010E4C6EED0E4B6E000E4E6E9F0EC7
:1038F0004D6E8EEC2BF0000E036E560E026EF0EC49
:103900002DF0000E4C6E7B0E4B6E000E4E6EDA0EDE
:103910004D6E8EEC2BF0000E036E200E026EF0EC5E
:103920002DF0000E4C6E7B0E4B6E000E4E6ECF0EC9
:103930004D6E8EEC2BF0000E036E290E026EF0EC35
:103940002DF0000E4C6E7B0E4B6E000E4E6EB50EC3
:103950004D6E8EEC2BF0000E036E2F0E026EF0EC0F
:103960002DF0000E4C6E7B0E4B6E000E4E6EA30EB5
:103970004D6E8EEC2BF0000E036E5D0E026EF0ECC1
:103980002DF0000E4C6EA40E4B6E000E4E6EA70E68
:103990004D6E8EEC2BF0000E036E4A0E026EF0ECB4
:1039A0002DF0000E4C6EF60E4B6E000E4E6E6A0E33
:1039B0004D6E8EEC2BF0000E036E060E026EF0ECD8
:1039C0002DF0000E4C6EC30E4B6E000E4E6E590E57
:1039D0004D6E8EEC2BF0000E036E2D0E026EF0EC91
:1039E0002DF0000E4C6EA40E4B6E000E4E6EBB0EF4
:1039F0004D6E8EEC2BF0000E036E3F0E026EF0EC5F
:103A00002DF0000E4C6EC30E4B6E000E4E6E6F0E00
:103A10004D6E8EEC2BF0000E036E160E026EF0EC67
:103A20002DF0030E4C6E0F0E4B6E000E4E6E460EBA
:103A30004D6E8EEC2BF0000E036E360E026EF0EC27
:103A40002DF0000E4C6E8A0E4B6E000E4E6E9B0ECD
:103A50004D6E8EEC2BF0000E036E6D0E026EF0ECD0
:103A60002DF0000E4C6E6E0E4B6E000E4E6E8F0ED5
:103A70004D6E8EEC2BF0000E036E580E026EF0ECC5
:103A80002DF0020E4C6E930E4B6E000E4E6EB70E66
:103A90004D6E8EEC2BF0000E036E430E026EF0ECBA
:103AA0002DF0000E4C6E8A0E4B6E000E4E6E7E0E8A
:103AB0004D6E8EEC2BF0000E036E840E026EF0EC59
:103AC0002DF0010E4C6E490E4B6E000E4E6EC40E64
:103AD0004D6E8EEC2BF0000E036E2B0E026EF0EC92
:103AE0002DF0000E4C6EA40E4B6E000E4E6EAA0E04
:103AF0004D6E8EEC2BF0000E036E510E026EF0EC4C
:103B00002DF0000E4C6EB80E4B6E000E4E6E960EE3
:103B10004D6E8EEC2BF0000E036E5B0E026EF0EC21
:103B20002DF0020E4C6EE30E4B6E000E4E6E3E0EEE
:103B30004D6E8EEC2BF0000E036E3A0E026EF0EC22
:103B40002DF0020E4C6E4B0E4B6E000E4E6E4E0E56
:103B50004D6E8EEC2BF0000E036E2F0E026EF0EC0D
:103B60002DF0010E4C6EED0E4B6E000E4E6E710E72
:103B70004D6E8EEC2BF0000E036E120E026EF0EC0A
:103B80002DF0020E4C6E4B0E4B6E000E4E6E4E0E16
:103B90004D6E8EEC2BF0000E036E1B0E026EF0ECE1
:103BA0002DF0010E4C6E870E4B6E000E4E6E800E89
:103BB0004D6E8EEC2BF0000E036E040E026EF0ECD8
:103BC0002DF0020E4C6E4B0E4B6E000E4E6E6B0EB9
:103BD0004D6E8EEC2BF0000E036E0E0E026EF0ECAE
:103BE0002DF0000E4C6EDC0E4B6E000E4E6E830EF2
:103BF0004D6E8EEC2BF0000E036E780E026EF0EC24
:103C00002DF0010E4C6EB80E4B6E000E4E6E850EF2
:103C10004D6E8EEC2BF0000E036E730E026EF0EC08
:103C20002DF0020E4C6EE30E4B6E000E4E6E540ED7
:103C30004D6E8EEC2BF0000E036E1D0E026EF0EC3E
:103C40002DF0020E4C6E930E4B6E000E4E6E5A0E01
:103C50004D6E8EEC2BF0000E036E210E026EF0EC1A
:103C60002DF0010E4C6EB80E4B6E000E4E6E7D0E9A
:103C70004D6E8EEC2BF0000E036E060E026EF0EC15
:103C80002DF0020E4C6E930E4B6E000E4E6E4E0ECD
:103C90004D6E8EEC2BF0000E036E2B0E026EF0ECD0
:103CA0002DF0020E4C6E4B0E4B6E000E4E6E5D0EE6
:103CB0004D6E8EEC2BF0000E036E160E026EF0ECC5
:103CC0002DF0020E4C6EE30E4B6E000E4E6E400E4B
:103CD0004D6E8EEC2BF0000E036E330E026EF0EC88
:103CE0002DF0020E4C6E4B0E4B6E000E4E6E960E6D
:103CF0004D6E8EEC2BF0000E036E6E0E026EF0EC2D
:103D00002DF0020E4C6E4B0E4B6E000E4E6E450E9D
:103D10004D6E8EEC2BF0000E036E360E026EF0EC44
:103D20002DF0030E4C6E0F0E4B6E000E4E6E7F0E7E
:103D30004D6E8EEC2BF0000E036E040E026EF0EC56
:103D40002DF0000E4C6EC30E4B6E000E4E6E7E0EAE
:103D50004D6E8EEC2BF0000E036E760E026EF0ECC4
:103D60002DF0010E4C6E710E4B6E000E4E6EB10EAC
:103D70004D6E8EEC2BF0000E036E3B0E026EF0ECDF
:103D80002DF0000E4C6EDC0E4B6E000E4E6E7E0E55
:103D90004D6E8EEC2BF0000E036E020E026EF0ECF8
:103DA0002DF0020E4C6E2A0E4B6E000E4E6E840EDF
:103DB0004D6E8EEC2BF0010E4C6E870E4B6E000E8E
:103DC0004E6EC10E4D6E8EEC2BF0000E036E260E65
:103DD000026EF0EC2DF0000E4C6EF60E4B6E000EE7
:103DE0004E6E860E4D6E8EEC2BF0000E036E060EA0
:103DF000026EF0EC2DF0020E4C6E2A0E4B6E000E91
:103E00004E6E800E4D6E8EEC2BF0000E036E020E89
:103E1000026EF0EC2DF0020E4C6E4B0E4B6E000E4F
:103E20004E6E480E4D6E8EEC2BF0000E036E340E6F
:103E3000026EF0EC2DF0030E4C6EDB0E4B6E000E9E
:103E40004E6E530E4D6E8EEC2BF0000E036E0E0E6A
:103E5000026EF0EC2DF0000E4C6EA40E4B6E000EB8
:103E60004E6E820E4D6E8EEC2BF0000E036E1A0E0F
:103E7000026EF0EC2DF0030E4C6E0F0E4B6E000E2A
:103E80004E6E420E4D6E8EEC2BF0000E036E1F0E2A
:103E9000026EF0EC2DF0010E4C6E710E4B6E000EAA
:103EA0004E6E8F0E4D6E8EEC2BF0000E036E650E77
:103EB000026EF0EC2DF0010E4C6EED0E4B6E000E0E
:103EC0004E6E8B0E4D6E8EEC2BF0000E036E680E58
:103ED000026EF0EC2DF0010E4C6EB80E4B6E000E23
:103EE0004E6E7B0E4D6E8EEC2BF0000E036E830E2D
:103EF000026EF0EC2DF0010E4C6E870E4B6E000E34
:103F00004E6E800E4D6E8EEC2BF0000E036E2B0E5F
:103F1000026EF0EC2DF0020E4C6E930E4B6E000E06
:103F20004E6E4F0E4D6E8EEC2BF0000E036E020E99
:103F3000026EF0EC2DF0000E4C6E920E4B6E000EE9
:103F40004E6E8A0E4D6E8EEC2BF0000E036E7A0EC6
:103F5000026EF0EC2DF0000E4C6E6E0E4B6E000EED
:103F60004E6E6E0E4D6E8EEC2BF0000E036E780EC4
:103F7000026EF0EC2DF0000E4C6E490E4B6E000EF2
:103F80004E6E890E4D6E8EEC2BF0000E036E710E90
:103F9000026EF0EC2DF0020E4C6EE30E4B6E010E35
:103FA0004E6E3C0E4D6E8EEC2BF0000E036E310EFD
:103FB000026EF0EC2DF0020E4C6E930E4B6E000E66
:103FC0004E6E500E4D6E8EEC2BF0000E036E320EC8
:103FD000026EF0EC2DF0010E4C6EB80E4B6E000E22
:103FE0004E6E770E4D6E8EEC2BF0000E036E770E3C
:103FF000026EF0EC2DF0000E4C6E920E4B6E000E29
:104000004E6EA40E4D6E8EEC2BF0000E036E4F0E16
:10401000026EF0EC2DF0020E4C6EE30E4B6E000EB5
:104020004E6EC30E4D6E8EEC2BF0000E036E3A0EEC
:10403000026EF0EC2DF0020E4C6E930E4B6E000EE5
:104040004E6E4A0E4D6E8EEC2BF0000E036E0C0E73
:10405000026EF0EC2DF0020E4C6EE30E4B6E000E75
:104060004E6E410E4D6E8EEC2BF0020E4C6E4B0ED2
:104070004B6E000E4E6E650E4D6E8EEC2BF0000EEC
:10408000036E040E026EF0EC2DF0020E4C6E930ED9
:104090004B6E000E4E6E8F0E4D6E8EEC2BF0000EA2
:1040A000036E5F0E026EF0EC2DF0000E4C6E740E7F
:1040B0004B6E000E4E6E770E4D6E8EEC2BF0000E9A
:1040C000036E840E026EF0EC2DF0020E4C6E930E19
:1040D0004B6E010E4E6E3C0E4D6E8EEC2BF0000EB4
:1040E000036E290E026EF0EC2DF0020E4C6E4B0E9C
:1040F0004B6E000E4E6E5A0E4D6E8EEC2BF0000E77
:10410000036E250E026EF0EC2DF0010E4C6ED20EF9
:104110004B6E000E4E6E690E4D6E8EEC2BF0000E47
:10412000036E040E026EF0EC2DF0000E4C6EE90EE4
:104130004B6E000E4E6E5D0E4D6E8EEC2BF0000E33
:10414000036E2D0E026EF0EC2DF0010E4C6ED20EB1
:104150004B6E000E4E6E730E4D6E8EEC2BF0000EFD
:10416000036E0E0E026EF0EC2DF0040E4C6E540E2B
:104170004B6E000E4E6E480E4D6E8EEC2BF0000E08
:10418000036E1D0E026EF0EC2DF0000E4C6EE90E6B
:104190004B6E000E4E6E710E4D6E8EEC2BF0000EBF
:1041A000036E870E026EF0EC2DF0020E4C6EE30EE5
:1041B0004B6E000E4E6E3F0E4D6E8EEC2BF0000ED1
:1041C000036E2B0E026EF0EC2DF0020E4C6E4B0EB9
:1041D0004B6E000E4E6E5E0E4D6E8EEC2BF0000E92
:1041E000036E1B0E026EF0EC2DF0020E4C6E4B0EA9
:1041F0004B6E000E4E6EE00E4D6E8EEC2BF0000EF0
:10420000036E390E026EF0EC2DF0030E4C6EDB0ED9
:104210004B6E000E4E6E740E4D6E8EEC2BF0000E3B
:10422000036E760E026EF0EC2DF0040E4C6E960EC0
:104230004B6E000E4E6E510E4D6E8EEC2BF0000E3E
:10424000036E270E026EF0EC2DF0030E4C6EDB0EAB
:104250004B6E000E4E6E410E4D6E8EEC2BF0000E2E
:10426000036E380E026EF0EC2DF0000E4C6EA40EB4
:104270004B6E010E4E6ECD0E4D6E8EEC2BF0000E81
:10428000036E2A0E026EF0EC2DF0010E4C6E870EBE
:104290004B6E000E4E6E840E4D6E8EEC2BF0000EAB
:1042A000036E820E026EF0EC2DF0030E4C6EDB0EF0
:1042B0004B6E000E4E6E6F0E4D6E8EEC2BF0000EA0
:1042C000036E0A0E026EF0EC2DF0030E4C6E0F0E14
:1042D0004B6E000E4E6E400E4D6E8EEC2BF0000EAF
:1042E000036E400E026EF0EC2DF0000E4C6EA40E2C
:1042F0004B6E000E4E6E4D688EEC2BF0000E036E72
:10430000080E026EF0EC2DF0010E4C6EED0E4B6EB1
:10431000000E4E6E6B0E4D6E8EEC2BF0000E036E8B
:10432000060E026EF0EC2DF0010E4C6E870E4B6EF9
:10433000000E4E6E5D0E4D6E8EEC2BF0000E036E79
:10434000180E026EF0EC2DF0010E4C6E490E4B6E05
:10435000000E4E6E9B0E4D6E8EEC2BF0000E036E1B
:104360005A0E026EF0EC2DF0030E4C6E0F0E4B6EDB
:10437000000E4E6E760E4D6E8EEC2BF0020E4C6ED5
:10438000930E4B6E000E4E6E490E4D6E8EEC2BF062
:10439000000E036E460E026EF0EC2DF0000E4C6E19
:1043A000A40E4B6E000E4E6EED0E4D6E8EEC2BF08D
:1043B000000E036E020E026EF0EC2DF0010E4C6E3C
:1043C000490E4B6E000E4E6E630E4D6E8EEC2BF052
:1043D000000E036E040E026EF0EC2DF0020E4C6E19
:1043E000930E4B6E000E4E6E400E4D6E8EEC2BF00B
:1043F000000E036E3A0E026EF0EC2DF0020E4C6EC3
:104400000B0E4B6E000E4E6E780E4D6E8EEC2BF03A
:10441000000E036E770E026EF0EC2DF0020E4C6E65
:104420000B0E4B6E000E4E6E7E0E4D6E8EEC2BF014
:10443000000E036E7B0E026EF0EC2DF0010E4C6E42
:10444000ED0E4B6E000E4E6EEC0E4D6E8EEC2BF0A4
:10445000010E4C6ED20E4B6E000E4E6E9E0E4D6EC9
:104460008EEC2BF0000E036E7A0E026EF0EC2DF047
:10447000010E4C6E870E4B6E000E4E6EE40E4D6EAE
:104480008EEC2BF0000E036E1B0E026EF0EC2DF086
:10449000010E4C6E150E4B6E000E4E6E790E4D6E6B
:1044A0008EEC2BF0000E036E6F0E026EF0EC2DF012
:1044B000010E4C6EED0E4B6E000E4E6EBB0E4D6E31
:1044C0008EEC2BF0000E036E310E026EF0EC2DF030
:1044D000010E4C6ED20E4B6E000E4E6E630E4D6E84
:1044E0008EEC2BF0000E036E190E026EF0EC2DF028
:1044F000020E4C6E2A0E4B6E000E4E6E540E4D6E1A
:104500008EEC2BF0000E036E2B0E026EF0EC2DF0F5
:10451000020E4C6E2A0E4B6E000E4E6E9D0E4D6EB0
:104520008EEC2BF0000E036E5C0E026EF0EC2DF0A4
:10453000020E4C6E4B0E4B6E000E4E6E590E4D6EB3
:104540008EEC2BF0000E036E140E026EF0EC2DF0CC
:10455000020E4C6E2A0E4B6E000E4E6E530E4D6EBA
:104560008EEC2BF0000E036E2D0E026EF0EC2DF093
:10457000010E4C6EED0E4B6E000E4E6EE20E4D6E49
:104580008EEC2BF0000E036E1E0E026EF0EC2DF082
:10459000010E4C6EED0E4B6E000E4E6E6C0E4D6E9F
:1045A0008EEC2BF0000E036E060E026EF0EC2DF07A
:1045B000000E4C6EF60E4B6E000E4E6E510E4D6E92
:1045C0008EEC2BF0000E036E2D0E026EF0EC2DF033
:1045D000020E4C6EE30E4B6E000E4E6E7D0E4D6E57
:1045E0008EEC2BF0000E036E060E026EF0EC2DF03A
:1045F000010E4C6EED0E4B6E000E4E6E570E4D6E54
:104600008EEC2BF0000E036E250E026EF0EC2DF0FA
:10461000020E4C6E4B0E4B6E000E4E6E600E4D6ECB
:104620008EEC2BF0000E036E0C0E026EF0EC2DF0F3
:10463000020E4C6EE30E4B6E000E4E6E560E4D6E1D
:104640008EEC2BF0000E036E2E0E026EF0EC2DF0B1
:10465000030E4C6EDB0E4B6E000E4E6E650E4D6EF5
:104660008EEC2BF0000E036E8B0E026EF0EC2DF034
:10467000000E4C6E7B0E4B6E000E4E6E6C0E4D6E31
:104680008EEC2BF0000E036E7D0E026EF0EC2DF022
:10469000000E4C6EB80E4B6E000E4E6E810E4D6EBF
:1046A0008EEC2BF0020E4C6E4B0E4B6E000E4E6ECF
:1046B0007D0E4D6E8EEC2BF0000E036E1B0E026E07
:1046C000F0EC2DF0020E4C6E2A0E4B6E000E4E6E6C
:1046D000710E4D6E8EEC2BF0000E036E190E026EF5
:1046E000F0EC2DF0020E4C6E4B0E4B6E000E4E6E2B
:1046F0005B0E4D6E8EEC2BF0000E036E550E026EAF
:10470000F0EC2DF0020E4C6E2A0E4B6E010E4E6E2A
:10471000400E4D6E8EEC2BF012003050800B3D6E33
:10472000305030243F6E2FAE98EF23F09AEF23F0F5
:104730009DEF23F03F809DEF23F03F50D8B4A3EFCF
:1047400023F0A5EF23F0BCEF23F03F28D8A4ABEF74
:1047500023F0ADEF23F0B7EF23F0000E2D6E000E27
:104760002E6E000E2F6E000E306EB7EF23F02F8EE0
:10477000000E306EC6EF23F0000E2D6E000E2E6E72
:10478000000E2F6E000E306EC6EF23F03450800BFB
:104790003E6E3D503E18D8B4D0EF23F0D2EF23F058
:1047A000D5EF23F03D8CD5EF23F0345034243E6E0A
:1047B00033AEDDEF23F0DFEF23F0E2EF23F03E80B6
:1047C000E2EF23F03E50D8B4E8EF23F0EAEF23F015
:1047D00001EF24F03E28D8A4F0EF23F0F2EF23F00D
:1047E000FCEF23F0000E316E000E326E000E336EC1
:1047F000000E346EFCEF23F0338E000E346E0BEFA0
:1048000024F0000E316E000E326E000E336E000E7C
:10481000346E0BEF24F03F503E5CD8B012EF24F022
:1048200014EF24F03FEF24F03DAC19EF24F01BEF20
:1048300024F01FEF24F0800E3D1A1FEF24F03FC03C
:1048400040F03EC03FF040C03EF02DC040F031C0CF
:104850002DF040C031F02EC040F032C02EF040C0EC
:1048600032F02FC040F033C02FF040C033F030C0E2
:1048700040F034C030F040C034F03FEF24F0000E80
:10488000406E3F50356E366A351E361E354A362A22
:104890003E50376E386A355037263650382238BE8B
:1048A0005BEF24F0385009E11A0E375CD8A05BEFBB
:1048B00024F05DEF24F09AEF24F02D502E102F10ED
:1048C0003010D8A466EF24F069EF24F0010E6AEFEF
:1048D00024F0000E406E000E2D6E000E2E6E000EA7
:1048E0002F6E000E306E3EC03FF0A5EF24F09AEF21
:1048F00024F040A07EEF24F080EF24F086EF24F037
:10490000D89040300109406E8AEF24F0D8904032B0
:104910008AEF24F02DA08FEF24F091EF24F094EF94
:1049200024F0408E94EF24F0303430322F322E3287
:104930002D323F2A3E503F5CD8A0A1EF24F0A3EFD8
:1049400024F079EF24F0A5EF24F03DBCAAEF24F089
:10495000ACEF24F0F4EF24F03F50D8A4B2EF24F0F1
:10496000B4EF24F0C0EF24F0000E2D6E000E2E6E7A
:10497000000E2F6E000E306E4EEF26F04EEF26F03A
:1049800031502D2632502E2233502F2234503022D7
:1049900030A0CDEF24F0CFEF24F0A4EF25F040A01D
:1049A000D4EF24F0D6EF24F0DCEF24F0D8904030A0
:1049B0000109406EE0EF24F0D8904032E0EF24F09F
:1049C0002DA0E5EF24F0E7EF24F0EAEF24F0408E8D
:1049D000EAEF24F0303430322F322E322D323F2A9B
:1049E000A4EF25F0A4EF25F031502D5C32502E5865
:1049F00033502F583050800A356E3450800A355865
:104A0000D8B005EF25F007EF25F045EF25F02DC0D4
:104A100035F02EC036F02FC037F030C038F0351EDC
:104A2000361E371E381E352A000E3622372238220F
:104A300031503524396E325036203A6E335037209B
:104A40003B6E345038203C6EFF0E39242D6EFF0E25
:104A50003A202E6EFF0E3B202F6EFF0E3C20306E54
:104A6000800E3D1A406C4050D8A439EF25F03BEF42
:104A700025F04DEF25F0010E2D26000E2E222F22BF
:104A800030224DEF25F04DEF25F031502D5E3250A4
:104A90002E5A33502F5A3450305A2D502E102F107A
:104AA0003010D8A456EF25F058EF25F099EF25F0F7
:104AB0004050D8A45EEF25F060EF25F099EF25F087
:104AC000000E2D6E000E2E6E000E2F6E000E306E3C
:104AD0004EEF26F04EEF26F099EF25F0D8902D36C8
:104AE0002E362F36303640AE78EF25F07AEF25F0AF
:104AF0007DEF25F02D807DEF25F040A082EF25F0A1
:104B000084EF25F088EF25F0D88040368CEF25F033
:104B1000D89040368CEF25F03F50D8B492EF25F076
:104B200094EF25F099EF25F03F0699EF25F099EFE6
:104B300025F02FAE9EEF25F0A0EF25F06EEF25F0CB
:104B4000A4EF25F0A4EF25F0000E3E6E40AEABEFD3
:104B500025F0ADEF25F0C9EF25F040C035F07F0E10
:104B60003516D8B4B6EF25F0B8EF25F0BCEF25F038
:104B7000010E3E6EC9EF25F02DA0C1EF25F0C3EF69
:104B800025F0C9EF25F0010E3E6EC9EF25F0C9EF03
:104B900025F03E50D8B4CFEF25F0D1EF25F002EF4D
:104BA00026F0010E2D26000E2E222F22302230A0BC
:104BB000DCEF25F0DEEF25F002EF26F02DC035F01A
:104BC0002EC036F02FC037F030C038F038343832CD
:104BD00037323632353235C02DF036C02EF037C080
:104BE0002FF038C030F03F28D8B4F9EF25F0FBEFB4
:104BF00025F002EF26F03F2A02EF26F002EF26F022
:104C000002EF26F03F28D8B408EF26F00AEF26F08E
:104C100014EF26F03F50D8A410EF26F012EF26F044
:104C20002AEF26F014EF26F0000E2D6E000E2E6EE9
:104C3000000E2F6E000E306E3F50D8A422EF26F0EB
:104C400024EF26F02AEF26F0000E3D6E2AEF26F024
:104C50002AEF26F03FA02FEF26F031EF26F034EFB9
:104C600026F02F8E37EF26F02F9E37EF26F0D890C4
:104C70003F30306E3DAE3FEF26F041EF26F044EF7F
:104C800026F0308E44EF26F02DC02DF02EC02EF0F1
:104C90002FC02FF030C030F04EEF26F0120013502E
:104CA000800B206E13501324276E12AE5AEF26F09D
:104CB0005CEF26F05FEF26F027805FEF26F02750AD
:104CC000D8B465EF26F067EF26F07EEF26F02728B0
:104CD000D8A46DEF26F06FEF26F079EF26F0000EE6
:104CE000106E000E116E000E126E000E136E79EF34
:104CF00026F0128E000E136E88EF26F0000E106E56
:104D0000000E116E000E126E000E136E88EF26F06C
:104D10001750800B201A17501724286E16AE93EFE9
:104D200026F095EF26F098EF26F0288098EF26F0F1
:104D30002850D8B49EEF26F0A0EF26F0B7EF26F06B
:104D40002828D8A4A6EF26F0A8EF26F0B2EF26F088
:104D5000000E146E000E156E000E166E000E176E0D
:104D6000B2EF26F0168E000E176EC1EF26F0000E81
:104D7000146E000E156E000E166E000E176EC1EF4B
:104D800026F01450151016101710D8A4CAEF26F0EC
:104D9000CCEF26F0E6EF26F0000E106E000E116E3E
:104DA000000E126E000E136E800E12127F0E131282
:104DB0002050131210C010F011C011F012C012F0E8
:104DC00013C013F05EEF28F05EEF28F02750D8A450
:104DD000ECEF26F0EEEF26F002EF27F0000E106E5B
:104DE000000E116E000E126E000E136E10C010F049
:104DF00011C011F012C012F013C013F05EEF28F0D2
:104E00005EEF28F02850186E196A181E191E184AED
:104E1000192A27501A6E1B6A18501A2619501B227D
:104E20007F0E1A24216E000E1B20226E10C01CF073
:104E300011C01DF012C01EF013C01FF0000E106E46
:104E4000000E116E000E126E000E136E000E236E19
:104E5000000E246E000E256E000E266E000E286ECB
:104E60006EEF27F02850D8B438EF27F03AEF27F04C
:104E700053EF27F0D8901C361D361E361F36D890BB
:104E8000103611361236133626AE49EF27F04BEFA7
:104E900027F04CEF27F01080D890233624362536A3
:104EA000263653EF27F014501C5C15501D58165031
:104EB0001E5817501F58D8A060EF27F062EF27F058
:104EC0006DEF27F0268C14501C5E15501D5A16509D
:104ED0001E5A17501F5A6DEF27F0282A190E286402
:104EE00074EF27F076EF27F032EF27F078EF27F016
:104EF0001C501D101E101F10D8B481EF27F083EF37
:104F000027F09FEF27F023809FEF27F09FEF27F0F8
:104F1000D890103611361236133626AE92EF27F09F
:104F200094EF27F095EF27F01080D89023362436A1
:104F3000253626362106D8A022069FEF27F012AE8E
:104F4000A4EF27F0A6EF27F088EF27F0A8EF27F0CF
:104F5000000E286E26AEAFEF27F0B1EF27F0D9EFA5
:104F600027F0FF0E2314186EFF0E2414196EFF0E87
:104F700025141A6E7F0E26141B6E185019101A1065
:104F80001B10D8B4C6EF27F0C8EF27F0CCEF27F0FE
:104F9000010E286ED9EF27F010A0D1EF27F0D3EF44
:104FA00027F0D9EF27F0010E286ED9EF27F0D9EFBF
:104FB00027F02850D8B4DFEF27F0E1EF27F009EF12
:104FC00028F0010E1026000E11221222132213A027
:104FD000ECEF27F0EEEF27F009EF28F010C018F003
:104FE00011C019F012C01AF013C01BF01B341B3291
:104FF0001A321932183218C010F019C011F01AC044
:1050000012F01BC013F0214A222A09EF28F009EF01
:1050100028F022BE14EF28F0225008E12128D8A061
:1050200014EF28F016EF28F023EF28F0000E226E80
:105030002168000E106E000E116E000E126E000E32
:10504000136E23EF28F022BE30EF28F0225006E145
:105050002104D8B02EEF28F030EF28F040EF28F0F0
:10506000000E226E000E216E000E106E000E116EEC
:10507000000E126E000E136E000E206E40EF28F030
:1050800021C027F027A047EF28F049EF28F04CEF88
:1050900028F0128E4FEF28F0129E4FEF28F0D89094
:1050A0002730136E2050131210C010F011C011F0F1
:1050B00012C012F013C013F05EEF28F01200000EC1
:1050C000176E000E166E000E106E000E0F6E6DEF56
:1050D00028F0094A0A2A6DEF28F0010E156E09C062
:1050E000D9FF0AC0DAFF200EDE18D8B47AEF28F014
:1050F0007CEF28F09AEF28F0F70E0B6EFF0E0C6E87
:1051000009C0D9FF0AC0DAFFDF500D6E0E6A0B50DE
:105110000D260C500E220E5009E1050E0D5CD8A094
:1051200094EF28F096EF28F09AEF28F0000E156E15
:105130009AEF28F015C011F0126AB0EF28F009C0FC
:10514000D9FF0AC0DAFFDF500B6E0B50026E036A04
:10515000A3EC2DF002C011F003C012F0B0EF28F064
:1051600011501210D8A4B7EF28F0B9EF28F069EF6A
:1051700028F0C7EF28F0C7EF28F0000E106E010EE0
:105180000F6EC3EF28F0094A0A2A09EF29F009C077
:10519000D9FF0AC0DAFFDF500B6E0C6A0C50000A10
:1051A000D8B4D5EF28F009EF29F00B502B0AD8B46A
:1051B000C3EF28F0060AD8B4BDEF28F009EF29F0B4
:1051C00009EF29F0D00E0B6EFF0E0C6E09C0D9FF4F
:1051D0000AC0DAFFDF500D6E0E6A0B500D260C5020
:1051E0000E220D1E0E1E0D4A0E2A16C002F017C00A
:1051F00003F0000E056E0A0E046E60EC2EF00D50EA
:105200000224166E0E500320176E094A0A2A09EF6F
:1052100029F0D00E0B6EFF0E0C6E09C0D9FF0AC02C
:10522000DAFFDF500D6E0E6A0B500D260C500E2269
:105230000E500AE10A0E0D5CD8A021EF29F024EFF0
:1052400029F0010E25EF29F0000E136E146A3AEFD3
:1052500029F009C0D9FF0AC0DAFFDF500B6E0B50EE
:10526000026E036A0EEC2EF002C013F003C014F0BD
:105270003AEF29F013501410D8A441EF29F043EF6E
:1052800029F0E2EF28F045EF29F00F501010D8A4D4
:105290004CEF29F04EEF29F05CEF29F016C00BF02F
:1052A00017C00CF00B1E0C1E0B4A0C2A0BC009F089
:1052B0000CC00AF062EF29F016C009F017C00AF01E
:1052C00062EF29F012000A6E0A50D8B46AEF29F092
:1052D0006CEF29F08EEF29F005BE73EF29F071EF26
:1052E00029F08EEF29F002C006F003C007F004C0D9
:1052F00008F005C009F0061E071E081E091E062A32
:10530000000E07220822092206C00CF007C00DF08B
:1053100008C00EF009C00FF098EF29F002C00CF0A1
:1053200003C00DF004C00EF005C00FF098EF29F097
:105330000250031004100510D8A4A1EF29F0A3EF28
:1053400029F0AFEF29F0000E026E000E036E000E82
:10535000046E000E056E50EF2AF050EF2AF0960E04
:105360000B6EBBEF29F00B2AD8900F320E320D32A4
:105370000C32BBEF29F0000E0C14066E000E0D145B
:10538000076E000E0E14086EFE0E0F14096E065006
:10539000071008100910D8A4D0EF29F0D2EF29F097
:1053A000B3EF29F0E2EF29F0E2EF29F00B2A010E2A
:1053B0000C26000E0D220E220F22D8900F320E3234
:1053C0000D320C32000E0C14066E000E0D14076E1A
:1053D000000E0E14086EFF0E0F14096E0650071013
:1053E00008100910D8A4F7EF29F0F9EF29F0D6EF4B
:1053F00029F005EF2AF005EF2AF00B06D8900C36BD
:105400000D360E360F3605EF2AF00EBE0AEF2AF0E3
:105410000CEF2AF016EF2AF0020E0B6012EF2AF0C2
:1054200014EF2AF0FDEF29F016EF2AF00BB01BEF76
:105430002AF01DEF2AF020EF2AF00E9E20EF2AF02E
:10544000D8900B320BC006F0076A086A096A06C0DA
:1054500009F0086A076A066A06500C1207500D1216
:1054600008500E1209500F120A50D8B43AEF2AF021
:105470003CEF2AF046EF2AF005BE43EF2AF041EF59
:105480002AF046EF2AF00F8E46EF2AF00CC002F009
:105490000DC003F00EC004F00FC005F050EF2AF06D
:1054A0001200433444344A6E4A50D8A45AEF2AF0CA
:1054B0005CEF2AF068EF2AF0000E416E000E426E9B
:1054C000000E436E000E446EF9EF2AF0F9EF2AF059
:1054D00041C045F042C046F043C047F044C048F0E8
:1054E000200E78EF2AF0D8904832473246324532C3
:1054F000E82E73EF2AF04550496E438EFF0E411699
:10550000FF0E4216FF0E4316000E4416960E4A5E1C
:105510004ABE8FEF2AF08DEF2AF0B3EF2AF04A50FF
:10552000800A970FD8B097EF2AF099EF2AF0A7EFEB
:105530002AF0000E416E000E426E000E436E000E09
:10554000446EF9EF2AF0F9EF2AF0A7EF2AF0D8908D
:1055500044324332423241324A3EA7EF2AF0DDEF75
:105560002AF0DDEF2AF01F0E4A64B9EF2AF0BBEFF4
:105570002AF0D1EF2AF0000E416E000E426E000EAE
:10558000436E000E446EF9EF2AF0F9EF2AF0D1EFE6
:105590002AF0D89041364236433644364A06D1EF97
:1055A0002AF04A50D8A4D7EF2AF0D9EF2AF0C9EF51
:1055B0002AF0DDEF2AF0DDEF2AF04950D8B4E3EF0E
:1055C0002AF0E5EF2AF0EFEF2AF0441E431E421EB8
:1055D000416C000E422243224422EFEF2AF041C0E8
:1055E00041F042C042F043C043F044C044F0F9EF00
:1055F0002AF01200000E146E000E136E00EF2BF056
:105600002CEC2EF0156E0D0E1518D8A40AEF2BF009
:105610000CEF2BF025EF2BF015C00CF00D6ABDEC54
:105620002EF0000E0D6E0A0E0C6EBDEC2EF0135017
:105630000E24D96E14500F20DA6E000EDF6E8DEF3F
:105640002BF08DEF2BF000EF2BF07F0E1518D8B458
:105650002CEF2BF02EEF2BF039EF2BF0080E151856
:10566000D8A435EF2BF037EF2BF05DEF2BF039EFAF
:105670002BF014BE44EF2BF0145008E11304D8A013
:1056800044EF2BF046EF2BF000EF2BF015C00CF0A1
:105690000D6ABDEC2EF0000E0D6E200E0C6EBDECF2
:1056A0002EF015C00CF00D6ABDEC2EF01306D8A03C
:1056B000140600EF2BF000EF2BF01F0E156463EFC4
:1056C0002BF065EF2BF000EF2BF01050135C145013
:1056D000800A126E1150800A1258D8B072EF2BF067
:1056E00074EF2BF000EF2BF015C00CF00D6ABDEC41
:1056F0002EF013500E24D96E14500F20DA6E15C000
:10570000DFFF134A142A00EF2BF000EF2BF000EF1D
:105710002BF000EF2BF000EF2BF01200000E146EB8
:10572000000E156E800E166E400E176E4BC002F006
:105730004CC003F0046A056A000E63EC29F002C055
:1057400010F003C011F004C012F005C013F04FECCC
:1057500026F010C041F011C042F012C043F013C057
:1057600044F051EC2AF041C04BF042C04CF0000E26
:10577000316EFF0E326E7F0E336E470E346E4BC0AD
:1057800002F04CC003F0046A056A000E63EC29F0D5
:1057900002C014F003C015F004C016F005C017F0E5
:1057A000000E106E240E116E740E126E490E136EE2
:1057B0004FEC26F010C029F011C02AF012C02BF0D7
:1057C00013C02CF0D0EC2DF029C02DF02AC02EF003
:1057D0002BC02FF02CC030F08DEC23F02DC041F009
:1057E0002EC042F02FC043F030C044F051EC2AF0FC
:1057F00041C05BF042C05CF05BC0CEFF5CC0CFFF3D
:10580000CD80000E516E000E506E11EF2CF0150E73
:105810004F6EC60EE82EFED74F2EFCD700D0504A52
:10582000512A4D50505C4E505158D8A01AEF2CF0D0
:105830001CEF2CF007EF2CF0CD901200000E0001B1
:10584000996F640E986F9CEC2EF075EC2EF0340E70
:105850001A6E100E1B6E47EC2EF0CAEC2EF0F28E74
:10586000F28C0F013891389392909292899289909C
:10587000020E4C6EBA0E4B6E0A0E4E6E9A0E4D6EA6
:105880008EEC2BF0010E0001806F000E816F89B24B
:105890004CEF2CF04FEF2CF0010E50EF2CF0000EDF
:1058A000FF0A526E524689505218FD0B5218896EEB
:1058B000060E036EB20E026EF0EC2DF0210E1A6E83
:1058C000100E1B6E47EC2EF020EC08F068EF2CF069
:1058D000010E1A6E100E1B6E47EC2EF0820E0E6E2D
:1058E000000E0F6E000E116E140E106EFAEC2AF000
:1058F00000018251D8B47FEF2CF081EF2CF08DEFB6
:105900002CF0820E096E000E0A6E5FEC28F009C0C2
:1059100096F00AC097F08DEF2CF096C04BF097C030
:105920004CF098C04DF099C04EF08EEC2BF068EF23
:105930002CF068EF2CF04EEF00F00EC0D9FF0FC036
:10594000DAFFDECFF6FFDDCFF7FF0800F550250ABE
:10595000D8A4ADEF2CF0AFEF2CF0FAEF2CF00EC086
:10596000D9FF0FC0DAFFDE2A000EDD22000E566ED0
:10597000000E556E55C059F056C05AF05768586819
:105980000EC0D9FF0FC0DAFFDECFF6FFDDCFF7FF85
:105990000800F550250AD8A4D0EF2CF0D2EF2CF057
:1059A000EBEF2CF00EC0D9FF0FC0DAFFDE2A000E9D
:1059B000DD22000E046E250E036E0CC005F00DC036
:1059C00006F01AEC2DF0000E0D6E010E0C6E19EFA4
:1059D0002DF019EF2DF00EC0D9FF0FC0DAFFDE2A2F
:1059E000000EDD22000E0D6E000E0C6E19EF2DF074
:1059F00019EF2DF00EC0D9FF0FC0DAFFDECFF6FF92
:105A0000DDCFF7FF0800F550036E046A0CC005F007
:105A10000DC006F01AEC2DF00EC0D9FF0FC0DAFF52
:105A2000DE2A000EDD22000E0D6E010E0C6E19EF47
:105A30002DF0120005500610D8B421EF2DF023EF01
:105A40002DF02EEF2DF005500610D8A42AEF2DF0E2
:105A50002CEF2DF033EF2DF02EEF2DF00350AEECA8
:105A60002EF06CEF2DF020EE04F00550D9260650F4
:105A7000DA22DE50DE10D8B440EF2DF042EF2DF0E8
:105A80005FEF2DF020EE04F00550D9260650DA2203
:105A900010EE02F00550E1260650E222DE50E65CF0
:105AA000E650800A0B6EDE50800A0B58D8B05BEFD0
:105AB0002DF05DEF2DF06CEF2DF05FEF2DF020EE6F
:105AC00002F00550D9260650DA22DE2A000EDD2229
:105AD0006CEF2DF06CEF2DF003C003F0046A71EF52
:105AE0002DF0120014C018F015C019F0000E546EFD
:105AF000000E536E90EF2DF012C00CF013C00DF09D
:105B0000180E0E6E000E0F6E16C010F017C011F0BA
:105B10009DEC2CF00C5053260D50542290EF2DF09C
:105B200018C0F6FF19C0F7FF0800F5500009D8A407
:105B30009CEF2DF09EEF2DF07CEF2DF053C012F076
:105B400054C013F01200010E086E200E021803104C
:105B5000D8B4ADEF2DF0AFEF2DF0CAEF2DF0F70E6A
:105B6000046EFF0E056E02C006F003C007F004507D
:105B7000062605500722075009E1050E065CD8A04D
:105B8000C4EF2DF0C6EF2DF0CAEF2DF0000E086E19
:105B9000CAEF2DF008C002F0036ACFEF2DF012001B
:105BA00029502A102B102C10D8B4D9EF2DF0DBEF90
:105BB0002DF0E5EF2DF0000E291A000E2A1A000E26
:105BC0002B1A800E2C1AE5EF2DF029C029F02AC0DF
:105BD0002AF02BC02BF02CC02CF0EFEF2DF0120090
:105BE000000E066E000E056E00EF2EF0150E046E10
:105BF000C60EE82EFED7042EFCD700D0054A062A92
:105C00000250055C03500658D8A009EF2EF00BEFA8
:105C10002EF0F6EF2DF00DEF2EF01200D00E046EE8
:105C2000FF0E056E02C006F003C007F00450062602
:105C30000550072207500AE10A0E065CD8A023EFA0
:105C40002EF026EF2EF0010E27EF2EF0000E026E42
:105C5000036A2BEF2EF012003AEF2EF0ABA233EFD7
:105C60002EF035EF2EF03AEF2EF0AB92AB98AB88DA
:105C70003AEF2EF09EAA3FEF2EF041EF2EF02EEFDE
:105C80002EF043EF2EF0AE5046EF2EF012001C0E19
:105C90001E6E000E1F6E000E126E000E136E1AC0E6
:105CA00014F01BC015F01E0E166E000E176E72EC6F
:105CB0002DF012C01CF013C01DF05FEF2EF012008B
:105CC00002500402F3CF06F0F4CF07F002500502B1
:105CD000F350072603500402F350072606C002F0D3
:105CE00007C003F074EF2EF01200000E0F01386FA2
:105CF000000E3A6F949C948EAC98AC9CAC8AAB9C92
:105D0000AB88AB8EB896AC94330EAF6E000EB06E0F
:105D1000120000EE60F0220EEE6AE806FDE100EEF1
:105D200053F00A0EEE6AE806FDE15D905D92000E0A
:105D3000F86E00011EEF2CF0FC0ED316D388D38A28
:105D4000D38C9B8CA4EF2EF0D3A4A9EF2EF0ABEF55
:105D50002EF0A4EF2EF0ADEF2EF01200026EB1EF98
:105D60002EF0ACA2B6EF2EF0B8EF2EF0B1EF2EF081
:105D7000BAEF2EF002C0ADFF12000CC003F00DC050
:105D800004F0000E056E000E066E1AEC2DF0C9EF41
:105D90002EF01200CD903F0ECD16CD82300ECD12DA
:0E5DA000000ECF6E000ECE6E9E909D80120003
:020000040020DA
:08000000FFFFFFFFFFFFFFFF00
:020000040030CA
:0E000000FF281E3CFFBF85FF0FC00FE00F4022
:00000001FF
