:020000040000FA
:0400000031EF00F0EC
:1000080047829EA012D043C0CEFF44C0CFFF462AED
:1000180089A002D0010E01D0000EFF0A016E89509E
:100028000118FE0B0118896E9E908C0E4618D8A4F4
:1000380012D04504D8A40FD0000E466E89A202D073
:10004800010E01D0000EFF0A016E01468950011809
:0E005800FD0B0118896E47921100D8EF29F0B8
:1010000000446967697461726520756E612066725B
:10101000657175656E7A6120696E746572613A20DA
:101020000042616368202D20626164696E657269A7
:0F1030002E0A0D000A0D52455345540A0D0000BB
:10104000030E3C6EDB0E3B6E000E3E6EB10E3D6E2F
:10105000BAEC26F0000E036E3E0E026E88EC29F00C
:10106000040E3C6E960E3B6E000E3E6E550E3D6EAF
:10107000BAEC26F0000E036E210E026E88EC29F009
:10108000030E3C6EDB0E3B6E000E3E6E380E3D6E68
:10109000BAEC26F0000E036E510E026E88EC29F0B9
:1010A000020E3C6EE30E3B6E000E3E6ECC0E3D6EAD
:1010B000BAEC26F0000E036E250E026E88EC29F0C5
:1010C000030E3C6EDB0E3B6E000E3E6E460E3D6E1A
:1010D000BAEC26F0000E036E2B0E026E88EC29F09F
:1010E000020E3C6EE30E3B6E000E3E6E3E0E3D6EFB
:1010F000BAEC26F0000E036E5B0E026E88EC29F04F
:10110000020E3C6E4B0E3B6E000E3E6EC50E3D6EEB
:10111000BAEC26F0000E036E360E026E88EC29F053
:10112000020E3C6EE30E3B6E000E3E6E380E3D6EC0
:10113000BAEC26F0000E036E270E026E88EC29F042
:10114000020E3C6E4B0E3B6E000E3E6E480E3D6E28
:10115000BAEC26F0000E036E400E026E88EC29F009
:10116000010E3C6EED0E3B6E010E3E6E100E3D6E9E
:10117000BAEC26F0000E036EDA0E026E88EC29F04F
:10118000010E3C6E710E3B6E000E3E6E700E3D6E9B
:10119000BAEC26F0000E036E100E026E88EC29F0F9
:1011A000010E3C6EED0E3B6E000E3E6E570E3D6E18
:1011B000BAEC26F0000E036E360E026E88EC29F0B3
:1011C000020E3C6E4B0E3B6E000E3E6E680E3D6E88
:1011D000BAEC26F0000E036E020E026E88EC29F0C7
:1011E000010E3C6EED0E3B6E000E3E6E480E3D6EE7
:1011F000BAEC26F0000E036E3C0E026E88EC29F06D
:10120000020E3C6E2A0E3B6E000E3E6E640E3D6E6C
:10121000BAEC26F0000E036E0C0E026E88EC29F07C
:10122000010E3C6EED0E3B6E000E3E6E4D0E3D6EA1
:10123000BAEC26F0000E036E3C0E026E88EC29F02C
:10124000020E3C6E2A0E3B6E000E3E6E680E3D6E28
:10125000BAEC26F0000E036E060E026E88EC29F042
:10126000010E3C6EED0E3B6E000E3E6E5D0E3D6E51
:10127000BAEC26F0000E036E340E026E88EC29F0F4
:10128000010E3C6ED20E3B6E000E3E6E570E3D6E52
:10129000BAEC26F0000E036E160E026E88EC29F0F2
:1012A000020E3C6E2A0E3B6E000E3E6E660E3D6ECA
:1012B000BAEC26F0000E036E160E026E88EC29F0D2
:1012C000020E3C6E930E3B6E000E3E6E640E3D6E43
:1012D000BAEC26F0000E036E120E026E88EC29F0B6
:1012E000020E3C6E2A0E3B6E000E3E6E4D0E3D6EA3
:1012F000BAEC26F0000E036E3C0E026E88EC29F06C
:10130000020E3C6E4B0E3B6E000E3E6E6C0E3D6E42
:10131000BAEC26F0000E036E8D0E026E88EC29F0FA
:10132000010E3C6EED0E3B6E000E3E6E530E3D6E9A
:10133000BAEC26F0000E036EA60E026E88EC29F0C1
:10134000030E3C6EDB0E3B6E000E3E6ED00E3D6E0D
:10135000BAEC26F0000E036E1F0E026E88EC29F028
:10136000040E3C6E960E3B6E000E3E6E570E3D6EAA
:10137000BAEC26F0000E036E190E026E88EC29F00E
:10138000030E3C6EDB0E3B6E000E3E6E3C0E3D6E61
:10139000BAEC26F0000E036E570E026E88EC29F0B0
:1013A000020E3C6EE30E3B6E000E3E6ED00E3D6EA6
:1013B000BAEC26F0000E036E2F0E026E88EC29F0B8
:1013C000030E3C6EDB0E3B6E000E3E6E420E3D6E1B
:1013D000BAEC26F0000E036E210E026E88EC29F0A6
:1013E000020E3C6EE30E3B6E000E3E6E4B0E3D6EEB
:1013F000BAEC26F0000E036E440E026E88EC29F063
:10140000020E3C6E4B0E3B6E000E3E6ECA0E3D6EE3
:10141000BAEC26F0000E036E2F0E026E88EC29F057
:10142000020E3C6EE30E3B6E000E3E6E4D0E3D6EA8
:10143000BAEC26F0000E036E290E026E88EC29F03D
:10144000020E3C6E4B0E3B6E000E3E6E4B0E3D6E22
:10145000BAEC26F0000E036E3C0E026E88EC29F00A
:10146000010E3C6EED0E3B6E010E3E6E490E3D6E62
:10147000BAEC26F0000E036EA40E026E88EC29F082
:10148000020E3C6E4B0E3B6E000E3E6E7D0E3D6EB0
:10149000BAEC26F0000E036E780E026E88EC29F08E
:1014A000020E3C6E4B0E3B6E000E3E6E7F0E3D6E8E
:1014B000BAEC26F0000E036E830E026E88EC29F063
:1014C000020E3C6E4B0E3B6E000E3E6E7A0E3D6E73
:1014D000BAEC26F0000E036E870E026E88EC29F03F
:1014E000020E3C6E4B0E3B6E000E3E6E7F0E3D6E4E
:1014F000BAEC26F0000E036E7F0E026E88EC29F027
:10150000030E3C6EDB0E3B6E000E3E6E640E3D6EB7
:10151000BAEC26F0000E036E830E026E88EC29F002
:10152000020E3C6E4B0E3B6E000E3E6E830E3D6E09
:10153000BAEC26F0000E036E7D0E026E88EC29F0E8
:10154000020E3C6E930E3B6E000E3E6E3C0E3D6EE8
:10155000BAEC26F0000E036E320E026E88EC29F013
:10156000020E3C6E930E3B6E000E3E6E3D0E3D6EC7
:10157000BAEC26F0000E036E480E026E88EC29F0DD
:10158000020E3C6E2A0E3B6E000E3E6E9B0E3D6EB2
:10159000BAEC26F0000E036E660E026E88EC29F09F
:1015A000020E3C6EE30E3B6E000E3E6E740E3D6E00
:1015B000BAEC26F0000E036E8D0E026E88EC29F058
:1015C000020E3C6EE30E3B6E000E3E6E700E3D6EE4
:1015D000BAEC26F0000E036E8D0E026E88EC29F038
:1015E000020E3C6EE30E3B6E000E3E6E700E3D6EC4
:1015F000BAEC26F0000E036E830E026E88EC29F022
:10160000020E3C6EE30E3B6E000E3E6E740E3D6E9F
:10161000BAEC26F0000E036E850E026E88EC29F0FF
:10162000040E3C6E960E3B6E000E3E6E760E3D6EC8
:10163000BAEC26F0000E036E850E026E88EC29F0DF
:10164000020E3C6EE30E3B6E000E3E6E8F0E3D6E44
:10165000BAEC26F0000E036E640E026E88EC29F0E0
:10166000030E3C6E3E0E3B6E000E3E6E3B0E3D6E1C
:10167000BAEC26F0000E036E440E026E88EC29F0E0
:10168000030E3C6E3E0E3B6E000E3E6E540E3D6EE3
:10169000BAEC26F0000E036E160E026E88EC29F0EE
:1016A000020E3C6EBA0E3B6E000E3E6E880E3D6E14
:1016B000BAEC26F0000E036E890E026E88EC29F05B
:1016C000020E3C6E2A0E3B6E000E3E6E720E3D6E9A
:1016D000BAEC26F0000E036E830E026E88EC29F041
:1016E000030E3C6E700E3B6E000E3E6E510E3D6E54
:1016F000BAEC26F0000E036E1F0E026E88EC29F085
:10170000020E3C6EE30E3B6E000E3E6E530E3D6EBF
:10171000BAEC26F0000E036E320E026E88EC29F051
:10172000030E3C6E3E0E3B6E000E3E6E660E3D6E30
:10173000BAEC26F0000E036E080E026E88EC29F05B
:10174000020E3C6EE30E3B6E000E3E6E420E3D6E90
:10175000BAEC26F0000E036E340E026E88EC29F00F
:10176000030E3C6E3E0E3B6E000E3E6E640E3D6EF2
:10177000BAEC26F0000E036E190E026E88EC29F00A
:10178000020E3C6EE30E3B6E000E3E6E530E3D6E3F
:10179000BAEC26F0000E036E250E026E88EC29F0DE
:1017A000020E3C6EBA0E3B6E000E3E6E640E3D6E37
:1017B000BAEC26F0000E036E1D0E026E88EC29F0C6
:1017C000030E3C6E3E0E3B6E000E3E6E480E3D6EAE
:1017D000BAEC26F0000E036E320E026E88EC29F091
:1017E000030E3C6EDB0E3B6E000E3E6E5F0E3D6EDA
:1017F000BAEC26F0000E036E1B0E026E88EC29F088
:10180000030E3C6E3E0E3B6E000E3E6E3E0E3D6E77
:10181000BAEC26F0000E036E400E026E88EC29F042
:10182000030E3C6E700E3B6E000E3E6E590E3D6E0A
:10183000BAEC26F0000E036E270E026E88EC29F03B
:10184000030E3C6E3E0E3B6E000E3E6E420E3D6E33
:10185000BAEC26F0000E036E380E026E88EC29F00A
:10186000030E3C6E700E3B6E000E3E6E590E3D6ECA
:10187000BAEC26F0000E036E290E026E88EC29F0F9
:10188000030E3C6E3E0E3B6E000E3E6E480E3D6EED
:10189000BAEC26F0000E036E3C0E026E88EC29F0C6
:1018A000020E3C6EE30E3B6E000E3E6E420E3D6E2F
:1018B000BAEC26F0000E036E360E026E88EC29F0AC
:1018C000030E3C6E700E3B6E000E3E6E3C0E3D6E87
:1018D000BAEC26F0000E036E420E026E88EC29F080
:1018E000020E3C6EE30E3B6E000E3E6E8D0E3D6EA4
:1018F000BAEC26F0000E036E630E026E88EC29F03F
:10190000020E3C6EE30E3B6E000E3E6E440E3D6ECC
:10191000BAEC26F0000E036E3A0E026E88EC29F047
:10192000030E3C6EDB0E3B6E000E3E6E420E3D6EB5
:10193000BAEC26F0000E036E3A0E026E88EC29F027
:10194000020E3C6EE30E3B6E000E3E6E970E3D6E39
:10195000BAEC26F0000E036E6C0E026E88EC29F0D5
:10196000020E3C6EE30E3B6E000E3E6E380E3D6E78
:10197000BAEC26F0000E036E400E026E88EC29F0E1
:10198000040E3C6E540E3B6E000E3E6E590E3D6EC4
:10199000BAEC26F0000E036E1D0E026E88EC29F0E4
:1019A000020E3C6EE30E3B6E000E3E6E7A0E3D6EF6
:1019B000BAEC26F0000E036E020E026E88EC29F0DF
:1019C000020E3C6EBA0E3B6E000E3E6E8E0E3D6EEB
:1019D000BAEC26F0000E036E650E026E88EC29F05C
:1019E000040E3C6E960E3B6E000E3E6E4B0E3D6E30
:1019F000BAEC26F0000E036E2D0E026E88EC29F074
:101A0000020E3C6EE30E3B6E000E3E6E6A0E3D6EA5
:101A1000BAEC26F0000E036E0A0E026E88EC29F076
:101A2000020E3C6EBA0E3B6E000E3E6E9B0E3D6E7D
:101A3000BAEC26F0000E036E5A0E026E88EC29F006
:101A4000040E3C6E960E3B6E000E3E6E4F0E3D6ECB
:101A5000BAEC26F0000E036E2B0E026E88EC29F015
:101A6000040E3C6E540E3B6E000E3E6E4B0E3D6EF1
:101A7000BAEC26F0000E036E360E026E88EC29F0EA
:101A8000030E3C6EDB0E3B6E000E3E6E5F0E3D6E37
:101A9000BAEC26F0000E036E360E026E88EC29F0CA
:101AA000040E3C6E540E3B6E000E3E6E4F0E3D6EAD
:101AB000BAEC26F0000E036E270E026E88EC29F0B9
:101AC000030E3C6E700E3B6E000E3E6E510E3D6E70
:101AD000BAEC26F0000E036E2B0E026E88EC29F095
:101AE000030E3C6E3E0E3B6E000E3E6E380E3D6E9B
:101AF000BAEC26F0000E036E290E026E88EC29F077
:101B0000020E3C6EE30E3B6E000E3E6E550E3D6EB9
:101B1000BAEC26F0000E036E460E026E88EC29F039
:101B2000030E3C6E700E3B6E000E3E6E660E3D6EFA
:101B3000BAEC26F0000E036E930E026E88EC29F0CC
:101B4000030E3C6E700E3B6E000E3E6E350E3D6E0B
:101B5000BAEC26F0000E036E2D0E026E88EC29F012
:101B6000030E3C6E700E3B6E000E3E6E410E3D6EDF
:101B7000BAEC26F0000E036E480E026E88EC29F0D7
:101B8000020E3C6EE30E3B6E000E3E6EDA0E3D6EB4
:101B9000BAEC26F0010E036E270E026E88EC29F0D7
:101BA000030E3C6EDB0E3B6E000E3E6EB10E3D6EC4
:101BB000BAEC26F0000E036E3E0E026E88EC29F0A1
:101BC000040E3C6E960E3B6E000E3E6E550E3D6E44
:101BD000BAEC26F0000E036E210E026E88EC29F09E
:101BE000030E3C6EDB0E3B6E000E3E6E380E3D6EFD
:101BF000BAEC26F0000E036E510E026E88EC29F04E
:101C0000020E3C6EE30E3B6E000E3E6ECC0E3D6E41
:101C1000BAEC26F0000E036E250E026E88EC29F059
:101C2000030E3C6EDB0E3B6E000E3E6E460E3D6EAE
:101C3000BAEC26F0000E036E2B0E026E88EC29F033
:101C4000020E3C6EE30E3B6E000E3E6E3E0E3D6E8F
:101C5000BAEC26F0000E036E5B0E026E88EC29F0E3
:101C6000020E3C6E4B0E3B6E000E3E6EC50E3D6E80
:101C7000BAEC26F0000E036E360E026E88EC29F0E8
:101C8000020E3C6EE30E3B6E000E3E6E380E3D6E55
:101C9000BAEC26F0000E036E270E026E88EC29F0D7
:101CA000020E3C6E4B0E3B6E000E3E6E480E3D6EBD
:101CB000BAEC26F0000E036E400E026E88EC29F09E
:101CC000010E3C6EED0E3B6E010E3E6E100E3D6E33
:101CD000BAEC26F0000E036EDA0E026E88EC29F0E4
:101CE000010E3C6E710E3B6E000E3E6E700E3D6E30
:101CF000BAEC26F0000E036E100E026E88EC29F08E
:101D0000010E3C6EED0E3B6E000E3E6E570E3D6EAC
:101D1000BAEC26F0000E036E360E026E88EC29F047
:101D2000020E3C6E4B0E3B6E000E3E6E680E3D6E1C
:101D3000BAEC26F0000E036E020E026E88EC29F05B
:101D4000010E3C6EED0E3B6E000E3E6E480E3D6E7B
:101D5000BAEC26F0000E036E3C0E026E88EC29F001
:101D6000020E3C6E2A0E3B6E000E3E6E640E3D6E01
:101D7000BAEC26F0000E036E0C0E026E88EC29F011
:101D8000010E3C6EED0E3B6E000E3E6E4D0E3D6E36
:101D9000BAEC26F0000E036E3C0E026E88EC29F0C1
:101DA000020E3C6E2A0E3B6E000E3E6E680E3D6EBD
:101DB000BAEC26F0000E036E060E026E88EC29F0D7
:101DC000010E3C6EED0E3B6E000E3E6E5D0E3D6EE6
:101DD000BAEC26F0000E036E340E026E88EC29F089
:101DE000010E3C6ED20E3B6E000E3E6E570E3D6EE7
:101DF000BAEC26F0000E036E160E026E88EC29F087
:101E0000020E3C6E2A0E3B6E000E3E6E660E3D6E5E
:101E1000BAEC26F0000E036E160E026E88EC29F066
:101E2000020E3C6E930E3B6E000E3E6E640E3D6ED7
:101E3000BAEC26F0000E036E120E026E88EC29F04A
:101E4000020E3C6E2A0E3B6E000E3E6E4D0E3D6E37
:101E5000BAEC26F0000E036E3C0E026E88EC29F000
:101E6000020E3C6E4B0E3B6E000E3E6E6C0E3D6ED7
:101E7000BAEC26F0000E036E8D0E026E88EC29F08F
:101E8000010E3C6EED0E3B6E000E3E6E530E3D6E2F
:101E9000BAEC26F0000E036EA60E026E88EC29F056
:101EA000030E3C6EDB0E3B6E000E3E6ED00E3D6EA2
:101EB000BAEC26F0000E036E1F0E026E88EC29F0BD
:101EC000040E3C6E960E3B6E000E3E6E570E3D6E3F
:101ED000BAEC26F0000E036E190E026E88EC29F0A3
:101EE000030E3C6EDB0E3B6E000E3E6E3C0E3D6EF6
:101EF000BAEC26F0000E036E570E026E88EC29F045
:101F0000020E3C6EE30E3B6E000E3E6ED00E3D6E3A
:101F1000BAEC26F0000E036E2F0E026E88EC29F04C
:101F2000030E3C6EDB0E3B6E000E3E6E420E3D6EAF
:101F3000BAEC26F0000E036E210E026E88EC29F03A
:101F4000020E3C6EE30E3B6E000E3E6E4B0E3D6E7F
:101F5000BAEC26F0000E036E440E026E88EC29F0F7
:101F6000020E3C6E4B0E3B6E000E3E6ECA0E3D6E78
:101F7000BAEC26F0000E036E2F0E026E88EC29F0EC
:101F8000020E3C6EE30E3B6E000E3E6E4D0E3D6E3D
:101F9000BAEC26F0000E036E290E026E88EC29F0D2
:101FA000020E3C6E4B0E3B6E000E3E6E4B0E3D6EB7
:101FB000BAEC26F0000E036E3C0E026E88EC29F09F
:101FC000010E3C6EED0E3B6E010E3E6E490E3D6EF7
:101FD000BAEC26F0000E036EA40E026E88EC29F017
:101FE000020E3C6E4B0E3B6E000E3E6E7D0E3D6E45
:101FF000BAEC26F0000E036E780E026E88EC29F023
:10200000020E3C6E4B0E3B6E000E3E6E7F0E3D6E22
:10201000BAEC26F0000E036E830E026E88EC29F0F7
:10202000020E3C6E4B0E3B6E000E3E6E7A0E3D6E07
:10203000BAEC26F0000E036E870E026E88EC29F0D3
:10204000020E3C6E4B0E3B6E000E3E6E7F0E3D6EE2
:10205000BAEC26F0000E036E7F0E026E88EC29F0BB
:10206000030E3C6EDB0E3B6E000E3E6E640E3D6E4C
:10207000BAEC26F0000E036E830E026E88EC29F097
:10208000020E3C6E4B0E3B6E000E3E6E830E3D6E9E
:10209000BAEC26F0000E036E7D0E026E88EC29F07D
:1020A000020E3C6E930E3B6E000E3E6E3C0E3D6E7D
:1020B000BAEC26F0000E036E320E026E88EC29F0A8
:1020C000020E3C6E930E3B6E000E3E6E3D0E3D6E5C
:1020D000BAEC26F0000E036E480E026E88EC29F072
:1020E000020E3C6E2A0E3B6E000E3E6E9B0E3D6E47
:1020F000BAEC26F0000E036E660E026E88EC29F034
:10210000020E3C6EE30E3B6E000E3E6E740E3D6E94
:10211000BAEC26F0000E036E8D0E026E88EC29F0EC
:10212000020E3C6EE30E3B6E000E3E6E700E3D6E78
:10213000BAEC26F0000E036E8D0E026E88EC29F0CC
:10214000020E3C6EE30E3B6E000E3E6E700E3D6E58
:10215000BAEC26F0000E036E830E026E88EC29F0B6
:10216000020E3C6EE30E3B6E000E3E6E740E3D6E34
:10217000BAEC26F0000E036E850E026E88EC29F094
:10218000040E3C6E960E3B6E000E3E6E760E3D6E5D
:10219000BAEC26F0000E036E850E026E88EC29F074
:1021A000020E3C6EE30E3B6E000E3E6E8F0E3D6ED9
:1021B000BAEC26F0000E036E640E026E88EC29F075
:1021C000030E3C6E3E0E3B6E000E3E6E3B0E3D6EB1
:1021D000BAEC26F0000E036E440E026E88EC29F075
:1021E000030E3C6E3E0E3B6E000E3E6E540E3D6E78
:1021F000BAEC26F0000E036E160E026E88EC29F083
:10220000020E3C6EBA0E3B6E000E3E6E880E3D6EA8
:10221000BAEC26F0000E036E890E026E88EC29F0EF
:10222000020E3C6E2A0E3B6E000E3E6E720E3D6E2E
:10223000BAEC26F0000E036E830E026E88EC29F0D5
:10224000030E3C6E700E3B6E000E3E6E510E3D6EE8
:10225000BAEC26F0000E036E1F0E026E88EC29F019
:10226000020E3C6EE30E3B6E000E3E6E530E3D6E54
:10227000BAEC26F0000E036E320E026E88EC29F0E6
:10228000030E3C6E3E0E3B6E000E3E6E660E3D6EC5
:10229000BAEC26F0000E036E080E026E88EC29F0F0
:1022A000020E3C6EE30E3B6E000E3E6E420E3D6E25
:1022B000BAEC26F0000E036E340E026E88EC29F0A4
:1022C000030E3C6E3E0E3B6E000E3E6E640E3D6E87
:1022D000BAEC26F0000E036E190E026E88EC29F09F
:1022E000020E3C6EE30E3B6E000E3E6E530E3D6ED4
:1022F000BAEC26F0000E036E250E026E88EC29F073
:10230000020E3C6EBA0E3B6E000E3E6E640E3D6ECB
:10231000BAEC26F0000E036E1D0E026E88EC29F05A
:10232000030E3C6E3E0E3B6E000E3E6E480E3D6E42
:10233000BAEC26F0000E036E320E026E88EC29F025
:10234000030E3C6EDB0E3B6E000E3E6E5F0E3D6E6E
:10235000BAEC26F0000E036E1B0E026E88EC29F01C
:10236000030E3C6E3E0E3B6E000E3E6E3E0E3D6E0C
:10237000BAEC26F0000E036E400E026E88EC29F0D7
:10238000030E3C6E700E3B6E000E3E6E590E3D6E9F
:10239000BAEC26F0000E036E270E026E88EC29F0D0
:1023A000030E3C6E3E0E3B6E000E3E6E420E3D6EC8
:1023B000BAEC26F0000E036E380E026E88EC29F09F
:1023C000030E3C6E700E3B6E000E3E6E590E3D6E5F
:1023D000BAEC26F0000E036E290E026E88EC29F08E
:1023E000030E3C6E3E0E3B6E000E3E6E480E3D6E82
:1023F000BAEC26F0000E036E3C0E026E88EC29F05B
:10240000020E3C6EE30E3B6E000E3E6E420E3D6EC3
:10241000BAEC26F0000E036E360E026E88EC29F040
:10242000030E3C6E700E3B6E000E3E6E3C0E3D6E1B
:10243000BAEC26F0000E036E420E026E88EC29F014
:10244000020E3C6EE30E3B6E000E3E6E8D0E3D6E38
:10245000BAEC26F0000E036E630E026E88EC29F0D3
:10246000020E3C6EE30E3B6E000E3E6E440E3D6E61
:10247000BAEC26F0000E036E3A0E026E88EC29F0DC
:10248000030E3C6EDB0E3B6E000E3E6E420E3D6E4A
:10249000BAEC26F0000E036E3A0E026E88EC29F0BC
:1024A000020E3C6EE30E3B6E000E3E6E970E3D6ECE
:1024B000BAEC26F0000E036E6C0E026E88EC29F06A
:1024C000020E3C6EE30E3B6E000E3E6E380E3D6E0D
:1024D000BAEC26F0000E036E400E026E88EC29F076
:1024E000040E3C6E540E3B6E000E3E6E590E3D6E59
:1024F000BAEC26F0000E036E1D0E026E88EC29F079
:10250000020E3C6EE30E3B6E000E3E6E7A0E3D6E8A
:10251000BAEC26F0000E036E020E026E88EC29F073
:10252000020E3C6EBA0E3B6E000E3E6E8E0E3D6E7F
:10253000BAEC26F0000E036E650E026E88EC29F0F0
:10254000040E3C6E960E3B6E000E3E6E4B0E3D6EC4
:10255000BAEC26F0000E036E2D0E026E88EC29F008
:10256000020E3C6EE30E3B6E000E3E6E6A0E3D6E3A
:10257000BAEC26F0000E036E0A0E026E88EC29F00B
:10258000020E3C6EBA0E3B6E000E3E6E9B0E3D6E12
:10259000BAEC26F0000E036E5A0E026E88EC29F09B
:1025A000040E3C6E960E3B6E000E3E6E4F0E3D6E60
:1025B000BAEC26F0000E036E2B0E026E88EC29F0AA
:1025C000040E3C6E540E3B6E000E3E6E4B0E3D6E86
:1025D000BAEC26F0000E036E360E026E88EC29F07F
:1025E000030E3C6EDB0E3B6E000E3E6E5F0E3D6ECC
:1025F000BAEC26F0000E036E360E026E88EC29F05F
:10260000040E3C6E540E3B6E000E3E6E4F0E3D6E41
:10261000BAEC26F0000E036E270E026E88EC29F04D
:10262000030E3C6E700E3B6E000E3E6E510E3D6E04
:10263000BAEC26F0000E036E2B0E026E88EC29F029
:10264000030E3C6E3E0E3B6E000E3E6E380E3D6E2F
:10265000BAEC26F0000E036E290E026E88EC29F00B
:10266000020E3C6EE30E3B6E000E3E6E550E3D6E4E
:10267000BAEC26F0000E036E460E026E88EC29F0CE
:10268000030E3C6E700E3B6E000E3E6E660E3D6E8F
:10269000BAEC26F0000E036E930E026E88EC29F061
:1026A000030E3C6E700E3B6E000E3E6E350E3D6EA0
:1026B000BAEC26F0000E036E2D0E026E88EC29F0A7
:1026C000030E3C6E700E3B6E000E3E6E410E3D6E74
:1026D000BAEC26F0000E036E480E026E88EC29F06C
:1026E000020E3C6EE30E3B6E000E3E6EDA0E3D6E49
:1026F000BAEC26F0010E036E320E026E88EC29F061
:10270000020E3C6EE30E3B6E000E3E6EC50E3D6E3D
:10271000BAEC26F0000E036E320E026E88EC29F041
:10272000030E3C6E700E3B6E000E3E6E530E3D6E01
:10273000BAEC26F0000E036E290E026E88EC29F02A
:10274000020E3C6EE30E3B6E000E3E6E340E3D6E8E
:10275000BAEC26F0000E036E480E026E88EC29F0EB
:10276000020E3C6E2A0E3B6E000E3E6EE30E3D6E78
:10277000BAEC26F0000E036E120E026E88EC29F001
:10278000020E3C6EE30E3B6E000E3E6E4F0E3D6E33
:10279000BAEC26F0000E036E2B0E026E88EC29F0C8
:1027A000020E3C6E2A0E3B6E000E3E6E530E3D6EC8
:1027B000BAEC26F0000E036E380E026E88EC29F09B
:1027C000010E3C6EB80E3B6E000E3E6ED20E3D6E9C
:1027D000BAEC26F0000E036E290E026E88EC29F08A
:1027E000020E3C6E2A0E3B6E000E3E6E400E3D6E9B
:1027F000BAEC26F0000E036E160E026E88EC29F07D
:10280000010E3C6EB80E3B6E000E3E6E640E3D6EC9
:10281000BAEC26F0000E036E340E026E88EC29F03E
:10282000010E3C6E710E3B6E000E3E6EFE0E3D6E56
:10283000BAEC26F0000E036EEF0E026E88EC29F063
:10284000020E3C6E0B0E3B6E010E3E6E020E3D6E96
:10285000BAEC26F0000E036EE90E026E88EC29F049
:10286000020E3C6E930E3B6E000E3E6EE10E3D6E10
:10287000BAEC26F0000E036E1B0E026E88EC29F0F7
:10288000020E3C6E6E0E3B6E000E3E6E610E3D6E95
:10289000BAEC26F0000E036E0E0E026E88EC29F0E4
:1028A000020E3C6EE30E3B6E000E3E6E4B0E3D6E16
:1028B000BAEC26F0000E036E3E0E026E88EC29F094
:1028C000030E3C6E700E3B6E000E3E6E9C0E3D6E17
:1028D000BAEC26F0000E036E480E026E88EC29F06A
:1028E000030E3C6E0F0E3B6E000E3E6E4B0E3D6EA9
:1028F000BAEC26F0000E036E290E026E88EC29F069
:10290000020E3C6EE30E3B6E000E3E6E480E3D6EB8
:10291000BAEC26F0000E036E420E026E88EC29F02F
:10292000030E3C6E0F0E3B6E000E3E6E5B0E3D6E58
:10293000BAEC26F0000E036EAC0E026E88EC29F0A5
:10294000020E3C6E930E3B6E000E3E6E530E3D6EBD
:10295000BAEC26F0000E036EA80E026E88EC29F089
:10296000030E3C6E0F0E3B6E000E3E6EDA0E3D6E99
:10297000BAEC26F0000E036E190E026E88EC29F0F8
:10298000030E3C6EDB0E3B6E000E3E6E510E3D6E36
:10299000BAEC26F0000E036E1F0E026E88EC29F0D2
:1029A000030E3C6E0F0E3B6E000E3E6E440E3D6EEF
:1029B000BAEC26F0000E036E420E026E88EC29F08F
:1029C000020E3C6E930E3B6E000E3E6EC80E3D6EC8
:1029D000BAEC26F0000E036E380E026E88EC29F079
:1029E000030E3C6E0F0E3B6E000E3E6E4D0E3D6EA6
:1029F000BAEC26F0000E036E250E026E88EC29F06C
:102A0000020E3C6E930E3B6E000E3E6E440E3D6E0B
:102A1000BAEC26F0000E036E420E026E88EC29F02E
:102A2000020E3C6E2A0E3B6E000E3E6ED00E3D6EC8
:102A3000BAEC26F0000E036E2D0E026E88EC29F023
:102A4000020E3C6E930E3B6E000E3E6E510E3D6EBE
:102A5000BAEC26F0000E036E1B0E026E88EC29F015
:102A6000020E3C6E2A0E3B6E000E3E6E480E3D6E10
:102A7000BAEC26F0000E036E420E026E88EC29F0CE
:102A8000010E3C6EB80E3B6E010E3E6EF40E3D6EB6
:102A9000BAEC26F0000E036E700E026E88EC29F080
:102AA000020E3C6E4B0E3B6E000E3E6E570E3D6EA0
:102AB000BAEC26F0000E036E210E026E88EC29F0AF
:102AC000020E3C6EE30E3B6E000E3E6E3C0E3D6E03
:102AD000BAEC26F0000E036E3C0E026E88EC29F074
:102AE000020E3C6E4B0E3B6E000E3E6E4D0E3D6E6A
:102AF000BAEC26F0000E036E360E026E88EC29F05A
:102B0000020E3C6E930E3B6E000E3E6E780E3D6ED6
:102B1000BAEC26F0000E036E080E026E88EC29F067
:102B2000020E3C6E4B0E3B6E000E3E6E4D0E3D6E29
:102B3000BAEC26F0000E036E380E026E88EC29F017
:102B4000020E3C6E930E3B6E000E3E6E6E0E3D6EA0
:102B5000BAEC26F0000E036E870E026E88EC29F0A8
:102B6000020E3C6E2A0E3B6E000E3E6E610E3D6EF6
:102B7000BAEC26F0000E036E100E026E88EC29F0FF
:102B8000020E3C6E930E3B6E000E3E6E740E3D6E5A
:102B9000BAEC26F0000E036E0E0E026E88EC29F0E1
:102BA000030E3C6E0F0E3B6E000E3E6E5B0E3D6ED6
:102BB000BAEC26F0000E036E160E026E88EC29F0B9
:102BC000020E3C6E930E3B6E000E3E6E5F0E3D6E2F
:102BD000BAEC26F0000E036E210E026E88EC29F08E
:102BE000020E3C6EE30E3B6E000E3E6E530E3D6ECB
:102BF000BAEC26F0000E036E1F0E026E88EC29F070
:102C0000020E3C6E930E3B6E000E3E6E590E3D6EF4
:102C1000BAEC26F0000E036E250E026E88EC29F049
:102C2000020E3C6EE30E3B6E000E3E6E640E3D6E79
:102C3000BAEC26F0000E036E1F0E026E88EC29F02F
:102C4000020E3C6E930E3B6E000E3E6E4D0E3D6EC0
:102C5000BAEC26F0000E036E2D0E026E88EC29F001
:102C6000020E3C6E4B0E3B6E000E3E6E5B0E3D6EDA
:102C7000BAEC26F0000E036E190E026E88EC29F0F5
:102C8000020E3C6EE30E3B6E000E3E6E3E0E3D6E3F
:102C9000BAEC26F0000E036E360E026E88EC29F0B8
:102CA000020E3C6E4B0E3B6E000E3E6E950E3D6E60
:102CB000BAEC26F0000E036E700E026E88EC29F05E
:102CC000020E3C6E4B0E3B6E000E3E6E440E3D6E91
:102CD000BAEC26F0000E036E380E026E88EC29F076
:102CE000030E3C6E0F0E3B6E000E3E6E7E0E3D6E72
:102CF000BAEC26F0000E036E7D0E026E88EC29F011
:102D0000020E3C6E2A0E3B6E000E3E6E820E3D6E33
:102D1000BAEC26F0000E036E720E026E88EC29F0FB
:102D2000030E3C6E700E3B6E000E3E6E640E3D6EEA
:102D3000BAEC26F0000E036E1B0E026E88EC29F032
:102D4000020E3C6E4B0E3B6E000E3E6E840E3D6ED0
:102D5000BAEC26F0000E036E740E026E88EC29F0B9
:102D6000020E3C6E4B0E3B6E000E3E6E440E3D6EF0
:102D7000BAEC26F0000E036E360E026E88EC29F0D7
:102D8000030E3C6EDB0E3B6E000E3E6E610E3D6E22
:102D9000BAEC26F0000E036E230E026E88EC29F0CA
:102DA000020E3C6E4B0E3B6E000E3E6E6E0E3D6E86
:102DB000BAEC26F0000E036E100E026E88EC29F0BD
:102DC000020E3C6E2A0E3B6E000E3E6E7F0E3D6E76
:102DD000BAEC26F0000E036E040E026E88EC29F0A9
:102DE000020E3C6E4B0E3B6E000E3E6E460E3D6E6E
:102DF000BAEC26F0000E036E380E026E88EC29F055
:102E0000030E3C6EDB0E3B6E000E3E6E510E3D6EB1
:102E1000BAEC26F0000E036E2B0E026E88EC29F041
:102E2000030E3C6E700E3B6E000E3E6E680E3D6EE5
:102E3000BAEC26F0000E036E1B0E026E88EC29F031
:102E4000030E3C6E0F0E3B6E000E3E6E400E3D6E4E
:102E5000BAEC26F0000E036E3C0E026E88EC29F0F0
:102E6000030E3C6E700E3B6E000E3E6E5F0E3D6EAE
:102E7000BAEC26F0000E036E140E026E88EC29F0F8
:102E8000020E3C6EE30E3B6E000E3E6E5B0E3D6E20
:102E9000BAEC26F0000E036E210E026E88EC29F0CB
:102EA000020E3C6E930E3B6E000E3E6E590E3D6E52
:102EB000BAEC26F0000E036E100E026E88EC29F0BC
:102EC000020E3C6E4B0E3B6E000E3E6E610E3D6E72
:102ED000BAEC26F0000E036E2F0E026E88EC29F07D
:102EE000020E3C6EE30E3B6E000E3E6E8B0E3D6E90
:102EF000BAEC26F0000E036E5F0E026E88EC29F02D
:102F0000020E3C6EE30E3B6E000E3E6E3A0E3D6EC0
:102F1000BAEC26F0000E036E3E0E026E88EC29F02D
:102F2000020E3C6EE30E3B6E000E3E6E4D0E3D6E8D
:102F3000BAEC26F0000E036E380E026E88EC29F013
:102F4000020E3C6E4B0E3B6E010E3E6E300E3D6E21
:102F5000BAEC26F0000E036ED20E026E88EC29F059
:102F6000020E3C6EE30E3B6E000E3E6E640E3D6E36
:102F7000BAEC26F0000E036E910E026E88EC29F07A
:102F8000020E3C6EE30E3B6E000E3E6E6C0E3D6E0E
:102F9000BAEC26F0000E036E960E026E88EC29F055
:102FA000020E3C6EE30E3B6E000E3E6E610E3D6EF9
:102FB000BAEC26F0000E036E960E026E88EC29F035
:102FC000020E3C6EE30E3B6E000E3E6E6A0E3D6ED0
:102FD000BAEC26F0000E036E930E026E88EC29F018
:102FE000040E3C6E960E3B6E000E3E6E5D0E3D6E08
:102FF000BAEC26F0000E036E910E026E88EC29F0FA
:10300000020E3C6EE30E3B6E000E3E6E830E3D6E76
:10301000BAEC26F0000E036E810E026E88EC29F0E9
:10302000030E3C6E0F0E3B6E000E3E6E420E3D6E6A
:10303000BAEC26F0000E036E380E026E88EC29F012
:10304000030E3C6E0F0E3B6E000E3E6E430E3D6E49
:10305000BAEC26F0000E036E320E026E88EC29F0F8
:10306000020E3C6E930E3B6E000E3E6E8F0E3D6E5A
:10307000BAEC26F0000E036E740E026E88EC29F096
:10308000020E3C6E930E3B6E000E3E6E780E3D6E51
:10309000BAEC26F0000E036E890E026E88EC29F061
:1030A000020E3C6E930E3B6E000E3E6E720E3D6E37
:1030B000BAEC26F0000E036E7A0E026E88EC29F050
:1030C000020E3C6E930E3B6E000E3E6E780E3D6E11
:1030D000BAEC26F0000E036E810E026E88EC29F029
:1030E000020E3C6E930E3B6E000E3E6E830E3D6EE6
:1030F000BAEC26F0000E036E700E026E88EC29F01A
:10310000040E3C6E540E3B6E000E3E6E5D0E3D6E28
:10311000BAEC26F0000E036E930E026E88EC29F0D6
:10312000020E3C6E930E3B6E000E3E6E7D0E3D6EAB
:10313000BAEC26F0000E036E6A0E026E88EC29F0DF
:10314000020E3C6EE30E3B6E000E3E6E3E0E3D6E7A
:10315000BAEC26F0000E036E360E026E88EC29F0F3
:10316000020E3C6EE30E3B6E000E3E6E590E3D6E3F
:10317000BAEC26F0000E036E290E026E88EC29F0E0
:10318000020E3C6E4B0E3B6E000E3E6E910E3D6E7F
:10319000BAEC26F0000E036E7D0E026E88EC29F06C
:1031A000030E3C6EDB0E3B6E000E3E6E720E3D6EED
:1031B000BAEC26F0000E036E780E026E88EC29F051
:1031C000040E3C6E960E3B6E000E3E6E4F0E3D6E34
:1031D000BAEC26F0000E036E290E026E88EC29F080
:1031E000030E3C6EDB0E3B6E000E3E6E400E3D6EDF
:1031F000BAEC26F0000E036E3A0E026E88EC29F04F
:10320000030E3C6E700E3B6E000E3E6E3D68BAECD7
:1032100026F0020E036E040E026E88EC29F0030EF7
:103220003C6EDB0E3B6E000E3E6E6E0E3D6EBAECDB
:1032300026F0000E036E0C0E026E88EC29F0030ED1
:103240003C6E0F0E3B6E000E3E6E3F0E3D6EBAECB6
:1032500026F0000E036E4A0E026E88EC29F0020E74
:103260003C6E930E3B6E020E3E6E3C0E3D6EBAEC13
:1032700026F0000E036EA60E026E88EC29F0030EF7
:103280003C6E0F0E3B6E000E3E6E740E3D6EBAEC41
:1032900026F0000E036E020E026E88EC29F0020E7C
:1032A0003C6E930E3B6E000E3E6E470E3D6EBAECCA
:1032B00026F0000E036E4B0E026E88EC29F0020E13
:1032C0003C6E0B0E3B6E000E3E6E5B0E3D6EBAEC1E
:1032D00026F0000E036E1B0E026E88EC29F0020E23
:1032E0003C6E930E3B6E000E3E6E5D0E3D6EBAEC74
:1032F00026F0000E036E0C0E026E88EC29F0030E11
:103300003C6E0F0E3B6E000E3E6E610E3D6EBAECD3
:1033100026F0000E036E140E026E88EC29F0020EE9
:103320003C6E930E3B6E000E3E6E3E0E3D6EBAEC52
:1033300026F0000E036E3C0E026E88EC29F0020EA1
:103340003C6E0B0E3B6E000E3E6E780E3D6EBAEC80
:1033500026F0000E036E7A0E026E88EC29F0020E43
:103360003C6E0B0E3B6E000E3E6E7E0E3D6EBAEC5A
:1033700026F0000E036E8D0E026E88EC29F0010E11
:103380003C6ED20E3B6E000E3E6E640E3D6EBAEC8D
:1033900026F0000E036E960E026E88EC29F0010EE8
:1033A0003C6E710E3B6E000E3E6E6E0E3D6EBAECC4
:1033B00026F0000E036E930E026E88EC29F0010ECB
:1033C0003C6E870E3B6E000E3E6EE50E3D6EBAEC17
:1033D00026F0000E036E1F0E026E88EC29F0010E1F
:1033E0003C6E710E3B6E000E3E6E590E3D6EBAEC99
:1033F00026F0000E036E8F0E026E88EC29F0010E8F
:103400003C6EED0E3B6E000E3E6EBB0E3D6EBAEC9A
:1034100026F0000E036E340E026E88EC29F0010EC9
:103420003C6ED20E3B6E000E3E6E610E3D6EBAECEF
:1034300026F0000E036E1B0E026E88EC29F0020EC1
:103440003C6E2A0E3B6E000E3E6E530E3D6EBAEC85
:1034500026F0000E036E2F0E026E88EC29F0020E8D
:103460003C6E930E3B6E000E3E6ECA0E3D6EBAEC85
:1034700026F0000E036E2F0E026E88EC29F0020E6D
:103480003C6E4B0E3B6E000E3E6E570E3D6EBAEC20
:1034900026F0000E036E160E026E88EC29F0020E66
:1034A0003C6E2A0E3B6E000E3E6E510E3D6EBAEC27
:1034B00026F0000E036E380E026E88EC29F0020E24
:1034C0003C6E4B0E3B6E000E3E6EB70E3D6EBAEC80
:1034D00026F0000E036E440E026E88EC29F0010EF9
:1034E0003C6EED0E3B6E000E3E6E6B0E3D6EBAEC0A
:1034F00026F0000E036E350E026E88EC29F0020EE7
:103500003C6E930E3B6E000E3E6E650E3D6EBAEC49
:1035100026F0000E036EEF0E026E88EC29F0020E0C
:103520003C6E4B0E3B6E000E3E6E5F0E3D6EBAEC77
:1035300026F0000E036E0E0E026E88EC29F0020ECD
:103540003C6EE30E3B6E000E3E6E550E3D6EBAECC9
:1035500026F0000E036E320E026E88EC29F0030E88
:103560003C6EDB0E3B6E000E3E6E640E3D6EBAECA2
:1035700026F0000E036E9C0E026E88EC29F0020EFF
:103580003C6EE30E3B6E000E3E6E460E3D6EBAEC98
:1035900026F0000E036EBB0E026E88EC29F0020EC0
:1035A0003C6E930E3B6E000E3E6E510E3D6EBAECBD
:1035B00026F0000E036E0E0E026E88EC29F0020E4D
:1035C0003C6E4B0E3B6E000E3E6E720E3D6EBAECC4
:1035D00026F0000E036E190E026E88EC29F0020E22
:1035E0003C6E2A0E3B6E000E3E6E590E3D6EBAECDE
:1035F00026F0000E036E1F0E026E88EC29F0020EFC
:103600003C6E4B0E3B6E000E3E6E340E3D6EBAECC1
:1036100026F0000E036E5B0E026E88EC29F0020E9F
:103620003C6E2A0E3B6E010E3E6E050E3D6EBAECF0
:1036300026F0000E036EFC0E026E88EC29F0020EDE
:103640003C6EE30E3B6E000E3E6EC50E3D6EBAEC58
:1036500026F0000E036E320E026E88EC29F0030E87
:103660003C6E700E3B6E000E3E6E530E3D6EBAEC1D
:1036700026F0000E036E290E026E88EC29F0020E71
:103680003C6EE30E3B6E000E3E6E340E3D6EBAECA9
:1036900026F0000E036E480E026E88EC29F0020E32
:1036A0003C6E2A0E3B6E000E3E6EE30E3D6EBAEC93
:1036B00026F0000E036E120E026E88EC29F0020E48
:1036C0003C6EE30E3B6E000E3E6E4F0E3D6EBAEC4E
:1036D00026F0000E036E2B0E026E88EC29F0020E0F
:1036E0003C6E2A0E3B6E000E3E6E530E3D6EBAECE3
:1036F00026F0000E036E380E026E88EC29F0010EE3
:103700003C6EB80E3B6E000E3E6ED20E3D6EBAECB5
:1037100026F0000E036E290E026E88EC29F0020ED0
:103720003C6E2A0E3B6E000E3E6E400E3D6EBAECB5
:1037300026F0000E036E160E026E88EC29F0010EC4
:103740003C6EB80E3B6E000E3E6E640E3D6EBAECE3
:1037500026F0000E036E340E026E88EC29F0010E86
:103760003C6E710E3B6E000E3E6EFE0E3D6EBAEC70
:1037700026F0000E036EEF0E026E88EC29F0020EAA
:103780003C6E0B0E3B6E010E3E6E020E3D6EBAECB1
:1037900026F0000E036EE90E026E88EC29F0020E90
:1037A0003C6E930E3B6E000E3E6EE10E3D6EBAEC2B
:1037B00026F0000E036E1B0E026E88EC29F0020E3E
:1037C0003C6E6E0E3B6E000E3E6E610E3D6EBAECB0
:1037D00026F0000E036E0E0E026E88EC29F0020E2B
:1037E0003C6EE30E3B6E000E3E6E4B0E3D6EBAEC31
:1037F00026F0000E036E3E0E026E88EC29F0030EDA
:103800003C6E700E3B6E000E3E6E9C0E3D6EBAEC32
:1038100026F0000E036E480E026E88EC29F0030EAF
:103820003C6E0F0E3B6E000E3E6E4B0E3D6EBAECC4
:1038300026F0000E036E290E026E88EC29F0020EAF
:103840003C6EE30E3B6E000E3E6E480E3D6EBAECD3
:1038500026F0000E036E420E026E88EC29F0030E75
:103860003C6E0F0E3B6E000E3E6E5B0E3D6EBAEC74
:1038700026F0000E036EAC0E026E88EC29F0020EEC
:103880003C6E930E3B6E000E3E6E530E3D6EBAECD8
:1038900026F0000E036EA80E026E88EC29F0030ECF
:1038A0003C6E0F0E3B6E000E3E6EDA0E3D6EBAECB5
:1038B00026F0000E036E190E026E88EC29F0030E3E
:1038C0003C6EDB0E3B6E000E3E6E510E3D6EBAEC52
:1038D00026F0000E036E1F0E026E88EC29F0030E18
:1038E0003C6E0F0E3B6E000E3E6E440E3D6EBAEC0B
:1038F00026F0000E036E420E026E88EC29F0020ED6
:103900003C6E930E3B6E000E3E6EC80E3D6EBAECE2
:1039100026F0000E036E380E026E88EC29F0030EBE
:103920003C6E0F0E3B6E000E3E6E4D0E3D6EBAECC1
:1039300026F0000E036E250E026E88EC29F0020EB2
:103940003C6E930E3B6E000E3E6E440E3D6EBAEC26
:1039500026F0000E036E420E026E88EC29F0020E75
:103960003C6E2A0E3B6E000E3E6ED00E3D6EBAECE3
:1039700026F0000E036E2D0E026E88EC29F0020E6A
:103980003C6E930E3B6E000E3E6E510E3D6EBAECD9
:1039900026F0000E036E1B0E026E88EC29F0020E5C
:1039A0003C6E2A0E3B6E000E3E6E480E3D6EBAEC2B
:1039B00026F0000E036E420E026E88EC29F0010E16
:1039C0003C6EB80E3B6E010E3E6EF40E3D6EBAECD0
:1039D00026F0000E036E700E026E88EC29F0020EC7
:1039E0003C6E4B0E3B6E000E3E6E570E3D6EBAECBB
:1039F00026F0000E036E210E026E88EC29F0020EF6
:103A00003C6EE30E3B6E000E3E6E3C0E3D6EBAEC1D
:103A100026F0000E036E3C0E026E88EC29F0020EBA
:103A20003C6E4B0E3B6E000E3E6E4D0E3D6EBAEC84
:103A300026F0000E036E360E026E88EC29F0020EA0
:103A40003C6E930E3B6E000E3E6E780E3D6EBAECF1
:103A500026F0000E036E080E026E88EC29F0020EAE
:103A60003C6E4B0E3B6E000E3E6E4D0E3D6EBAEC44
:103A700026F0000E036E380E026E88EC29F0020E5E
:103A80003C6E930E3B6E000E3E6E6E0E3D6EBAECBB
:103A900026F0000E036E870E026E88EC29F0020EEF
:103AA0003C6E2A0E3B6E000E3E6E610E3D6EBAEC11
:103AB00026F0000E036E100E026E88EC29F0020E46
:103AC0003C6E930E3B6E000E3E6E740E3D6EBAEC75
:103AD00026F0000E036E0E0E026E88EC29F0030E27
:103AE0003C6E0F0E3B6E000E3E6E5B0E3D6EBAECF2
:103AF00026F0000E036E160E026E88EC29F0020E00
:103B00003C6E930E3B6E000E3E6E5F0E3D6EBAEC49
:103B100026F0000E036E210E026E88EC29F0020ED4
:103B20003C6EE30E3B6E000E3E6E530E3D6EBAECE5
:103B300026F0000E036E1F0E026E88EC29F0020EB6
:103B40003C6E930E3B6E000E3E6E590E3D6EBAEC0F
:103B500026F0000E036E250E026E88EC29F0020E90
:103B60003C6EE30E3B6E000E3E6E640E3D6EBAEC94
:103B700026F0000E036E1F0E026E88EC29F0020E76
:103B80003C6E930E3B6E000E3E6E4D0E3D6EBAECDB
:103B900026F0000E036E2D0E026E88EC29F0020E48
:103BA0003C6E4B0E3B6E000E3E6E5B0E3D6EBAECF5
:103BB00026F0000E036E190E026E88EC29F0020E3C
:103BC0003C6EE30E3B6E000E3E6E3E0E3D6EBAEC5A
:103BD00026F0000E036E360E026E88EC29F0020EFF
:103BE0003C6E4B0E3B6E000E3E6E950E3D6EBAEC7B
:103BF00026F0000E036E700E026E88EC29F0020EA5
:103C00003C6E4B0E3B6E000E3E6E440E3D6EBAECAB
:103C100026F0000E036E380E026E88EC29F0030EBB
:103C20003C6E0F0E3B6E000E3E6E7E0E3D6EBAEC8D
:103C300026F0000E036E7D0E026E88EC29F0020E57
:103C40003C6E2A0E3B6E000E3E6E820E3D6EBAEC4E
:103C500026F0000E036E720E026E88EC29F0030E41
:103C60003C6E700E3B6E000E3E6E640E3D6EBAEC06
:103C700026F0000E036E1B0E026E88EC29F0020E79
:103C80003C6E4B0E3B6E000E3E6E840E3D6EBAECEB
:103C900026F0000E036E740E026E88EC29F0020E00
:103CA0003C6E4B0E3B6E000E3E6E440E3D6EBAEC0B
:103CB00026F0000E036E360E026E88EC29F0030E1D
:103CC0003C6EDB0E3B6E000E3E6E610E3D6EBAEC3E
:103CD00026F0000E036E230E026E88EC29F0020E11
:103CE0003C6E4B0E3B6E000E3E6E6E0E3D6EBAECA1
:103CF00026F0000E036E100E026E88EC29F0020E04
:103D00003C6E2A0E3B6E000E3E6E7F0E3D6EBAEC90
:103D100026F0000E036E040E026E88EC29F0020EEF
:103D20003C6E4B0E3B6E000E3E6E460E3D6EBAEC88
:103D300026F0000E036E380E026E88EC29F0030E9A
:103D40003C6EDB0E3B6E000E3E6E510E3D6EBAECCD
:103D500026F0000E036E2B0E026E88EC29F0030E87
:103D60003C6E700E3B6E000E3E6E680E3D6EBAEC01
:103D700026F0000E036E1B0E026E88EC29F0030E77
:103D80003C6E0F0E3B6E000E3E6E400E3D6EBAEC6A
:103D900026F0000E036E3C0E026E88EC29F0030E36
:103DA0003C6E700E3B6E000E3E6E5F0E3D6EBAECCA
:103DB00026F0000E036E140E026E88EC29F0020E3F
:103DC0003C6EE30E3B6E000E3E6E5B0E3D6EBAEC3B
:103DD00026F0000E036E210E026E88EC29F0020E12
:103DE0003C6E930E3B6E000E3E6E590E3D6EBAEC6D
:103DF00026F0000E036E100E026E88EC29F0020E03
:103E00003C6E4B0E3B6E000E3E6E610E3D6EBAEC8C
:103E100026F0000E036E2F0E026E88EC29F0020EC3
:103E20003C6EE30E3B6E000E3E6E8B0E3D6EBAECAA
:103E300026F0000E036E5F0E026E88EC29F0020E73
:103E40003C6EE30E3B6E000E3E6E3A0E3D6EBAECDB
:103E500026F0000E036E3E0E026E88EC29F0020E74
:103E60003C6EE30E3B6E000E3E6E4D0E3D6EBAECA8
:103E700026F0000E036E380E026E88EC29F0020E5A
:103E80003C6E4B0E3B6E010E3E6E300E3D6EBAEC3C
:103E900026F0000E036ED20E026E88EC29F0020EA0
:103EA0003C6EE30E3B6E000E3E6E640E3D6EBAEC51
:103EB00026F0000E036E910E026E88EC29F0020EC1
:103EC0003C6EE30E3B6E000E3E6E6C0E3D6EBAEC29
:103ED00026F0000E036E960E026E88EC29F0020E9C
:103EE0003C6EE30E3B6E000E3E6E610E3D6EBAEC14
:103EF00026F0000E036E960E026E88EC29F0020E7C
:103F00003C6EE30E3B6E000E3E6E6A0E3D6EBAECEA
:103F100026F0000E036E930E026E88EC29F0040E5C
:103F20003C6E960E3B6E000E3E6E5D0E3D6EBAEC24
:103F300026F0000E036E910E026E88EC29F0020E40
:103F40003C6EE30E3B6E000E3E6E830E3D6EBAEC91
:103F500026F0000E036E810E026E88EC29F0030E2F
:103F60003C6E0F0E3B6E000E3E6E420E3D6EBAEC86
:103F700026F0020E3C6EE30E3B6E000E3E6E400ECF
:103F80003D6EBAEC26F0000E036E2B0E026E88EC2E
:103F900029F0020E3C6EE30E3B6E000E3E6E5B0E91
:103FA0003D6EBAEC26F0000E036EEA0E026E88EC4F
:103FB00029F0020E3C6E930E3B6E000E3E6E780EA4
:103FC0003D6EBAEC26F0000E036E890E026E88EC90
:103FD00029F0020E3C6E930E3B6E000E3E6E720E8A
:103FE0003D6EBAEC26F0000E036E7A0E026E88EC7F
:103FF00029F0020E3C6E930E3B6E000E3E6E780E64
:104000003D6EBAEC26F0000E036E810E026E88EC57
:1040100029F0020E3C6E930E3B6E000E3E6E830E38
:104020003D6EBAEC26F0000E036E700E026E88EC48
:1040300029F0040E3C6E540E3B6E000E3E6E5D0E7B
:104040003D6EBAEC26F0000E036E930E026E88EC05
:1040500029F0020E3C6E930E3B6E000E3E6E7D0EFE
:104060003D6EBAEC26F0000E036E6A0E026E88EC0E
:1040700029F0020E3C6EE30E3B6E000E3E6E3E0ECD
:104080003D6EBAEC26F0000E036E360E026E88EC22
:1040900029F0020E3C6EE30E3B6E000E3E6E590E92
:1040A0003D6EBAEC26F0000E036E290E026E88EC0F
:1040B00029F0020E3C6E4B0E3B6E000E3E6E910ED2
:1040C0003D6EBAEC26F0000E036E7D0E026E88EC9B
:1040D00029F0030E3C6EDB0E3B6E000E3E6E720E40
:1040E0003D6EBAEC26F0000E036E780E026E88EC80
:1040F00029F0040E3C6E960E3B6E000E3E6E4F0E87
:104100003D6EBAEC26F0000E036E290E026E88ECAE
:1041100029F0030E3C6EDB0E3B6E000E3E6E400E31
:104120003D6EBAEC26F0000E036E3A0E026E88EC7D
:1041300029F0030E3C6E700E3B6E000E3E6E3D6825
:10414000BAEC26F0020E036E040E026E88EC29F023
:10415000030E3C6EDB0E3B6E000E3E6E6E0E3D6E31
:10416000BAEC26F0000E036E0C0E026E88EC29F0FD
:10417000030E3C6E0F0E3B6E000E3E6E3F0E3D6E0C
:10418000BAEC26F0000E036E4A0E026E88EC29F09F
:10419000020E3C6E930E3B6E020E3E6E3C0E3D6E6A
:1041A000BAEC26F0000E036EA60E026E88EC29F023
:1041B000030E3C6E0F0E3B6E000E3E6E740E3D6E97
:1041C000BAEC26F0000E036E020E026E88EC29F0A7
:1041D000020E3C6E930E3B6E000E3E6E470E3D6E21
:1041E000BAEC26F0000E036E4B0E026E88EC29F03E
:1041F000020E3C6E0B0E3B6E000E3E6E5B0E3D6E75
:10420000BAEC26F0000E036E1B0E026E88EC29F04D
:10421000020E3C6E930E3B6E000E3E6E5D0E3D6ECA
:10422000BAEC26F0000E036E0C0E026E88EC29F03C
:10423000030E3C6E0F0E3B6E000E3E6E610E3D6E29
:10424000BAEC26F0000E036E140E026E88EC29F014
:10425000020E3C6E930E3B6E000E3E6E3E0E3D6EA9
:10426000BAEC26F0000E036E3C0E026E88EC29F0CC
:10427000020E3C6E0B0E3B6E000E3E6E780E3D6ED7
:10428000BAEC26F0000E036E7A0E026E88EC29F06E
:10429000020E3C6E0B0E3B6E000E3E6E7E0E3D6EB1
:1042A000BAEC26F0000E036E8D0E026E88EC29F03B
:1042B000010E3C6ED20E3B6E000E3E6E640E3D6EE5
:1042C000BAEC26F0000E036E960E026E88EC29F012
:1042D000010E3C6E710E3B6E000E3E6E6E0E3D6E1C
:1042E000BAEC26F0000E036E930E026E88EC29F0F5
:1042F000010E3C6E870E3B6E000E3E6EE50E3D6E6F
:10430000BAEC26F0000E036E1F0E026E88EC29F048
:10431000010E3C6E710E3B6E000E3E6E590E3D6EF0
:10432000BAEC26F0000E036E8F0E026E88EC29F0B8
:10433000010E3C6EED0E3B6E000E3E6EBB0E3D6EF2
:10434000BAEC26F0000E036E340E026E88EC29F0F3
:10435000010E3C6ED20E3B6E000E3E6E610E3D6E47
:10436000BAEC26F0000E036E1B0E026E88EC29F0EC
:10437000020E3C6E2A0E3B6E000E3E6E530E3D6EDC
:10438000BAEC26F0000E036E2F0E026E88EC29F0B8
:10439000020E3C6E930E3B6E000E3E6ECA0E3D6EDC
:1043A000BAEC26F0000E036E2F0E026E88EC29F098
:1043B000020E3C6E4B0E3B6E000E3E6E570E3D6E77
:1043C000BAEC26F0000E036E160E026E88EC29F091
:1043D000020E3C6E2A0E3B6E000E3E6E510E3D6E7E
:1043E000BAEC26F0000E036E380E026E88EC29F04F
:1043F000020E3C6E4B0E3B6E000E3E6EB70E3D6ED7
:10440000BAEC26F0000E036E440E026E88EC29F022
:10441000010E3C6EED0E3B6E000E3E6E6B0E3D6E61
:10442000BAEC26F0000E036E350E026E88EC29F011
:10443000020E3C6E930E3B6E000E3E6E650E3D6EA0
:10444000BAEC26F0000E036EEF0E026E88EC29F037
:10445000020E3C6E4B0E3B6E000E3E6E5F0E3D6ECE
:10446000BAEC26F0000E036E0E0E026E88EC29F0F8
:10447000020E3C6EE30E3B6E000E3E6E550E3D6E20
:10448000BAEC26F0000E036E320E026E88EC29F0B4
:10449000030E3C6EDB0E3B6E000E3E6E640E3D6EF8
:1044A000BAEC26F0000E036E9C0E026E88EC29F02A
:1044B000020E3C6EE30E3B6E000E3E6E460E3D6EEF
:1044C000BAEC26F0000E036EBB0E026E88EC29F0EB
:1044D000020E3C6E930E3B6E000E3E6E510E3D6E14
:1044E000BAEC26F0000E036E0E0E026E88EC29F078
:1044F000020E3C6E4B0E3B6E000E3E6E720E3D6E1B
:10450000BAEC26F0000E036E190E026E88EC29F04C
:10451000020E3C6E2A0E3B6E000E3E6E590E3D6E34
:10452000BAEC26F0000E036E1F0E026E88EC29F026
:10453000020E3C6E4B0E3B6E000E3E6E340E3D6E18
:10454000BAEC26F0000E036E5B0E026E88EC29F0CA
:10455000020E3C6E2A0E3B6E010E3E6E050E3D6E47
:10456000BAEC26F012000550800B0E6E05500524A3
:10457000106E04BE10801050D8B40DD01028D8A4EE
:1045800008D0000E026E000E036E000E046E000EC8
:10459000056E048E06D0000E026E000E036E000E35
:1045A000046E000E056E0950800B0F6E0E500F1832
:1045B000D8A40E8C095009240F6E08BE0F800F502E
:1045C000D8B40DD00F28D8A408D0000E066E000E67
:1045D000076E000E086E000E096E088E06D0000EE3
:1045E000066E000E076E000E086E000E096E10506B
:1045F0000F5CD8B022D00EAC02D0800E0E1A10C0C4
:1046000011F00FC010F011C00FF002C011F006C081
:1046100002F011C006F003C011F007C003F011C092
:1046200007F004C011F008C004F011C008F005C084
:1046300011F009C005F011C009F0000E116E105004
:104640000FC00AF00B6A0A5E000E0B5A0BBE2CD08C
:104650000B5004E11A0E0A5CD8A026D002500310B9
:1046600004100510D8B402D0010E01D0000E116E56
:10467000000E026E000E036E000E046E000E056E3C
:104680000FC010F015D011A005D0D890113001093D
:10469000116E02D0D890113202B0118E053405325D
:1046A000043203320232102A0F50105CD8A0EBD72C
:1046B0000EBC28D01050D8A409D0000E026E000EF7
:1046C000036E000E046E000E056E120006500226E8
:1046D00007500322085004220950052205A071D07A
:1046E00011A005D0D89011300109116E02D0D890D8
:1046F000113202B0118E0534053204320332023217
:10470000102A5FD00650025C075003580850045826
:104710000550800A0A6E0950800A0A58D8B025D080
:104720000250065C0A6E035007580B6E045008587E
:104730000C6E055009580D6EFF0E0A24026EFF0E16
:104740000B20036EFF0E0C20046EFF0E0D20056E75
:10475000800E0E1A116C1150D8A40FD0010E022633
:10476000000E03220422052208D00650025E0750E4
:10477000035A0850045A0950055A025003100410F5
:104780000510D8A41CD01150D8A419D0000E026E68
:10479000000E036E000E046E000E056E1200D8901F
:1047A000023603360436053611BE028011A002D04F
:1047B000D88001D0D89011361050D8A4100604AE7D
:1047C000EED7000E0F6E11AE0BD011C00AF07F0EA7
:1047D0000A16D8B403D0010E0F6E02D002B0FBD778
:1047E0000F50D8B420D0010E0226000E032204225E
:1047F000052205A018D002C00AF003C00BF004C0C7
:104800000CF005C00DF00D340D320C320B320A32B3
:104810000AC002F00BC003F00CC004F00DC005F09C
:104820001028D8A4102A1028D8B403D01050D8A427
:104830000DD0000E026E000E036E000E046E000E10
:10484000056E1050D8A402D0000E0E6E10A002D03B
:10485000048E01D0049ED8901030056E0EBE058ED9
:1048600002C002F003C003F004C004F005C005F06C
:1048700012001350800B206E13501324276E12BEAB
:1048800027802750D8B40DD02728D8A408D0000EF0
:10489000106E000E116E000E126E000E136E128E50
:1048A00006D0000E106E000E116E000E126E000E7D
:1048B000136E1750800B201A17501724286E16BE3F
:1048C00028802850D8B40DD02828D8A408D0000EAD
:1048D000146E000E156E000E166E000E176E168EFC
:1048E00006D0000E146E000E156E000E166E000E31
:1048F000176E1450151016101710D8A417D0000EEC
:10490000106E000E116E000E126E000E136E800EF1
:1049100012127F0E13122050131210C010F011C08B
:1049200011F012C012F013C013F012002750D8A4D7
:1049300009D0000E106E000E116E000E126E000EE9
:10494000136E1200285027C018F0196A185E000E66
:10495000195A7F0E1824216E000E1920226E10C0E5
:104960001CF011C01DF012C01EF013C01FF0000E8D
:10497000106E000E116E000E126E000E136E000E01
:10498000236E000E246E000E256E000E266E000EA5
:10499000286E28D02850D8B411D0D8901C361D3697
:1049A0001E361F36D890103611361236133626BEF4
:1049B0001080D890233624362536263614501C5CB9
:1049C00015501D5816501E5817501F58D8A009D002
:1049D000268C14501C5E15501D5A16501E5A175026
:1049E0001F5A282A190E2864D5D71C501D101E10D6
:1049F0001F10D8B411D023800FD0D89010361136A4
:104A00001236133626BE1080D8902336243625362B
:104A100026362106D8A0220612AEEFD7000E286E49
:104A200026AE17D0FF0E2314186EFF0E2414196E35
:104A3000FF0E25141A6E7F0E26141B6E18501910C7
:104A40001A101B10D8B403D0010E286E02D010B07B
:104A5000FBD72850D8B41FD0010E1026000E11220B
:104A60001222132213A017D010C018F011C019F091
:104A700012C01AF013C01BF01B341B321A32193249
:104A8000183218C010F019C011F01AC012F01BC073
:104A900013F0214A222A22BE10D0225003E12128FD
:104AA000D8A00BD0000E226E2168000E106E000EF2
:104AB000116E000E126E000E136E22BE05D0225033
:104AC00011E12104D8B00ED0000E226E000E216E2E
:104AD000000E106E000E116E000E126E000E136EA0
:104AE000000E206E21C027F027A002D0128E01D028
:104AF000129ED8902730136E0ED70A6E0A50D8A493
:104B000005AE1AD002C006F003C007F004C008F0DA
:104B100005C009F0061E071E081E091E062A000E03
:104B200007220822092206C00CF007C00DF008C0B9
:104B30000EF009C00FF008D002C00CF003C00DF059
:104B400004C00EF005C00FF0025003100410051051
:104B5000D8A409D0000E026E000E036E000E046E83
:104B6000000E056E1200960E0B6E06D00B2AD89022
:104B70000F320E320D320C32000E0C14066E000E87
:104B80000D14076E000E0E14086EFE0E0F14096E43
:104B90000650071008100910D8B40DD0E7D70B2A1B
:104BA000010E0C26000E0D220E220F22D8900F327D
:104BB0000E320D320C32000E0C14066E000E0D1467
:104BC000076E000E0E14086EFF0E0F14096E0650CD
:104BD000071008100910D8B407D0E1D70B06D890F9
:104BE0000C360D360E360F360EBE03D0020E0B609D
:104BF000F5D70BA00E9ED8900B320BC006F0076ABB
:104C0000086A096A06C009F0086A076A066A065057
:104C10000C1207500D1208500E1209500F120A50B4
:104C2000D8A405AE01D00F8E0CC002F00DC003F069
:104C30000EC004F00FC005F01200000E176E000E3B
:104C4000166E000E106E000E0F6E02D0094A0A2A70
:104C5000010E156E09C0D9FF0AC0DAFF200EDE185A
:104C6000D8B417D0F70E0B6EFF0E0C6E09C0D9FF2B
:104C70000AC0DAFFDF500D6E0E6A0B500D260C5085
:104C80000E220E5004E1050E0D5CD8A002D0000EDD
:104C9000156E15C011F0126A11501210D8B408D058
:104CA000D5D7000E106E010E0F6E094A0A2A2ED0BB
:104CB00009C0D9FF0AC0DAFFDF500B6E0C6A0C5036
:104CC000000AD8A423D00B502B0AD8B4EED7060A7A
:104CD000D8B4E7D71BD016C002F017C003F0000EFF
:104CE000056E0A0E046EC5EC29F009C0D9FF0AC092
:104CF000DAFFDF500B6E0B50025E000E035A300ECF
:104D00000224166E000E0320176ECFD7D00E0B6E46
:104D1000FF0E0C6E09C0D9FF0AC0DAFFDF500D6E1E
:104D20000E6A0B500D260C500E220E5006E10A0E94
:104D30000D5CD8B002D0010E01D0000E136E146AC3
:104D400013501410D8A4C7D70F501010D8A40DD0EA
:104D500016C00BF017C00CF00B1E0C1E0B4A0C2AD1
:104D60000BC009F00CC00AF0120016C009F017C001
:104D70000AF01200000E146E000E156E800E166EF4
:104D8000400E176E3BC002F03CC003F0046A056A97
:104D9000000E7DEC25F002C010F003C011F004C03D
:104DA00012F005C013F039EC24F010C031F011C03E
:104DB00032F012C033F013C034F06DEC28F031C083
:104DC0003BF032C03CF03BC002F03CC003F0046A50
:104DD000056A000E7DEC25F002C014F003C015F04A
:104DE00004C016F005C017F0000E106E240E116EF0
:104DF000740E126E490E136E39EC24F010C02DF0B3
:104E000011C02EF012C02FF013C030F0000E296E2A
:104E1000FF0E2A6E7F0E2B6E470E2C6E2EEC29F0A5
:104E200029C031F02AC032F02BC033F02CC034F04E
:104E30006DEC28F031C043F032C044F043C0CEFFE7
:104E400044C0CFFFCD80000E416E000E406E0AD0F0
:104E5000150E3F6EC60EE82EFED73F2EFCD700D0B3
:104E6000404A412A3D50405C3E504158D8A0F0D7BE
:104E7000CD901200000E00019F6F640E9E6F0BEC30
:104E80002AF09EEC29F0340E1A6E100E1B6EB2EC56
:104E900029F0E9EC29F0F28EF28C0F013891389369
:104EA0009290929289928990020E3C6EBA0E3B6E5D
:104EB0000A0E3E6E9A0E3D6EBAEC26F0010E456E5D
:104EC000000E466E89A202D0010E01D0000EFF0A2C
:104ED000426E424689504218FD0B4218896E060EFA
:104EE000036EB20E026E88EC29F0210E1A6E100EBF
:104EF0001B6EB2EC29F020EC08F0010E1A6E100EB9
:104F00001B6EB2EC29F0880E0E6E000E0F6E000EB6
:104F1000116E140E106E0EEC28F000018851D8B4FA
:104F20000AD0880E096E000E0A6E1DEC26F009C02C
:104F30009CF00AC09DF09CC03BF09DC03CF09EC020
:104F40003DF09FC03EF0BAEC26F0D7D70EC0D9FF97
:104F50000FC0DAFFDECFF6FFDDCFF7FF0800F55018
:104F6000250AD8A441D00EC0D9FF0FC0DAFFDE2A2F
:104F7000000EDD22000E0001836F000E826F82C0E2
:104F800086F083C087F0846985690EC0D9FF0FC0A1
:104F9000DAFFDECFF6FFDDCFF7FF0800F550250A78
:104FA000D8A416D00EC0D9FF0FC0DAFFDE2A000E3B
:104FB000DD22000E046E250E036E0CC005F00DC040
:104FC00006F0CAEC28F0000E0D6E010E0C6E1200F9
:104FD0000EC0D9FF0FC0DAFFDE2A000EDD22000E60
:104FE0000D6E000E0C6E12000EC0D9FF0FC0DAFF5E
:104FF000DECFF6FFDDCFF7FF0800F550036E046A41
:105000000CC005F00DC006F0CAEC28F00EC0D9FFA8
:105010000FC0DAFFDE2A000EDD22D5D7000E146E97
:10502000000E136E01EC2AF0156E0D0E1518D8A4A3
:1050300014D015C00CF00D6AF6EC29F0000E0D6EC0
:105040000A0E0C6EF6EC29F013500E24D96E145093
:105050000F20DA6E000EDF6E12007F0E1518D8B426
:1050600004D0080E1518D8A41BD014BEDBD71450DA
:1050700003E11304D8A0D6D715C00CF00D6AF6ECE6
:1050800029F0000E0D6E200E0C6EF6EC29F015C006
:105090000CF00D6AF6EC29F01306D8A01406C2D75E
:1050A0001F0E1564BFD71050135C1450800A126E87
:1050B0001150800A1258D8B0B5D715C00CF00D6A3F
:1050C000F6EC29F013500E24D96E14500F20DA6E2E
:1050D00015C0DFFF134A142AA5D7333434343A6E8F
:1050E0003A50D8A409D0000E316E000E326E000E78
:1050F000336E000E346E120031C035F032C036F01F
:1051000033C037F034C038F0200E05D0D890383294
:10511000373236323532E82EF9D73550396E338E84
:10512000FF0E3116FF0E3216FF0E3316000E341628
:10513000960E3A5E3AAE0DD03A50800A970FD8A03C
:10514000D2D7D89034323332323231323A3EF9D774
:105150000DD01F0E3A6407D0C6D7D89031363236FC
:10516000333634363A063A50D8A4F7D73950D8B443
:1051700008D0341E331E321E316C000E3222332210
:10518000342231C031F032C032F033C033F034C099
:1051900034F0120005500610D8B404D005500610A3
:1051A000D8A404D0035013EC2AF029D020EE04F048
:1051B0000550D9260650DA22DE50DE10D8B416D0BB
:1051C00020EE04F00550D9260650DA2210EE02F047
:1051D0000550E1260650E222DE50E65CE650800AE9
:1051E0000B6EDE50800A0B58D8B009D020EE02F0CA
:1051F0000550D9260650DA22DE2A000EDD2203C031
:1052000003F0046A120014C018F015C019F0000E63
:105210000001816F000E806F13D012C00CF013C01C
:105220000DF0180E0E6E000E0F6E16C010F017C0A7
:1052300011F0A6EC27F00C50000180270D508123BF
:1052400018C0F6FF19C0F7FF0800F5500009D8A4F0
:10525000E4D780C012F081C013F01200000E2D1AA6
:10526000000E2E1A000E2F1A800E301A29C002F0DE
:105270002AC003F02BC004F02CC005F02DC006F0AE
:105280002EC007F02FC008F030C009F0B3EC22F0B8
:1052900002C029F003C02AF004C02BF005C02CF096
:1052A0001200010E086E200E02180310D8B414D09C
:1052B000F70E046EFF0E056E02C006F003C007F085
:1052C0000450062605500722075004E1050E065C2F
:1052D000D8A002D0000E086E08C002F0036A1200C7
:1052E000D00E046EFF0E056E02C006F003C007F07C
:1052F0000450062605500722075006E10A0E065CF8
:10530000D8B002D0010E01D0000E026E036A120066
:10531000000E066E000E056E0AD0150E046EC60E47
:10532000E82EFED7042EFCD700D0054A062A0250EC
:10533000055C03500658D8B01200EFD7000E0F01DD
:10534000386F000E3A6F949C948EAC98AC9CAC8AEB
:10535000AB9CAB88AB8EB896AC94330EAF6E000EA0
:10536000B06E12001C0E1E6E000E1F6E000E126E2E
:10537000000E136E1AC014F01BC015F01E0E166E30
:10538000000E176E03EC29F0120002500402F3CF56
:1053900006F0F4CF07F002500502F3500726035041
:1053A0000402F350072606C002F007C003F0120003
:1053B00000EE60F0280EEE6AE806FDE1466A456AF6
:1053C000446A436A47904792000EF86E00013AEF34
:1053D00027F0CD903F0ECD16CD82300ECD12000EAF
:1053E000CF6E000ECE6E9E909D8012000CC003F01A
:1053F0000DC004F0000E056E000E066ECAEC28F01B
:10540000120005D0ABA203D0AB92AB98AB889EAA9A
:10541000F9D7AE501200FC0ED316700ED3129B8C2F
:10542000D3B41200FDD7026EACA2FED702C0ADFF0E
:02543000120068
:020000040020DA
:08000000FFFFFFFFFFFFFFFF00
:020000040030CA
:0E000000FF281E3CFFBF85FF0FC00FE00F4022
:00000001FF
