:020000040000FA
:0400000048EF00F0D5
:1000080047829EA00AEF00F00CEF00F022EF00F00C
:1000180043C0CEFF44C0CFFF462A89B016EF00F098
:1000280019EF00F0010E1AEF00F0000EFF0A016E42
:1000380089500118FE0B0118896E9E908C0E461887
:10004800D8A429EF00F02BEF00F046EF00F04504AC
:10005800D8A431EF00F033EF00F046EF00F0000EC7
:10006800466E89B23AEF00F03DEF00F0010E3EEF28
:1000780000F0000EFF0A016E014689500118FD0BC1
:0C0088000118896E479211003AEF32F027
:1010000000506565672047796E74202D20496E2059
:101010007468652068616C6C206F66207468652058
:101020006D6F756E7461696E206B696E672E0A0D47
:1010300000446967697461726520756E612066722B
:10104000657175656E7A6120696E746572613A20AA
:10105000000A0D52455345540A0D0000000E3C6E27
:101060003D0E3B6E000E3E6E6A0E3D6E6DEC2EF038
:10107000000E036E6E0E026EB3EC31F0000E3C6E8D
:10108000450E3B6E000E3E6E6A0E3D6E6DEC2EF010
:10109000000E036E6E0E026EB3EC31F0000E3C6E6D
:1010A000490E3B6E000E3E6E6A0E3D6E6DEC2EF0EC
:1010B000000E036E6E0E026EB3EC31F0000E3C6E4D
:1010C000520E3B6E000E3E6E6A0E3D6E6DEC2EF0C3
:1010D000000E036E6E0E026EB3EC31F0000E3C6E2D
:1010E0005C0E3B6E000E3E6E6A0E3D6E6DEC2EF099
:1010F000000E036E6E0E026EB3EC31F0000E3C6E0D
:10110000490E3B6E000E3E6E6A0E3D6E6DEC2EF08B
:10111000000E036E6E0E026EB3EC31F0000E3C6EEC
:101120005C0E3B6E000E3E6ED50E3D6E6DEC2EF0ED
:10113000000E036EDC0E026EB3EC31F0000E3C6E5E
:10114000570E3B6E000E3E6E6A0E3D6E6DEC2EF03D
:10115000000E036E6E0E026EB3EC31F0000E3C6EAC
:10116000450E3B6E000E3E6E6A0E3D6E6DEC2EF02F
:10117000000E036E6E0E026EB3EC31F0000E3C6E8C
:10118000570E3B6E000E3E6ED50E3D6E6DEC2EF092
:10119000000E036EDC0E026EB3EC31F0000E3C6EFE
:1011A000520E3B6E000E3E6E6A0E3D6E6DEC2EF0E2
:1011B000000E036E6E0E026EB3EC31F0000E3C6E4C
:1011C000410E3B6E000E3E6E6A0E3D6E6DEC2EF0D3
:1011D000000E036E6E0E026EB3EC31F0000E3C6E2C
:1011E000520E3B6E000E3E6ED50E3D6E6DEC2EF037
:1011F000000E036EDC0E026EB3EC31F0000E3C6E9E
:101200003D0E3B6E000E3E6E6A0E3D6E6DEC2EF096
:10121000000E036E6E0E026EB3EC31F0000E3C6EEB
:10122000450E3B6E000E3E6E6A0E3D6E6DEC2EF06E
:10123000000E036E6E0E026EB3EC31F0000E3C6ECB
:10124000490E3B6E000E3E6E6A0E3D6E6DEC2EF04A
:10125000000E036E6E0E026EB3EC31F0000E3C6EAB
:10126000520E3B6E000E3E6E6A0E3D6E6DEC2EF021
:10127000000E036E6E0E026EB3EC31F0000E3C6E8B
:101280005C0E3B6E000E3E6E6A0E3D6E6DEC2EF0F7
:10129000000E036E6E0E026EB3EC31F0000E3C6E6B
:1012A000490E3B6E000E3E6E6A0E3D6E6DEC2EF0EA
:1012B000000E036E6E0E026EB3EC31F0000E3C6E4B
:1012C0005C0E3B6E000E3E6E6A0E3D6E6DEC2EF0B7
:1012D000000E036E6E0E026EB3EC31F0000E3C6E2B
:1012E0007B0E3B6E000E3E6E6A0E3D6E6DEC2EF078
:1012F000000E036E6E0E026EB3EC31F0000E3C6E0B
:101300006E0E3B6E000E3E6E6A0E3D6E6DEC2EF064
:10131000000E036E6E0E026EB3EC31F0000E3C6EEA
:101320005C0E3B6E000E3E6E6A0E3D6E6DEC2EF056
:10133000000E036E6E0E026EB3EC31F0000E3C6ECA
:10134000490E3B6E000E3E6E6A0E3D6E6DEC2EF049
:10135000000E036E6E0E026EB3EC31F0000E3C6EAA
:101360005C0E3B6E000E3E6E6A0E3D6E6DEC2EF016
:10137000000E036E6E0E026EB3EC31F0000E3C6E8A
:101380006E0E3B6E030E3E6E100E3D6E6DEC2EF03B
:10139000000E036E540E026EB3EC31F0000E3C6E84
:1013A0007B0E3B6E000E3E6E6A0E3D6E6DEC2EF0B7
:1013B000000E036E6E0E026EB3EC31F0000E3C6E4A
:1013C0008A0E3B6E000E3E6E6A0E3D6E6DEC2EF088
:1013D000000E036E6E0E026EB3EC31F0000E3C6E2A
:1013E000920E3B6E000E3E6E6A0E3D6E6DEC2EF060
:1013F000000E036E6E0E026EB3EC31F0000E3C6E0A
:10140000A40E3B6E000E3E6E6A0E3D6E6DEC2EF02D
:10141000000E036E6E0E026EB3EC31F0000E3C6EE9
:10142000B80E3B6E000E3E6E6A0E3D6E6DEC2EF0F9
:10143000000E036E6E0E026EB3EC31F0000E3C6EC9
:10144000920E3B6E000E3E6E6A0E3D6E6DEC2EF0FF
:10145000000E036E6E0E026EB3EC31F0000E3C6EA9
:10146000B80E3B6E000E3E6ED50E3D6E6DEC2EF04E
:10147000000E036EDC0E026EB3EC31F0000E3C6E1B
:10148000AE0E3B6E000E3E6E6A0E3D6E6DEC2EF0A3
:10149000000E036E6E0E026EB3EC31F0000E3C6E69
:1014A0008A0E3B6E000E3E6E6A0E3D6E6DEC2EF0A7
:1014B000000E036E6E0E026EB3EC31F0000E3C6E49
:1014C000AE0E3B6E000E3E6ED50E3D6E6DEC2EF0F8
:1014D000000E036EDC0E026EB3EC31F0000E3C6EBB
:1014E000A40E3B6E000E3E6E6A0E3D6E6DEC2EF04D
:1014F000000E036E6E0E026EB3EC31F0000E3C6E09
:10150000820E3B6E000E3E6E6A0E3D6E6DEC2EF04E
:10151000000E036E6E0E026EB3EC31F0000E3C6EE8
:10152000A40E3B6E000E3E6ED50E3D6E6DEC2EF0A1
:10153000000E036EDC0E026EB3EC31F0000E3C6E5A
:101540007B0E3B6E000E3E6E6A0E3D6E6DEC2EF015
:10155000000E036E6E0E026EB3EC31F0000E3C6EA8
:101560008A0E3B6E000E3E6E6A0E3D6E6DEC2EF0E6
:10157000000E036E6E0E026EB3EC31F0000E3C6E88
:10158000920E3B6E000E3E6E6A0E3D6E6DEC2EF0BE
:10159000000E036E6E0E026EB3EC31F0000E3C6E68
:1015A000A40E3B6E000E3E6E6A0E3D6E6DEC2EF08C
:1015B000000E036E6E0E026EB3EC31F0000E3C6E48
:1015C000B80E3B6E000E3E6E6A0E3D6E6DEC2EF058
:1015D000000E036E6E0E026EB3EC31F0000E3C6E28
:1015E000920E3B6E000E3E6E6A0E3D6E6DEC2EF05E
:1015F000000E036E6E0E026EB3EC31F0000E3C6E08
:10160000B80E3B6E000E3E6E6A0E3D6E6DEC2EF017
:10161000000E036E6E0E026EB3EC31F0000E3C6EE7
:10162000F60E3B6E000E3E6E6A0E3D6E6DEC2EF0B9
:10163000000E036E6E0E026EB3EC31F0000E3C6EC7
:10164000DC0E3B6E000E3E6E6A0E3D6E6DEC2EF0B3
:10165000000E036E6E0E026EB3EC31F0000E3C6EA7
:10166000B80E3B6E000E3E6E6A0E3D6E6DEC2EF0B7
:10167000000E036E6E0E026EB3EC31F0000E3C6E87
:10168000920E3B6E000E3E6E6A0E3D6E6DEC2EF0BD
:10169000000E036E6E0E026EB3EC31F0000E3C6E67
:1016A000B80E3B6E000E3E6E6A0E3D6E6DEC2EF077
:1016B000000E036E6E0E026EB3EC31F0000E3C6E47
:1016C000DC0E3B6E030E3E6E100E3D6E6DEC2EF08A
:1016D000000E036E540E026EB3EC31F0000E3C6E41
:1016E0005C0E3B6E000E3E6E6A0E3D6E6DEC2EF093
:1016F000000E036E6E0E026EB3EC31F0000E3C6E07
:10170000670E3B6E000E3E6E6A0E3D6E6DEC2EF067
:10171000000E036E6E0E026EB3EC31F0000E3C6EE6
:10172000740E3B6E000E3E6E6A0E3D6E6DEC2EF03A
:10173000000E036E6E0E026EB3EC31F0000E3C6EC6
:101740007B0E3B6E000E3E6E6A0E3D6E6DEC2EF013
:10175000000E036E6E0E026EB3EC31F0000E3C6EA6
:101760008A0E3B6E000E3E6E6A0E3D6E6DEC2EF0E4
:10177000000E036E6E0E026EB3EC31F0000E3C6E86
:10178000740E3B6E000E3E6E6A0E3D6E6DEC2EF0DA
:10179000000E036E6E0E026EB3EC31F0000E3C6E66
:1017A0008A0E3B6E000E3E6ED50E3D6E6DEC2EF039
:1017B000000E036EDC0E026EB3EC31F0000E3C6ED8
:1017C000920E3B6E000E3E6E6A0E3D6E6DEC2EF07C
:1017D000000E036E6E0E026EB3EC31F0000E3C6E26
:1017E000740E3B6E000E3E6E6A0E3D6E6DEC2EF07A
:1017F000000E036E6E0E026EB3EC31F0000E3C6E06
:10180000920E3B6E000E3E6ED50E3D6E6DEC2EF0D0
:10181000000E036EDC0E026EB3EC31F0000E3C6E77
:101820008A0E3B6E000E3E6E6A0E3D6E6DEC2EF023
:10183000000E036E6E0E026EB3EC31F0000E3C6EC5
:10184000740E3B6E000E3E6E6A0E3D6E6DEC2EF019
:10185000000E036E6E0E026EB3EC31F0000E3C6EA5
:101860008A0E3B6E000E3E6ED50E3D6E6DEC2EF078
:10187000000E036EDC0E026EB3EC31F0000E3C6E17
:101880005C0E3B6E000E3E6E6A0E3D6E6DEC2EF0F1
:10189000000E036E6E0E026EB3EC31F0000E3C6E65
:1018A000670E3B6E000E3E6E6A0E3D6E6DEC2EF0C6
:1018B000000E036E6E0E026EB3EC31F0000E3C6E45
:1018C000740E3B6E000E3E6E6A0E3D6E6DEC2EF099
:1018D000000E036E6E0E026EB3EC31F0000E3C6E25
:1018E0007B0E3B6E000E3E6E6A0E3D6E6DEC2EF072
:1018F000000E036E6E0E026EB3EC31F0000E3C6E05
:101900008A0E3B6E000E3E6E6A0E3D6E6DEC2EF042
:10191000000E036E6E0E026EB3EC31F0000E3C6EE4
:10192000740E3B6E000E3E6E6A0E3D6E6DEC2EF038
:10193000000E036E6E0E026EB3EC31F0000E3C6EC4
:101940008A0E3B6E000E3E6ED50E3D6E6DEC2EF097
:10195000000E036EDC0E026EB3EC31F0000E3C6E36
:10196000920E3B6E000E3E6E6A0E3D6E6DEC2EF0DA
:10197000000E036E6E0E026EB3EC31F0000E3C6E84
:10198000740E3B6E000E3E6E6A0E3D6E6DEC2EF0D8
:10199000000E036E6E0E026EB3EC31F0000E3C6E64
:1019A000920E3B6E000E3E6ED50E3D6E6DEC2EF02F
:1019B000000E036EDC0E026EB3EC31F0000E3C6ED6
:1019C0008A0E3B6E010E3E6EAA0E3D6E6DEC2EF041
:1019D000010E036EBB0E026EB3EC31F0000E3C6ED6
:1019E000B80E3B6E000E3E6E6A0E3D6E6DEC2EF034
:1019F000000E036E6E0E026EB3EC31F0000E3C6E04
:101A0000CF0E3B6E000E3E6E6A0E3D6E6DEC2EF0FC
:101A1000000E036E6E0E026EB3EC31F0000E3C6EE3
:101A2000E90E3B6E000E3E6E6A0E3D6E6DEC2EF0C2
:101A3000000E036E6E0E026EB3EC31F0000E3C6EC3
:101A4000F60E3B6E000E3E6E6A0E3D6E6DEC2EF095
:101A5000000E036E6E0E026EB3EC31F0010E3C6EA2
:101A6000150E3B6E000E3E6E6A0E3D6E6DEC2EF056
:101A7000000E036E6E0E026EB3EC31F0000E3C6E83
:101A8000E90E3B6E000E3E6E6A0E3D6E6DEC2EF062
:101A9000000E036E6E0E026EB3EC31F0010E3C6E62
:101AA000150E3B6E000E3E6ED50E3D6E6DEC2EF0AB
:101AB000000E036EDC0E026EB3EC31F0010E3C6ED4
:101AC000250E3B6E000E3E6E6A0E3D6E6DEC2EF0E6
:101AD000000E036E6E0E026EB3EC31F0000E3C6E23
:101AE000E90E3B6E000E3E6E6A0E3D6E6DEC2EF002
:101AF000000E036E6E0E026EB3EC31F0010E3C6E02
:101B0000250E3B6E000E3E6ED50E3D6E6DEC2EF03A
:101B1000000E036EDC0E026EB3EC31F0010E3C6E73
:101B2000150E3B6E000E3E6E6A0E3D6E6DEC2EF095
:101B3000000E036E6E0E026EB3EC31F0000E3C6EC2
:101B4000E90E3B6E000E3E6E6A0E3D6E6DEC2EF0A1
:101B5000000E036E6E0E026EB3EC31F0010E3C6EA1
:101B6000150E3B6E000E3E6ED50E3D6E6DEC2EF0EA
:101B7000000E036EDC0E026EB3EC31F0000E3C6E14
:101B8000B80E3B6E000E3E6E6A0E3D6E6DEC2EF092
:101B9000000E036E6E0E026EB3EC31F0000E3C6E62
:101BA000CF0E3B6E000E3E6E6A0E3D6E6DEC2EF05B
:101BB000000E036E6E0E026EB3EC31F0000E3C6E42
:101BC000E90E3B6E000E3E6E6A0E3D6E6DEC2EF021
:101BD000000E036E6E0E026EB3EC31F0000E3C6E22
:101BE000F60E3B6E000E3E6E6A0E3D6E6DEC2EF0F4
:101BF000000E036E6E0E026EB3EC31F0010E3C6E01
:101C0000150E3B6E000E3E6E6A0E3D6E6DEC2EF0B4
:101C1000000E036E6E0E026EB3EC31F0000E3C6EE1
:101C2000E90E3B6E000E3E6E6A0E3D6E6DEC2EF0C0
:101C3000000E036E6E0E026EB3EC31F0010E3C6EC0
:101C4000150E3B6E000E3E6ED50E3D6E6DEC2EF009
:101C5000000E036EDC0E026EB3EC31F0010E3C6E32
:101C6000250E3B6E000E3E6E6A0E3D6E6DEC2EF044
:101C7000000E036E6E0E026EB3EC31F0000E3C6E81
:101C8000E90E3B6E000E3E6E6A0E3D6E6DEC2EF060
:101C9000000E036E6E0E026EB3EC31F0010E3C6E60
:101CA000250E3B6E000E3E6ED50E3D6E6DEC2EF099
:101CB000000E036EDC0E026EB3EC31F0010E3C6ED2
:101CC000150E3B6E010E3E6EAA0E3D6E6DEC2EF0B3
:101CD000010E036EBB0E026EB3EC31F0000E3C6ED3
:101CE0003D0E3B6E000E3E6E670E3D6E6DEC2EF0AF
:101CF000000E036E6B0E026EB3EC31F0000E3C6E04
:101D0000450E3B6E000E3E6E670E3D6E6DEC2EF086
:101D1000000E036E6B0E026EB3EC31F0000E3C6EE3
:101D2000490E3B6E000E3E6E670E3D6E6DEC2EF062
:101D3000000E036E6B0E026EB3EC31F0000E3C6EC3
:101D4000520E3B6E000E3E6E670E3D6E6DEC2EF039
:101D5000000E036E6B0E026EB3EC31F0000E3C6EA3
:101D60005C0E3B6E000E3E6E670E3D6E6DEC2EF00F
:101D7000000E036E6B0E026EB3EC31F0000E3C6E83
:101D8000490E3B6E000E3E6E670E3D6E6DEC2EF002
:101D9000000E036E6B0E026EB3EC31F0000E3C6E63
:101DA0005C0E3B6E000E3E6ECF0E3D6E6DEC2EF067
:101DB000000E036ED60E026EB3EC31F0000E3C6ED8
:101DC000570E3B6E000E3E6E670E3D6E6DEC2EF0B4
:101DD000000E036E6B0E026EB3EC31F0000E3C6E23
:101DE000450E3B6E000E3E6E670E3D6E6DEC2EF0A6
:101DF000000E036E6B0E026EB3EC31F0000E3C6E03
:101E0000570E3B6E000E3E6ECF0E3D6E6DEC2EF00B
:101E1000000E036ED60E026EB3EC31F0000E3C6E77
:101E2000520E3B6E000E3E6E670E3D6E6DEC2EF058
:101E3000000E036E6B0E026EB3EC31F0000E3C6EC2
:101E4000410E3B6E000E3E6E670E3D6E6DEC2EF049
:101E5000000E036E6B0E026EB3EC31F0000E3C6EA2
:101E6000520E3B6E000E3E6ECF0E3D6E6DEC2EF0B0
:101E7000000E036ED60E026EB3EC31F0000E3C6E17
:101E80003D0E3B6E000E3E6E670E3D6E6DEC2EF00D
:101E9000000E036E6B0E026EB3EC31F0000E3C6E62
:101EA000450E3B6E000E3E6E670E3D6E6DEC2EF0E5
:101EB000000E036E6B0E026EB3EC31F0000E3C6E42
:101EC000490E3B6E000E3E6E670E3D6E6DEC2EF0C1
:101ED000000E036E6B0E026EB3EC31F0000E3C6E22
:101EE000520E3B6E000E3E6E670E3D6E6DEC2EF098
:101EF000000E036E6B0E026EB3EC31F0000E3C6E02
:101F00005C0E3B6E000E3E6E670E3D6E6DEC2EF06D
:101F1000000E036E6B0E026EB3EC31F0000E3C6EE1
:101F2000490E3B6E000E3E6E670E3D6E6DEC2EF060
:101F3000000E036E6B0E026EB3EC31F0000E3C6EC1
:101F40005C0E3B6E000E3E6E670E3D6E6DEC2EF02D
:101F5000000E036E6B0E026EB3EC31F0000E3C6EA1
:101F60007B0E3B6E000E3E6E670E3D6E6DEC2EF0EE
:101F7000000E036E6B0E026EB3EC31F0000E3C6E81
:101F80006E0E3B6E000E3E6E670E3D6E6DEC2EF0DB
:101F9000000E036E6B0E026EB3EC31F0000E3C6E61
:101FA0005C0E3B6E000E3E6E670E3D6E6DEC2EF0CD
:101FB000000E036E6B0E026EB3EC31F0000E3C6E41
:101FC000490E3B6E000E3E6E670E3D6E6DEC2EF0C0
:101FD000000E036E6B0E026EB3EC31F0000E3C6E21
:101FE0005C0E3B6E000E3E6E670E3D6E6DEC2EF08D
:101FF000000E036E6B0E026EB3EC31F0000E3C6E01
:102000006E0E3B6E020E3E6EFA0E3D6E6DEC2EF0C5
:10201000000E036E520E026EB3EC31F0000E3C6EF9
:102020007B0E3B6E000E3E6E670E3D6E6DEC2EF02D
:10203000000E036E6B0E026EB3EC31F0000E3C6EC0
:102040008A0E3B6E000E3E6E670E3D6E6DEC2EF0FE
:10205000000E036E6B0E026EB3EC31F0000E3C6EA0
:10206000920E3B6E000E3E6E670E3D6E6DEC2EF0D6
:10207000000E036E6B0E026EB3EC31F0000E3C6E80
:10208000A40E3B6E000E3E6E670E3D6E6DEC2EF0A4
:10209000000E036E6B0E026EB3EC31F0000E3C6E60
:1020A000B80E3B6E000E3E6E670E3D6E6DEC2EF070
:1020B000000E036E6B0E026EB3EC31F0000E3C6E40
:1020C000920E3B6E000E3E6E670E3D6E6DEC2EF076
:1020D000000E036E6B0E026EB3EC31F0000E3C6E20
:1020E000B80E3B6E000E3E6ECF0E3D6E6DEC2EF0C8
:1020F000000E036ED60E026EB3EC31F0000E3C6E95
:10210000AE0E3B6E000E3E6E670E3D6E6DEC2EF019
:10211000000E036E6B0E026EB3EC31F0000E3C6EDF
:102120008A0E3B6E000E3E6E670E3D6E6DEC2EF01D
:10213000000E036E6B0E026EB3EC31F0000E3C6EBF
:10214000AE0E3B6E000E3E6ECF0E3D6E6DEC2EF071
:10215000000E036ED60E026EB3EC31F0000E3C6E34
:10216000A40E3B6E000E3E6E670E3D6E6DEC2EF0C3
:10217000000E036E6B0E026EB3EC31F0000E3C6E7F
:10218000820E3B6E000E3E6E670E3D6E6DEC2EF0C5
:10219000000E036E6B0E026EB3EC31F0000E3C6E5F
:1021A000A40E3B6E000E3E6ECF0E3D6E6DEC2EF01B
:1021B000000E036ED60E026EB3EC31F0000E3C6ED4
:1021C0007B0E3B6E000E3E6E670E3D6E6DEC2EF08C
:1021D000000E036E6B0E026EB3EC31F0000E3C6E1F
:1021E0008A0E3B6E000E3E6E670E3D6E6DEC2EF05D
:1021F000000E036E6B0E026EB3EC31F0000E3C6EFF
:10220000920E3B6E000E3E6E670E3D6E6DEC2EF034
:10221000000E036E6B0E026EB3EC31F0000E3C6EDE
:10222000A40E3B6E000E3E6E670E3D6E6DEC2EF002
:10223000000E036E6B0E026EB3EC31F0000E3C6EBE
:10224000B80E3B6E000E3E6E670E3D6E6DEC2EF0CE
:10225000000E036E6B0E026EB3EC31F0000E3C6E9E
:10226000920E3B6E000E3E6E670E3D6E6DEC2EF0D4
:10227000000E036E6B0E026EB3EC31F0000E3C6E7E
:10228000B80E3B6E000E3E6E670E3D6E6DEC2EF08E
:10229000000E036E6B0E026EB3EC31F0000E3C6E5E
:1022A000F60E3B6E000E3E6E670E3D6E6DEC2EF030
:1022B000000E036E6B0E026EB3EC31F0000E3C6E3E
:1022C000B80E3B6E000E3E6E670E3D6E6DEC2EF04E
:1022D000000E036E6B0E026EB3EC31F0000E3C6E1E
:1022E000920E3B6E000E3E6E670E3D6E6DEC2EF054
:1022F000000E036E6B0E026EB3EC31F0000E3C6EFE
:10230000B80E3B6E000E3E6E670E3D6E6DEC2EF00D
:10231000000E036E6B0E026EB3EC31F0000E3C6EDD
:10232000F60E3B6E000E3E6E670E3D6E6DEC2EF0AF
:10233000000E036E6B0E026EB3EC31F0000E3C6EBD
:102340007B0E3B6E020E3E6EFA0E3D6E6DEC2EF075
:10235000000E036E520E026EB3EC31F0000E3C6EB6
:10236000F60E3B6E000E3E6E670E3D6E6DEC2EF06F
:10237000000E036E6B0E026EB3EC31F0010E3C6E7C
:10238000150E3B6E000E3E6E670E3D6E6DEC2EF030
:10239000000E036E6B0E026EB3EC31F0010E3C6E5C
:1023A000250E3B6E000E3E6E670E3D6E6DEC2EF000
:1023B000000E036E6B0E026EB3EC31F0010E3C6E3C
:1023C000490E3B6E000E3E6E670E3D6E6DEC2EF0BC
:1023D000000E036E6B0E026EB3EC31F0010E3C6E1C
:1023E000710E3B6E000E3E6E670E3D6E6DEC2EF074
:1023F000000E036E6B0E026EB3EC31F0010E3C6EFC
:10240000250E3B6E000E3E6E670E3D6E6DEC2EF09F
:10241000000E036E6B0E026EB3EC31F0010E3C6EDB
:10242000710E3B6E000E3E6ECF0E3D6E6DEC2EF0CB
:10243000000E036ED60E026EB3EC31F0010E3C6E50
:102440005D0E3B6E000E3E6E670E3D6E6DEC2EF027
:10245000000E036E6B0E026EB3EC31F0010E3C6E9B
:10246000150E3B6E000E3E6E670E3D6E6DEC2EF04F
:10247000000E036E6B0E026EB3EC31F0010E3C6E7B
:102480005D0E3B6E000E3E6ECF0E3D6E6DEC2EF07F
:10249000000E036ED60E026EB3EC31F0010E3C6EF0
:1024A000490E3B6E000E3E6E670E3D6E6DEC2EF0DB
:1024B000000E036E6B0E026EB3EC31F0010E3C6E3B
:1024C000050E3B6E000E3E6E670E3D6E6DEC2EF0FF
:1024D000000E036E6B0E026EB3EC31F0010E3C6E1B
:1024E000490E3B6E000E3E6ECF0E3D6E6DEC2EF033
:1024F000000E036ED60E026EB3EC31F0000E3C6E91
:10250000F60E3B6E000E3E6E670E3D6E6DEC2EF0CD
:10251000000E036E6B0E026EB3EC31F0010E3C6EDA
:10252000150E3B6E000E3E6E670E3D6E6DEC2EF08E
:10253000000E036E6B0E026EB3EC31F0010E3C6EBA
:10254000250E3B6E000E3E6E670E3D6E6DEC2EF05E
:10255000000E036E6B0E026EB3EC31F0010E3C6E9A
:10256000490E3B6E000E3E6E670E3D6E6DEC2EF01A
:10257000000E036E6B0E026EB3EC31F0010E3C6E7A
:10258000710E3B6E000E3E6E670E3D6E6DEC2EF0D2
:10259000000E036E6B0E026EB3EC31F0010E3C6E5A
:1025A000250E3B6E000E3E6E670E3D6E6DEC2EF0FE
:1025B000000E036E6B0E026EB3EC31F0010E3C6E3A
:1025C000710E3B6E000E3E6E670E3D6E6DEC2EF092
:1025D000000E036E6B0E026EB3EC31F0010E3C6E1A
:1025E000ED0E3B6E000E3E6E670E3D6E6DEC2EF0F6
:1025F000000E036E6B0E026EB3EC31F0010E3C6EFA
:10260000B80E3B6E000E3E6E670E3D6E6DEC2EF00A
:10261000000E036E6B0E026EB3EC31F0010E3C6ED9
:10262000710E3B6E000E3E6E670E3D6E6DEC2EF031
:10263000000E036E6B0E026EB3EC31F0010E3C6EB9
:10264000250E3B6E000E3E6E670E3D6E6DEC2EF05D
:10265000000E036E6B0E026EB3EC31F0010E3C6E99
:10266000710E3B6E000E3E6E670E3D6E6DEC2EF0F1
:10267000000E036E6B0E026EB3EC31F0010E3C6E79
:10268000B80E3B6E020E3E6EFA0E3D6E6DEC2EF0F5
:10269000000E036E520E026EB3EC31F0010E3C6E72
:1026A000ED0E3B6E000E3E6E670E3D6E6DEC2EF035
:1026B000000E036E6B0E026EB3EC31F0020E3C6E38
:1026C0002A0E3B6E000E3E6E670E3D6E6DEC2EF0D8
:1026D000000E036E6B0E026EB3EC31F0020E3C6E18
:1026E0004B0E3B6E000E3E6E670E3D6E6DEC2EF097
:1026F000000E036E6B0E026EB3EC31F0020E3C6EF8
:10270000930E3B6E000E3E6E670E3D6E6DEC2EF02E
:10271000000E036E6B0E026EB3EC31F0020E3C6ED7
:10272000E30E3B6E000E3E6E670E3D6E6DEC2EF0BE
:10273000000E036E6B0E026EB3EC31F0020E3C6EB7
:102740004B0E3B6E000E3E6E670E3D6E6DEC2EF036
:10275000000E036E6B0E026EB3EC31F0020E3C6E97
:10276000E30E3B6E000E3E6ECF0E3D6E6DEC2EF016
:10277000000E036ED60E026EB3EC31F0020E3C6E0C
:10278000BA0E3B6E000E3E6E670E3D6E6DEC2EF087
:10279000000E036E6B0E026EB3EC31F0020E3C6E57
:1027A0002A0E3B6E000E3E6E670E3D6E6DEC2EF0F7
:1027B000000E036E6B0E026EB3EC31F0020E3C6E37
:1027C000BA0E3B6E000E3E6ECF0E3D6E6DEC2EF0DF
:1027D000000E036ED60E026EB3EC31F0020E3C6EAC
:1027E000930E3B6E000E3E6E670E3D6E6DEC2EF04E
:1027F000000E036E6B0E026EB3EC31F0020E3C6EF7
:102800000B0E3B6E000E3E6E670E3D6E6DEC2EF0B5
:10281000000E036E6B0E026EB3EC31F0020E3C6ED6
:10282000930E3B6E000E3E6ECF0E3D6E6DEC2EF0A5
:10283000000E036ED60E026EB3EC31F0010E3C6E4C
:10284000ED0E3B6E000E3E6E670E3D6E6DEC2EF093
:10285000000E036E6B0E026EB3EC31F0020E3C6E96
:102860002A0E3B6E000E3E6E670E3D6E6DEC2EF036
:10287000000E036E6B0E026EB3EC31F0020E3C6E76
:102880004B0E3B6E000E3E6E670E3D6E6DEC2EF0F5
:10289000000E036E6B0E026EB3EC31F0020E3C6E56
:1028A000930E3B6E000E3E6E670E3D6E6DEC2EF08D
:1028B000000E036E6B0E026EB3EC31F0020E3C6E36
:1028C000E30E3B6E000E3E6E670E3D6E6DEC2EF01D
:1028D000000E036E6B0E026EB3EC31F0020E3C6E16
:1028E0004B0E3B6E000E3E6E670E3D6E6DEC2EF095
:1028F000000E036E6B0E026EB3EC31F0020E3C6EF6
:10290000E30E3B6E000E3E6E670E3D6E6DEC2EF0DC
:10291000000E036E6B0E026EB3EC31F0030E3C6ED4
:10292000DB0E3B6E000E3E6E670E3D6E6DEC2EF0C4
:10293000000E036E6B0E026EB3EC31F0030E3C6EB4
:10294000700E3B6E000E3E6E670E3D6E6DEC2EF00F
:10295000000E036E6B0E026EB3EC31F0020E3C6E95
:10296000E30E3B6E000E3E6E670E3D6E6DEC2EF07C
:10297000000E036E6B0E026EB3EC31F0020E3C6E75
:102980004B0E3B6E000E3E6E670E3D6E6DEC2EF0F4
:10299000000E036E6B0E026EB3EC31F0020E3C6E55
:1029A000E30E3B6E000E3E6E670E3D6E6DEC2EF03C
:1029B000000E036E6B0E026EB3EC31F0030E3C6E34
:1029C000700E3B6E020E3E6EFA0E3D6E6DEC2EF0FA
:1029D000000E036E520E026EB3EC31F0010E3C6E2F
:1029E000710E3B6E000E3E6E670E3D6E6DEC2EF06E
:1029F000000E036E6B0E026EB3EC31F0010E3C6EF6
:102A00009F0E3B6E000E3E6E670E3D6E6DEC2EF01F
:102A1000000E036E6B0E026EB3EC31F0010E3C6ED5
:102A2000D20E3B6E000E3E6E670E3D6E6DEC2EF0CC
:102A3000000E036E6B0E026EB3EC31F0010E3C6EB5
:102A4000ED0E3B6E000E3E6E670E3D6E6DEC2EF091
:102A5000000E036E6B0E026EB3EC31F0020E3C6E94
:102A60002A0E3B6E000E3E6E670E3D6E6DEC2EF034
:102A7000000E036E6B0E026EB3EC31F0010E3C6E75
:102A8000D20E3B6E000E3E6E670E3D6E6DEC2EF06C
:102A9000000E036E6B0E026EB3EC31F0020E3C6E54
:102AA0002A0E3B6E000E3E6ECF0E3D6E6DEC2EF08C
:102AB000000E036ED60E026EB3EC31F0020E3C6EC9
:102AC0004B0E3B6E000E3E6E670E3D6E6DEC2EF0B3
:102AD000000E036E6B0E026EB3EC31F0010E3C6E15
:102AE000D20E3B6E000E3E6E670E3D6E6DEC2EF00C
:102AF000000E036E6B0E026EB3EC31F0020E3C6EF4
:102B00004B0E3B6E000E3E6ECF0E3D6E6DEC2EF00A
:102B1000000E036ED60E026EB3EC31F0020E3C6E68
:102B20002A0E3B6E000E3E6E670E3D6E6DEC2EF073
:102B3000000E036E6B0E026EB3EC31F0010E3C6EB4
:102B4000D20E3B6E000E3E6E670E3D6E6DEC2EF0AB
:102B5000000E036E6B0E026EB3EC31F0020E3C6E93
:102B60002A0E3B6E000E3E6ECF0E3D6E6DEC2EF0CB
:102B7000000E036ED60E026EB3EC31F0010E3C6E09
:102B8000710E3B6E000E3E6E670E3D6E6DEC2EF0CC
:102B9000000E036E6B0E026EB3EC31F0010E3C6E54
:102BA0009F0E3B6E000E3E6E670E3D6E6DEC2EF07E
:102BB000000E036E6B0E026EB3EC31F0010E3C6E34
:102BC000D20E3B6E000E3E6E670E3D6E6DEC2EF02B
:102BD000000E036E6B0E026EB3EC31F0010E3C6E14
:102BE000ED0E3B6E000E3E6E670E3D6E6DEC2EF0F0
:102BF000000E036E6B0E026EB3EC31F0020E3C6EF3
:102C00002A0E3B6E000E3E6E670E3D6E6DEC2EF092
:102C1000000E036E6B0E026EB3EC31F0010E3C6ED3
:102C2000D20E3B6E000E3E6E670E3D6E6DEC2EF0CA
:102C3000000E036E6B0E026EB3EC31F0020E3C6EB2
:102C40002A0E3B6E000E3E6ECF0E3D6E6DEC2EF0EA
:102C5000000E036ED60E026EB3EC31F0020E3C6E27
:102C60004B0E3B6E000E3E6E670E3D6E6DEC2EF011
:102C7000000E036E6B0E026EB3EC31F0010E3C6E73
:102C8000D20E3B6E000E3E6E670E3D6E6DEC2EF06A
:102C9000000E036E6B0E026EB3EC31F0020E3C6E52
:102CA0004B0E3B6E000E3E6ECF0E3D6E6DEC2EF069
:102CB000000E036ED60E026EB3EC31F0020E3C6EC7
:102CC0002A0E3B6E010E3E6E9E0E3D6E6DEC2EF09A
:102CD000000E036E080E026EB3EC31F0010E3C6E76
:102CE000D20E3B6E010E3E6E7D0E3D6E6DEC2EF0F3
:102CF000000E036E290E026EB3EC31F0020E3C6E34
:102D0000E30E3B6E000E3E6E670E3D6E6DEC2EF0D8
:102D1000000E036E6B0E026EB3EC31F0030E3C6ED0
:102D20003E0E3B6E000E3E6E670E3D6E6DEC2EF05D
:102D3000000E036E6B0E026EB3EC31F0030E3C6EB0
:102D4000A40E3B6E000E3E6E670E3D6E6DEC2EF0D7
:102D5000000E036E6B0E026EB3EC31F0030E3C6E90
:102D6000DB0E3B6E000E3E6E670E3D6E6DEC2EF080
:102D7000000E036E6B0E026EB3EC31F0040E3C6E6F
:102D8000540E3B6E000E3E6E670E3D6E6DEC2EF0E7
:102D9000000E036E6B0E026EB3EC31F0030E3C6E50
:102DA000A40E3B6E000E3E6E670E3D6E6DEC2EF077
:102DB000000E036E6B0E026EB3EC31F0040E3C6E2F
:102DC000540E3B6E000E3E6ECF0E3D6E6DEC2EF03F
:102DD000000E036ED60E026EB3EC31F0040E3C6EA4
:102DE000960E3B6E000E3E6E670E3D6E6DEC2EF045
:102DF000000E036E6B0E026EB3EC31F0030E3C6EF0
:102E0000A40E3B6E000E3E6E670E3D6E6DEC2EF016
:102E1000000E036E6B0E026EB3EC31F0040E3C6ECE
:102E2000960E3B6E000E3E6ECF0E3D6E6DEC2EF09C
:102E3000000E036ED60E026EB3EC31F0040E3C6E43
:102E4000540E3B6E000E3E6E670E3D6E6DEC2EF026
:102E5000000E036E6B0E026EB3EC31F0030E3C6E8F
:102E6000A40E3B6E000E3E6E670E3D6E6DEC2EF0B6
:102E7000000E036E6B0E026EB3EC31F0040E3C6E6E
:102E8000540E3B6E000E3E6ECF0E3D6E6DEC2EF07E
:102E9000000E036ED60E026EB3EC31F0020E3C6EE5
:102EA000E30E3B6E000E3E6E670E3D6E6DEC2EF037
:102EB000000E036E6B0E026EB3EC31F0030E3C6E2F
:102EC0003E0E3B6E000E3E6E670E3D6E6DEC2EF0BC
:102ED000000E036E6B0E026EB3EC31F0030E3C6E0F
:102EE000A40E3B6E000E3E6E670E3D6E6DEC2EF036
:102EF000000E036E6B0E026EB3EC31F0030E3C6EEF
:102F0000DB0E3B6E000E3E6E670E3D6E6DEC2EF0DE
:102F1000000E036E6B0E026EB3EC31F0040E3C6ECD
:102F2000540E3B6E000E3E6E670E3D6E6DEC2EF045
:102F3000000E036E6B0E026EB3EC31F0030E3C6EAE
:102F4000A40E3B6E000E3E6E670E3D6E6DEC2EF0D5
:102F5000000E036E6B0E026EB3EC31F0040E3C6E8D
:102F6000540E3B6E000E3E6ECF0E3D6E6DEC2EF09D
:102F7000000E036ED60E026EB3EC31F0040E3C6E02
:102F8000960E3B6E000E3E6E670E3D6E6DEC2EF0A3
:102F9000000E036E6B0E026EB3EC31F0030E3C6E4E
:102FA000A40E3B6E000E3E6E670E3D6E6DEC2EF075
:102FB000000E036E6B0E026EB3EC31F0040E3C6E2D
:102FC000960E3B6E000E3E6ECF0E3D6E6DEC2EF0FB
:102FD000000E036ED60E026EB3EC31F0040E3C6EA2
:102FE000540E3B6E010E3E6E9E0E3D6E6DEC2EF04D
:102FF000000E036E080E026EB3EC31F0030E3C6E51
:10300000A40E3B6E010E3E6E7D0E3D6E6DEC2EF0FD
:10301000000E036E290E026EB3EC31F0000E3C6E12
:10302000F60E3B6E000E3E6E650E3D6E6DEC2EF0A4
:10303000000E036E690E026EB3EC31F0010E3C6EB1
:10304000150E3B6E000E3E6E650E3D6E6DEC2EF065
:10305000000E036E690E026EB3EC31F0010E3C6E91
:10306000250E3B6E000E3E6E650E3D6E6DEC2EF035
:10307000000E036E690E026EB3EC31F0010E3C6E71
:10308000490E3B6E000E3E6E650E3D6E6DEC2EF0F1
:10309000000E036E690E026EB3EC31F0010E3C6E51
:1030A000710E3B6E000E3E6E650E3D6E6DEC2EF0A9
:1030B000000E036E690E026EB3EC31F0010E3C6E31
:1030C000250E3B6E000E3E6E650E3D6E6DEC2EF0D5
:1030D000000E036E690E026EB3EC31F0010E3C6E11
:1030E000710E3B6E000E3E6ECB0E3D6E6DEC2EF003
:1030F000000E036ED20E026EB3EC31F0010E3C6E88
:103100005D0E3B6E000E3E6E650E3D6E6DEC2EF05C
:10311000000E036E690E026EB3EC31F0010E3C6ED0
:10312000150E3B6E000E3E6E650E3D6E6DEC2EF084
:10313000000E036E690E026EB3EC31F0010E3C6EB0
:103140005D0E3B6E000E3E6ECB0E3D6E6DEC2EF0B6
:10315000000E036ED20E026EB3EC31F0010E3C6E27
:10316000490E3B6E000E3E6E650E3D6E6DEC2EF010
:10317000000E036E690E026EB3EC31F0010E3C6E70
:10318000050E3B6E000E3E6E650E3D6E6DEC2EF034
:10319000000E036E690E026EB3EC31F0010E3C6E50
:1031A000490E3B6E000E3E6ECB0E3D6E6DEC2EF06A
:1031B000000E036ED20E026EB3EC31F0000E3C6EC8
:1031C000F60E3B6E000E3E6E650E3D6E6DEC2EF003
:1031D000000E036E690E026EB3EC31F0010E3C6E10
:1031E000150E3B6E000E3E6E650E3D6E6DEC2EF0C4
:1031F000000E036E690E026EB3EC31F0010E3C6EF0
:10320000250E3B6E000E3E6E650E3D6E6DEC2EF093
:10321000000E036E690E026EB3EC31F0010E3C6ECF
:10322000490E3B6E000E3E6E650E3D6E6DEC2EF04F
:10323000000E036E690E026EB3EC31F0010E3C6EAF
:10324000710E3B6E000E3E6E650E3D6E6DEC2EF007
:10325000000E036E690E026EB3EC31F0010E3C6E8F
:10326000250E3B6E000E3E6E650E3D6E6DEC2EF033
:10327000000E036E690E026EB3EC31F0010E3C6E6F
:10328000710E3B6E000E3E6E650E3D6E6DEC2EF0C7
:10329000000E036E690E026EB3EC31F0010E3C6E4F
:1032A000ED0E3B6E000E3E6E650E3D6E6DEC2EF02B
:1032B000000E036E690E026EB3EC31F0010E3C6E2F
:1032C000B80E3B6E000E3E6E650E3D6E6DEC2EF040
:1032D000000E036E690E026EB3EC31F0010E3C6E0F
:1032E000710E3B6E000E3E6E650E3D6E6DEC2EF067
:1032F000000E036E690E026EB3EC31F0010E3C6EEF
:10330000250E3B6E000E3E6E650E3D6E6DEC2EF092
:10331000000E036E690E026EB3EC31F0010E3C6ECE
:10332000710E3B6E000E3E6E650E3D6E6DEC2EF026
:10333000000E036E690E026EB3EC31F0010E3C6EAE
:10334000B80E3B6E030E3E6E130E3D6E6DEC2EF00E
:10335000000E036E280E026EB3EC31F0010E3C6ECF
:10336000ED0E3B6E000E3E6E630E3D6E6DEC2EF06C
:10337000000E036E660E026EB3EC31F0020E3C6E70
:103380002A0E3B6E000E3E6E630E3D6E6DEC2EF00F
:10339000000E036E660E026EB3EC31F0020E3C6E50
:1033A0004B0E3B6E000E3E6E630E3D6E6DEC2EF0CE
:1033B000000E036E660E026EB3EC31F0020E3C6E30
:1033C000930E3B6E000E3E6E630E3D6E6DEC2EF066
:1033D000000E036E660E026EB3EC31F0020E3C6E10
:1033E000E30E3B6E000E3E6E630E3D6E6DEC2EF0F6
:1033F000000E036E660E026EB3EC31F0020E3C6EF0
:103400004B0E3B6E000E3E6E630E3D6E6DEC2EF06D
:10341000000E036E660E026EB3EC31F0020E3C6ECF
:10342000E30E3B6E000E3E6EC70E3D6E6DEC2EF051
:10343000000E036ECD0E026EB3EC31F0020E3C6E48
:10344000BA0E3B6E000E3E6E630E3D6E6DEC2EF0BE
:10345000000E036E660E026EB3EC31F0020E3C6E8F
:103460002A0E3B6E000E3E6E630E3D6E6DEC2EF02E
:10347000000E036E660E026EB3EC31F0020E3C6E6F
:10348000BA0E3B6E000E3E6EC70E3D6E6DEC2EF01A
:10349000000E036ECD0E026EB3EC31F0020E3C6EE8
:1034A000930E3B6E000E3E6E630E3D6E6DEC2EF085
:1034B000000E036E660E026EB3EC31F0020E3C6E2F
:1034C0000B0E3B6E000E3E6E630E3D6E6DEC2EF0ED
:1034D000000E036E660E026EB3EC31F0020E3C6E0F
:1034E000930E3B6E000E3E6EC70E3D6E6DEC2EF0E1
:1034F000000E036ECD0E026EB3EC31F0010E3C6E89
:10350000ED0E3B6E000E3E6E620E3D6E6DEC2EF0CB
:10351000000E036E650E026EB3EC31F0020E3C6ECF
:103520002A0E3B6E000E3E6E600E3D6E6DEC2EF070
:10353000000E036E630E026EB3EC31F0020E3C6EB1
:103540004B0E3B6E000E3E6E5E0E3D6E6DEC2EF031
:10355000000E036E610E026EB3EC31F0020E3C6E93
:10356000930E3B6E000E3E6E5C0E3D6E6DEC2EF0CB
:10357000000E036E5F0E026EB3EC31F0020E3C6E75
:10358000E30E3B6E000E3E6E5A0E3D6E6DEC2EF05D
:10359000000E036E5D0E026EB3EC31F0020E3C6E57
:1035A0004B0E3B6E000E3E6E580E3D6E6DEC2EF0D7
:1035B000000E036E5B0E026EB3EC31F0020E3C6E39
:1035C000E30E3B6E000E3E6E570E3D6E6DEC2EF020
:1035D000000E036E5A0E026EB3EC31F0030E3C6E19
:1035E000DB0E3B6E000E3E6E550E3D6E6DEC2EF00A
:1035F000000E036E580E026EB3EC31F0020E3C6EFC
:10360000E30E3B6E000E3E6E530E3D6E6DEC2EF0E3
:10361000000E036E560E026EB3EC31F0020E3C6EDD
:103620004B0E3B6E000E3E6E520E3D6E6DEC2EF05C
:10363000000E036E550E026EB3EC31F0020E3C6EBE
:10364000E30E3B6E000E3E6E500E3D6E6DEC2EF0A6
:10365000000E036E530E026EB3EC31F0030E3C6E9F
:10366000DB0E3B6E000E3E6E4F0E3D6E6DEC2EF08F
:10367000000E036E510E026EB3EC31F0010E3C6E83
:10368000ED0E3B6E020E3E6E390E3D6E6DEC2EF071
:10369000000E036E3D0E026EB3EC31F0030E3C6E75
:1036A000DB0E3B6E000E3E6E4D0E3D6E6DEC2EF051
:1036B000000E036E500E026EB3EC31F0040E3C6E41
:1036C000540E3B6E000E3E6E4D0E3D6E6DEC2EF0B8
:1036D000000E036E500E026EB3EC31F0040E3C6E21
:1036E000960E3B6E000E3E6E4D0E3D6E6DEC2EF056
:1036F000000E036E500E026EB3EC31F0050E3C6E00
:10370000260E3B6E000E3E6E4D0E3D6E6DEC2EF0A5
:10371000000E036E500E026EB3EC31F0050E3C6EDF
:10372000C70E3B6E000E3E6E4D0E3D6E6DEC2EF0E4
:10373000000E036E500E026EB3EC31F0040E3C6EC0
:10374000960E3B6E000E3E6E4D0E3D6E6DEC2EF0F5
:10375000000E036E500E026EB3EC31F0050E3C6E9F
:10376000C70E3B6E000E3E6E9B0E3D6E6DEC2EF056
:10377000000E036EA00E026EB3EC31F0050E3C6E2F
:10378000740E3B6E000E3E6E4D0E3D6E6DEC2EF0D7
:10379000000E036E500E026EB3EC31F0040E3C6E60
:1037A000540E3B6E000E3E6E4D0E3D6E6DEC2EF0D7
:1037B000000E036E500E026EB3EC31F0050E3C6E3F
:1037C000740E3B6E000E3E6E9B0E3D6E6DEC2EF049
:1037D000000E036EA00E026EB3EC31F0050E3C6ECF
:1037E000260E3B6E000E3E6E4D0E3D6E6DEC2EF0C5
:1037F000000E036E500E026EB3EC31F0040E3C6E00
:10380000160E3B6E000E3E6E4D0E3D6E6DEC2EF0B4
:10381000000E036E500E026EB3EC31F0050E3C6EDE
:10382000260E3B6E000E3E6E9B0E3D6E6DEC2EF036
:10383000000E036EA00E026EB3EC31F0030E3C6E70
:10384000DB0E3B6E000E3E6E4D0E3D6E6DEC2EF0AF
:10385000000E036E500E026EB3EC31F0040E3C6E9F
:10386000540E3B6E000E3E6E4D0E3D6E6DEC2EF016
:10387000000E036E500E026EB3EC31F0040E3C6E7F
:10388000960E3B6E000E3E6E4D0E3D6E6DEC2EF0B4
:10389000000E036E500E026EB3EC31F0050E3C6E5E
:1038A000260E3B6E000E3E6E4D0E3D6E6DEC2EF004
:1038B000000E036E500E026EB3EC31F0050E3C6E3E
:1038C000C70E3B6E000E3E6E4D0E3D6E6DEC2EF043
:1038D000000E036E500E026EB3EC31F0040E3C6E1F
:1038E000960E3B6E000E3E6E4D0E3D6E6DEC2EF054
:1038F000000E036E500E026EB3EC31F0050E3C6EFE
:10390000C70E3B6E000E3E6E4D0E3D6E6DEC2EF002
:10391000000E036E500E026EB3EC31F0070E3C6EDB
:10392000B70E3B6E000E3E6E4D0E3D6E6DEC2EF0F2
:10393000000E036E500E026EB3EC31F0060E3C6EBC
:10394000E00E3B6E000E3E6E4D0E3D6E6DEC2EF0A9
:10395000000E036E500E026EB3EC31F0050E3C6E9D
:10396000C70E3B6E000E3E6E4D0E3D6E6DEC2EF0A2
:10397000000E036E500E026EB3EC31F0040E3C6E7E
:10398000960E3B6E000E3E6E4D0E3D6E6DEC2EF0B3
:10399000000E036E500E026EB3EC31F0050E3C6E5D
:1039A000C70E3B6E000E3E6E4D0E3D6E6DEC2EF062
:1039B000000E036E500E026EB3EC31F0060E3C6E3C
:1039C000E00E3B6E020E3E6E390E3D6E6DEC2EF03B
:1039D000000E036E3D0E026EB3EC31F0030E3C6E32
:1039E000DB0E3B6E000E3E6E4D0E3D6E6DEC2EF00E
:1039F000000E036E500E026EB3EC31F0040E3C6EFE
:103A0000540E3B6E000E3E6E4D0E3D6E6DEC2EF074
:103A1000000E036E500E026EB3EC31F0040E3C6EDD
:103A2000960E3B6E000E3E6E4D0E3D6E6DEC2EF012
:103A3000000E036E500E026EB3EC31F0050E3C6EBC
:103A4000260E3B6E000E3E6E4D0E3D6E6DEC2EF062
:103A5000000E036E500E026EB3EC31F0050E3C6E9C
:103A6000C70E3B6E000E3E6E4D0E3D6E6DEC2EF0A1
:103A7000000E036E500E026EB3EC31F0040E3C6E7D
:103A8000960E3B6E000E3E6E4D0E3D6E6DEC2EF0B2
:103A9000000E036E500E026EB3EC31F0050E3C6E5C
:103AA000C70E3B6E000E3E6E9B0E3D6E6DEC2EF013
:103AB000000E036EA00E026EB3EC31F0050E3C6EEC
:103AC000740E3B6E000E3E6E4D0E3D6E6DEC2EF094
:103AD000000E036E500E026EB3EC31F0040E3C6E1D
:103AE000540E3B6E000E3E6E4D0E3D6E6DEC2EF094
:103AF000000E036E500E026EB3EC31F0050E3C6EFC
:103B0000740E3B6E000E3E6E9B0E3D6E6DEC2EF005
:103B1000000E036EA00E026EB3EC31F0050E3C6E8B
:103B2000260E3B6E000E3E6E4D0E3D6E6DEC2EF081
:103B3000000E036E500E026EB3EC31F0040E3C6EBC
:103B4000160E3B6E000E3E6E4D0E3D6E6DEC2EF071
:103B5000000E036E500E026EB3EC31F0050E3C6E9B
:103B6000260E3B6E000E3E6E9B0E3D6E6DEC2EF0F3
:103B7000000E036EA00E026EB3EC31F0030E3C6E2D
:103B8000DB0E3B6E000E3E6E4D0E3D6E6DEC2EF06C
:103B9000000E036E500E026EB3EC31F0040E3C6E5C
:103BA000540E3B6E000E3E6E4D0E3D6E6DEC2EF0D3
:103BB000000E036E500E026EB3EC31F0040E3C6E3C
:103BC000960E3B6E000E3E6E4D0E3D6E6DEC2EF071
:103BD000000E036E500E026EB3EC31F0050E3C6E1B
:103BE000260E3B6E000E3E6E4D0E3D6E6DEC2EF0C1
:103BF000000E036E500E026EB3EC31F0050E3C6EFB
:103C0000C70E3B6E000E3E6E4D0E3D6E6DEC2EF0FF
:103C1000000E036E500E026EB3EC31F0040E3C6EDB
:103C2000960E3B6E000E3E6E4D0E3D6E6DEC2EF010
:103C3000000E036E500E026EB3EC31F0050E3C6EBA
:103C4000C70E3B6E000E3E6E4D0E3D6E6DEC2EF0BF
:103C5000000E036E500E026EB3EC31F0070E3C6E98
:103C6000B70E3B6E000E3E6E4D0E3D6E6DEC2EF0AF
:103C7000000E036E500E026EB3EC31F0060E3C6E79
:103C8000E00E3B6E000E3E6E4D0E3D6E6DEC2EF066
:103C9000000E036E500E026EB3EC31F0050E3C6E5A
:103CA000C70E3B6E000E3E6E4D0E3D6E6DEC2EF05F
:103CB000000E036E500E026EB3EC31F0040E3C6E3B
:103CC000960E3B6E000E3E6E4D0E3D6E6DEC2EF070
:103CD000000E036E500E026EB3EC31F0050E3C6E1A
:103CE000C70E3B6E000E3E6E4D0E3D6E6DEC2EF01F
:103CF000000E036E500E026EB3EC31F0060E3C6EF9
:103D0000E00E3B6E020E3E6E390E3D6E6DEC2EF0F7
:103D1000000E036E3D0E026EB3EC31F0050E3C6EEC
:103D2000C70E3B6E000E3E6E4D0E3D6E6DEC2EF0DE
:103D3000000E036E500E026EB3EC31F0060E3C6EB8
:103D40007D0E3B6E000E3E6E4D0E3D6E6DEC2EF008
:103D5000000E036E500E026EB3EC31F0070E3C6E97
:103D6000480E3B6E000E3E6E4D0E3D6E6DEC2EF01D
:103D7000000E036E500E026EB3EC31F0070E3C6E77
:103D8000B70E3B6E000E3E6E4D0E3D6E6DEC2EF08E
:103D9000000E036E500E026EB3EC31F0080E3C6E56
:103DA000A90E3B6E000E3E6E4D0E3D6E6DEC2EF07C
:103DB000000E036E500E026EB3EC31F0070E3C6E37
:103DC000480E3B6E000E3E6E4D0E3D6E6DEC2EF0BD
:103DD000000E036E500E026EB3EC31F0080E3C6E16
:103DE000A90E3B6E000E3E6E9B0E3D6E6DEC2EF0EE
:103DF000000E036EA00E026EB3EC31F0090E3C6EA5
:103E00002D0E3B6E000E3E6E4D0E3D6E6DEC2EF097
:103E1000000E036E500E026EB3EC31F0070E3C6ED6
:103E2000480E3B6E000E3E6E4D0E3D6E6DEC2EF05C
:103E3000000E036E500E026EB3EC31F0090E3C6EB4
:103E40002D0E3B6E000E3E6E9B0E3D6E6DEC2EF009
:103E5000000E036EA00E026EB3EC31F0080E3C6E45
:103E6000A90E3B6E000E3E6E4D0E3D6E6DEC2EF0BB
:103E7000000E036E500E026EB3EC31F0070E3C6E76
:103E8000480E3B6E000E3E6E4D0E3D6E6DEC2EF0FC
:103E9000000E036E500E026EB3EC31F0080E3C6E55
:103EA000A90E3B6E000E3E6E9B0E3D6E6DEC2EF02D
:103EB000000E036EA00E026EB3EC31F0050E3C6EE8
:103EC000C70E3B6E000E3E6E4D0E3D6E6DEC2EF03D
:103ED000000E036E4F0E026EB3EC31F0060E3C6E18
:103EE0007D0E3B6E000E3E6E4D0E3D6E6DEC2EF067
:103EF000000E036E500E026EB3EC31F0070E3C6EF6
:103F0000480E3B6E000E3E6E4D0E3D6E6DEC2EF07B
:103F1000000E036E500E026EB3EC31F0070E3C6ED5
:103F2000B70E3B6E000E3E6E4D0E3D6E6DEC2EF0EC
:103F3000000E036E500E026EB3EC31F0080E3C6EB4
:103F4000A90E3B6E000E3E6E4D0E3D6E6DEC2EF0DA
:103F5000000E036E500E026EB3EC31F0070E3C6E95
:103F6000480E3B6E000E3E6E4D0E3D6E6DEC2EF01B
:103F7000000E036E500E026EB3EC31F0080E3C6E74
:103F8000A90E3B6E000E3E6E9B0E3D6E6DEC2EF04C
:103F9000000E036EA00E026EB3EC31F0090E3C6E03
:103FA0002D0E3B6E000E3E6E4D0E3D6E6DEC2EF0F6
:103FB000000E036E500E026EB3EC31F0070E3C6E35
:103FC000480E3B6E000E3E6E4D0E3D6E6DEC2EF0BB
:103FD000000E036E500E026EB3EC31F0090E3C6E13
:103FE0002D0E3B6E000E3E6E9B0E3D6E6DEC2EF068
:103FF000000E036EA00E026EB3EC31F0080E3C6EA4
:10400000A90E3B6E010E3E6E350E3D6E6DEC2EF030
:10401000010E036E410E026EB3EC31F0050E3C6EE4
:10402000C70E3B6E000E3E6E4D0E3D6E6DEC2EF0DB
:10403000000E036E500E026EB3EC31F0060E3C6EB5
:104040007D0E3B6E000E3E6E4D0E3D6E6DEC2EF005
:10405000000E036E500E026EB3EC31F0070E3C6E94
:10406000480E3B6E000E3E6E4D0E3D6E6DEC2EF01A
:10407000000E036E500E026EB3EC31F0070E3C6E74
:10408000B70E3B6E000E3E6E4D0E3D6E6DEC2EF08B
:10409000000E036E500E026EB3EC31F0080E3C6E53
:1040A000A90E3B6E000E3E6E4D0E3D6E6DEC2EF079
:1040B000000E036E500E026EB3EC31F0070E3C6E34
:1040C000480E3B6E000E3E6E4D0E3D6E6DEC2EF0BA
:1040D000000E036E500E026EB3EC31F0080E3C6E13
:1040E000A90E3B6E000E3E6E9B0E3D6E6DEC2EF0EB
:1040F000000E036EA00E026EB3EC31F0090E3C6EA2
:10410000B90E3B6E000E3E6E4D0E3D6E6DEC2EF008
:10411000000E036E500E026EB3EC31F0070E3C6ED3
:10412000480E3B6E000E3E6E4D0E3D6E6DEC2EF059
:10413000000E036E500E026EB3EC31F0090E3C6EB1
:10414000B90E3B6E000E3E6E9B0E3D6E6DEC2EF07A
:10415000000E036EA00E026EB3EC31F0080E3C6E42
:10416000A90E3B6E000E3E6E4D0E3D6E6DEC2EF0B8
:10417000000E036E500E026EB3EC31F0070E3C6E73
:10418000480E3B6E000E3E6E4D0E3D6E6DEC2EF0F9
:10419000000E036E500E026EB3EC31F0080E3C6E52
:1041A000A90E3B6E000E3E6E9B0E3D6E6DEC2EF02A
:1041B000000E036EA00E026EB3EC31F0050E3C6EE5
:1041C000C70E3B6E000E3E6E4D0E3D6E6DEC2EF03A
:1041D000000E036E4F0E026EB3EC31F0060E3C6E15
:1041E0007D0E3B6E000E3E6E4D0E3D6E6DEC2EF064
:1041F000000E036E500E026EB3EC31F0070E3C6EF3
:10420000480E3B6E000E3E6E4D0E3D6E6DEC2EF078
:10421000000E036E500E026EB3EC31F0070E3C6ED2
:10422000B70E3B6E000E3E6E4D0E3D6E6DEC2EF0E9
:10423000000E036E500E026EB3EC31F0080E3C6EB1
:10424000A90E3B6E000E3E6E4D0E3D6E6DEC2EF0D7
:10425000000E036E500E026EB3EC31F0070E3C6E92
:10426000480E3B6E000E3E6E4D0E3D6E6DEC2EF018
:10427000000E036E500E026EB3EC31F0080E3C6E71
:10428000A90E3B6E000E3E6E9B0E3D6E6DEC2EF049
:10429000000E036EA00E026EB3EC31F0090E3C6E00
:1042A000B90E3B6E000E3E6E4D0E3D6E6DEC2EF067
:1042B000000E036E500E026EB3EC31F0070E3C6E32
:1042C000480E3B6E000E3E6E4D0E3D6E6DEC2EF0B8
:1042D000000E036E500E026EB3EC31F0090E3C6E10
:1042E000B90E3B6E000E3E6E9B0E3D6E6DEC2EF0D9
:1042F000000E036EA00E026EB3EC31F0080E3C6EA1
:10430000A90E3B6E010E3E6E350E3D6E6DEC2EF02D
:10431000010E036E410E026EB3EC31F0030E3C6EE3
:10432000DB0E3B6E000E3E6E490E3D6E6DEC2EF0C8
:10433000000E036E4C0E026EB3EC31F0040E3C6EB8
:10434000540E3B6E000E3E6E490E3D6E6DEC2EF02F
:10435000000E036E4C0E026EB3EC31F0040E3C6E98
:10436000960E3B6E000E3E6E490E3D6E6DEC2EF0CD
:10437000000E036E4C0E026EB3EC31F0050E3C6E77
:10438000260E3B6E000E3E6E490E3D6E6DEC2EF01D
:10439000000E036E4C0E026EB3EC31F0050E3C6E57
:1043A000C70E3B6E000E3E6E490E3D6E6DEC2EF05C
:1043B000000E036E4C0E026EB3EC31F0040E3C6E38
:1043C000960E3B6E000E3E6E490E3D6E6DEC2EF06D
:1043D000000E036E4C0E026EB3EC31F0050E3C6E17
:1043E000C70E3B6E000E3E6E930E3D6E6DEC2EF0D2
:1043F000000E036E980E026EB3EC31F0050E3C6EAB
:10440000740E3B6E000E3E6E490E3D6E6DEC2EF04E
:10441000000E036E4C0E026EB3EC31F0040E3C6ED7
:10442000540E3B6E000E3E6E490E3D6E6DEC2EF04E
:10443000000E036E4C0E026EB3EC31F0050E3C6EB6
:10444000740E3B6E000E3E6E930E3D6E6DEC2EF0C4
:10445000000E036E980E026EB3EC31F0050E3C6E4A
:10446000260E3B6E000E3E6E490E3D6E6DEC2EF03C
:10447000000E036E4C0E026EB3EC31F0040E3C6E77
:10448000160E3B6E000E3E6E490E3D6E6DEC2EF02C
:10449000000E036E4C0E026EB3EC31F0050E3C6E56
:1044A000260E3B6E000E3E6E930E3D6E6DEC2EF0B2
:1044B000000E036E980E026EB3EC31F0030E3C6EEC
:1044C000DB0E3B6E000E3E6E490E3D6E6DEC2EF027
:1044D000000E036E4C0E026EB3EC31F0040E3C6E17
:1044E000540E3B6E000E3E6E490E3D6E6DEC2EF08E
:1044F000000E036E4C0E026EB3EC31F0040E3C6EF7
:10450000960E3B6E000E3E6E490E3D6E6DEC2EF02B
:10451000000E036E4C0E026EB3EC31F0050E3C6ED5
:10452000260E3B6E000E3E6E490E3D6E6DEC2EF07B
:10453000000E036E4C0E026EB3EC31F0050E3C6EB5
:10454000C70E3B6E000E3E6E490E3D6E6DEC2EF0BA
:10455000000E036E4C0E026EB3EC31F0040E3C6E96
:10456000960E3B6E000E3E6E490E3D6E6DEC2EF0CB
:10457000000E036E4C0E026EB3EC31F0050E3C6E75
:10458000C70E3B6E000E3E6E490E3D6E6DEC2EF07A
:10459000000E036E4C0E026EB3EC31F0070E3C6E53
:1045A000B70E3B6E000E3E6E490E3D6E6DEC2EF06A
:1045B000000E036E4C0E026EB3EC31F0060E3C6E34
:1045C000E00E3B6E000E3E6E490E3D6E6DEC2EF021
:1045D000000E036E4C0E026EB3EC31F0050E3C6E15
:1045E000C70E3B6E000E3E6E490E3D6E6DEC2EF01A
:1045F000000E036E4C0E026EB3EC31F0040E3C6EF6
:10460000960E3B6E000E3E6E490E3D6E6DEC2EF02A
:10461000000E036E4C0E026EB3EC31F0050E3C6ED4
:10462000C70E3B6E000E3E6E490E3D6E6DEC2EF0D9
:10463000000E036E4C0E026EB3EC31F0060E3C6EB3
:10464000E00E3B6E020E3E6E1D0E3D6E6DEC2EF0CA
:10465000000E036E3A0E026EB3EC31F0030E3C6EA8
:10466000DB0E3B6E000E3E6E480E3D6E6DEC2EF086
:10467000000E036E490E026EB3EC31F0040E3C6E78
:10468000540E3B6E000E3E6E480E3D6E6DEC2EF0ED
:10469000000E036E4A0E026EB3EC31F0040E3C6E57
:1046A000960E3B6E000E3E6E480E3D6E6DEC2EF08B
:1046B000000E036E4A0E026EB3EC31F0050E3C6E36
:1046C000260E3B6E000E3E6E480E3D6E6DEC2EF0DB
:1046D000000E036E4A0E026EB3EC31F0050E3C6E16
:1046E000C70E3B6E000E3E6E480E3D6E6DEC2EF01A
:1046F000000E036E4A0E026EB3EC31F0040E3C6EF7
:10470000960E3B6E000E3E6E480E3D6E6DEC2EF02A
:10471000000E036E4A0E026EB3EC31F0050E3C6ED5
:10472000C70E3B6E000E3E6E900E3D6E6DEC2EF091
:10473000000E036E940E026EB3EC31F0050E3C6E6B
:10474000740E3B6E000E3E6E480E3D6E6DEC2EF00C
:10475000000E036E4A0E026EB3EC31F0040E3C6E96
:10476000540E3B6E000E3E6E480E3D6E6DEC2EF00C
:10477000000E036E4A0E026EB3EC31F0050E3C6E75
:10478000740E3B6E000E3E6E900E3D6E6DEC2EF084
:10479000000E036E940E026EB3EC31F0050E3C6E0B
:1047A000260E3B6E000E3E6E480E3D6E6DEC2EF0FA
:1047B000000E036E4A0E026EB3EC31F0040E3C6E36
:1047C000160E3B6E000E3E6E480E3D6E6DEC2EF0EA
:1047D000000E036E4A0E026EB3EC31F0050E3C6E15
:1047E000260E3B6E000E3E6E900E3D6E6DEC2EF072
:1047F000000E036E940E026EB3EC31F0030E3C6EAD
:10480000DB0E3B6E000E3E6E480E3D6E6DEC2EF0E4
:10481000000E036E490E026EB3EC31F0040E3C6ED6
:10482000540E3B6E000E3E6E480E3D6E6DEC2EF04B
:10483000000E036E4A0E026EB3EC31F0040E3C6EB5
:10484000960E3B6E000E3E6E480E3D6E6DEC2EF0E9
:10485000000E036E4A0E026EB3EC31F0050E3C6E94
:10486000260E3B6E000E3E6E480E3D6E6DEC2EF039
:10487000000E036E4A0E026EB3EC31F0050E3C6E74
:10488000C70E3B6E000E3E6E460E3D6E6DEC2EF07A
:10489000000E036E480E026EB3EC31F0040E3C6E57
:1048A000960E3B6E000E3E6E460E3D6E6DEC2EF08B
:1048B000000E036E480E026EB3EC31F0050E3C6E36
:1048C000C70E3B6E000E3E6E440E3D6E6DEC2EF03C
:1048D000000E036E460E026EB3EC31F0070E3C6E16
:1048E000B70E3B6E000E3E6E440E3D6E6DEC2EF02C
:1048F000000E036E460E026EB3EC31F0050E3C6EF8
:10490000C70E3B6E000E3E6E430E3D6E6DEC2EF0FC
:10491000000E036E450E026EB3EC31F0040E3C6ED9
:10492000960E3B6E000E3E6E430E3D6E6DEC2EF00D
:10493000000E036E450E026EB3EC31F0050E3C6EB8
:10494000C70E3B6E000E3E6E430E3D6E6DEC2EF0BC
:10495000000E036E450E026EB3EC31F0070E3C6E96
:10496000B70E3B6E000E3E6E430E3D6E6DEC2EF0AC
:10497000000E036E450E026EB3EC31F0030E3C6E7A
:10498000DB0E3B6E010E3E6EEC0E3D6E6DEC2EF0BE
:10499000000E036E840E026EB3EC31F0060E3C6E18
:1049A0007D0E3B6E000E3E6E290E3D6E6DEC2EF0C0
:1049B000060E3C6EE00E3B6E000E3E6E450E3D6EEA
:1049C0006DEC2EF0070E3C6E480E3B6E000E3E6EF8
:1049D000280E3D6E6DEC2EF0070E3C6EB70E3B6E52
:1049E000000E3E6ED00E3D6E6DEC2EF0020E036E8C
:1049F000330E026EB3EC31F0060E3C6E7D0E3B6E54
:104A0000000E3E6E290E3D6E6DEC2EF0060E3C6ED5
:104A1000E00E3B6E000E3E6E450E3D6E6DEC2EF0D0
:104A2000070E3C6E480E3B6E000E3E6E280E3D6E2D
:104A30006DEC2EF0070E3C6EB70E3B6E000E3E6E18
:104A4000D00E3D6E6DEC2EF0010E036EE40E026E84
:104A5000B3EC31F0010E3C6EED0E3B6E000E3E6E7F
:104A6000380E3D6E6DEC2EF0000E036E3A0E026EA7
:104A7000B3EC31F0020E3C6E2A0E3B6E000E3E6E21
:104A8000380E3D6E6DEC2EF0000E036E3A0E026E87
:104A9000B3EC31F0020E3C6E4B0E3B6E000E3E6EE0
:104AA000380E3D6E6DEC2EF0000E036E3A0E026E67
:104AB000B3EC31F0020E3C6E930E3B6E000E3E6E78
:104AC000380E3D6E6DEC2EF0000E036E3A0E026E47
:104AD000B3EC31F0020E3C6EE30E3B6E000E3E6E08
:104AE000380E3D6E6DEC2EF0000E036E3A0E026E27
:104AF000B3EC31F0020E3C6E4B0E3B6E000E3E6E80
:104B0000380E3D6E6DEC2EF0000E036E3A0E026E06
:104B1000B3EC31F0020E3C6EE30E3B6E000E3E6EC7
:104B2000380E3D6E6DEC2EF0000E036E3A0E026EE6
:104B3000B3EC31F0030E3C6EDB0E3B6E000E3E6EAE
:104B4000380E3D6E6DEC2EF0000E036E3A0E026EC6
:104B5000B3EC31F0030E3C6EA40E3B6E000E3E6EC5
:104B6000380E3D6E6DEC2EF0000E036E3A0E026EA6
:104B7000B3EC31F0020E3C6EE30E3B6E000E3E6E67
:104B8000380E3D6E6DEC2EF0000E036E3A0E026E86
:104B9000B3EC31F0030E3C6EA40E3B6E000E3E6E85
:104BA000380E3D6E6DEC2EF0000E036E3A0E026E66
:104BB000B3EC31F0040E3C6E540E3B6E000E3E6EB4
:104BC000380E3D6E6DEC2EF0000E036E3A0E026E46
:104BD000B3EC31F0030E3C6EDB0E3B6E010E3E6E0D
:104BE000A00E3D6E6DEC2EF0000E036E7C0E026E7C
:104BF000B3EC31F0060E3C6E7D0E3B6E000E3E6E49
:104C0000290E3D6E6DEC2EF0060E3C6EE00E3B6EF6
:104C1000000E3E6E450E3D6E6DEC2EF0070E3C6EA6
:104C2000480E3B6E000E3E6E280E3D6E6DEC2EF073
:104C3000070E3C6EB70E3B6E000E3E6ED00E3D6E04
:104C40006DEC2EF0020E036E330E026EB3EC31F0FB
:104C5000060E3C6E7D0E3B6E000E3E6E290E3D6EC6
:104C60006DEC2EF0060E3C6EE00E3B6E000E3E6EBE
:104C7000450E3D6E6DEC2EF0070E3C6E480E3B6E01
:104C8000000E3E6E280E3D6E6DEC2EF0070E3C6E53
:104C9000B70E3B6E000E3E6ED00E3D6E6DEC2EF0EC
:104CA000010E036EE40E026EB3EC31F0030E3C6EA7
:104CB000DB0E3B6E000E3E6E380E3D6E6DEC2EF040
:104CC000000E036E3A0E026EB3EC31F0040E3C6E31
:104CD000540E3B6E000E3E6E380E3D6E6DEC2EF0A7
:104CE000000E036E3A0E026EB3EC31F0040E3C6E11
:104CF000960E3B6E000E3E6E380E3D6E6DEC2EF045
:104D0000000E036E3A0E026EB3EC31F0050E3C6EEF
:104D1000260E3B6E000E3E6E380E3D6E6DEC2EF094
:104D2000000E036E3A0E026EB3EC31F0050E3C6ECF
:104D3000C70E3B6E000E3E6E380E3D6E6DEC2EF0D3
:104D4000000E036E3A0E026EB3EC31F0040E3C6EB0
:104D5000960E3B6E000E3E6E380E3D6E6DEC2EF0E4
:104D6000000E036E3A0E026EB3EC31F0050E3C6E8F
:104D7000C70E3B6E000E3E6E380E3D6E6DEC2EF093
:104D8000000E036E3A0E026EB3EC31F0070E3C6E6D
:104D9000B70E3B6E000E3E6E380E3D6E6DEC2EF083
:104DA000000E036E3A0E026EB3EC31F0070E3C6E4D
:104DB000480E3B6E000E3E6E380E3D6E6DEC2EF0D2
:104DC000000E036E3A0E026EB3EC31F0050E3C6E2F
:104DD000C70E3B6E000E3E6E380E3D6E6DEC2EF033
:104DE000000E036E3A0E026EB3EC31F0070E3C6E0D
:104DF000480E3B6E000E3E6E380E3D6E6DEC2EF092
:104E0000000E036E3A0E026EB3EC31F0080E3C6EEB
:104E1000A90E3B6E000E3E6E380E3D6E6DEC2EF010
:104E2000000E036E3A0E026EB3EC31F0070E3C6ECC
:104E3000B70E3B6E010E3E6EA00E3D6E6DEC2EF079
:104E4000000E036E7C0E026EB3EC31F0060E3C6E6B
:104E50007D0E3B6E000E3E6E290E3D6E6DEC2EF00B
:104E6000060E3C6EE00E3B6E000E3E6E450E3D6E35
:104E70006DEC2EF0070E3C6E480E3B6E000E3E6E43
:104E8000280E3D6E6DEC2EF0070E3C6EB70E3B6E9D
:104E9000000E3E6ED00E3D6E6DEC2EF0020E036ED7
:104EA000330E026EB3EC31F0060E3C6E7D0E3B6E9F
:104EB000000E3E6E290E3D6E6DEC2EF0060E3C6E21
:104EC000E00E3B6E000E3E6E450E3D6E6DEC2EF01C
:104ED000070E3C6E480E3B6E000E3E6E280E3D6E79
:104EE0006DEC2EF0070E3C6EB70E3B6E000E3E6E64
:104EF000D00E3D6E6DEC2EF0020E036E330E026E80
:104F0000B3EC31F0060E3C6E7D0E3B6E000E3E6E35
:104F1000290E3D6E6DEC2EF0060E3C6EE00E3B6EE3
:104F2000000E3E6E450E3D6E6DEC2EF0070E3C6E93
:104F3000480E3B6E000E3E6E280E3D6E6DEC2EF060
:104F4000000E036E370E026EB3EC31F0060E3C6EAF
:104F50007D0E3B6E000E3E6E400E3D6E6DEC2EF0F3
:104F6000060E3C6EE00E3B6E000E3E6E450E3D6E34
:104F70006DEC2EF0070E3C6E480E3B6E000E3E6E42
:104F8000280E3D6E6DEC2EF0000E036E370E026E95
:104F9000B3EC31F0060E3C6E7D0E3B6E000E3E6EA5
:104FA000400E3D6E6DEC2EF0060E3C6EE00E3B6E3C
:104FB000000E3E6E450E3D6E6DEC2EF0070E3C6E03
:104FC000480E3B6E000E3E6E280E3D6E6DEC2EF0D0
:104FD000070E3C6EB70E3B6E000E3E6ED00E3D6E61
:104FE0006DEC2EF0000E036E160E026EB3EC31F077
:104FF000060E3C6E7D0E3B6E000E3E6E290E3D6E23
:105000006DEC2EF0060E3C6EE00E3B6E000E3E6E1A
:10501000450E3D6E6DEC2EF0070E3C6E480E3B6E5D
:10502000000E3E6E280E3D6E6DEC2EF0070E3C6EAF
:10503000B70E3B6E000E3E6E380E3D6E6DEC2EF0E0
:10504000000E036E4E0E026EB3EC31F0060E3C6E97
:105050007D0E3B6E000E3E6E400E3D6E6DEC2EF0F2
:10506000060E3C6EE00E3B6E000E3E6E450E3D6E33
:105070006DEC2EF0070E3C6E480E3B6E000E3E6E41
:10508000280E3D6E6DEC2EF0000E036E370E026E94
:10509000B3EC31F0060E3C6E7D0E3B6E000E3E6EA4
:1050A000400E3D6E6DEC2EF0060E3C6EE00E3B6E3B
:1050B000000E3E6E450E3D6E6DEC2EF0070E3C6E02
:1050C000480E3B6E000E3E6E280E3D6E6DEC2EF0CF
:1050D000070E3C6EB70E3B6E000E3E6ED00E3D6E60
:1050E0006DEC2EF0070E036E9C0E026EB3EC31F0E9
:1050F000060E3C6E7D0E3B6E000E3E6E290E3D6E22
:105100006DEC2EF0060E3C6EE00E3B6E000E3E6E19
:10511000450E3D6E6DEC2EF0070E3C6E480E3B6E5C
:10512000000E3E6E280E3D6E6DEC2EF0070E3C6EAE
:10513000B70E3B6E000E3E6ED00E3D6E6DEC2EF047
:1051400012000550800B0E6E05500524106E04AE43
:10515000ACEF28F0AEEF28F0AFEF28F01080105041
:10516000D8B4B5EF28F0B7EF28F0CCEF28F010282E
:10517000D8A4BDEF28F0BFEF28F0C7EF28F0000E4D
:10518000026E000E036E000E046E000E056E048E9D
:10519000000E056ED4EF28F0000E026E000E036EB6
:1051A000000E046E000E056E0950800B0F6E0E503F
:1051B0000F18D8B4DEEF28F0E0EF28F0E1EF28F088
:1051C0000E8C095009240F6E08AEE9EF28F0EBEFC2
:1051D00028F0ECEF28F00F800F50D8B4F2EF28F051
:1051E000F4EF28F009EF29F00F28D8A4FAEF28F0FF
:1051F000FCEF28F004EF29F0000E066E000E076E9B
:10520000000E086E000E096E088E000E096E11EF7A
:1052100029F0000E066E000E076E000E086E000EDE
:10522000096E10500F5CD8B018EF29F01AEF29F072
:1052300041EF29F00EAC1FEF29F021EF29F023EF09
:1052400029F0800E0E1A10C011F00FC010F011C01E
:105250000FF002C011F006C002F011C006F003C04A
:1052600011F007C003F011C007F004C011F008C02E
:1052700004F011C008F005C011F009C005F011C01C
:1052800009F0000E116E10500FC00AF00B6A0A5E92
:10529000000E0B5A0BBE56EF29F00B5009E11A0E07
:1052A0000A5CD8A056EF29F058EF29F08FEF29F0CB
:1052B0000250031004100510D8A461EF29F064EF28
:1052C00029F0010E65EF29F0000E116E000E026E3E
:1052D000000E036E000E046E000E056E0FC010F07F
:1052E00098EF29F011A077EF29F079EF29F07FEFFF
:1052F00029F0D89011300109116E81EF29F0D89072
:10530000113202A086EF29F088EF29F089EF29F009
:10531000118E05340532043203320232102A0F5046
:10532000105CD8A096EF29F098EF29F072EF29F0E1
:105330000EBC9DEF29F09FEF29F0DFEF29F0105010
:10534000D8A4A5EF29F0A7EF29F0B1EF29F0000EBE
:10535000026E000E036E000E046E000E056E00EF6E
:105360002BF0065002260750032208500422095051
:10537000052205A0BEEF29F0C0EF29F06CEF2AF05E
:1053800011A0C5EF29F0C7EF29F0CDEF29F0D89093
:1053900011300109116ECFEF29F0D890113202A01F
:1053A000D4EF29F0D6EF29F0D7EF29F0118E05348C
:1053B0000532043203320232102A6CEF2AF0065012
:1053C000025C07500358085004580550800A0A6EC2
:1053D0000950800A0A58D8B0F0EF29F0F2EF29F00E
:1053E0001DEF2AF00250065C0A6E035007580B6E40
:1053F000045008580C6E055009580D6EFF0E0A2413
:10540000026EFF0E0B20036EFF0E0C20046EFF0ECB
:105410000D20056E800E0E1A116C1150D8A413EFDA
:105420002AF015EF2AF025EF2AF0010E0226000ED1
:1054300003220422052225EF2AF00650025E0750BF
:10544000035A0850045A0950055A02500310041018
:105450000510D8A42EEF2AF030EF2AF065EF2AF0DD
:105460001150D8A436EF2AF038EF2AF065EF2AF071
:10547000000E026E000E036E000E046E000E056E2E
:1054800000EF2BF0D890023603360436053611AE05
:105490004CEF2AF04EEF2AF04FEF2AF0028011A0D5
:1054A00054EF2AF056EF2AF05AEF2AF0D88011363E
:1054B0005CEF2AF0D89011361050D8B462EF2AF081
:1054C00064EF2AF065EF2AF0100604AE6AEF2AF0C6
:1054D0006CEF2AF042EF2AF0000E0F6E11AE73EF60
:1054E0002AF075EF2AF08DEF2AF011C00AF07F0E36
:1054F0000A16D8B47EEF2AF080EF2AF084EF2AF063
:10550000010E0F6E8DEF2AF002A089EF2AF08BEFCB
:105510002AF08DEF2AF080EF2AF00F50D8B493EFE5
:105520002AF095EF2AF0C0EF2AF0010E0226000EB5
:1055300003220422052205A0A0EF2AF0A2EF2AF000
:10554000C0EF2AF002C00AF003C00BF004C00CF058
:1055500005C00DF00D340D320C320B320A320AC088
:1055600002F00BC003F00CC004F00DC005F01028D1
:10557000D8B4BDEF2AF0BFEF2AF0C0EF2AF0102A0E
:105580001028D8B4C6EF2AF0C8EF2AF0D0EF2AF0DE
:105590001050D8A4CEEF2AF0D0EF2AF0E2EF2AF094
:1055A000000E026E000E036E000E046E000E056EFD
:1055B0001050D8A4DEEF2AF0E0EF2AF0E2EF2AF054
:1055C000000E0E6E10A0E7EF2AF0E9EF2AF0ECEFE4
:1055D0002AF0048EEDEF2AF0049ED8901030056E6C
:1055E0000EAEF5EF2AF0F7EF2AF0F8EF2AF0058E6D
:1055F00002C002F003C003F004C004F005C005F0CF
:1056000012001350800B206E13501324276E12AE1D
:105610000CEF2BF00EEF2BF00FEF2BF02780275025
:10562000D8B415EF2BF017EF2BF02CEF2BF0272829
:10563000D8A41DEF2BF01FEF2BF027EF2BF0000E5F
:10564000106E000E116E000E126E000E136E128E92
:10565000000E136E34EF2BF0000E106E000E116E64
:10566000000E126E000E136E1750800B201A17508A
:105670001724286E16AE3FEF2BF041EF2BF042EFD0
:105680002BF028802850D8B448EF2BF04AEF2BF0AD
:105690005FEF2BF02828D8A450EF2BF052EF2BF01F
:1056A0005AEF2BF0000E146E000E156E000E166EE3
:1056B000000E176E168E000E176E67EF2BF0000EA1
:1056C000146E000E156E000E166E000E176E14503E
:1056D000151016101710D8A470EF2BF072EF2BF0E6
:1056E0008AEF2BF0000E106E000E116E000E126E7F
:1056F000000E136E800E12127F0E13122050131222
:1057000010C010F011C011F012C012F013C013F04D
:10571000CDEF2CF02750D8A490EF2BF092EF2BF088
:105720009CEF2BF0000E106E000E116E000E126E2C
:10573000000E136ECDEF2CF0285027C018F0196A18
:10574000185E000E195A7F0E1824216E000E1920C3
:10575000226E10C01CF011C01DF012C01EF013C04C
:105760001FF0000E106E000E116E000E126E000E75
:10577000136E000E236E000E246E000E256E000EBA
:10578000266E000E286EFDEF2BF02850D8B4CBEF1C
:105790002BF0CDEF2BF0E4EF2BF0D8901C361D361C
:1057A0001E361F36D890103611361236133626AEF6
:1057B000DCEF2BF0DEEF2BF0DFEF2BF01080D8903A
:1057C000233624362536263614501C5C15501D58B9
:1057D00016501E5817501F58D8A0F1EF2BF0F3EFBA
:1057E0002BF0FCEF2BF0268C14501C5E15501D5A2C
:1057F00016501E5A17501F5A282A190E286403EFF4
:105800002CF005EF2CF0C5EF2BF01C501D101E10D6
:105810001F10D8B40EEF2CF010EF2CF028EF2CF066
:10582000238028EF2CF0D89010361136123613361C
:1058300026AE1DEF2CF01FEF2CF020EF2CF0108087
:10584000D89023362436253626362106D8A02206BF
:1058500012AE2DEF2CF02FEF2CF013EF2CF0000EEA
:10586000286E26AE36EF2CF038EF2CF05CEF2CF0E3
:10587000FF0E2314186EFF0E2414196EFF0E25144C
:105880001A6E7F0E26141B6E185019101A101B105A
:10589000D8B44DEF2CF04FEF2CF053EF2CF0010E5D
:1058A000286E5CEF2CF010A058EF2CF05AEF2CF083
:1058B0005CEF2CF04FEF2CF02850D8B462EF2CF0B6
:1058C00064EF2CF088EF2CF0010E1026000E112250
:1058D0001222132213A06FEF2CF071EF2CF088EF3F
:1058E0002CF010C018F011C019F012C01AF013C03B
:1058F0001BF01B341B321A321932183218C010F048
:1059000019C011F01AC012F01BC013F0214A222A4C
:1059100022BE93EF2CF0225008E12128D8A093EF6B
:105920002CF095EF2CF0A0EF2CF0000E226E2168E9
:10593000000E106E000E116E000E126E000E136E31
:1059400022BEADEF2CF0225006E12104D8B0ABEF1F
:105950002CF0ADEF2CF0BBEF2CF0000E226E000E01
:10596000216E000E106E000E116E000E126E000EF3
:10597000136E000E206E21C027F027A0C2EF2CF07E
:10598000C4EF2CF0C7EF2CF0128EC8EF2CF0129E53
:10599000D8902730136E7EEF2BF012000A6E0A505B
:1059A000D8B4D5EF2CF0D7EF2CF0F9EF2CF005BEE2
:1059B000DEEF2CF0DCEF2CF0F9EF2CF002C006F05B
:1059C00003C007F004C008F005C009F0061E071E5A
:1059D000081E091E062A000E07220822092206C0F8
:1059E0000CF007C00DF008C00EF009C00FF001EF79
:1059F0002DF002C00CF003C00DF004C00EF005C085
:105A00000FF00250031004100510D8A40AEF2DF077
:105A10000CEF2DF016EF2DF0000E026E000E036E4F
:105A2000000E046E000E056EA7EF2DF0960E0B6EA5
:105A300020EF2DF00B2AD8900F320E320D320C329F
:105A4000000E0C14066E000E0D14076E000E0E14E0
:105A5000086EFE0E0F14096E06500710081009108C
:105A6000D8A435EF2DF037EF2DF01AEF2DF045EFDC
:105A70002DF00B2A010E0C26000E0D220E220F22F5
:105A8000D8900F320E320D320C32000E0C14066E0E
:105A9000000E0D14076E000E0E14086EFF0E0F148C
:105AA000096E0650071008100910D8A45AEF2DF0FF
:105AB0005CEF2DF039EF2DF064EF2DF00B06D89050
:105AC0000C360D360E360F360EBE69EF2DF06BEF2D
:105AD0002DF073EF2DF0020E0B6071EF2DF073EFD0
:105AE0002DF05EEF2DF00BB078EF2DF07AEF2DF06A
:105AF0007BEF2DF00E9ED8900B320BC006F0076A9C
:105B0000086A096A06C009F0086A076A066A065048
:105B10000C1207500D1208500E1209500F120A50A5
:105B2000D8B495EF2DF097EF2DF09FEF2DF005BE37
:105B30009EEF2DF09CEF2DF09FEF2DF00F8E0CC0FF
:105B400002F00DC003F00EC004F00FC005F012000B
:105B5000000E176E000E166E000E106E000E0F6E09
:105B6000B4EF2DF0094A0A2A010E156E09C0D9FFBB
:105B70000AC0DAFF200EDE18D8B4C1EF2DF0C3EF53
:105B80002DF0DFEF2DF0F70E0B6EFF0E0C6E09C03F
:105B9000D9FF0AC0DAFFDF500D6E0E6A0B500D26DA
:105BA0000C500E220E5009E1050E0D5CD8A0DBEF63
:105BB0002DF0DDEF2DF0DFEF2DF0000E156E15C08E
:105BC00011F0126A11501210D8A4E9EF2DF0EBEF8A
:105BD0002DF0B2EF2DF0F5EF2DF0000E106E010E4E
:105BE0000F6E094A0A2A2AEF2EF009C0D9FF0AC00F
:105BF000DAFFDF500B6E0C6A0C50000AD8B403EFCA
:105C00002EF02AEF2EF00B502B0AD8B4F1EF2DF026
:105C1000060AD8B4EDEF2DF02AEF2EF016C002F0F0
:105C200017C003F0000E056E0A0E046E27EC32F06A
:105C300009C0D9FF0AC0DAFFDF500B6E0B50025EBD
:105C4000000E035A300E0224166E000E0320176E4B
:105C5000F1EF2DF0D00E0B6EFF0E0C6E09C0D9FFC8
:105C60000AC0DAFFDF500D6E0E6A0B500D260C5085
:105C70000E220E500AE10A0E0D5CD8A042EF2EF063
:105C800045EF2EF0010E46EF2EF0000E136E146A53
:105C900013501410D8A44FEF2EF051EF2EF00EEF4A
:105CA0002EF00F501010D8A458EF2EF05AEF2EF00F
:105CB00068EF2EF016C00BF017C00CF00B1E0C1E78
:105CC0000B4A0C2A0BC009F00CC00AF06CEF2EF046
:105CD00016C009F017C00AF01200000E146E000E74
:105CE000156E600E166E400E176E3BC002F03CC083
:105CF00003F0046A056A000ECEEC2CF002C010F02E
:105D000003C011F004C012F005C013F001EC2BF039
:105D100010C031F011C032F012C033F013C034F0B3
:105D200077EC2FF031C03BF032C03CF03BC002F0CA
:105D30003CC003F0046A056A000ECEEC2CF002C0F1
:105D400014F003C015F004C016F005C017F0000EE3
:105D5000106E240E116E740E126E490E136E01EC4D
:105D60002BF010C02DF011C02EF012C02FF013C078
:105D700030F0000E296EFF0E2A6E7F0E2B6E470E3E
:105D80002C6E90EC31F029C031F02AC032F02BC0DB
:105D900033F02CC034F077EC2FF031C043F032C038
:105DA00044F043C0CEFF44C0CFFFCD80000E416E13
:105DB000000E406EE6EF2EF0150E3F6EC60EE82E7A
:105DC000FED73F2EFCD700D0404A412A3D50405CD0
:105DD0003E504158D8A0EFEF2EF0F1EF2EF0DCEF5F
:105DE0002EF0CD901200000E146E000E136EEBEC30
:105DF00031F0156E0D0E1518D8A401EF2FF003EF3A
:105E00002FF018EF2FF015C00CF00D6A65EC32F092
:105E1000000E0D6E0A0E0C6E65EC32F013500E245F
:105E2000D96E14500F20DA6E000EDF6E76EF2FF071
:105E30007F0E1518D8B41FEF2FF021EF2FF02AEFA7
:105E40002FF0080E1518D8A428EF2FF02AEF2FF006
:105E50004CEF2FF014BE35EF2FF0145008E113046F
:105E6000D8A035EF2FF037EF2FF0F7EF2EF015C059
:105E70000CF00D6A65EC32F0000E0D6E200E0C6E0B
:105E800065EC32F015C00CF00D6A65EC32F01306CB
:105E9000D8A01406F7EF2EF01F0E156452EF2FF066
:105EA00054EF2FF0F7EF2EF01050135C1450800ACF
:105EB000126E1150800A1258D8B061EF2FF063EFC4
:105EC0002FF074EF2FF015C00CF00D6A65EC32F076
:105ED00013500E24D96E14500F20DA6E15C0DFFF58
:105EE000134A142AF7EF2EF0F7EF2EF01200333496
:105EF00034343A6E3A50D8A480EF2FF082EF2FF06E
:105F00008CEF2FF0000E316E000E326E000E336EED
:105F1000000E346EF9EF2FF031C035F032C036F09C
:105F200033C037F034C038F0200E9CEF2FF0D890FB
:105F30003832373236323532E82E97EF2FF035507F
:105F4000396E338EFF0E3116FF0E3216FF0E3316EA
:105F5000000E3416960E3A5E3ABEB3EF2FF0B1EF54
:105F60002FF0C9EF2FF03A50800A970FD8B0BBEF4F
:105F70002FF0BDEF2FF0BFEF2FF082EF2FF0D89072
:105F800034323332323231323A3EBFEF2FF0E1EF6A
:105F90002FF01F0E3A64CFEF2FF0D1EF2FF0D9EF93
:105FA0002FF082EF2FF0D890313632363336343638
:105FB0003A063A50D8A4DFEF2FF0E1EF2FF0D3EFFD
:105FC0002FF03950D8B4E7EF2FF0E9EF2FF0F1EFD1
:105FD0002FF0341E331E321E316C000E322233225B
:105FE000342231C031F032C032F033C033F034C02B
:105FF00034F01200000E00019F6F640E9E6F58EC8B
:1060000032F000EC32F0510E1A6E100E1B6E14ECD2
:1060100032F04BEC32F0F28EF28C0F013891389363
:106020009290929289928990020E3C6EBA0E3B6ECB
:106030000A0E3E6E9A0E3D6E6DEC2EF0010E456E10
:10604000000E466E89B227EF30F02AEF30F0010ED5
:106050002BEF30F0000EFF0A426E42468950421884
:10606000FD0B4218896E060E036EB20E026EB3EC83
:1060700031F0010E1A6E100E1B6E14EC32F02EEC85
:1060800008F0310E1A6E100E1B6E14EC32F0880EF2
:106090000E6E000E0F6E000E116E140E106EF3ECED
:1060A0002EF000018851D8B458EF30F05AEF30F09C
:1060B00064EF30F0880E096E000E0A6EA8EC2DF029
:1060C00009C09CF00AC09DF09CC03BF09DC03CF014
:1060D0009EC03DF09FC03EF06DEC2EF041EF30F0E1
:1060E00048EF00F00EC0D9FF0FC0DAFFDECFF6FF99
:1060F000DDCFF7FF0800F550250AD8A482EF30F075
:1061000084EF30F0CCEF30F00EC0D9FF0FC0DAFFD3
:10611000DE2A000EDD22000E0001836F000E826F6A
:1061200082C086F083C087F0846985690EC0D9FF7C
:106130000FC0DAFFDECFF6FFDDCFF7FF0800F55026
:10614000250AD8A4A6EF30F0A8EF30F0BFEF30F06A
:106150000EC0D9FF0FC0DAFFDE2A000EDD22000ECE
:10616000046E250E036E0CC005F00DC006F0E8ECC1
:1061700030F0000E0D6E010E0C6EE7EF30F00EC029
:10618000D9FF0FC0DAFFDE2A000EDD22000E0D6EF1
:10619000000E0C6EE7EF30F00EC0D9FF0FC0DAFF33
:1061A000DECFF6FFDDCFF7FF0800F550036E046A7F
:1061B0000CC005F00DC006F0E8EC30F00EC0D9FFC1
:1061C0000FC0DAFFDE2A000EDD22B9EF30F0120038
:1061D00005500610D8B4EFEF30F0F1EF30F0FAEFE1
:1061E00030F005500610D8A4F8EF30F0FAEF30F098
:1061F000FFEF30F0035070EC32F032EF31F020EE70
:1062000004F00550D9260650DA22DE50DE10D8B44C
:106210000CEF31F00EEF31F029EF31F020EE04F009
:106220000550D9260650DA2210EE02F00550E1267C
:106230000650E222DE50E65CE650800A0B6EDE502D
:10624000800A0B58D8B027EF31F029EF31F032EF48
:1062500031F020EE02F00550D9260650DA22DE2A6F
:10626000000EDD2203C003F0046A120014C018F00F
:1062700015C019F0000E0001816F000E806F54EF01
:1062800031F012C00CF013C00DF0180E0E6E000E9F
:106290000F6E16C010F017C011F072EC30F00C50F9
:1062A000000180270D50812318C0F6FF19C0F7FFA9
:1062B0000800F5500009D8A460EF31F062EF31F02A
:1062C00041EF31F080C012F081C013F01200010ED6
:1062D000086E200E02180310D8B471EF31F073EF7E
:1062E00031F08CEF31F0F70E046EFF0E056E02C038
:1062F00006F003C007F00450062605500722075099
:1063000009E1050E065CD8A088EF31F08AEF31F084
:106310008CEF31F0000E086E08C002F0036A120024
:10632000000E2D1A000E2E1A000E2F1A800E301A93
:1063300029C002F02AC003F02BC004F02CC005F0E5
:106340002DC006F02EC007F02FC008F030C009F0B5
:10635000A1EC28F002C029F003C02AF004C02BF001
:1063600005C02CF01200000E066E000E056EC3EF85
:1063700031F0150E046EC60EE82EFED7042EFCD7A3
:1063800000D0054A062A0250055C03500658D8A0E2
:10639000CCEF31F0CEEF31F0B9EF31F01200D00E8A
:1063A000046EFF0E056E02C006F003C007F0045035
:1063B00006260550072207500AE10A0E065CD8A0FF
:1063C000E4EF31F0E7EF31F0010EE8EF31F0000ECD
:1063D000026E036A1200F7EF31F0ABA2F2EF31F078
:1063E000F4EF31F0F7EF31F0AB92AB98AB889EAAA7
:1063F000FCEF31F0FEEF31F0EDEF31F0AE50120076
:10640000000E0F01386F000E3A6F949C948EAC987A
:10641000AC9CAC8AAB9CAB88AB8EB896AC94330E7C
:10642000AF6E000EB06E12001C0E1E6E000E1F6EC0
:10643000000E126E000E136E1AC014F01BC015F081
:106440001E0E166E000E176E36EC31F01200025062
:106450000402F3CF06F0F4CF07F002500502F35028
:10646000072603500402F350072606C002F007C0B7
:1064700003F0120000EE60F0280EEE6AE806FDE17F
:10648000466A456A446A436A47904792000EF86E2E
:106490000001FAEF2FF0CD903F0ECD16CD82300ED9
:1064A000CD12000ECF6E000ECE6E9E909D8012001B
:1064B000FC0ED316700ED3129B8CD3A462EF32F075
:1064C00064EF32F05DEF32F012000CC003F00DC04B
:1064D00004F0000E056E000E066EE8EC30F01200BF
:1064E000026EACA276EF32F078EF32F071EF32F05C
:0664F00002C0ADFF120026
:020000040020DA
:08000000FFFFFFFFFFFFFFFF00
:020000040030CA
:0E000000FF281E3CFFBF85FF0FC00FE00F4022
:00000001FF
