:020000040000FA
:0400000048EF00F0D5
:1000080047829EA00AEF00F00CEF00F022EF00F00C
:1000180043C0CEFF44C0CFFF462A89B016EF00F098
:1000280019EF00F0010E1AEF00F0000EFF0A016E42
:1000380089500118FE0B0118896E9E908C0E461887
:10004800D8A429EF00F02BEF00F046EF00F04504AC
:10005800D8A431EF00F033EF00F046EF00F0000EC7
:10006800466E89B23AEF00F03DEF00F0010E3EEF28
:1000780000F0000EFF0A016E014689500118FD0BC1
:0C0088000118896E4792110048EF12F039
:1010000000446967697461726520756E612066725B
:10101000657175656E7A6120696E746572613A20DA
:101020000042616368202D20626164696E657269A7
:0F1030002E0A0D000A0D52455345540A0D0000BB
:101040000550800B0E6E05500524106E04AE2BEF7C
:1010500008F02DEF08F02EEF08F010801050D8B4F3
:1010600034EF08F036EF08F04BEF08F01028D8A462
:101070003CEF08F03EEF08F046EF08F0000E026E7D
:10108000000E036E000E046E000E056E048E000E40
:10109000056E53EF08F0000E026E000E036E000E98
:1010A000046E000E056E0950800B0F6E0E500F1867
:1010B000D8B45DEF08F05FEF08F060EF08F00E8C39
:1010C000095009240F6E08AE68EF08F06AEF08F0C7
:1010D0006BEF08F00F800F50D8B471EF08F073EF8A
:1010E00008F088EF08F00F28D8A479EF08F07BEF1C
:1010F00008F083EF08F0000E066E000E076E000E7B
:10110000086E000E096E088E000E096E90EF08F052
:10111000000E066E000E076E000E086E000E096EC1
:1011200010500F5CD8B097EF08F099EF08F0C0EFBF
:1011300008F00EAC9EEF08F0A0EF08F0A2EF08F068
:10114000800E0E1A10C011F00FC010F011C00FF079
:1011500002C011F006C002F011C006F003C011F089
:1011600007C003F011C007F004C011F008C004F07C
:1011700011C008F005C011F009C005F011C009F058
:10118000000E116E10500FC00AF00B6A0A5E000EBE
:101190000B5A0BBED5EF08F00B5009E11A0E0A5C92
:1011A000D8A0D5EF08F0D7EF08F00EEF09F0025005
:1011B000031004100510D8A4E0EF08F0E3EF08F0E6
:1011C000010EE4EF08F0000E116E000E026E000E2C
:1011D000036E000E046E000E056E0FC010F017EFC8
:1011E00009F011A0F6EF08F0F8EF08F0FEEF08F0B4
:1011F000D89011300109116E00EF09F0D89011322A
:1012000002A005EF09F007EF09F008EF09F0118ED1
:1012100005340532043203320232102A0F50105CBA
:10122000D8A015EF09F017EF09F0F1EF08F00EBCA8
:101230001CEF09F01EEF09F05EEF09F01050D8A482
:1012400024EF09F026EF09F030EF09F0000E026EEE
:10125000000E036E000E046E000E056E7FEF0AF0A6
:101260000650022607500322085004220950052286
:1012700005A03DEF09F03FEF09F0EBEF09F011A0F9
:1012800044EF09F046EF09F04CEF09F0D890113027
:101290000109116E4EEF09F0D890113202A053EF00
:1012A00009F055EF09F056EF09F0118E05340532BB
:1012B000043203320232102AEBEF09F00650025CCE
:1012C00007500358085004580550800A0A6E095008
:1012D000800A0A58D8B06FEF09F071EF09F09CEF5F
:1012E00009F00250065C0A6E035007580B6E04505A
:1012F00008580C6E055009580D6EFF0E0A24026E38
:10130000FF0E0B20036EFF0E0C20046EFF0E0D204F
:10131000056E800E0E1A116C1150D8A492EF09F0D0
:1013200094EF09F0A4EF09F0010E0226000E03224B
:1013300004220522A4EF09F00650025E0750035A6A
:101340000850045A0950055A0250031004100510A1
:10135000D8A4ADEF09F0AFEF09F0E4EF09F01150B8
:10136000D8A4B5EF09F0B7EF09F0E4EF09F0000EEB
:10137000026E000E036E000E046E000E056E7FEF0F
:101380000AF0D890023603360436053611AECBEF9C
:1013900009F0CDEF09F0CEEF09F0028011A0D3EFF4
:1013A00009F0D5EF09F0D9EF09F0D8801136DBEF5D
:1013B00009F0D89011361050D8B4E1EF09F0E3EFFE
:1013C00009F0E4EF09F0100604AEE9EF09F0EBEFE5
:1013D00009F0C1EF09F0000E0F6E11AEF2EF09F047
:1013E000F4EF09F00CEF0AF011C00AF07F0E0A16B4
:1013F000D8B4FDEF09F0FFEF09F003EF0AF0010E9A
:101400000F6E0CEF0AF002A008EF0AF00AEF0AF0E4
:101410000CEF0AF0FFEF09F00F50D8B412EF0AF00A
:1014200014EF0AF03FEF0AF0010E0226000E03222D
:101430000422052205A01FEF0AF021EF0AF03FEF7A
:101440000AF002C00AF003C00BF004C00CF005C0A3
:101450000DF00D340D320C320B320A320AC002F09C
:101460000BC003F00CC004F00DC005F01028D8B478
:101470003CEF0AF03EEF0AF03FEF0AF0102A102886
:10148000D8B445EF0AF047EF0AF04FEF0AF01050DA
:10149000D8A44DEF0AF04FEF0AF061EF0AF0000E0A
:1014A000026E000E036E000E046E000E056E1050EC
:1014B000D8A45DEF0AF05FEF0AF061EF0AF0000ECA
:1014C0000E6E10A066EF0AF068EF0AF06BEF0AF0FC
:1014D000048E6CEF0AF0049ED8901030056E0EAEAC
:1014E00074EF0AF076EF0AF077EF0AF0058E02C08B
:1014F00002F003C003F004C004F005C005F01200C0
:101500001350800B206E13501324276E12AE8BEFF6
:101510000AF08DEF0AF08EEF0AF027802750D8B43A
:1015200094EF0AF096EF0AF0ABEF0AF02728D8A460
:101530009CEF0AF09EEF0AF0A6EF0AF0000E106E84
:10154000000E116E000E126E000E136E128E000E43
:10155000136EB3EF0AF0000E106E000E116E000E47
:10156000126E000E136E1750800B201A175017249E
:10157000286E16AEBEEF0AF0C0EF0AF0C1EF0AF017
:1015800028802850D8B4C7EF0AF0C9EF0AF0DEEF80
:101590000AF02828D8A4CFEF0AF0D1EF0AF0D9EF4B
:1015A0000AF0000E146E000E156E000E166E000E80
:1015B000176E168E000E176EE6EF0AF0000E146E10
:1015C000000E156E000E166E000E176E14501510DC
:1015D00016101710D8A4EFEF0AF0F1EF0AF009EF98
:1015E0000BF0000E106E000E116E000E126E000E4B
:1015F000136E800E12127F0E13122050131210C0A1
:1016000010F011C011F012C012F013C013F04CEF23
:101610000CF02750D8A40FEF0BF011EF0BF01BEFDD
:101620000BF0000E106E000E116E000E126E000E0A
:10163000136E4CEF0CF0285027C018F0196A185E92
:10164000000E195A7F0E1824216E000E1920226EEA
:1016500010C01CF011C01DF012C01EF013C01FF00E
:10166000000E106E000E116E000E126E000E136E44
:10167000000E236E000E246E000E256E000E266EE8
:10168000000E286E7CEF0BF02850D8B44AEF0BF018
:101690004CEF0BF063EF0BF0D8901C361D361E3666
:1016A0001F36D890103611361236133626AE5BEF41
:1016B0000BF05DEF0BF05EEF0BF01080D89023364F
:1016C00024362536263614501C5C15501D581650ED
:1016D0001E5817501F58D8A070EF0BF072EF0BF088
:1016E0007BEF0BF0268C14501C5E15501D5A1650C3
:1016F0001E5A17501F5A282A190E286482EF0BF021
:1017000084EF0BF044EF0BF01C501D101E101F1047
:10171000D8B48DEF0BF08FEF0BF0A7EF0BF0238019
:10172000A7EF0BF0D890103611361236133626AECE
:101730009CEF0BF09EEF0BF09FEF0BF01080D8901A
:1017400023362436253626362106D8A0220612AEA8
:10175000ACEF0BF0AEEF0BF092EF0BF0000E286E3B
:1017600026AEB5EF0BF0B7EF0BF0DBEF0BF0FF0E93
:101770002314186EFF0E2414196EFF0E25141A6E12
:101780007F0E26141B6E185019101A101B10D8B497
:10179000CCEF0BF0CEEF0BF0D2EF0BF0010E286E7A
:1017A000DBEF0BF010A0D7EF0BF0D9EF0BF0DBEF76
:1017B0000BF0CEEF0BF02850D8B4E1EF0BF0E3EFD5
:1017C0000BF007EF0CF0010E1026000E1122122272
:1017D000132213A0EEEF0BF0F0EF0BF007EF0CF07D
:1017E00010C018F011C019F012C01AF013C01BF08D
:1017F0001B341B321A321932183218C010F019C0BB
:1018000011F01AC012F01BC013F0214A222A22BE86
:1018100012EF0CF0225008E12128D8A012EF0CF0B2
:1018200014EF0CF01FEF0CF0000E226E2168000E7A
:10183000106E000E116E000E126E000E136E22BEA0
:101840002CEF0CF0225006E12104D8B02AEF0CF066
:101850002CEF0CF03AEF0CF0000E226E000E216E11
:10186000000E106E000E116E000E126E000E136E42
:10187000000E206E21C027F027A041EF0CF043EFAF
:101880000CF046EF0CF0128E47EF0CF0129ED89041
:101890002730136EFDEF0AF012000A6E0A50D8B41A
:1018A00054EF0CF056EF0CF078EF0CF005BE5DEF46
:1018B0000CF05BEF0CF078EF0CF002C006F003C008
:1018C00007F004C008F005C009F0061E071E081E38
:1018D000091E062A000E07220822092206C00CF063
:1018E00007C00DF008C00EF009C00FF080EF0CF03B
:1018F00002C00CF003C00DF004C00EF005C00FF0E4
:101900000250031004100510D8A489EF0CF08BEFDF
:101910000CF095EF0CF0000E026E000E036E000E40
:10192000046E000E056E26EF0DF0960E0B6E9FEF07
:101930000CF00B2AD8900F320E320D320C32000E02
:101940000C14066E000E0D14076E000E0E14086EB9
:10195000FE0E0F14096E0650071008100910D8A4C7
:10196000B4EF0CF0B6EF0CF099EF0CF0C4EF0CF004
:101970000B2A010E0C26000E0D220E220F22D890EB
:101980000F320E320D320C32000E0C14066E000EA9
:101990000D14076E000E0E14086EFF0E0F14096E64
:1019A0000650071008100910D8A4D9EF0CF0DBEF8F
:1019B0000CF0B8EF0CF0E3EF0CF00B06D8900C36FF
:1019C0000D360E360F360EBEE8EF0CF0EAEF0CF0D7
:1019D000F2EF0CF0020E0B60F0EF0CF0F2EF0CF0F7
:1019E000DDEF0CF00BB0F7EF0CF0F9EF0CF0FAEFC5
:1019F0000CF00E9ED8900B320BC006F0076A086AF6
:101A0000096A06C009F0086A076A066A06500C12DD
:101A100007500D1208500E1209500F120A50D8B478
:101A200014EF0DF016EF0DF01EEF0DF005BE1DEFDB
:101A30000DF01BEF0DF01EEF0DF00F8E0CC002F03D
:101A40000DC003F00EC004F00FC005F01200000E30
:101A5000176E000E166E000E106E000E0F6E33EF36
:101A60000DF0094A0A2A010E156E09C0D9FF0AC0F5
:101A7000DAFF200EDE18D8B440EF0DF042EF0DF083
:101A80005EEF0DF0F70E0B6EFF0E0C6E09C0D9FF66
:101A90000AC0DAFFDF500D6E0E6A0B500D260C5097
:101AA0000E220E5009E1050E0D5CD8A05AEF0DF084
:101AB0005CEF0DF05EEF0DF0000E156E15C011F02D
:101AC000126A11501210D8A468EF0DF06AEF0DF0F1
:101AD00031EF0DF074EF0DF0000E106E010E0F6E71
:101AE000094A0A2AA9EF0DF009C0D9FF0AC0DAFF96
:101AF000DF500B6E0C6A0C50000AD8B482EF0DF068
:101B0000A9EF0DF00B502B0AD8B470EF0DF0060AB8
:101B1000D8B46CEF0DF0A9EF0DF016C002F017C0AD
:101B200003F0000E056E0A0E046E35EC12F009C0CB
:101B3000D9FF0AC0DAFFDF500B6E0B50025E000EB9
:101B4000035A300E0224166E000E0320176E70EF3B
:101B50000DF0D00E0B6EFF0E0C6E09C0D9FF0AC03F
:101B6000DAFFDF500D6E0E6A0B500D260C500E2260
:101B70000E500AE10A0E0D5CD8A0C1EF0DF0C4EFC3
:101B80000DF0010EC5EF0DF0000E136E146A135028
:101B90001410D8A4CEEF0DF0D0EF0DF08DEF0DF0B6
:101BA0000F501010D8A4D7EF0DF0D9EF0DF0E7EFDC
:101BB0000DF016C00BF017C00CF00B1E0C1E0B4ADC
:101BC0000C2A0BC009F00CC00AF0EBEF0DF016C0A8
:101BD00009F017C00AF01200020E3C6E6E0E3B6E4A
:101BE000000E3E6E7D0E3D6E7BEC0EF0000E036E21
:101BF0007D0E026EDDEC11F0010E3C6E370E3B6E79
:101C0000000E3E6E7D0E3D6E7BEC0EF0010E3C6EC6
:101C1000D20E3B6E010E3E6E770E3D6E7BEC0EF0EB
:101C2000010E3C6E9F0E3B6E000E3E6E7D0E3D6EB5
:101C30007BEC0EF0010E036E770E026EDDEC11F000
:101C4000020E3C6E6E0E3B6E000E3E6E7D0E3D6EC5
:101C50007BEC0EF0000E036E7D0E026EDDEC11F0DB
:101C6000010E3C6ED20E3B6E010E3E6EF40E3D6ECA
:101C70007BEC0EF0030E036EE80E026EDDEC11F04D
:101C8000030E3C6E3E0E3B6E000E3E6E7D0E3D6EB4
:101C90007BEC0EF0000E036E7D0E026EDDEC11F09B
:101CA000020E3C6E6E0E3B6E000E3E6E7D0E3D6E65
:101CB0007BEC0EF0000E036E7D0E026EDDEC11F07B
:101CC000010E3C6E9F0E3B6E000E3E6E7D0E3D6E15
:101CD0007BEC0EF0000E036E7D0E026EDDEC11F05B
:101CE000010E3C6ED20E3B6E000E3E6E7D0E3D6EC2
:101CF0007BEC0EF01200000E146E000E156E800EBE
:101D0000166E400E176E3BC002F03CC003F0046A32
:101D1000056A000E4DEC0CF002C010F003C011F08B
:101D200004C012F005C013F080EC0AF010C031F0CE
:101D300011C032F012C033F013C034F085EC0FF054
:101D400031C03BF032C03CF03BC002F03CC003F07D
:101D5000046A056A000E4DEC0CF002C014F003C0DA
:101D600015F004C016F005C017F0000E106E240E1A
:101D7000116E740E126E490E136E80EC0AF010C0D4
:101D80002DF011C02EF012C02FF013C030F0000E55
:101D9000296EFF0E2A6E7F0E2B6E470E2C6E9EEC68
:101DA00011F029C031F02AC032F02BC033F02CC022
:101DB00034F085EC0FF031C043F032C044F043C042
:101DC000CEFF44C0CFFFCD80000E416E000E406EAE
:101DD000F4EF0EF0150E3F6EC60EE82EFED73F2E26
:101DE000FCD700D0404A412A3D50405C3E5041580B
:101DF000D8A0FDEF0EF0FFEF0EF0EAEF0EF0CD9061
:101E00001200000E146E000E136EF9EC11F0156E38
:101E10000D0E1518D8A40FEF0FF011EF0FF026EFED
:101E20000FF015C00CF00D6A73EC12F0000E0D6E81
:101E30000A0E0C6E73EC12F013500E24D96E14506F
:101E40000F20DA6E000EDF6E84EF0FF07F0E151894
:101E5000D8B42DEF0FF02FEF0FF038EF0FF0080E82
:101E60001518D8A436EF0FF038EF0FF05AEF0FF037
:101E700014BE43EF0FF0145008E11304D8A043EF51
:101E80000FF045EF0FF005EF0FF015C00CF00D6AE5
:101E900073EC12F0000E0D6E200E0C6E73EC12F04F
:101EA00015C00CF00D6A73EC12F01306D8A01406DE
:101EB00005EF0FF01F0E156460EF0FF062EF0FF0EB
:101EC00005EF0FF01050135C1450800A126E115081
:101ED000800A1258D8B06FEF0FF071EF0FF082EF59
:101EE0000FF015C00CF00D6A73EC12F013500E24B5
:101EF000D96E14500F20DA6E15C0DFFF134A142A72
:101F000005EF0FF005EF0FF01200333434343A6E62
:101F10003A50D8A48EEF0FF090EF0FF09AEF0FF039
:101F2000000E316E000E326E000E336E000E346EF7
:101F300007EF10F031C035F032C036F033C037F063
:101F400034C038F0200EAAEF0FF0D8903832373274
:101F500036323532E82EA5EF0FF03550396E338E1C
:101F6000FF0E3116FF0E3216FF0E3316000E34161A
:101F7000960E3A5E3ABEC1EF0FF0BFEF0FF0D7EF0B
:101F80000FF03A50800A970FD8B0C9EF0FF0CBEF9F
:101F90000FF0CDEF0FF090EF0FF0D89034323332D6
:101FA000323231323A3ECDEF0FF0EFEF0FF01F0E2D
:101FB0003A64DDEF0FF0DFEF0FF0E7EF0FF090EF97
:101FC0000FF0D89031363236333634363A063A503E
:101FD000D8A4EDEF0FF0EFEF0FF0E1EF0FF0395075
:101FE000D8B4F5EF0FF0F7EF0FF0FFEF0FF0341E5E
:101FF000331E321E316C000E32223322342231C0A5
:1020000031F032C032F033C033F034C034F012005B
:10201000000E00019F6F640E9E6F66EC12F00EECD6
:1020200012F0340E1A6E100E1B6E22EC12F059ECE8
:1020300012F0F28EF28C0F013891389392909292B6
:1020400089928990020E3C6EBA0E3B6E0A0E3E6E6D
:102050009A0E3D6E7BEC0EF0010E456E000E466E44
:1020600089B235EF10F038EF10F0010E39EF10F0B3
:10207000000EFF0A426E424689504218FD0B42187C
:10208000896E060E036EB20E026EDDEC11F0210EAB
:102090001A6E100E1B6E22EC12F0ECEC0DF0010E1D
:1020A0001A6E100E1B6E22EC12F0880E0E6E000ED1
:1020B0000F6E000E116E140E106E01EC0FF0000189
:1020C0008851D8B466EF10F068EF10F072EF10F09E
:1020D000880E096E000E0A6E27EC0DF009C09CF008
:1020E0000AC09DF09CC03BF09DC03CF09EC03DF0FE
:1020F0009FC03EF07BEC0EF04FEF10F048EF00F089
:102100000EC0D9FF0FC0DAFFDECFF6FFDDCFF7FF3D
:102110000800F550250AD8A490EF10F092EF10F0C7
:10212000DAEF10F00EC0D9FF0FC0DAFFDE2A000E82
:10213000DD22000E0001836F000E826F82C086F0E8
:1021400083C087F0846985690EC0D9FF0FC0DAFFAC
:10215000DECFF6FFDDCFF7FF0800F550250AD8A443
:10216000B4EF10F0B6EF10F0CDEF10F00EC0D9FFC5
:102170000FC0DAFFDE2A000EDD22000E046E250EEF
:10218000036E0CC005F00DC006F0F6EC10F0000E6A
:102190000D6E010E0C6EF5EF10F00EC0D9FF0FC0E2
:1021A000DAFFDE2A000EDD22000E0D6E000E0C6E30
:1021B000F5EF10F00EC0D9FF0FC0DAFFDECFF6FF4B
:1021C000DDCFF7FF0800F550036E046A0CC005F080
:1021D0000DC006F0F6EC10F00EC0D9FF0FC0DAFF0C
:1021E000DE2A000EDD22C7EF10F0120005500610A7
:1021F000D8B4FDEF10F0FFEF10F008EF11F005502C
:102200000610D8A406EF11F008EF11F00DEF11F051
:1022100003507EEC12F040EF11F020EE04F0055078
:10222000D9260650DA22DE50DE10D8B41AEF11F0AB
:102230001CEF11F037EF11F020EE04F00550D92615
:102240000650DA2210EE02F00550E1260650E22296
:10225000DE50E65CE650800A0B6EDE50800A0B58BA
:10226000D8B035EF11F037EF11F040EF11F020EE5C
:1022700002F00550D9260650DA22DE2A000EDD22B1
:1022800003C003F0046A120014C018F015C019F05E
:10229000000E0001816F000E806F62EF11F012C01E
:1022A0000CF013C00DF0180E0E6E000E0F6E16C05F
:1022B00010F017C011F080EC10F00C5000018027D6
:1022C0000D50812318C0F6FF19C0F7FF0800F55024
:1022D0000009D8A46EEF11F070EF11F04FEF11F07C
:1022E00080C012F081C013F01200010E086E200EA3
:1022F00002180310D8B47FEF11F081EF11F09AEFBC
:1023000011F0F70E046EFF0E056E02C006F003C05A
:1023100007F00450062605500722075009E1050E74
:10232000065CD8A096EF11F098EF11F09AEF11F03B
:10233000000E086E08C002F0036A1200000E2D1A8B
:10234000000E2E1A000E2F1A800E301A29C002F02D
:102350002AC003F02BC004F02CC005F02DC006F0FD
:102360002EC007F02FC008F030C009F020EC08F0B4
:1023700002C029F003C02AF004C02BF005C02CF0E5
:102380001200D00E046EFF0E056E02C006F003C0F0
:1023900007F0045006260550072207500AE10A0EEE
:1023A000065CD8A0D6EF11F0D9EF11F0010EDAEFEC
:1023B00011F0000E026E036A1200000E066E000E8F
:1023C000056EEDEF11F0150E046EC60EE82EFED769
:1023D000042EFCD700D0054A062A0250055C0350A3
:1023E0000658D8A0F6EF11F0F8EF11F0E3EF11F076
:1023F000120005EF12F0ABA200EF12F002EF12F0A4
:1024000005EF12F0AB92AB98AB889EAA0AEF12F0E0
:102410000CEF12F0FBEF11F0AE501200000E0F01A6
:10242000386F000E3A6F949C948EAC98AC9CAC8A3A
:10243000AB9CAB88AB8EB896AC94330EAF6E000EEF
:10244000B06E12001C0E1E6E000E1F6E000E126E7D
:10245000000E136E1AC014F01BC015F01E0E166E7F
:10246000000E176E44EC11F0120002500402F3CF7C
:1024700006F0F4CF07F002500502F3500726035090
:102480000402F350072606C002F007C003F0120052
:1024900000EE60F0280EEE6AE806FDE1466A456A45
:1024A000446A436A47904792000EF86E000108EFB5
:1024B00010F0CD903F0ECD16CD82300ECD12000E15
:1024C000CF6E000ECE6E9E909D801200FC0ED31635
:1024D000700ED3129B8CD3A470EF12F072EF12F037
:1024E0006BEF12F012000CC003F00DC004F0000EF0
:1024F000056E000E066EF6EC10F01200026EACA235
:1025000084EF12F086EF12F07FEF12F002C0ADFF01
:022510001200B7
:020000040020DA
:08000000FFFFFFFFFFFFFFFF00
:020000040030CA
:0E000000FF281E3CFFBF85FF0FC00FE00F4022
:00000001FF
