:020000040000FA
:0400000048EF00F0D5
:1000080047829EA00AEF00F00CEF00F022EF00F00C
:1000180043C0CEFF44C0CFFF462A89B016EF00F098
:1000280019EF00F0010E1AEF00F0000EFF0A016E42
:1000380089500118FE0B0118896E9E908C0E461887
:10004800D8A429EF00F02BEF00F046EF00F04504AC
:10005800D8A431EF00F033EF00F046EF00F0000EC7
:10006800466E89B23AEF00F03DEF00F0010E3EEF28
:1000780000F0000EFF0A016E014689500118FD0BC1
:0C0088000118896E4792110000EF38F05B
:1010000000506565672047796E74202D20496E2059
:101010007468652068616C6C206F66207468652058
:101020006D6F756E7461696E206B696E672E0A0D47
:1010300000446967697461726520756E612066722B
:10104000657175656E7A6120696E746572613A20AA
:10105000000A0D52455345540A0D0000000E3C6E27
:10106000B80E3B6E060E3E6E760E3D6E33EC34F0DF
:10107000000E036E540E026E79EC37F0000E3C6EDB
:101080003D0E3B6E000E3E6E6A0E3D6E33EC34F04C
:10109000000E036E6D0E026E79EC37F0000E3C6EA2
:1010A000450E3B6E000E3E6E6A0E3D6E33EC34F024
:1010B000000E036E6E0E026E79EC37F0000E3C6E81
:1010C000490E3B6E000E3E6E6A0E3D6E33EC34F000
:1010D000000E036E6D0E026E79EC37F0000E3C6E62
:1010E000520E3B6E000E3E6E6A0E3D6E33EC34F0D7
:1010F000000E036E6E0E026E79EC37F0000E3C6E41
:101100005C0E3B6E000E3E6E6A0E3D6E33EC34F0AC
:10111000000E036E6D0E026E79EC37F0000E3C6E21
:10112000490E3B6E000E3E6E6A0E3D6E33EC34F09F
:10113000000E036E6E0E026E79EC37F0000E3C6E00
:101140005C0E3B6E000E3E6ED50E3D6E33EC34F001
:10115000000E036EDC0E026E79EC37F0000E3C6E72
:10116000570E3B6E000E3E6E6A0E3D6E33EC34F051
:10117000000E036E6D0E026E79EC37F0000E3C6EC1
:10118000450E3B6E000E3E6E6A0E3D6E33EC34F043
:10119000000E036E6E0E026E79EC37F0000E3C6EA0
:1011A000570E3B6E000E3E6ED50E3D6E33EC34F0A6
:1011B000000E036EDC0E026E79EC37F0000E3C6E12
:1011C000520E3B6E000E3E6E6A0E3D6E33EC34F0F6
:1011D000000E036E6D0E026E79EC37F0000E3C6E61
:1011E000410E3B6E000E3E6E6A0E3D6E33EC34F0E7
:1011F000000E036E6E0E026E79EC37F0000E3C6E40
:10120000520E3B6E000E3E6ED50E3D6E33EC34F04A
:10121000000E036EDC0E026E79EC37F0000E3C6EB1
:101220003D0E3B6E000E3E6E6A0E3D6E33EC34F0AA
:10123000000E036E6D0E026E79EC37F0000E3C6E00
:10124000450E3B6E000E3E6E6A0E3D6E33EC34F082
:10125000000E036E6E0E026E79EC37F0000E3C6EDF
:10126000490E3B6E000E3E6E6A0E3D6E33EC34F05E
:10127000000E036E6D0E026E79EC37F0000E3C6EC0
:10128000520E3B6E000E3E6E6A0E3D6E33EC34F035
:10129000000E036E6E0E026E79EC37F0000E3C6E9F
:1012A0005C0E3B6E000E3E6E6A0E3D6E33EC34F00B
:1012B000000E036E6D0E026E79EC37F0000E3C6E80
:1012C000490E3B6E000E3E6E6A0E3D6E33EC34F0FE
:1012D000000E036E6E0E026E79EC37F0000E3C6E5F
:1012E0005C0E3B6E000E3E6E6A0E3D6E33EC34F0CB
:1012F000000E036E6D0E026E79EC37F0000E3C6E40
:101300007B0E3B6E000E3E6E6A0E3D6E33EC34F08B
:10131000000E036E6E0E026E79EC37F0000E3C6E1E
:101320006E0E3B6E000E3E6E6A0E3D6E33EC34F078
:10133000000E036E6D0E026E79EC37F0000E3C6EFF
:101340005C0E3B6E000E3E6E6A0E3D6E33EC34F06A
:10135000000E036E6E0E026E79EC37F0000E3C6EDE
:10136000490E3B6E000E3E6E6A0E3D6E33EC34F05D
:10137000000E036E6D0E026E79EC37F0000E3C6EBF
:101380005C0E3B6E000E3E6E6A0E3D6E33EC34F02A
:10139000000E036E6E0E026E79EC37F0000E3C6E9E
:1013A0006E0E3B6E030E3E6E0D0E3D6E33EC34F052
:1013B000000E036E540E026E79EC37F0000E3C6E98
:1013C0007B0E3B6E000E3E6E6A0E3D6E33EC34F0CB
:1013D000000E036E6D0E026E79EC37F0000E3C6E5F
:1013E0008A0E3B6E000E3E6E6A0E3D6E33EC34F09C
:1013F000000E036E6E0E026E79EC37F0000E3C6E3E
:10140000920E3B6E000E3E6E6A0E3D6E33EC34F073
:10141000000E036E6D0E026E79EC37F0000E3C6E1E
:10142000A40E3B6E000E3E6E6A0E3D6E33EC34F041
:10143000000E036E6E0E026E79EC37F0000E3C6EFD
:10144000B80E3B6E000E3E6E6A0E3D6E33EC34F00D
:10145000000E036E6D0E026E79EC37F0000E3C6EDE
:10146000920E3B6E000E3E6E6A0E3D6E33EC34F013
:10147000000E036E6E0E026E79EC37F0000E3C6EBD
:10148000B80E3B6E000E3E6ED50E3D6E33EC34F062
:10149000000E036EDC0E026E79EC37F0000E3C6E2F
:1014A000AE0E3B6E000E3E6E6A0E3D6E33EC34F0B7
:1014B000000E036E6D0E026E79EC37F0000E3C6E7E
:1014C0008A0E3B6E000E3E6E6A0E3D6E33EC34F0BB
:1014D000000E036E6E0E026E79EC37F0000E3C6E5D
:1014E000AE0E3B6E000E3E6ED50E3D6E33EC34F00C
:1014F000000E036EDC0E026E79EC37F0000E3C6ECF
:10150000A40E3B6E000E3E6E6A0E3D6E33EC34F060
:10151000000E036E6D0E026E79EC37F0000E3C6E1D
:10152000820E3B6E000E3E6E6A0E3D6E33EC34F062
:10153000000E036E6E0E026E79EC37F0000E3C6EFC
:10154000A40E3B6E000E3E6ED50E3D6E33EC34F0B5
:10155000000E036EDC0E026E79EC37F0000E3C6E6E
:101560007B0E3B6E000E3E6E6A0E3D6E33EC34F029
:10157000000E036E6D0E026E79EC37F0000E3C6EBD
:101580008A0E3B6E000E3E6E6A0E3D6E33EC34F0FA
:10159000000E036E6E0E026E79EC37F0000E3C6E9C
:1015A000920E3B6E000E3E6E6A0E3D6E33EC34F0D2
:1015B000000E036E6D0E026E79EC37F0000E3C6E7D
:1015C000A40E3B6E000E3E6E6A0E3D6E33EC34F0A0
:1015D000000E036E6E0E026E79EC37F0000E3C6E5C
:1015E000B80E3B6E000E3E6E6A0E3D6E33EC34F06C
:1015F000000E036E6D0E026E79EC37F0000E3C6E3D
:10160000920E3B6E000E3E6E6A0E3D6E33EC34F071
:10161000000E036E6E0E026E79EC37F0000E3C6E1B
:10162000B80E3B6E000E3E6E6A0E3D6E33EC34F02B
:10163000000E036E6D0E026E79EC37F0000E3C6EFC
:10164000F60E3B6E000E3E6E6A0E3D6E33EC34F0CD
:10165000000E036E6E0E026E79EC37F0000E3C6EDB
:10166000DC0E3B6E000E3E6E6A0E3D6E33EC34F0C7
:10167000000E036E6D0E026E79EC37F0000E3C6EBC
:10168000B80E3B6E000E3E6E6A0E3D6E33EC34F0CB
:10169000000E036E6E0E026E79EC37F0000E3C6E9B
:1016A000920E3B6E000E3E6E6A0E3D6E33EC34F0D1
:1016B000000E036E6D0E026E79EC37F0000E3C6E7C
:1016C000B80E3B6E000E3E6E6A0E3D6E33EC34F08B
:1016D000000E036E6E0E026E79EC37F0000E3C6E5B
:1016E0006E0E3B6E030E3E6E0D0E3D6E33EC34F00F
:1016F000000E036E540E026E79EC37F0000E3C6E55
:101700005C0E3B6E000E3E6E6A0E3D6E33EC34F0A6
:10171000000E036E6D0E026E79EC37F0000E3C6E1B
:10172000670E3B6E000E3E6E6A0E3D6E33EC34F07B
:10173000000E036E6E0E026E79EC37F0000E3C6EFA
:10174000740E3B6E000E3E6E6A0E3D6E33EC34F04E
:10175000000E036E6D0E026E79EC37F0000E3C6EDB
:101760007B0E3B6E000E3E6E6A0E3D6E33EC34F027
:10177000000E036E6E0E026E79EC37F0000E3C6EBA
:101780008A0E3B6E000E3E6E6A0E3D6E33EC34F0F8
:10179000000E036E6D0E026E79EC37F0000E3C6E9B
:1017A000740E3B6E000E3E6E6A0E3D6E33EC34F0EE
:1017B000000E036E6E0E026E79EC37F0000E3C6E7A
:1017C0008A0E3B6E000E3E6ED50E3D6E33EC34F04D
:1017D000000E036EDC0E026E79EC37F0000E3C6EEC
:1017E000920E3B6E000E3E6E6A0E3D6E33EC34F090
:1017F000000E036E6D0E026E79EC37F0000E3C6E3B
:10180000740E3B6E000E3E6E6A0E3D6E33EC34F08D
:10181000000E036E6E0E026E79EC37F0000E3C6E19
:10182000920E3B6E000E3E6ED50E3D6E33EC34F0E4
:10183000000E036EDC0E026E79EC37F0000E3C6E8B
:101840008A0E3B6E000E3E6E6A0E3D6E33EC34F037
:10185000000E036E6D0E026E79EC37F0000E3C6EDA
:10186000740E3B6E000E3E6E6A0E3D6E33EC34F02D
:10187000000E036E6E0E026E79EC37F0000E3C6EB9
:101880008A0E3B6E000E3E6ED50E3D6E33EC34F08C
:10189000000E036EDC0E026E79EC37F0000E3C6E2B
:1018A0005C0E3B6E000E3E6E6A0E3D6E33EC34F005
:1018B000000E036E6D0E026E79EC37F0000E3C6E7A
:1018C000670E3B6E000E3E6E6A0E3D6E33EC34F0DA
:1018D000000E036E6E0E026E79EC37F0000E3C6E59
:1018E000740E3B6E000E3E6E6A0E3D6E33EC34F0AD
:1018F000000E036E6D0E026E79EC37F0000E3C6E3A
:101900007B0E3B6E000E3E6E6A0E3D6E33EC34F085
:10191000000E036E6E0E026E79EC37F0000E3C6E18
:101920008A0E3B6E000E3E6E6A0E3D6E33EC34F056
:10193000000E036E6D0E026E79EC37F0000E3C6EF9
:10194000740E3B6E000E3E6E6A0E3D6E33EC34F04C
:10195000000E036E6E0E026E79EC37F0000E3C6ED8
:101960008A0E3B6E000E3E6ED50E3D6E33EC34F0AB
:10197000000E036EDC0E026E79EC37F0000E3C6E4A
:10198000920E3B6E000E3E6E6A0E3D6E33EC34F0EE
:10199000000E036E6D0E026E79EC37F0000E3C6E99
:1019A000740E3B6E000E3E6E6A0E3D6E33EC34F0EC
:1019B000000E036E6E0E026E79EC37F0000E3C6E78
:1019C000920E3B6E000E3E6ED50E3D6E33EC34F043
:1019D000000E036EDC0E026E79EC37F0000E3C6EEA
:1019E0008A0E3B6E010E3E6EA90E3D6E33EC34F056
:1019F000000E036E080E026E79EC37F0000E3C6E9E
:101A0000450E3B6E000E3E6ED50E3D6E33EC34F04F
:101A1000000E036EDC0E026E79EC37F0000E3C6EA9
:101A2000B80E3B6E000E3E6E6A0E3D6E33EC34F027
:101A3000000E036E6D0E026E79EC37F0000E3C6EF8
:101A4000CF0E3B6E000E3E6E6A0E3D6E33EC34F0F0
:101A5000000E036E6E0E026E79EC37F0000E3C6ED7
:101A6000E90E3B6E000E3E6E6A0E3D6E33EC34F0B6
:101A7000000E036E6D0E026E79EC37F0000E3C6EB8
:101A8000F60E3B6E000E3E6E6A0E3D6E33EC34F089
:101A9000000E036E6E0E026E79EC37F0010E3C6E96
:101AA000150E3B6E000E3E6E6A0E3D6E33EC34F04A
:101AB000000E036E6D0E026E79EC37F0000E3C6E78
:101AC000E90E3B6E000E3E6E6A0E3D6E33EC34F056
:101AD000000E036E6E0E026E79EC37F0010E3C6E56
:101AE000150E3B6E000E3E6ED50E3D6E33EC34F09F
:101AF000000E036EDC0E026E79EC37F0010E3C6EC8
:101B0000250E3B6E000E3E6E6A0E3D6E33EC34F0D9
:101B1000000E036E6D0E026E79EC37F0000E3C6E17
:101B2000E90E3B6E000E3E6E6A0E3D6E33EC34F0F5
:101B3000000E036E6E0E026E79EC37F0010E3C6EF5
:101B4000250E3B6E000E3E6ED50E3D6E33EC34F02E
:101B5000000E036EDC0E026E79EC37F0010E3C6E67
:101B6000150E3B6E000E3E6E6A0E3D6E33EC34F089
:101B7000000E036E6D0E026E79EC37F0000E3C6EB7
:101B8000E90E3B6E000E3E6E6A0E3D6E33EC34F095
:101B9000000E036E6E0E026E79EC37F0010E3C6E95
:101BA000150E3B6E000E3E6ED50E3D6E33EC34F0DE
:101BB000000E036EDC0E026E79EC37F0000E3C6E08
:101BC000B80E3B6E000E3E6E6A0E3D6E33EC34F086
:101BD000000E036E6D0E026E79EC37F0000E3C6E57
:101BE000CF0E3B6E000E3E6E6A0E3D6E33EC34F04F
:101BF000000E036E6E0E026E79EC37F0000E3C6E36
:101C0000E90E3B6E000E3E6E6A0E3D6E33EC34F014
:101C1000000E036E6D0E026E79EC37F0000E3C6E16
:101C2000F60E3B6E000E3E6E6A0E3D6E33EC34F0E7
:101C3000000E036E6E0E026E79EC37F0010E3C6EF4
:101C4000150E3B6E000E3E6E6A0E3D6E33EC34F0A8
:101C5000000E036E6D0E026E79EC37F0000E3C6ED6
:101C6000E90E3B6E000E3E6E6A0E3D6E33EC34F0B4
:101C7000000E036E6E0E026E79EC37F0010E3C6EB4
:101C8000150E3B6E000E3E6ED50E3D6E33EC34F0FD
:101C9000000E036EDC0E026E79EC37F0010E3C6E26
:101CA000250E3B6E000E3E6E6A0E3D6E33EC34F038
:101CB000000E036E6D0E026E79EC37F0000E3C6E76
:101CC000E90E3B6E000E3E6E6A0E3D6E33EC34F054
:101CD000000E036E6E0E026E79EC37F0010E3C6E54
:101CE000250E3B6E000E3E6ED50E3D6E33EC34F08D
:101CF000000E036EDC0E026E79EC37F0010E3C6EC6
:101D0000150E3B6E010E3E6EA90E3D6E33EC34F0A7
:101D1000000E036E080E026E79EC37F0000E3C6E7A
:101D2000450E3B6E000E3E6ED50E3D6E33EC34F02C
:101D3000000E036EDC0E026E79EC37F0000E3C6E86
:101D40003D0E3B6E000E3E6E670E3D6E33EC34F082
:101D5000000E036E6A0E026E79EC37F0000E3C6ED8
:101D6000450E3B6E000E3E6E670E3D6E33EC34F05A
:101D7000000E036E6B0E026E79EC37F0000E3C6EB7
:101D8000490E3B6E000E3E6E670E3D6E33EC34F036
:101D9000000E036E6A0E026E79EC37F0000E3C6E98
:101DA000520E3B6E000E3E6E670E3D6E33EC34F00D
:101DB000000E036E6B0E026E79EC37F0000E3C6E77
:101DC0005C0E3B6E000E3E6E670E3D6E33EC34F0E3
:101DD000000E036E6A0E026E79EC37F0000E3C6E58
:101DE000490E3B6E000E3E6E670E3D6E33EC34F0D6
:101DF000000E036E6B0E026E79EC37F0000E3C6E37
:101E00005C0E3B6E000E3E6ECF0E3D6E33EC34F03A
:101E1000000E036ED60E026E79EC37F0000E3C6EAB
:101E2000570E3B6E000E3E6E670E3D6E33EC34F087
:101E3000000E036E6A0E026E79EC37F0000E3C6EF7
:101E4000450E3B6E000E3E6E670E3D6E33EC34F079
:101E5000000E036E6B0E026E79EC37F0000E3C6ED6
:101E6000570E3B6E000E3E6ECF0E3D6E33EC34F0DF
:101E7000000E036ED60E026E79EC37F0000E3C6E4B
:101E8000520E3B6E000E3E6E670E3D6E33EC34F02C
:101E9000000E036E6A0E026E79EC37F0000E3C6E97
:101EA000410E3B6E000E3E6E670E3D6E33EC34F01D
:101EB000000E036E6B0E026E79EC37F0000E3C6E76
:101EC000520E3B6E000E3E6ECF0E3D6E33EC34F084
:101ED000000E036ED60E026E79EC37F0000E3C6EEB
:101EE0003D0E3B6E000E3E6E670E3D6E33EC34F0E1
:101EF000000E036E6A0E026E79EC37F0000E3C6E37
:101F0000450E3B6E000E3E6E670E3D6E33EC34F0B8
:101F1000000E036E6B0E026E79EC37F0000E3C6E15
:101F2000490E3B6E000E3E6E670E3D6E33EC34F094
:101F3000000E036E6A0E026E79EC37F0000E3C6EF6
:101F4000520E3B6E000E3E6E670E3D6E33EC34F06B
:101F5000000E036E6B0E026E79EC37F0000E3C6ED5
:101F60005C0E3B6E000E3E6E670E3D6E33EC34F041
:101F7000000E036E6A0E026E79EC37F0000E3C6EB6
:101F8000490E3B6E000E3E6E670E3D6E33EC34F034
:101F9000000E036E6B0E026E79EC37F0000E3C6E95
:101FA0005C0E3B6E000E3E6E670E3D6E33EC34F001
:101FB000000E036E6A0E026E79EC37F0000E3C6E76
:101FC0007B0E3B6E000E3E6E670E3D6E33EC34F0C2
:101FD000000E036E6B0E026E79EC37F0000E3C6E55
:101FE0006E0E3B6E000E3E6E670E3D6E33EC34F0AF
:101FF000000E036E6A0E026E79EC37F0000E3C6E36
:102000005C0E3B6E000E3E6E670E3D6E33EC34F0A0
:10201000000E036E6B0E026E79EC37F0000E3C6E14
:10202000490E3B6E000E3E6E670E3D6E33EC34F093
:10203000000E036E6A0E026E79EC37F0000E3C6EF5
:102040005C0E3B6E000E3E6E670E3D6E33EC34F060
:10205000000E036E6B0E026E79EC37F0000E3C6ED4
:102060006E0E3B6E020E3E6EF80E3D6E33EC34F09B
:10207000000E036E520E026E79EC37F0000E3C6ECD
:102080007B0E3B6E000E3E6E670E3D6E33EC34F001
:10209000000E036E6A0E026E79EC37F0000E3C6E95
:1020A0008A0E3B6E000E3E6E670E3D6E33EC34F0D2
:1020B000000E036E6B0E026E79EC37F0000E3C6E74
:1020C000920E3B6E000E3E6E670E3D6E33EC34F0AA
:1020D000000E036E6A0E026E79EC37F0000E3C6E55
:1020E000A40E3B6E000E3E6E670E3D6E33EC34F078
:1020F000000E036E6B0E026E79EC37F0000E3C6E34
:10210000B80E3B6E000E3E6E670E3D6E33EC34F043
:10211000000E036E6A0E026E79EC37F0000E3C6E14
:10212000920E3B6E000E3E6E670E3D6E33EC34F049
:10213000000E036E6B0E026E79EC37F0000E3C6EF3
:10214000B80E3B6E000E3E6ECF0E3D6E33EC34F09B
:10215000000E036ED60E026E79EC37F0000E3C6E68
:10216000AE0E3B6E000E3E6E670E3D6E33EC34F0ED
:10217000000E036E6A0E026E79EC37F0000E3C6EB4
:102180008A0E3B6E000E3E6E670E3D6E33EC34F0F1
:10219000000E036E6B0E026E79EC37F0000E3C6E93
:1021A000AE0E3B6E000E3E6ECF0E3D6E33EC34F045
:1021B000000E036ED60E026E79EC37F0000E3C6E08
:1021C000A40E3B6E000E3E6E670E3D6E33EC34F097
:1021D000000E036E6A0E026E79EC37F0000E3C6E54
:1021E000820E3B6E000E3E6E670E3D6E33EC34F099
:1021F000000E036E6B0E026E79EC37F0000E3C6E33
:10220000A40E3B6E000E3E6ECF0E3D6E33EC34F0EE
:10221000000E036ED60E026E79EC37F0000E3C6EA7
:102220007B0E3B6E000E3E6E670E3D6E33EC34F05F
:10223000000E036E6A0E026E79EC37F0000E3C6EF3
:102240008A0E3B6E000E3E6E670E3D6E33EC34F030
:10225000000E036E6B0E026E79EC37F0000E3C6ED2
:10226000920E3B6E000E3E6E670E3D6E33EC34F008
:10227000000E036E6A0E026E79EC37F0000E3C6EB3
:10228000A40E3B6E000E3E6E670E3D6E33EC34F0D6
:10229000000E036E6B0E026E79EC37F0000E3C6E92
:1022A000B80E3B6E000E3E6E670E3D6E33EC34F0A2
:1022B000000E036E6A0E026E79EC37F0000E3C6E73
:1022C000920E3B6E000E3E6E670E3D6E33EC34F0A8
:1022D000000E036E6B0E026E79EC37F0000E3C6E52
:1022E000B80E3B6E000E3E6E670E3D6E33EC34F062
:1022F000000E036E6A0E026E79EC37F0000E3C6E33
:10230000F60E3B6E000E3E6E670E3D6E33EC34F003
:10231000000E036E6B0E026E79EC37F0000E3C6E11
:10232000B80E3B6E000E3E6E670E3D6E33EC34F021
:10233000000E036E6A0E026E79EC37F0000E3C6EF2
:10234000920E3B6E000E3E6E670E3D6E33EC34F027
:10235000000E036E6B0E026E79EC37F0000E3C6ED1
:10236000B80E3B6E000E3E6E670E3D6E33EC34F0E1
:10237000000E036E6A0E026E79EC37F0000E3C6EB2
:10238000F60E3B6E000E3E6E670E3D6E33EC34F083
:10239000000E036E6B0E026E79EC37F0000E3C6E91
:1023A0007B0E3B6E020E3E6EF80E3D6E33EC34F04B
:1023B000000E036E520E026E79EC37F0000E3C6E8A
:1023C000F60E3B6E000E3E6E670E3D6E33EC34F043
:1023D000000E036E6A0E026E79EC37F0010E3C6E51
:1023E000150E3B6E000E3E6E670E3D6E33EC34F004
:1023F000000E036E6B0E026E79EC37F0000E3C6E31
:10240000B80E3B6E000E3E6E670E3D6E33EC34F040
:10241000000E036E010E026E79EC37F0000E3C6E7A
:10242000570E3B6E000E3E6E5F0E3D6E33EC34F089
:10243000000E036E090E026E79EC37F0010E3C6E51
:10244000490E3B6E000E3E6E670E3D6E33EC34F06F
:10245000000E036E6B0E026E79EC37F0010E3C6ECF
:10246000710E3B6E000E3E6E670E3D6E33EC34F027
:10247000000E036E6A0E026E79EC37F0010E3C6EB0
:10248000250E3B6E000E3E6E670E3D6E33EC34F053
:10249000000E036E6B0E026E79EC37F0000E3C6E90
:1024A000B80E3B6E000E3E6ECD0E3D6E33EC34F03A
:1024B000000E036E030E026E79EC37F0000E3C6ED8
:1024C0005C0E3B6E000E3E6E670E3D6E33EC34F0DC
:1024D000000E036E6B0E026E79EC37F0010E3C6E4F
:1024E0005D0E3B6E000E3E6E670E3D6E33EC34F0BB
:1024F000000E036E6A0E026E79EC37F0010E3C6E30
:10250000150E3B6E000E3E6E670E3D6E33EC34F0E2
:10251000000E036E6B0E026E79EC37F0000E3C6E0F
:10252000B80E3B6E000E3E6ECD0E3D6E33EC34F0B9
:10253000000E036E030E026E79EC37F0000E3C6E57
:102540005C0E3B6E000E3E6E670E3D6E33EC34F05B
:10255000000E036E6B0E026E79EC37F0010E3C6ECE
:10256000490E3B6E000E3E6E670E3D6E33EC34F04E
:10257000000E036E6A0E026E79EC37F0010E3C6EAF
:10258000050E3B6E000E3E6E670E3D6E33EC34F072
:10259000000E036E6B0E026E79EC37F0000E3C6E8F
:1025A000B80E3B6E000E3E6ECD0E3D6E33EC34F039
:1025B000000E036E030E026E79EC37F0000E3C6ED7
:1025C0005C0E3B6E000E3E6E670E3D6E33EC34F0DB
:1025D000000E036E6B0E026E79EC37F0000E3C6E4F
:1025E000F60E3B6E000E3E6E670E3D6E33EC34F021
:1025F000000E036E6A0E026E79EC37F0010E3C6E2F
:10260000150E3B6E000E3E6E670E3D6E33EC34F0E1
:10261000000E036E6B0E026E79EC37F0000E3C6E0E
:10262000B80E3B6E000E3E6E670E3D6E33EC34F01E
:10263000000E036E010E026E79EC37F0000E3C6E58
:10264000570E3B6E000E3E6E5F0E3D6E33EC34F067
:10265000000E036E090E026E79EC37F0010E3C6E2F
:10266000490E3B6E000E3E6E670E3D6E33EC34F04D
:10267000000E036E6B0E026E79EC37F0010E3C6EAD
:10268000710E3B6E000E3E6E670E3D6E33EC34F005
:10269000000E036E6A0E026E79EC37F0010E3C6E8E
:1026A000250E3B6E000E3E6E670E3D6E33EC34F031
:1026B000000E036E6B0E026E79EC37F0010E3C6E6D
:1026C000710E3B6E000E3E6E670E3D6E33EC34F0C5
:1026D000000E036E010E026E79EC37F0000E3C6EB8
:1026E000570E3B6E000E3E6E5F0E3D6E33EC34F0C7
:1026F000000E036E090E026E79EC37F0010E3C6E8F
:10270000ED0E3B6E000E3E6E670E3D6E33EC34F008
:10271000000E036E6B0E026E79EC37F0010E3C6E0C
:10272000B80E3B6E000E3E6E670E3D6E33EC34F01D
:10273000000E036E6A0E026E79EC37F0010E3C6EED
:10274000710E3B6E000E3E6E670E3D6E33EC34F044
:10275000000E036E6B0E026E79EC37F0000E3C6ECD
:10276000DC0E3B6E000E3E6E670E3D6E33EC34F0B9
:10277000000E036E010E026E79EC37F0000E3C6E17
:10278000670E3B6E000E3E6E5F0E3D6E33EC34F016
:10279000000E036E090E026E79EC37F0010E3C6EEE
:1027A000710E3B6E000E3E6E670E3D6E33EC34F0E4
:1027B000000E036E6B0E026E79EC37F0010E3C6E6C
:1027C000B80E3B6E020E3E6EF40E3D6E33EC34F0EE
:1027D000000E036E520E026E79EC37F0010E3C6E65
:1027E000ED0E3B6E000E3E6E670E3D6E33EC34F028
:1027F000000E036E6A0E026E79EC37F0020E3C6E2C
:102800002A0E3B6E000E3E6E670E3D6E33EC34F0CA
:10281000000E036E6B0E026E79EC37F0010E3C6E0B
:10282000710E3B6E000E3E6E670E3D6E33EC34F063
:10283000000E036E010E026E79EC37F0000E3C6E56
:10284000570E3B6E000E3E6E5F0E3D6E33EC34F065
:10285000000E036E090E026E79EC37F0020E3C6E2C
:10286000930E3B6E000E3E6E670E3D6E33EC34F001
:10287000000E036E6B0E026E79EC37F0020E3C6EAA
:10288000E30E3B6E000E3E6E670E3D6E33EC34F091
:10289000000E036E6A0E026E79EC37F0020E3C6E8B
:1028A0004B0E3B6E000E3E6E670E3D6E33EC34F009
:1028B000000E036E6B0E026E79EC37F0010E3C6E6B
:1028C000710E3B6E000E3E6ECD0E3D6E33EC34F05D
:1028D000000E036E030E026E79EC37F0000E3C6EB4
:1028E0005C0E3B6E000E3E6E670E3D6E33EC34F0B8
:1028F000000E036E6B0E026E79EC37F0020E3C6E2A
:10290000BA0E3B6E000E3E6E670E3D6E33EC34F039
:10291000000E036E6A0E026E79EC37F0020E3C6E0A
:102920002A0E3B6E000E3E6E670E3D6E33EC34F0A9
:10293000000E036E6B0E026E79EC37F0010E3C6EEA
:10294000710E3B6E000E3E6ECD0E3D6E33EC34F0DC
:10295000000E036E030E026E79EC37F0000E3C6E33
:102960005C0E3B6E000E3E6E670E3D6E33EC34F037
:10297000000E036E6B0E026E79EC37F0020E3C6EA9
:10298000930E3B6E000E3E6E670E3D6E33EC34F0E0
:10299000000E036E6A0E026E79EC37F0020E3C6E8A
:1029A0000B0E3B6E000E3E6E670E3D6E33EC34F048
:1029B000000E036E6B0E026E79EC37F0010E3C6E6A
:1029C000710E3B6E000E3E6ECD0E3D6E33EC34F05C
:1029D000000E036E030E026E79EC37F0000E3C6EB3
:1029E0005C0E3B6E000E3E6E670E3D6E33EC34F0B7
:1029F000000E036E6B0E026E79EC37F0010E3C6E2A
:102A0000ED0E3B6E000E3E6E670E3D6E33EC34F005
:102A1000000E036E6A0E026E79EC37F0020E3C6E09
:102A20002A0E3B6E000E3E6E670E3D6E33EC34F0A8
:102A3000000E036E6B0E026E79EC37F0010E3C6EE9
:102A4000710E3B6E000E3E6E670E3D6E33EC34F041
:102A5000000E036E010E026E79EC37F0000E3C6E34
:102A6000570E3B6E000E3E6E5F0E3D6E33EC34F043
:102A7000000E036E090E026E79EC37F0020E3C6E0A
:102A8000930E3B6E000E3E6E670E3D6E33EC34F0DF
:102A9000000E036E6B0E026E79EC37F0020E3C6E88
:102AA000E30E3B6E000E3E6E670E3D6E33EC34F06F
:102AB000000E036E6A0E026E79EC37F0020E3C6E69
:102AC0004B0E3B6E000E3E6E670E3D6E33EC34F0E7
:102AD000000E036E6B0E026E79EC37F0020E3C6E48
:102AE000E30E3B6E000E3E6E670E3D6E33EC34F02F
:102AF000000E036E010E026E79EC37F0000E3C6E94
:102B0000570E3B6E000E3E6E5F0E3D6E33EC34F0A2
:102B1000000E036E090E026E79EC37F0030E3C6E68
:102B2000DB0E3B6E000E3E6E670E3D6E33EC34F0F6
:102B3000000E036E6B0E026E79EC37F0030E3C6EE6
:102B4000700E3B6E000E3E6E670E3D6E33EC34F041
:102B5000000E036E6A0E026E79EC37F0020E3C6EC8
:102B6000E30E3B6E000E3E6E670E3D6E33EC34F0AE
:102B7000000E036E6B0E026E79EC37F0010E3C6EA8
:102B8000B80E3B6E000E3E6E670E3D6E33EC34F0B9
:102B9000000E036E010E026E79EC37F0000E3C6EF3
:102BA000670E3B6E000E3E6E5F0E3D6E33EC34F0F2
:102BB000000E036E090E026E79EC37F0020E3C6EC9
:102BC000E30E3B6E000E3E6E670E3D6E33EC34F04E
:102BD000000E036E6B0E026E79EC37F0030E3C6E46
:102BE000700E3B6E020E3E6EF40E3D6E33EC34F012
:102BF000000E036E520E026E79EC37F0010E3C6E41
:102C0000710E3B6E000E3E6E670E3D6E33EC34F07F
:102C1000000E036E6A0E026E79EC37F0010E3C6E08
:102C20009F0E3B6E000E3E6E670E3D6E33EC34F031
:102C3000000E036E6B0E026E79EC37F0010E3C6EE7
:102C4000D20E3B6E000E3E6E670E3D6E33EC34F0DE
:102C5000000E036E010E026E79EC37F0000E3C6E32
:102C6000820E3B6E000E3E6E5F0E3D6E33EC34F016
:102C7000000E036E090E026E79EC37F0010E3C6E09
:102C8000ED0E3B6E000E3E6E670E3D6E33EC34F083
:102C9000000E036E6B0E026E79EC37F0020E3C6E86
:102CA0002A0E3B6E000E3E6E670E3D6E33EC34F026
:102CB000000E036E6A0E026E79EC37F0010E3C6E68
:102CC000D20E3B6E000E3E6E670E3D6E33EC34F05E
:102CD000000E036E6B0E026E79EC37F0020E3C6E46
:102CE0002A0E3B6E000E3E6ECD0E3D6E33EC34F080
:102CF000000E036E030E026E79EC37F0000E3C6E90
:102D00008A0E3B6E000E3E6E670E3D6E33EC34F065
:102D1000000E036E6B0E026E79EC37F0020E3C6E05
:102D20004B0E3B6E000E3E6E670E3D6E33EC34F084
:102D3000000E036E6A0E026E79EC37F0010E3C6EE7
:102D4000D20E3B6E000E3E6E670E3D6E33EC34F0DD
:102D5000000E036E6B0E026E79EC37F0020E3C6EC5
:102D60004B0E3B6E000E3E6ECD0E3D6E33EC34F0DE
:102D7000000E036E030E026E79EC37F0000E3C6E0F
:102D8000920E3B6E000E3E6E670E3D6E33EC34F0DD
:102D9000000E036E6B0E026E79EC37F0020E3C6E85
:102DA0002A0E3B6E000E3E6E670E3D6E33EC34F025
:102DB000000E036E6A0E026E79EC37F0010E3C6E67
:102DC000D20E3B6E000E3E6E670E3D6E33EC34F05D
:102DD000000E036E6B0E026E79EC37F0020E3C6E45
:102DE0002A0E3B6E000E3E6ECD0E3D6E33EC34F07F
:102DF000000E036E030E026E79EC37F0000E3C6E8F
:102E00008A0E3B6E000E3E6E670E3D6E33EC34F064
:102E1000000E036E6B0E026E79EC37F0010E3C6E05
:102E2000710E3B6E000E3E6E670E3D6E33EC34F05D
:102E3000000E036E6A0E026E79EC37F0010E3C6EE6
:102E40009F0E3B6E000E3E6E670E3D6E33EC34F00F
:102E5000000E036E6B0E026E79EC37F0010E3C6EC5
:102E6000D20E3B6E000E3E6E670E3D6E33EC34F0BC
:102E7000000E036E010E026E79EC37F0000E3C6E10
:102E8000820E3B6E000E3E6E5F0E3D6E33EC34F0F4
:102E9000000E036E090E026E79EC37F0010E3C6EE7
:102EA000ED0E3B6E000E3E6E670E3D6E33EC34F061
:102EB000000E036E6B0E026E79EC37F0020E3C6E64
:102EC0002A0E3B6E000E3E6E670E3D6E33EC34F004
:102ED000000E036E6A0E026E79EC37F0010E3C6E46
:102EE000D20E3B6E000E3E6E670E3D6E33EC34F03C
:102EF000000E036E6B0E026E79EC37F0020E3C6E24
:102F00002A0E3B6E000E3E6ECD0E3D6E33EC34F05D
:102F1000000E036E030E026E79EC37F0000E3C6E6D
:102F20008A0E3B6E000E3E6E670E3D6E33EC34F043
:102F3000000E036E6B0E026E79EC37F0020E3C6EE3
:102F40004B0E3B6E000E3E6E670E3D6E33EC34F062
:102F5000000E036E6A0E026E79EC37F0010E3C6EC5
:102F6000D20E3B6E000E3E6E670E3D6E33EC34F0BB
:102F7000000E036E6B0E026E79EC37F0020E3C6EA3
:102F80004B0E3B6E000E3E6ECD0E3D6E33EC34F0BC
:102F9000000E036E030E026E79EC37F0000E3C6EED
:102FA000920E3B6E000E3E6E670E3D6E33EC34F0BB
:102FB000000E036E6B0E026E79EC37F0020E3C6E63
:102FC0002A0E3B6E010E3E6E9D0E3D6E33EC34F0CC
:102FD000000E036E080E026E79EC37F0010E3C6EA7
:102FE000710E3B6E010E3E6E790E3D6E33EC34F089
:102FF000000E036E290E026E79EC37F0020E3C6E65
:10300000E30E3B6E000E3E6E670E3D6E33EC34F009
:10301000000E036E6A0E026E79EC37F0030E3C6E02
:103020003E0E3B6E000E3E6E670E3D6E33EC34F08E
:10303000000E036E6B0E026E79EC37F0030E3C6EE1
:10304000A40E3B6E000E3E6E670E3D6E33EC34F008
:10305000000E036E010E026E79EC37F0000E3C6E2E
:10306000820E3B6E000E3E6E5F0E3D6E33EC34F012
:10307000000E036E090E026E79EC37F0030E3C6E03
:10308000DB0E3B6E000E3E6E670E3D6E33EC34F091
:10309000000E036E6B0E026E79EC37F0040E3C6E80
:1030A000540E3B6E000E3E6E670E3D6E33EC34F0F8
:1030B000000E036E6A0E026E79EC37F0030E3C6E62
:1030C000A40E3B6E000E3E6E670E3D6E33EC34F088
:1030D000000E036E6B0E026E79EC37F0040E3C6E40
:1030E000540E3B6E000E3E6ECD0E3D6E33EC34F052
:1030F000000E036E030E026E79EC37F0000E3C6E8C
:103100008A0E3B6E000E3E6E670E3D6E33EC34F061
:10311000000E036E6B0E026E79EC37F0040E3C6EFF
:10312000960E3B6E000E3E6E670E3D6E33EC34F035
:10313000000E036E6A0E026E79EC37F0030E3C6EE1
:10314000A40E3B6E000E3E6E670E3D6E33EC34F007
:10315000000E036E6B0E026E79EC37F0040E3C6EBF
:10316000960E3B6E000E3E6ECD0E3D6E33EC34F08F
:10317000000E036E030E026E79EC37F0000E3C6E0B
:10318000920E3B6E000E3E6E670E3D6E33EC34F0D9
:10319000000E036E6B0E026E79EC37F0040E3C6E7F
:1031A000540E3B6E000E3E6E670E3D6E33EC34F0F7
:1031B000000E036E6A0E026E79EC37F0030E3C6E61
:1031C000A40E3B6E000E3E6E670E3D6E33EC34F087
:1031D000000E036E6B0E026E79EC37F0040E3C6E3F
:1031E000540E3B6E000E3E6ECD0E3D6E33EC34F051
:1031F000000E036E030E026E79EC37F0000E3C6E8B
:103200008A0E3B6E000E3E6E670E3D6E33EC34F060
:10321000000E036E6B0E026E79EC37F0020E3C6E00
:10322000E30E3B6E000E3E6E670E3D6E33EC34F0E7
:10323000000E036E6A0E026E79EC37F0030E3C6EE0
:103240003E0E3B6E000E3E6E670E3D6E33EC34F06C
:10325000000E036E6B0E026E79EC37F0030E3C6EBF
:10326000A40E3B6E000E3E6E670E3D6E33EC34F0E6
:10327000000E036E010E026E79EC37F0000E3C6E0C
:10328000820E3B6E000E3E6E5F0E3D6E33EC34F0F0
:10329000000E036E090E026E79EC37F0030E3C6EE1
:1032A000DB0E3B6E000E3E6E670E3D6E33EC34F06F
:1032B000000E036E6B0E026E79EC37F0040E3C6E5E
:1032C000540E3B6E000E3E6E670E3D6E33EC34F0D6
:1032D000000E036E6A0E026E79EC37F0030E3C6E40
:1032E000A40E3B6E000E3E6E670E3D6E33EC34F066
:1032F000000E036E6B0E026E79EC37F0040E3C6E1E
:10330000540E3B6E000E3E6ECD0E3D6E33EC34F02F
:10331000000E036E030E026E79EC37F0000E3C6E69
:103320008A0E3B6E000E3E6E670E3D6E33EC34F03F
:10333000000E036E6B0E026E79EC37F0040E3C6EDD
:10334000960E3B6E000E3E6E670E3D6E33EC34F013
:10335000000E036E6A0E026E79EC37F0030E3C6EBF
:10336000A40E3B6E000E3E6E670E3D6E33EC34F0E5
:10337000000E036E6B0E026E79EC37F0040E3C6E9D
:10338000960E3B6E000E3E6ECD0E3D6E33EC34F06D
:10339000000E036E030E026E79EC37F0000E3C6EE9
:1033A000920E3B6E000E3E6E670E3D6E33EC34F0B7
:1033B000000E036E6B0E026E79EC37F0040E3C6E5D
:1033C000540E3B6E010E3E6E9D0E3D6E33EC34F09E
:1033D000000E036E080E026E79EC37F0020E3C6EA2
:1033E000E30E3B6E010E3E6E790E3D6E33EC34F013
:1033F000000E036E290E026E79EC37F0000E3C6E63
:10340000F60E3B6E000E3E6E650E3D6E33EC34F0F4
:10341000000E036E220E026E79EC37F0000E3C6E49
:10342000570E3B6E000E3E6E7B0E3D6E33EC34F05D
:10343000000E036E0C0E026E79EC37F0000E3C6E3F
:103440005C0E3B6E000E3E6E7D0E3D6E33EC34F036
:10345000000E036E0C0E026E79EC37F0000E3C6E1F
:10346000B80E3B6E000E3E6E650E3D6E33EC34F0D2
:10347000000E036E220E026E79EC37F0000E3C6EE9
:10348000570E3B6E000E3E6E7B0E3D6E33EC34F0FD
:10349000000E036E0C0E026E79EC37F0000E3C6EDF
:1034A0005C0E3B6E000E3E6E7D0E3D6E33EC34F0D6
:1034B000000E036E0C0E026E79EC37F0010E3C6EBE
:1034C000710E3B6E000E3E6E650E3D6E33EC34F0B9
:1034D000000E036E220E026E79EC37F0000E3C6E89
:1034E000570E3B6E000E3E6E7B0E3D6E33EC34F09D
:1034F000000E036E0C0E026E79EC37F0000E3C6E7F
:103500005C0E3B6E000E3E6E7D0E3D6E33EC34F075
:10351000000E036E0C0E026E79EC37F0000E3C6E5E
:10352000B80E3B6E000E3E6ECA0E3D6E33EC34F0AC
:10353000000E036E460E026E79EC37F0000E3C6E04
:103540005C0E3B6E000E3E6E7E0E3D6E33EC34F034
:10355000000E036E0C0E026E79EC37F0010E3C6E1D
:103560005D0E3B6E000E3E6E650E3D6E33EC34F02C
:10357000000E036E220E026E79EC37F0000E3C6EE8
:10358000570E3B6E000E3E6E7B0E3D6E33EC34F0FC
:10359000000E036E0C0E026E79EC37F0000E3C6EDE
:1035A0005C0E3B6E000E3E6E7D0E3D6E33EC34F0D5
:1035B000000E036E0C0E026E79EC37F0000E3C6EBE
:1035C000B80E3B6E000E3E6ECA0E3D6E33EC34F00C
:1035D000000E036E460E026E79EC37F0000E3C6E64
:1035E0005C0E3B6E000E3E6E7E0E3D6E33EC34F094
:1035F000000E036E0C0E026E79EC37F0010E3C6E7D
:10360000490E3B6E000E3E6E650E3D6E33EC34F09F
:10361000000E036E220E026E79EC37F0000E3C6E47
:10362000570E3B6E000E3E6E7B0E3D6E33EC34F05B
:10363000000E036E0C0E026E79EC37F0000E3C6E3D
:103640005C0E3B6E000E3E6E7D0E3D6E33EC34F034
:10365000000E036E0C0E026E79EC37F0000E3C6E1D
:10366000B80E3B6E000E3E6ECA0E3D6E33EC34F06B
:10367000000E036E460E026E79EC37F0000E3C6EC3
:103680005C0E3B6E000E3E6E7E0E3D6E33EC34F0F3
:10369000000E036E0C0E026E79EC37F0000E3C6EDD
:1036A000F60E3B6E000E3E6E650E3D6E33EC34F052
:1036B000000E036E220E026E79EC37F0000E3C6EA7
:1036C000570E3B6E000E3E6E7B0E3D6E33EC34F0BB
:1036D000000E036E0C0E026E79EC37F0000E3C6E9D
:1036E0005C0E3B6E000E3E6E7D0E3D6E33EC34F094
:1036F000000E036E0C0E026E79EC37F0000E3C6E7D
:10370000B80E3B6E000E3E6E650E3D6E33EC34F02F
:10371000000E036E220E026E79EC37F0000E3C6E46
:10372000570E3B6E000E3E6E7B0E3D6E33EC34F05A
:10373000000E036E0C0E026E79EC37F0000E3C6E3C
:103740005C0E3B6E000E3E6E7D0E3D6E33EC34F033
:10375000000E036E0C0E026E79EC37F0010E3C6E1B
:10376000710E3B6E000E3E6E650E3D6E33EC34F016
:10377000000E036E220E026E79EC37F0000E3C6EE6
:10378000570E3B6E000E3E6E7B0E3D6E33EC34F0FA
:10379000000E036E0C0E026E79EC37F0000E3C6EDC
:1037A0005C0E3B6E000E3E6E7D0E3D6E33EC34F0D3
:1037B000000E036E0C0E026E79EC37F0000E3C6EBC
:1037C000F60E3B6E000E3E6E650E3D6E33EC34F031
:1037D000000E036E220E026E79EC37F0000E3C6E86
:1037E000570E3B6E000E3E6E7B0E3D6E33EC34F09A
:1037F000000E036E0C0E026E79EC37F0000E3C6E7C
:103800005C0E3B6E000E3E6E7D0E3D6E33EC34F072
:10381000000E036E0C0E026E79EC37F0010E3C6E5A
:10382000B80E3B6E000E3E6E650E3D6E33EC34F00E
:10383000000E036E220E026E79EC37F0000E3C6E25
:10384000670E3B6E000E3E6E7B0E3D6E33EC34F029
:10385000000E036E0C0E026E79EC37F0000E3C6E1B
:103860006E0E3B6E000E3E6E7D0E3D6E33EC34F000
:10387000000E036E0C0E026E79EC37F0000E3C6EFB
:10388000DC0E3B6E000E3E6E650E3D6E33EC34F08A
:10389000000E036E220E026E79EC37F0000E3C6EC5
:1038A000670E3B6E000E3E6E7B0E3D6E33EC34F0C9
:1038B000000E036E0C0E026E79EC37F0000E3C6EBB
:1038C0006E0E3B6E000E3E6E7D0E3D6E33EC34F0A0
:1038D000000E036E0C0E026E79EC37F0010E3C6E9A
:1038E000B80E3B6E030E3E6E0C0E3D6E33EC34F0A4
:1038F000000E036E270E026E79EC37F0010E3C6E5F
:10390000ED0E3B6E000E3E6E630E3D6E33EC34F0FA
:10391000000E036E220E026E79EC37F0000E3C6E44
:10392000570E3B6E000E3E6E790E3D6E33EC34F05A
:10393000000E036E0C0E026E79EC37F0000E3C6E3A
:103940005C0E3B6E000E3E6E7B0E3D6E33EC34F033
:10395000000E036E0C0E026E79EC37F0010E3C6E19
:10396000710E3B6E000E3E6E630E3D6E33EC34F016
:10397000000E036E220E026E79EC37F0000E3C6EE4
:10398000570E3B6E000E3E6E790E3D6E33EC34F0FA
:10399000000E036E0C0E026E79EC37F0000E3C6EDA
:1039A0005C0E3B6E000E3E6E7B0E3D6E33EC34F0D3
:1039B000000E036E0C0E026E79EC37F0020E3C6EB8
:1039C000E30E3B6E000E3E6E630E3D6E33EC34F044
:1039D000000E036E220E026E79EC37F0000E3C6E84
:1039E000570E3B6E000E3E6E790E3D6E33EC34F09A
:1039F000000E036E0C0E026E79EC37F0000E3C6E7A
:103A00005C0E3B6E000E3E6E7B0E3D6E33EC34F072
:103A1000000E036E0C0E026E79EC37F0010E3C6E58
:103A2000710E3B6E000E3E6EC50E3D6E33EC34F0F3
:103A3000000E036E450E026E79EC37F0000E3C6E00
:103A40005C0E3B6E000E3E6E7B0E3D6E33EC34F032
:103A5000000E036E0C0E026E79EC37F0020E3C6E17
:103A6000BA0E3B6E000E3E6E630E3D6E33EC34F0CC
:103A7000000E036E220E026E79EC37F0000E3C6EE3
:103A8000570E3B6E000E3E6E790E3D6E33EC34F0F9
:103A9000000E036E0C0E026E79EC37F0000E3C6ED9
:103AA0005C0E3B6E000E3E6E7B0E3D6E33EC34F0D2
:103AB000000E036E0C0E026E79EC37F0010E3C6EB8
:103AC000710E3B6E000E3E6EC50E3D6E33EC34F053
:103AD000000E036E450E026E79EC37F0000E3C6E60
:103AE0005C0E3B6E000E3E6E7B0E3D6E33EC34F092
:103AF000000E036E0C0E026E79EC37F0020E3C6E77
:103B0000930E3B6E000E3E6E630E3D6E33EC34F052
:103B1000000E036E220E026E79EC37F0000E3C6E42
:103B2000570E3B6E000E3E6E790E3D6E33EC34F058
:103B3000000E036E0C0E026E79EC37F0000E3C6E38
:103B40005C0E3B6E000E3E6E7B0E3D6E33EC34F031
:103B5000000E036E0C0E026E79EC37F0010E3C6E17
:103B6000710E3B6E000E3E6EC50E3D6E33EC34F0B2
:103B7000000E036E450E026E79EC37F0000E3C6EBF
:103B80005C0E3B6E000E3E6E7B0E3D6E33EC34F0F1
:103B9000000E036E0C0E026E79EC37F0010E3C6ED7
:103BA000ED0E3B6E000E3E6E620E3D6E33EC34F059
:103BB000000E036E210E026E79EC37F0000E3C6EA3
:103BC000570E3B6E000E3E6E760E3D6E33EC34F0BB
:103BD000000E036E0C0E026E79EC37F0000E3C6E98
:103BE0005C0E3B6E000E3E6E770E3D6E33EC34F095
:103BF000000E036E0C0E026E79EC37F0010E3C6E77
:103C0000710E3B6E000E3E6E5E0E3D6E33EC34F078
:103C1000000E036E610E026E79EC37F0020E3C6E00
:103C2000930E3B6E000E3E6E5C0E3D6E33EC34F038
:103C3000000E036E5E0E026E79EC37F0020E3C6EE3
:103C4000E30E3B6E000E3E6E5A0E3D6E33EC34F0CA
:103C5000000E036E5D0E026E79EC37F0020E3C6EC4
:103C60004B0E3B6E000E3E6E580E3D6E33EC34F044
:103C7000000E036E5B0E026E79EC37F0020E3C6EA6
:103C8000E30E3B6E000E3E6E560E3D6E33EC34F08E
:103C9000000E036E590E026E79EC37F0030E3C6E87
:103CA000DB0E3B6E000E3E6E550E3D6E33EC34F077
:103CB000000E036E570E026E79EC37F0020E3C6E6A
:103CC000E30E3B6E000E3E6E530E3D6E33EC34F051
:103CD000000E036E560E026E79EC37F0020E3C6E4B
:103CE0004B0E3B6E000E3E6E520E3D6E33EC34F0CA
:103CF000000E036E540E026E79EC37F0010E3C6E2E
:103D0000ED0E3B6E000E3E6EF20E3D6E33EC34F067
:103D1000000E036E510E026E79EC37F0010E3C6E10
:103D2000ED0E3B6E020E3E6E380E3D6E33EC34F0FF
:103D3000000E036E3C0E026E79EC37F0030E3C6E03
:103D4000DB0E3B6E000E3E6E4D0E3D6E33EC34F0DE
:103D5000000E036E500E026E79EC37F0040E3C6ECE
:103D6000540E3B6E000E3E6E4D0E3D6E33EC34F045
:103D7000000E036E500E026E79EC37F0040E3C6EAE
:103D8000960E3B6E000E3E6E4D0E3D6E33EC34F0E3
:103D9000000E036E500E026E79EC37F0050E3C6E8D
:103DA000260E3B6E000E3E6E4D0E3D6E33EC34F033
:103DB000000E036E4F0E026E79EC37F0050E3C6E6E
:103DC000C70E3B6E000E3E6E4D0E3D6E33EC34F072
:103DD000000E036E500E026E79EC37F0040E3C6E4E
:103DE000960E3B6E000E3E6E4D0E3D6E33EC34F083
:103DF000000E036E500E026E79EC37F0050E3C6E2D
:103E0000C70E3B6E000E3E6E9A0E3D6E33EC34F0E4
:103E1000000E036E020E026E79EC37F0000E3C6E5F
:103E20005C0E3B6E000E3E6E4D0E3D6E33EC34F07C
:103E3000000E036E4F0E026E79EC37F0050E3C6EED
:103E4000740E3B6E000E3E6E4D0E3D6E33EC34F044
:103E5000000E036E500E026E79EC37F0040E3C6ECD
:103E6000540E3B6E000E3E6E4D0E3D6E33EC34F044
:103E7000000E036E500E026E79EC37F0050E3C6EAC
:103E8000740E3B6E000E3E6E9A0E3D6E33EC34F0B7
:103E9000000E036E020E026E79EC37F0000E3C6EDF
:103EA0005C0E3B6E000E3E6E4D0E3D6E33EC34F0FC
:103EB000000E036E4F0E026E79EC37F0050E3C6E6D
:103EC000260E3B6E000E3E6E4D0E3D6E33EC34F012
:103ED000000E036E500E026E79EC37F0040E3C6E4D
:103EE000160E3B6E000E3E6E4D0E3D6E33EC34F002
:103EF000000E036E500E026E79EC37F0050E3C6E2C
:103F0000260E3B6E000E3E6E9A0E3D6E33EC34F084
:103F1000000E036E020E026E79EC37F0000E3C6E5E
:103F20005C0E3B6E000E3E6E4D0E3D6E33EC34F07B
:103F3000000E036E4F0E026E79EC37F0030E3C6EEE
:103F4000DB0E3B6E000E3E6E4D0E3D6E33EC34F0DC
:103F5000000E036E500E026E79EC37F0040E3C6ECC
:103F6000540E3B6E000E3E6E4D0E3D6E33EC34F043
:103F7000000E036E500E026E79EC37F0040E3C6EAC
:103F8000960E3B6E000E3E6E4D0E3D6E33EC34F0E1
:103F9000000E036E500E026E79EC37F0050E3C6E8B
:103FA000260E3B6E000E3E6E4D0E3D6E33EC34F031
:103FB000000E036E4F0E026E79EC37F0050E3C6E6C
:103FC000C70E3B6E000E3E6E4D0E3D6E33EC34F070
:103FD000000E036E500E026E79EC37F0040E3C6E4C
:103FE000960E3B6E000E3E6E4D0E3D6E33EC34F081
:103FF000000E036E500E026E79EC37F0050E3C6E2B
:10400000C70E3B6E000E3E6E4D0E3D6E33EC34F02F
:10401000000E036E500E026E79EC37F0070E3C6E08
:10402000B70E3B6E000E3E6E4D0E3D6E33EC34F01F
:10403000000E036E4F0E026E79EC37F0060E3C6EEA
:10404000E00E3B6E000E3E6E4D0E3D6E33EC34F0D6
:10405000000E036E500E026E79EC37F0050E3C6ECA
:10406000C70E3B6E000E3E6E4D0E3D6E33EC34F0CF
:10407000000E036E500E026E79EC37F0040E3C6EAB
:10408000960E3B6E000E3E6E4D0E3D6E33EC34F0E0
:10409000000E036E500E026E79EC37F0050E3C6E8A
:1040A000C70E3B6E000E3E6E4D0E3D6E33EC34F08F
:1040B000000E036E4F0E026E79EC37F0060E3C6E6A
:1040C000E00E3B6E020E3E6E360E3D6E33EC34F06B
:1040D000000E036E3D0E026E79EC37F0030E3C6E5F
:1040E000DB0E3B6E000E3E6E4D0E3D6E33EC34F03B
:1040F000000E036E500E026E79EC37F0040E3C6E2B
:10410000540E3B6E000E3E6E4D0E3D6E33EC34F0A1
:10411000000E036E500E026E79EC37F0040E3C6E0A
:10412000960E3B6E000E3E6E4D0E3D6E33EC34F03F
:10413000000E036E500E026E79EC37F0050E3C6EE9
:10414000260E3B6E000E3E6E4D0E3D6E33EC34F08F
:10415000000E036E4F0E026E79EC37F0050E3C6ECA
:10416000C70E3B6E000E3E6E4D0E3D6E33EC34F0CE
:10417000000E036E500E026E79EC37F0040E3C6EAA
:10418000960E3B6E000E3E6E4D0E3D6E33EC34F0DF
:10419000000E036E500E026E79EC37F0050E3C6E89
:1041A000C70E3B6E000E3E6E9A0E3D6E33EC34F041
:1041B000000E036E020E026E79EC37F0000E3C6EBC
:1041C0005C0E3B6E000E3E6E4D0E3D6E33EC34F0D9
:1041D000000E036E4F0E026E79EC37F0050E3C6E4A
:1041E000740E3B6E000E3E6E4D0E3D6E33EC34F0A1
:1041F000000E036E500E026E79EC37F0040E3C6E2A
:10420000540E3B6E000E3E6E4D0E3D6E33EC34F0A0
:10421000000E036E500E026E79EC37F0050E3C6E08
:10422000740E3B6E000E3E6E9A0E3D6E33EC34F013
:10423000000E036E020E026E79EC37F0000E3C6E3B
:104240005C0E3B6E000E3E6E4D0E3D6E33EC34F058
:10425000000E036E4F0E026E79EC37F0050E3C6EC9
:10426000260E3B6E000E3E6E4D0E3D6E33EC34F06E
:10427000000E036E500E026E79EC37F0040E3C6EA9
:10428000160E3B6E000E3E6E4D0E3D6E33EC34F05E
:10429000000E036E500E026E79EC37F0050E3C6E88
:1042A000260E3B6E000E3E6E9A0E3D6E33EC34F0E1
:1042B000000E036E020E026E79EC37F0000E3C6EBB
:1042C0005C0E3B6E000E3E6E4D0E3D6E33EC34F0D8
:1042D000000E036E4F0E026E79EC37F0030E3C6E4B
:1042E000DB0E3B6E000E3E6E4D0E3D6E33EC34F039
:1042F000000E036E500E026E79EC37F0040E3C6E29
:10430000540E3B6E000E3E6E4D0E3D6E33EC34F09F
:10431000000E036E500E026E79EC37F0040E3C6E08
:10432000960E3B6E000E3E6E4D0E3D6E33EC34F03D
:10433000000E036E500E026E79EC37F0050E3C6EE7
:10434000260E3B6E000E3E6E4D0E3D6E33EC34F08D
:10435000000E036E4F0E026E79EC37F0050E3C6EC8
:10436000C70E3B6E000E3E6E4D0E3D6E33EC34F0CC
:10437000000E036E500E026E79EC37F0040E3C6EA8
:10438000960E3B6E000E3E6E4D0E3D6E33EC34F0DD
:10439000000E036E500E026E79EC37F0050E3C6E87
:1043A000C70E3B6E000E3E6E4D0E3D6E33EC34F08C
:1043B000000E036E500E026E79EC37F0070E3C6E65
:1043C000B70E3B6E000E3E6E4D0E3D6E33EC34F07C
:1043D000000E036E4F0E026E79EC37F0060E3C6E47
:1043E000E00E3B6E000E3E6E4D0E3D6E33EC34F033
:1043F000000E036E500E026E79EC37F0050E3C6E27
:10440000C70E3B6E000E3E6E4D0E3D6E33EC34F02B
:10441000000E036E500E026E79EC37F0030E3C6E08
:10442000700E3B6E000E3E6E4D0E3D6E33EC34F062
:10443000000E036E500E026E79EC37F0050E3C6EE6
:10444000C70E3B6E000E3E6E4D0E3D6E33EC34F0EB
:10445000000E036E4F0E026E79EC37F0060E3C6EC6
:10446000E00E3B6E020E3E6E360E3D6E33EC34F0C7
:10447000000E036E3D0E026E79EC37F0050E3C6EB9
:10448000C70E3B6E000E3E6E4D0E3D6E33EC34F0AB
:10449000000E036E500E026E79EC37F0060E3C6E85
:1044A0007D0E3B6E000E3E6E4D0E3D6E33EC34F0D5
:1044B000000E036E500E026E79EC37F0070E3C6E64
:1044C000480E3B6E000E3E6E4D0E3D6E33EC34F0EA
:1044D000000E036E500E026E79EC37F0070E3C6E44
:1044E000B70E3B6E000E3E6E4D0E3D6E33EC34F05B
:1044F000000E036E4F0E026E79EC37F0080E3C6E24
:10450000A90E3B6E000E3E6E4D0E3D6E33EC34F048
:10451000000E036E500E026E79EC37F0070E3C6E03
:10452000480E3B6E000E3E6E4D0E3D6E33EC34F089
:10453000000E036E4F0E026E79EC37F0080E3C6EE3
:10454000A90E3B6E000E3E6E9A0E3D6E33EC34F0BB
:10455000000E036E020E026E79EC37F0000E3C6E18
:104560008A0E3B6E000E3E6E4D0E3D6E33EC34F007
:10457000000E036E4F0E026E79EC37F0090E3C6EA2
:104580002D0E3B6E000E3E6E4D0E3D6E33EC34F044
:10459000000E036E4F0E026E79EC37F0070E3C6E84
:1045A000480E3B6E000E3E6E4D0E3D6E33EC34F009
:1045B000000E036E500E026E79EC37F0090E3C6E61
:1045C0002D0E3B6E000E3E6E9A0E3D6E33EC34F0B7
:1045D000000E036E020E026E79EC37F0000E3C6E98
:1045E000A40E3B6E000E3E6E4D0E3D6E33EC34F06D
:1045F000000E036E500E026E79EC37F0080E3C6E22
:10460000A90E3B6E000E3E6E4D0E3D6E33EC34F047
:10461000000E036E4F0E026E79EC37F0070E3C6E03
:10462000480E3B6E000E3E6E4D0E3D6E33EC34F088
:10463000000E036E500E026E79EC37F0080E3C6EE1
:10464000A90E3B6E000E3E6E9A0E3D6E33EC34F0BA
:10465000000E036E020E026E79EC37F0000E3C6E17
:104660008A0E3B6E000E3E6E4D0E3D6E33EC34F006
:10467000000E036E4F0E026E79EC37F0050E3C6EA5
:10468000C70E3B6E000E3E6E4D0E3D6E33EC34F0A9
:10469000000E036E4F0E026E79EC37F0060E3C6E84
:1046A0007D0E3B6E000E3E6E4D0E3D6E33EC34F0D3
:1046B000000E036E500E026E79EC37F0070E3C6E62
:1046C000480E3B6E000E3E6E4D0E3D6E33EC34F0E8
:1046D000000E036E500E026E79EC37F0070E3C6E42
:1046E000B70E3B6E000E3E6E4D0E3D6E33EC34F059
:1046F000000E036E500E026E79EC37F0080E3C6E21
:10470000A90E3B6E000E3E6E4D0E3D6E33EC34F046
:10471000000E036E500E026E79EC37F0070E3C6E01
:10472000480E3B6E000E3E6E4D0E3D6E33EC34F087
:10473000000E036E500E026E79EC37F0080E3C6EE0
:10474000A90E3B6E000E3E6E9A0E3D6E33EC34F0B9
:10475000000E036E020E026E79EC37F0000E3C6E16
:104760008A0E3B6E000E3E6E4D0E3D6E33EC34F005
:10477000000E036E500E026E79EC37F0090E3C6E9F
:104780002D0E3B6E000E3E6E4D0E3D6E33EC34F042
:10479000000E036E500E026E79EC37F0070E3C6E81
:1047A000480E3B6E000E3E6E4D0E3D6E33EC34F007
:1047B000000E036E500E026E79EC37F0090E3C6E5F
:1047C0002D0E3B6E000E3E6E9A0E3D6E33EC34F0B5
:1047D000000E036E020E026E79EC37F0000E3C6E96
:1047E000A40E3B6E000E3E6E4D0E3D6E33EC34F06B
:1047F000000E036E500E026E79EC37F0080E3C6E20
:10480000A90E3B6E010E3E6E340E3D6E33EC34F05D
:10481000000E036E060E026E79EC37F0000E3C6E51
:10482000920E3B6E000E3E6E4D0E3D6E33EC34F03C
:10483000000E036E500E026E79EC37F0000E3C6EE7
:104840008A0E3B6E000E3E6E4D0E3D6E33EC34F024
:10485000000E036E4F0E026E79EC37F0050E3C6EC3
:10486000C70E3B6E000E3E6E4D0E3D6E33EC34F0C7
:10487000000E036E500E026E79EC37F0060E3C6EA1
:104880007D0E3B6E000E3E6E4D0E3D6E33EC34F0F1
:10489000000E036E500E026E79EC37F0070E3C6E80
:1048A000480E3B6E000E3E6E4D0E3D6E33EC34F006
:1048B000000E036E500E026E79EC37F0070E3C6E60
:1048C000B70E3B6E000E3E6E4D0E3D6E33EC34F077
:1048D000000E036E4F0E026E79EC37F0080E3C6E40
:1048E000A90E3B6E000E3E6E4D0E3D6E33EC34F065
:1048F000000E036E500E026E79EC37F0070E3C6E20
:10490000480E3B6E000E3E6E4D0E3D6E33EC34F0A5
:10491000000E036E4F0E026E79EC37F0080E3C6EFF
:10492000A90E3B6E000E3E6E9A0E3D6E33EC34F0D7
:10493000000E036E020E026E79EC37F0000E3C6E34
:104940008A0E3B6E000E3E6E4D0E3D6E33EC34F023
:10495000000E036E4F0E026E79EC37F0090E3C6EBE
:10496000B90E3B6E000E3E6E4D0E3D6E33EC34F0D4
:10497000000E036E4F0E026E79EC37F0070E3C6EA0
:10498000480E3B6E000E3E6E4D0E3D6E33EC34F025
:10499000000E036E500E026E79EC37F0090E3C6E7D
:1049A000B90E3B6E000E3E6E9A0E3D6E33EC34F047
:1049B000000E036E020E026E79EC37F0000E3C6EB4
:1049C000AE0E3B6E000E3E6E4D0E3D6E33EC34F07F
:1049D000000E036E500E026E79EC37F0080E3C6E3E
:1049E000A90E3B6E000E3E6E4D0E3D6E33EC34F064
:1049F000000E036E4F0E026E79EC37F0070E3C6E20
:104A0000480E3B6E000E3E6E4D0E3D6E33EC34F0A4
:104A1000000E036E500E026E79EC37F0080E3C6EFD
:104A2000A90E3B6E000E3E6E9A0E3D6E33EC34F0D6
:104A3000000E036E020E026E79EC37F0000E3C6E33
:104A40008A0E3B6E000E3E6E4D0E3D6E33EC34F022
:104A5000000E036E4F0E026E79EC37F0050E3C6EC1
:104A6000C70E3B6E000E3E6E4D0E3D6E33EC34F0C5
:104A7000000E036E4F0E026E79EC37F0060E3C6EA0
:104A80007D0E3B6E000E3E6E4D0E3D6E33EC34F0EF
:104A9000000E036E500E026E79EC37F0070E3C6E7E
:104AA000480E3B6E000E3E6E4D0E3D6E33EC34F004
:104AB000000E036E500E026E79EC37F0070E3C6E5E
:104AC000B70E3B6E000E3E6E4D0E3D6E33EC34F075
:104AD000000E036E500E026E79EC37F0080E3C6E3D
:104AE000A90E3B6E000E3E6E4D0E3D6E33EC34F063
:104AF000000E036E500E026E79EC37F0070E3C6E1E
:104B0000480E3B6E000E3E6E4D0E3D6E33EC34F0A3
:104B1000000E036E500E026E79EC37F0080E3C6EFC
:104B2000A90E3B6E000E3E6E9A0E3D6E33EC34F0D5
:104B3000000E036E020E026E79EC37F0000E3C6E32
:104B40008A0E3B6E000E3E6E4D0E3D6E33EC34F021
:104B5000000E036E500E026E79EC37F0090E3C6EBB
:104B6000B90E3B6E000E3E6E4D0E3D6E33EC34F0D2
:104B7000000E036E500E026E79EC37F0070E3C6E9D
:104B8000480E3B6E000E3E6E4D0E3D6E33EC34F023
:104B9000000E036E500E026E79EC37F0090E3C6E7B
:104BA000B90E3B6E000E3E6E9A0E3D6E33EC34F045
:104BB000000E036E020E026E79EC37F0000E3C6EB2
:104BC000AE0E3B6E000E3E6E4D0E3D6E33EC34F07D
:104BD000000E036E500E026E79EC37F0080E3C6E3C
:104BE000A90E3B6E010E3E6E340E3D6E33EC34F07A
:104BF000000E036E060E026E79EC37F0000E3C6E6E
:104C00009B0E3B6E000E3E6E4D0E3D6E33EC34F04F
:104C1000000E036E500E026E79EC37F0000E3C6E03
:104C20008A0E3B6E000E3E6E4D0E3D6E33EC34F040
:104C3000000E036E4F0E026E79EC37F0030E3C6EE1
:104C4000DB0E3B6E000E3E6E490E3D6E33EC34F0D3
:104C5000000E036E4C0E026E79EC37F0040E3C6EC3
:104C6000540E3B6E000E3E6E490E3D6E33EC34F03A
:104C7000000E036E4C0E026E79EC37F0040E3C6EA3
:104C8000960E3B6E000E3E6E490E3D6E33EC34F0D8
:104C9000000E036E4C0E026E79EC37F0050E3C6E82
:104CA000260E3B6E000E3E6E490E3D6E33EC34F028
:104CB000000E036E4B0E026E79EC37F0050E3C6E63
:104CC000C70E3B6E000E3E6E490E3D6E33EC34F067
:104CD000000E036E4C0E026E79EC37F0040E3C6E43
:104CE000960E3B6E000E3E6E490E3D6E33EC34F078
:104CF000000E036E4C0E026E79EC37F0050E3C6E22
:104D0000C70E3B6E000E3E6E920E3D6E33EC34F0DD
:104D1000000E036E020E026E79EC37F0000E3C6E50
:104D20005C0E3B6E000E3E6E490E3D6E33EC34F071
:104D3000000E036E4B0E026E79EC37F0050E3C6EE2
:104D4000740E3B6E000E3E6E490E3D6E33EC34F039
:104D5000000E036E4C0E026E79EC37F0040E3C6EC2
:104D6000540E3B6E000E3E6E490E3D6E33EC34F039
:104D7000000E036E4C0E026E79EC37F0050E3C6EA1
:104D8000740E3B6E000E3E6E920E3D6E33EC34F0B0
:104D9000000E036E020E026E79EC37F0000E3C6ED0
:104DA0005C0E3B6E000E3E6E490E3D6E33EC34F0F1
:104DB000000E036E4B0E026E79EC37F0050E3C6E62
:104DC000260E3B6E000E3E6E490E3D6E33EC34F007
:104DD000000E036E4C0E026E79EC37F0040E3C6E42
:104DE000160E3B6E000E3E6E490E3D6E33EC34F0F7
:104DF000000E036E4C0E026E79EC37F0050E3C6E21
:104E0000260E3B6E000E3E6E920E3D6E33EC34F07D
:104E1000000E036E020E026E79EC37F0000E3C6E4F
:104E20005C0E3B6E000E3E6E490E3D6E33EC34F070
:104E3000000E036E4B0E026E79EC37F0030E3C6EE3
:104E4000DB0E3B6E000E3E6E490E3D6E33EC34F0D1
:104E5000000E036E4C0E026E79EC37F0040E3C6EC1
:104E6000540E3B6E000E3E6E490E3D6E33EC34F038
:104E7000000E036E4C0E026E79EC37F0040E3C6EA1
:104E8000960E3B6E000E3E6E490E3D6E33EC34F0D6
:104E9000000E036E4C0E026E79EC37F0050E3C6E80
:104EA000260E3B6E000E3E6E490E3D6E33EC34F026
:104EB000000E036E4B0E026E79EC37F0050E3C6E61
:104EC000C70E3B6E000E3E6E490E3D6E33EC34F065
:104ED000000E036E4C0E026E79EC37F0040E3C6E41
:104EE000960E3B6E000E3E6E490E3D6E33EC34F076
:104EF000000E036E4C0E026E79EC37F0050E3C6E20
:104F0000C70E3B6E000E3E6E490E3D6E33EC34F024
:104F1000000E036E4C0E026E79EC37F0070E3C6EFD
:104F2000B70E3B6E000E3E6E490E3D6E33EC34F014
:104F3000000E036E4B0E026E79EC37F0060E3C6EDF
:104F4000E00E3B6E000E3E6E490E3D6E33EC34F0CB
:104F5000000E036E4C0E026E79EC37F0050E3C6EBF
:104F6000C70E3B6E000E3E6E490E3D6E33EC34F0C4
:104F7000000E036E4C0E026E79EC37F0040E3C6EA0
:104F8000960E3B6E000E3E6E490E3D6E33EC34F0D5
:104F9000000E036E4C0E026E79EC37F0050E3C6E7F
:104FA000C70E3B6E000E3E6E490E3D6E33EC34F084
:104FB000000E036E4B0E026E79EC37F0060E3C6E5F
:104FC000E00E3B6E020E3E6E190E3D6E33EC34F079
:104FD000000E036E3A0E026E79EC37F0030E3C6E53
:104FE000DB0E3B6E000E3E6E480E3D6E33EC34F031
:104FF000000E036E490E026E79EC37F0040E3C6E23
:10500000540E3B6E000E3E6E480E3D6E33EC34F097
:10501000000E036E4A0E026E79EC37F0040E3C6E01
:10502000960E3B6E000E3E6E480E3D6E33EC34F035
:10503000000E036E4A0E026E79EC37F0050E3C6EE0
:10504000260E3B6E000E3E6E480E3D6E33EC34F085
:10505000000E036E4A0E026E79EC37F0050E3C6EC0
:10506000C70E3B6E000E3E6E480E3D6E33EC34F0C4
:10507000000E036E4A0E026E79EC37F0040E3C6EA1
:10508000960E3B6E000E3E6E480E3D6E33EC34F0D5
:10509000000E036E4A0E026E79EC37F0050E3C6E80
:1050A000C70E3B6E000E3E6E900E3D6E33EC34F03C
:1050B000000E036E020E026E79EC37F0000E3C6EAD
:1050C0005C0E3B6E000E3E6E480E3D6E33EC34F0CF
:1050D000000E036E4A0E026E79EC37F0050E3C6E40
:1050E000740E3B6E000E3E6E480E3D6E33EC34F097
:1050F000000E036E490E026E79EC37F0040E3C6E22
:10510000540E3B6E000E3E6E480E3D6E33EC34F096
:10511000000E036E490E026E79EC37F0050E3C6E00
:10512000740E3B6E000E3E6E8F0E3D6E33EC34F00F
:10513000000E036E020E026E79EC37F0000E3C6E2C
:105140005C0E3B6E000E3E6E480E3D6E33EC34F04E
:10515000000E036E4A0E026E79EC37F0050E3C6EBF
:10516000260E3B6E000E3E6E480E3D6E33EC34F064
:10517000000E036E490E026E79EC37F0040E3C6EA1
:10518000160E3B6E000E3E6E480E3D6E33EC34F054
:10519000000E036E490E026E79EC37F0050E3C6E80
:1051A000260E3B6E000E3E6E8F0E3D6E33EC34F0DD
:1051B000000E036E020E026E79EC37F0000E3C6EAC
:1051C0005C0E3B6E000E3E6E480E3D6E33EC34F0CE
:1051D000000E036E4A0E026E79EC37F0030E3C6E41
:1051E000DB0E3B6E000E3E6E480E3D6E33EC34F02F
:1051F000000E036E490E026E79EC37F0040E3C6E21
:10520000540E3B6E000E3E6E480E3D6E33EC34F095
:10521000000E036E4A0E026E79EC37F0040E3C6EFF
:10522000960E3B6E000E3E6E480E3D6E33EC34F033
:10523000000E036E4A0E026E79EC37F0050E3C6EDE
:10524000260E3B6E000E3E6E480E3D6E33EC34F083
:10525000000E036E4A0E026E79EC37F0050E3C6EBE
:10526000C70E3B6E000E3E6E460E3D6E33EC34F0C4
:10527000000E036E480E026E79EC37F0040E3C6EA1
:10528000960E3B6E000E3E6E460E3D6E33EC34F0D5
:10529000000E036E480E026E79EC37F0050E3C6E80
:1052A000C70E3B6E000E3E6E440E3D6E33EC34F086
:1052B000000E036E460E026E79EC37F0070E3C6E60
:1052C000B70E3B6E000E3E6E440E3D6E33EC34F076
:1052D000000E036E460E026E79EC37F0050E3C6E42
:1052E000C70E3B6E000E3E6E430E3D6E33EC34F047
:1052F000000E036E450E026E79EC37F0040E3C6E24
:10530000960E3B6E000E3E6E430E3D6E33EC34F057
:10531000000E036E450E026E79EC37F0050E3C6E02
:10532000C70E3B6E000E3E6E430E3D6E33EC34F006
:10533000000E036E450E026E79EC37F0070E3C6EE0
:10534000B70E3B6E000E3E6E430E3D6E33EC34F0F6
:10535000000E036E450E026E79EC37F0030E3C6EC4
:10536000DB0E3B6E010E3E6EEA0E3D6E33EC34F00A
:10537000000E036E350E026E79EC37F0000E3C6EB7
:105380003D0E3B6E000E3E6ECF0E3D6E33EC34F0A4
:10539000000E036E160E026E79EC37F0040E3C6EB2
:1053A000960E3B6E000E3E6ECF0E3D6E33EC34F02B
:1053B000010E036EE40E026E79EC37F0000E3C6EC7
:1053C0003D0E3B6E000E3E6ECF0E3D6E33EC34F064
:1053D000000E036E160E026E79EC37F0040E3C6E72
:1053E000960E3B6E000E3E6ECF0E3D6E33EC34F0EB
:1053F000010E036EE40E026E79EC37F0010E3C6E86
:10540000ED0E3B6E000E3E6E380E3D6E33EC34F00A
:10541000000E036E3A0E026E79EC37F0020E3C6E0F
:105420002A0E3B6E000E3E6E380E3D6E33EC34F0AD
:10543000000E036E3A0E026E79EC37F0020E3C6EEF
:105440004B0E3B6E000E3E6E380E3D6E33EC34F06C
:10545000000E036E3A0E026E79EC37F0020E3C6ECF
:10546000930E3B6E000E3E6E380E3D6E33EC34F004
:10547000000E036E3A0E026E79EC37F0020E3C6EAF
:10548000E30E3B6E000E3E6E380E3D6E33EC34F094
:10549000000E036E3A0E026E79EC37F0020E3C6E8F
:1054A0004B0E3B6E000E3E6E380E3D6E33EC34F00C
:1054B000000E036E3A0E026E79EC37F0020E3C6E6F
:1054C000E30E3B6E000E3E6E380E3D6E33EC34F054
:1054D000000E036E3A0E026E79EC37F0030E3C6E4E
:1054E000DB0E3B6E000E3E6E380E3D6E33EC34F03C
:1054F000000E036E3A0E026E79EC37F0030E3C6E2E
:10550000A40E3B6E000E3E6E380E3D6E33EC34F052
:10551000000E036E3A0E026E79EC37F0020E3C6E0E
:10552000E30E3B6E000E3E6E380E3D6E33EC34F0F3
:10553000000E036E3A0E026E79EC37F0030E3C6EED
:10554000A40E3B6E000E3E6E380E3D6E33EC34F012
:10555000000E036E3A0E026E79EC37F0040E3C6ECC
:10556000540E3B6E000E3E6E380E3D6E33EC34F042
:10557000000E036E3A0E026E79EC37F0030E3C6EAD
:10558000DB0E3B6E010E3E6E9F0E3D6E33EC34F033
:10559000000E036E2C0E026E79EC37F0000E3C6E9E
:1055A0003D0E3B6E000E3E6ECF0E3D6E33EC34F082
:1055B000000E036E160E026E79EC37F0040E3C6E90
:1055C000960E3B6E000E3E6ECF0E3D6E33EC34F009
:1055D000010E036EE40E026E79EC37F0000E3C6EA5
:1055E0003D0E3B6E000E3E6ECF0E3D6E33EC34F042
:1055F000000E036E160E026E79EC37F0040E3C6E50
:10560000960E3B6E000E3E6ECF0E3D6E33EC34F0C8
:10561000010E036EE40E026E79EC37F0030E3C6E61
:10562000DB0E3B6E000E3E6E380E3D6E33EC34F0FA
:10563000000E036E3A0E026E79EC37F0040E3C6EEB
:10564000540E3B6E000E3E6E380E3D6E33EC34F061
:10565000000E036E3A0E026E79EC37F0040E3C6ECB
:10566000960E3B6E000E3E6E380E3D6E33EC34F0FF
:10567000000E036E3A0E026E79EC37F0050E3C6EAA
:10568000260E3B6E000E3E6E380E3D6E33EC34F04F
:10569000000E036E3A0E026E79EC37F0050E3C6E8A
:1056A000C70E3B6E000E3E6E380E3D6E33EC34F08E
:1056B000000E036E3A0E026E79EC37F0040E3C6E6B
:1056C000960E3B6E000E3E6E380E3D6E33EC34F09F
:1056D000000E036E3A0E026E79EC37F0050E3C6E4A
:1056E000C70E3B6E000E3E6E380E3D6E33EC34F04E
:1056F000000E036E3A0E026E79EC37F0070E3C6E28
:10570000B70E3B6E000E3E6E380E3D6E33EC34F03D
:10571000000E036E3A0E026E79EC37F0070E3C6E07
:10572000480E3B6E000E3E6E380E3D6E33EC34F08C
:10573000000E036E3A0E026E79EC37F0050E3C6EE9
:10574000C70E3B6E000E3E6E380E3D6E33EC34F0ED
:10575000000E036E3A0E026E79EC37F0070E3C6EC7
:10576000480E3B6E000E3E6E380E3D6E33EC34F04C
:10577000000E036E3A0E026E79EC37F0080E3C6EA6
:10578000A90E3B6E000E3E6E380E3D6E33EC34F0CB
:10579000000E036E3A0E026E79EC37F0070E3C6E87
:1057A000B70E3B6E010E3E6E9F0E3D6E33EC34F035
:1057B000000E036E2C0E026E79EC37F0000E3C6E7C
:1057C0003D0E3B6E000E3E6ECF0E3D6E33EC34F060
:1057D000000E036E160E026E79EC37F0040E3C6E6E
:1057E000960E3B6E000E3E6ED00E3D6E33EC34F0E6
:1057F000010E036EE40E026E79EC37F0000E3C6E83
:105800003D0E3B6E000E3E6ECF0E3D6E33EC34F01F
:10581000000E036E160E026E79EC37F0040E3C6E2D
:10582000960E3B6E000E3E6ECF0E3D6E33EC34F0A6
:10583000010E036EE40E026E79EC37F0000E3C6E42
:105840003D0E3B6E000E3E6ECF0E3D6E33EC34F0DF
:10585000000E036E160E026E79EC37F0040E3C6EED
:10586000960E3B6E000E3E6ECE0E3D6E33EC34F067
:10587000000E036E160E026E79EC37F0040E3C6ECD
:10588000960E3B6E000E3E6ECE0E3D6E33EC34F047
:10589000000E036E160E026E79EC37F0040E3C6EAD
:1058A000960E3B6E000E3E6ECF0E3D6E33EC34F026
:1058B000000E036E160E026E79EC37F0060E3C6E8B
:1058C0007D0E3B6E000E3E6E290E3D6E33EC34F0C5
:1058D000060E3C6EE00E3B6E000E3E6E440E3D6EBC
:1058E00033EC34F0070E3C6E480E3B6E000E3E6EFD
:1058F000270E3D6E33EC34F0040E3C6E960E3B6E7C
:10590000000E3E6E380E3D6E33EC34F0000E036E2A
:10591000160E026E79EC37F0040E3C6E960E3B6E5E
:10592000000E3E6ECE0E3D6E33EC34F0000E036E74
:10593000160E026E79EC37F0040E3C6E960E3B6E3E
:10594000000E3E6ECE0E3D6E33EC34F0000E036E54
:10595000160E026E79EC37F0040E3C6E960E3B6E1E
:10596000000E3E6ECF0E3D6E33EC34F0010E036E32
:10597000E40E026E79EC37F0000E3C6E3D0E3B6E8D
:10598000000E3E6E340E3D6E33EC34F0000E036EAE
:10599000050E026E79EC37F0000E3C6E7B0E3B6E0E
:1059A000000E3E6E340E3D6E33EC34F0000E036E8E
:1059B000050E026E79EC37F0000E3C6E3D0E3B6E2C
:1059C000000E3E6E340E3D6E33EC34F0000E036E6E
:1059D000050E026E79EC37F0000E3C6E7B0E3B6ECE
:1059E000000E3E6E340E3D6E33EC34F0000E036E4E
:1059F000050E026E79EC37F0000E3C6E3D0E3B6EEC
:105A0000000E3E6E340E3D6E33EC34F0000E036E2D
:105A1000050E026E79EC37F0000E3C6E7B0E3B6E8D
:105A2000000E3E6E340E3D6E33EC34F0000E036E0D
:105A3000050E026E79EC37F0000E3C6E3D0E3B6EAB
:105A4000000E3E6E340E3D6E33EC34F0000E036EED
:105A5000050E026E79EC37F0000E3C6E7B0E3B6E4D
:105A6000000E3E6E340E3D6E33EC34F0000E036ECD
:105A7000050E026E79EC37F0000E3C6E3D0E3B6E6B
:105A8000000E3E6E340E3D6E33EC34F0000E036EAD
:105A9000050E026E79EC37F0000E3C6E7B0E3B6E0D
:105AA000000E3E6E340E3D6E33EC34F0000E036E8D
:105AB000050E026E79EC37F0000E3C6E3D0E3B6E2B
:105AC000000E3E6E340E3D6E33EC34F0000E036E6D
:105AD000050E026E79EC37F0000E3C6E7B0E3B6ECD
:105AE000000E3E6E340E3D6E33EC34F0000E036E4D
:105AF000050E026E79EC37F0000E3C6E3D0E3B6EEB
:105B0000000E3E6E340E3D6E33EC34F0000E036E2C
:105B1000050E026E79EC37F0000E3C6E7B0E3B6E8C
:105B2000000E3E6E340E3D6E33EC34F0000E036E0C
:105B3000050E026E79EC37F0000E3C6E3D0E3B6EAA
:105B4000000E3E6E340E3D6E33EC34F0000E036EEC
:105B5000050E026E79EC37F0000E3C6E7B0E3B6E4C
:105B6000000E3E6E340E3D6E33EC34F0000E036ECC
:105B7000050E026E79EC37F0000E3C6E3D0E3B6E6A
:105B8000000E3E6E340E3D6E33EC34F0000E036EAC
:105B9000050E026E79EC37F0000E3C6E7B0E3B6E0C
:105BA000000E3E6E340E3D6E33EC34F0000E036E8C
:105BB000050E026E79EC37F0000E3C6E3D0E3B6E2A
:105BC000000E3E6E340E3D6E33EC34F0000E036E6C
:105BD000050E026E79EC37F0000E3C6E7B0E3B6ECC
:105BE000000E3E6E340E3D6E33EC34F0000E036E4C
:105BF000050E026E79EC37F0000E3C6E3D0E3B6EEA
:105C0000000E3E6E340E3D6E33EC34F0000E036E2B
:105C1000050E026E79EC37F0000E3C6E7B0E3B6E8B
:105C2000000E3E6E340E3D6E33EC34F0000E036E0B
:105C3000050E026E79EC37F0000E3C6E3D0E3B6EA9
:105C4000000E3E6E340E3D6E33EC34F0000E036EEB
:105C5000050E026E79EC37F0000E3C6E7B0E3B6E4B
:105C6000000E3E6E340E3D6E33EC34F0000E036ECB
:105C7000050E026E79EC37F0000E3C6E1E0E3B6E88
:105C8000000E3E6ECF0E3D6E33EC34F0000E036E10
:105C9000160E026E79EC37F0040E3C6E960E3B6EDB
:105CA000000E3E6ECF0E3D6E33EC34F09C0E036E54
:105CB000AE0E026E79EC37F0000E3C6E0C0E3B6EB1
:105CC000210E3E6E300E3D6E33EC34F01200055066
:105CD000800B0E6E05500524106E04AE72EF2EF090
:105CE00074EF2EF075EF2EF010801050D8B47BEFCB
:105CF0002EF07DEF2EF092EF2EF01028D8A483EF37
:105D00002EF085EF2EF08DEF2EF0000E026E000EBD
:105D1000036E000E046E000E056E048E000E056EFE
:105D20009AEF2EF0000E026E000E036E000E046E4F
:105D3000000E056E0950800B0F6E0E500F18D8B470
:105D4000A4EF2EF0A6EF2EF0A7EF2EF00E8C095048
:105D500009240F6E08AEAFEF2EF0B1EF2EF0B2EFC8
:105D60002EF00F800F50D8B4B8EF2EF0BAEF2EF00F
:105D7000CFEF2EF00F28D8A4C0EF2EF0C2EF2EF0F8
:105D8000CAEF2EF0000E066E000E076E000E086EB3
:105D9000000E096E088E000E096ED7EF2EF0000E71
:105DA000066E000E076E000E086E000E096E105093
:105DB0000F5CD8B0DEEF2EF0E0EF2EF007EF2FF003
:105DC0000EACE5EF2EF0E7EF2EF0E9EF2EF0800EAF
:105DD0000E1A10C011F00FC010F011C00FF002C069
:105DE00011F006C002F011C006F003C011F007C0A8
:105DF00003F011C007F004C011F008C004F011C096
:105E000008F005C011F009C005F011C009F0000E3E
:105E1000116E10500FC00AF00B6A0A5E000E0B5A8A
:105E20000BBE1CEF2FF00B5009E11A0E0A5CD8A034
:105E30001CEF2FF01EEF2FF055EF2FF00250031044
:105E400004100510D8A427EF2FF02AEF2FF0010E31
:105E50002BEF2FF0000E116E000E026E000E036E7F
:105E6000000E046E000E056E0FC010F05EEF2FF0F6
:105E700011A03DEF2FF03FEF2FF045EF2FF0D8901E
:105E800011300109116E47EF2FF0D890113202A0A6
:105E90004CEF2FF04EEF2FF04FEF2FF0118E053417
:105EA0000532043203320232102A0F50105CD8A09F
:105EB0005CEF2FF05EEF2FF038EF2FF00EBC63EFAA
:105EC0002FF065EF2FF0A5EF2FF01050D8A46BEF57
:105ED0002FF06DEF2FF077EF2FF0000E026E000E17
:105EE000036E000E046E000E056EC6EF30F0065015
:105EF000022607500322085004220950052205A05B
:105F000084EF2FF086EF2FF032EF30F011A08BEFFF
:105F10002FF08DEF2FF093EF2FF0D8901130010973
:105F2000116E95EF2FF0D890113202A09AEF2FF05A
:105F30009CEF2FF09DEF2FF0118E053405320432C7
:105F400003320232102A32EF30F00650025C075062
:105F50000358085004580550800A0A6E0950800AF8
:105F60000A58D8B0B6EF2FF0B8EF2FF0E3EF2FF0CC
:105F70000250065C0A6E035007580B6E0450085816
:105F80000C6E055009580D6EFF0E0A24026EFF0EAE
:105F90000B20036EFF0E0C20046EFF0E0D20056E0D
:105FA000800E0E1A116C1150D8A4D9EF2FF0DBEF30
:105FB0002FF0EBEF2FF0010E0226000E0322042239
:105FC0000522EBEF2FF00650025E0750035A0850EF
:105FD000045A0950055A0250031004100510D8A4A1
:105FE000F4EF2FF0F6EF2FF02BEF30F01150D8A494
:105FF000FCEF2FF0FEEF2FF02BEF30F0000E026ED3
:10600000000E036E000E046E000E056EC6EF30F03B
:10601000D890023603360436053611AE12EF30F052
:1060200014EF30F015EF30F0028011A01AEF30F0CD
:106030001CEF30F020EF30F0D880113622EF30F036
:10604000D89011361050D8B428EF30F02AEF30F045
:106050002BEF30F0100604AE30EF30F032EF30F0BE
:1060600008EF30F0000E0F6E11AE39EF30F03BEF5D
:1060700030F053EF30F011C00AF07F0E0A16D8B49A
:1060800044EF30F046EF30F04AEF30F0010E0F6E83
:1060900053EF30F002A04FEF30F051EF30F053EFFC
:1060A00030F046EF30F00F50D8B459EF30F05BEFDE
:1060B00030F086EF30F0010E0226000E032204229B
:1060C000052205A066EF30F068EF30F086EF30F083
:1060D00002C00AF003C00BF004C00CF005C00DF0C4
:1060E0000D340D320C320B320A320AC002F00BC0F2
:1060F00003F00CC004F00DC005F01028D8B483EFF5
:1061000030F085EF30F086EF30F0102A1028D8B448
:106110008CEF30F08EEF30F096EF30F01050D8A4C6
:1061200094EF30F096EF30F0A8EF30F0000E026EF2
:10613000000E036E000E046E000E056E1050D8A403
:10614000A4EF30F0A6EF30F0A8EF30F0000E0E6EA6
:1061500010A0ADEF30F0AFEF30F0B2EF30F0048EC2
:10616000B3EF30F0049ED8901030056E0EAEBBEF4A
:1061700030F0BDEF30F0BEEF30F0058E02C002F01F
:1061800003C003F004C004F005C005F01200135072
:10619000800B206E13501324276E12AED2EF30F016
:1061A000D4EF30F0D5EF30F027802750D8B4DBEFB4
:1061B00030F0DDEF30F0F2EF30F02728D8A4E3EF35
:1061C00030F0E5EF30F0EDEF30F0000E106E000E25
:1061D000116E000E126E000E136E128E000E136EF4
:1061E000FAEF30F0000E106E000E116E000E126EFF
:1061F000000E136E1750800B201A17501724286EAC
:1062000016AE05EF31F007EF31F008EF31F02880DE
:106210002850D8B40EEF31F010EF31F025EF31F007
:106220002828D8A416EF31F018EF31F020EF31F024
:10623000000E146E000E156E000E166E000E176E18
:10624000168E000E176E2DEF31F0000E146E000E3C
:10625000156E000E166E000E176E145015101610E7
:106260001710D8A436EF31F038EF31F050EF31F09D
:10627000000E106E000E116E000E126E000E136EE8
:10628000800E12127F0E13122050131210C010F045
:1062900011C011F012C012F013C013F093EF32F0DE
:1062A0002750D8A456EF31F058EF31F062EF31F0BB
:1062B000000E106E000E116E000E126E000E136EA8
:1062C00093EF32F0285027C018F0196A185E000EBC
:1062D000195A7F0E1824216E000E1920226E10C04C
:1062E0001CF011C01DF012C01EF013C01FF0000EF4
:1062F000106E000E116E000E126E000E136E000E68
:10630000236E000E246E000E256E000E266E000E0B
:10631000286EC3EF31F02850D8B491EF31F093EFED
:1063200031F0AAEF31F0D8901C361D361E361F36DC
:10633000D890103611361236133626AEA2EF31F051
:10634000A4EF31F0A5EF31F01080D8902336243639
:106350002536263614501C5C15501D5816501E58F4
:1063600017501F58D8A0B7EF31F0B9EF31F0C2EF96
:1063700031F0268C14501C5E15501D5A16501E5AB2
:1063800017501F5A282A190E2864C9EF31F0CBEF95
:1063900031F08BEF31F01C501D101E101F10D8B4BF
:1063A000D4EF31F0D6EF31F0EEEF31F02380EEEFA5
:1063B00031F0D890103611361236133626AEE3EF90
:1063C00031F0E5EF31F0E6EF31F01080D890233670
:1063D0002436253626362106D8A0220612AEF3EF43
:1063E00031F0F5EF31F0D9EF31F0000E286E26AE26
:1063F000FCEF31F0FEEF31F022EF32F0FF0E23140C
:10640000186EFF0E2414196EFF0E25141A6E7F0EDF
:1064100026141B6E185019101A101B10D8B413EF45
:1064200032F015EF32F019EF32F0010E286E22EF44
:1064300032F010A01EEF32F020EF32F022EF32F0F7
:1064400015EF32F02850D8B428EF32F02AEF32F0AE
:106450004EEF32F0010E1026000E112212221322EE
:1064600013A035EF32F037EF32F04EEF32F010C0BC
:1064700018F011C019F012C01AF013C01BF01B3431
:106480001B321A321932183218C010F019C011F02C
:106490001AC012F01BC013F0214A222A22BE59EF63
:1064A00032F0225008E12128D8A059EF32F05BEFFA
:1064B00032F066EF32F0000E226E2168000E106E90
:1064C000000E116E000E126E000E136E22BE73EFE0
:1064D00032F0225006E12104D8B071EF32F073EFB0
:1064E00032F081EF32F0000E226E000E216E000EAF
:1064F000106E000E116E000E126E000E136E000E66
:10650000206E21C027F027A088EF32F08AEF32F00A
:106510008DEF32F0128E8EEF32F0129ED89027302F
:10652000136E44EF31F012000A6E0A50D8B49BEF9C
:1065300032F09DEF32F0BFEF32F005BEA4EF32F043
:10654000A2EF32F0BFEF32F002C006F003C007F056
:1065500004C008F005C009F0061E071E081E091E2B
:10656000062A000E07220822092206C00CF007C0E6
:106570000DF008C00EF009C00FF0C7EF32F002C0F6
:106580000CF003C00DF004C00EF005C00FF0025077
:10659000031004100510D8A4D0EF32F0D2EF32F07F
:1065A000DCEF32F0000E026E000E036E000E046E81
:1065B000000E056E6DEF33F0960E0B6EE6EF32F0C7
:1065C0000B2AD8900F320E320D320C32000E0C1402
:1065D000066E000E0D14076E000E0E14086EFE0EF1
:1065E0000F14096E0650071008100910D8A4FBEF0D
:1065F00032F0FDEF32F0E0EF32F00BEF33F00B2A28
:10660000010E0C26000E0D220E220F22D8900F3202
:106610000E320D320C32000E0C14066E000E0D14EC
:10662000076E000E0E14086EFF0E0F14096E065052
:10663000071008100910D8A420EF33F022EF33F030
:10664000FFEF32F02AEF33F00B06D8900C360D3600
:106650000E360F360EBE2FEF33F031EF33F039EF39
:1066600033F0020E0B6037EF33F039EF33F024EFE5
:1066700033F00BB03EEF33F040EF33F041EF33F047
:106680000E9ED8900B320BC006F0076A086A096AA2
:1066900006C009F0086A076A066A06500C1207501D
:1066A0000D1208500E1209500F120A50D8B45BEFA9
:1066B00033F05DEF33F065EF33F005BE64EF33F098
:1066C00062EF33F065EF33F00F8E0CC002F00DC0B7
:1066D00003F00EC004F00FC005F01200000E176E9C
:1066E000000E166E000E106E000E0F6E7AEF33F075
:1066F000094A0A2A010E156E09C0D9FF0AC0DAFF3D
:10670000200EDE18D8B487EF33F089EF33F0A5EF11
:1067100033F0F70E0B6EFF0E0C6E09C0D9FF0AC0E6
:10672000DAFFDF500D6E0E6A0B500D260C500E2254
:106730000E5009E1050E0D5CD8A0A1EF33F0A3EFD8
:1067400033F0A5EF33F0000E156E15C011F0126A8C
:1067500011501210D8A4AFEF33F0B1EF33F078EF4F
:1067600033F0BBEF33F0000E106E010E0F6E094ACE
:106770000A2AF0EF33F009C0D9FF0AC0DAFFDF5070
:106780000B6E0C6A0C50000AD8B4C9EF33F0F0EF6E
:1067900033F00B502B0AD8B4B7EF33F0060AD8B455
:1067A000B3EF33F0F0EF33F016C002F017C003F090
:1067B000000E056E0A0E046EEDEC37F009C0D9FF2D
:1067C0000AC0DAFFDF500B6E0B50025E000E035A58
:1067D000300E0224166E000E0320176EB7EF33F052
:1067E000D00E0B6EFF0E0C6E09C0D9FF0AC0DAFF87
:1067F000DF500D6E0E6A0B500D260C500E220E50FF
:106800000AE10A0E0D5CD8A008EF34F00BEF34F06B
:10681000010E0CEF34F0000E136E146A13501410B6
:10682000D8A415EF34F017EF34F0D4EF33F00F5055
:106830001010D8A41EEF34F020EF34F02EEF34F017
:1068400016C00BF017C00CF00B1E0C1E0B4A0C2AC6
:106850000BC009F00CC00AF032EF34F016C009F09A
:1068600017C00AF01200000E146E000E156E800E96
:10687000166E400E176E3BC002F03CC003F0046A77
:10688000056A000E94EC32F002C010F003C011F063
:1068900004C012F005C013F0C7EC30F010C031F0A6
:1068A00011C032F012C033F013C034F03DEC35F0BB
:1068B00031C03BF032C03CF03BC002F03CC003F0C2
:1068C000046A056A000E94EC32F002C014F003C0B2
:1068D00015F004C016F005C017F0000E106E240E5F
:1068E000116E740E126E490E136EC7EC30F010C0AC
:1068F0002DF011C02EF012C02FF013C030F0000E9A
:10690000296EFF0E2A6E7F0E2B6E470E2C6E56ECF4
:1069100037F029C031F02AC032F02BC033F02CC040
:1069200034F03DEC35F031C043F032C044F043C0A8
:10693000CEFF44C0CFFFCD80000E416E000E406EF2
:10694000ACEF34F0150E3F6EC60EE82EFED73F2E8C
:10695000FCD700D0404A412A3D50405C3E5041584F
:10696000D8A0B5EF34F0B7EF34F0A2EF34F0CD900B
:106970001200000E146E000E136EB1EC37F0156E9F
:106980000D0E1518D8A4C7EF34F0C9EF34F0DEEFC0
:1069900034F015C00CF00D6A2BEC38F0000E0D6EC3
:1069A0000A0E0C6E2BEC38F013500E24D96E1450D6
:1069B0000F20DA6E000EDF6E3CEF35F07F0E1518FB
:1069C000D8B4E5EF34F0E7EF34F0F0EF34F0080E30
:1069D0001518D8A4EEEF34F0F0EF34F012EF35F0E4
:1069E00014BEFBEF34F0145008E11304D8A0FBEF01
:1069F00034F0FDEF34F0BDEF34F015C00CF00D6A4B
:106A00002BEC38F0000E0D6E200E0C6E2BEC38F0D7
:106A100015C00CF00D6A2BEC38F01306D8A0140644
:106A2000BDEF34F01F0E156418EF35F01AEF35F096
:106A3000BDEF34F01050135C1450800A126E1150E8
