:020000040000FA
:040000002EEF00F0EF
:100008004F829EA012D04CC0CEFF4DC0CFFF4E2ACB
:1000180089A002D0010E01D0000EFF0A016E89509E
:100028000118FE0B0118896E9E90960E4E18D8A4E2
:100038000FD0000E4E6E89A202D0010E01D0000E24
:10004800FF0A016E014689500118FD0B0118896EDF
:080058004F921100F7EF1BF0BD
:1010000000446967697461726520756E612066725B
:10101000657175656E7A6120696E746572613A20DA
:10102000005375706572204D6172696F2042726F56
:1010300073205468656D652E0A0D000A0D524553E4
:1010400045540A0D0000020E3C6E940E3B6E000EDD
:101050003D6E000E3E6EC80E3F6E420E406E5BEC63
:1010600018F0000E036E960E026EB1EC1BF0020E2D
:101070003C6E940E3B6E000E3D6E000E3E6EC80E32
:101080003F6E420E406E5BEC18F0010E036E2C0EAC
:10109000026EB1EC1BF0020E3C6E940E3B6E000E25
:1010A0003D6E000E3E6EC80E3F6E420E406E5BEC13
:1010B00018F0010E036E2C0E026EB1EC1BF0010E47
:1010C0003C6EFE0E3B6E000E3D6E000E3E6EC80E78
:1010D0003F6E420E406E5BEC18F0000E036E640E25
:1010E000026EB1EC1BF0020E3C6E940E3B6E000ED5
:1010F0003D6E000E3E6EC80E3F6E420E406E5BECC3
:1011000018F0010E036E2C0E026EB1EC1BF0030EF4
:101110003C6E020E3B6E000E3D6E000E3E6EC80E23
:101120003F6E420E406E5BEC18F0020E036E260E10
:10113000026EB1EC1BF0010E3C6E7C0E3B6E000E9D
:101140003D6E000E3E6EC80E3F6E420E406E5BEC72
:1011500018F0020E036E3F0E026EB1EC1BF0010E92
:101160003C6EFE0E3B6E000E3D6E000E3E6EC80ED7
:101170003F6E420E406E5BEC18F0010E036EC20E25
:10118000026EB1EC1BF0010E3C6E7C0E3B6E000E4D
:101190003D6E000E3E6EC80E3F6E420E406E5BEC22
:1011A00018F0010E036E900E026EB1EC1BF0010EF2
:1011B0003C6E400E3B6E000E3D6E000E3E6EC80E45
:1011C0003F6E420E406E5BEC18F0010E036EF40EA3
:1011D000026EB1EC1BF0010E3C6EB80E3B6E000EC1
:1011E0003D6E000E3E6EC80E3F6E420E406E5BECD2
:1011F00018F0010E036E2C0E026EB1EC1BF0010E06
:101200003C6EE00E3B6E000E3D6E000E3E6EA00E7C
:101210003F6E420E406E5BEC18F0010E036E4A0EFC
:10122000026EB1EC1BF0010E3C6EC20E3B6E000E66
:101230003D6E000E3E6EC80E3F6E420E406E5BEC81
:1012400018F0000E036E960E026EB1EC1BF0010E4C
:101250003C6EAE0E3B6E000E3D6E000E3E6EC80E36
:101260003F6E420E406E5BEC18F0010E036E2C0ECA
:10127000026EB1EC1BF0010E3C6E7C0E3B6E000E5C
:101280003D6E000E3E6EC80E3F6E420E406E5BEC31
:1012900018F0000E036EC80E026EB1EC1BF0020EC9
:1012A0003C6E940E3B6E000E3D6E000E3E6EA00E28
:1012B0003F6E420E406E5BEC18F0000E036EC80EDF
:1012C000026EB1EC1BF0020E3C6EF80E3B6E000E8F
:1012D0003D6E000E3E6E480E3F6E420E406E5BEC61
:1012E00018F0000E036E960E026EB1EC1BF0030EAA
:1012F0003C6E5C0E3B6E000E3D6E000E3E6EC80EE8
:101300003F6E420E406E5BEC18F0010E036E2C0E29
:10131000026EB1EC1BF0020E3C6EBC0E3B6E000E7A
:101320003D6E000E3E6EA00E3F6E420E406E5BECB8
:1013300018F0000E036E960E026EB1EC1BF0020E5A
:101340003C6EF80E3B6E000E3D6E000E3E6E480E7B
:101350003F6E420E406E5BEC18F0010E036E5E0EA7
:10136000026EB1EC1BF0020E3C6E940E3B6E000E52
:101370003D6E000E3E6EA00E3F6E420E406E5BEC68
:1013800018F0010E036E2C0E026EB1EC1BF0020E73
:101390003C6E080E3B6E000E3D6E000E3E6EA00EC3
:1013A0003F6E420E406E5BEC18F0000E036E960E20
:1013B000026EB1EC1BF0020E3C6E440E3B6E000E52
:1013C0003D6E000E3E6EA00E3F6E420E406E5BEC18
:1013D00018F0000E036E960E026EB1EC1BF0010EBB
:1013E0003C6EE00E3B6E000E3D6E000E3E6EA00E9B
:1013F0003F6E420E406E5BEC18F0010E036EF40E71
:10140000026EB1EC1BF0010E3C6EFE0E3B6E000E48
:101410003D6E000E3E6EC80E3F6E420E406E5BEC9F
:1014200018F0010E036EC20E026EB1EC1BF0010E3D
:101430003C6E7C0E3B6E000E3D6E000E3E6EC80E86
:101440003F6E420E406E5BEC18F0010E036E900E84
:10145000026EB1EC1BF0010E3C6E400E3B6E000EB6
:101460003D6E000E3E6EC80E3F6E420E406E5BEC4F
:1014700018F0010E036EF40E026EB1EC1BF0010EBB
:101480003C6EB80E3B6E000E3D6E000E3E6EC80EFA
:101490003F6E420E406E5BEC18F0010E036E2C0E98
:1014A000026EB1EC1BF0010E3C6EE00E3B6E000EC6
:1014B0003D6E000E3E6EA00E3F6E420E406E5BEC27
:1014C00018F0010E036E4A0E026EB1EC1BF0010E15
:1014D0003C6EC20E3B6E000E3D6E000E3E6EC80EA0
:1014E0003F6E420E406E5BEC18F0000E036E960EDF
:1014F000026EB1EC1BF0010E3C6EAE0E3B6E000EA8
:101500003D6E000E3E6EC80E3F6E420E406E5BECAE
:1015100018F0010E036E2C0E026EB1EC1BF0010EE2
:101520003C6E7C0E3B6E000E3D6E000E3E6EC80E95
:101530003F6E420E406E5BEC18F0000E036EC80E5C
:10154000026EB1EC1BF0020E3C6E940E3B6E000E70
:101550003D6E000E3E6EA00E3F6E420E406E5BEC86
:1015600018F0000E036EC80E026EB1EC1BF0020EF6
:101570003C6EF80E3B6E000E3D6E000E3E6E480E49
:101580003F6E420E406E5BEC18F0000E036E960E3E
:10159000026EB1EC1BF0030E3C6E5C0E3B6E000E57
:1015A0003D6E000E3E6EC80E3F6E420E406E5BEC0E
:1015B00018F0010E036E2C0E026EB1EC1BF0020E41
:1015C0003C6EBC0E3B6E000E3D6E000E3E6EA00EDD
:1015D0003F6E420E406E5BEC18F0000E036E960EEE
:1015E000026EB1EC1BF0020E3C6EF80E3B6E000E6C
:1015F0003D6E000E3E6E480E3F6E420E406E5BEC3E
:1016000018F0010E036E5E0E026EB1EC1BF0020EBE
:101610003C6E940E3B6E000E3D6E000E3E6EA00EB4
:101620003F6E420E406E5BEC18F0010E036E2C0E06
:10163000026EB1EC1BF0020E3C6E080E3B6E000E0B
:101640003D6E000E3E6EA00E3F6E420E406E5BEC95
:1016500018F0000E036E960E026EB1EC1BF0020E37
:101660003C6E440E3B6E000E3D6E000E3E6EA00EB4
:101670003F6E420E406E5BEC18F0000E036E960E4D
:10168000026EB1EC1BF0010E3C6EE00E3B6E000EE4
:101690003D6E000E3E6EA00E3F6E420E406E5BEC45
:1016A00018F0010E036EF40E026EB1EC1BF0010E89
:1016B0003C6EF40E3B6E000E3D6E000E3E6EC80E8C
:1016C0003F6E420E406E5BEC18F0010E036E2C0E66
:1016D000026EB1EC1BF0020E3C6EF80E3B6E000E7B
:1016E0003D6E000E3E6EC80E3F6E420E406E5BECCD
:1016F00018F0000E036E640E026EB1EC1BF0020EC9
:101700003C6ED00E3B6E000E3D6E000E3E6EC80E5F
:101710003F6E420E406E5BEC18F0000E036E960EAC
:10172000026EB1EC1BF0020E3C6EA80E3B6E000E7A
:101730003D6E000E3E6EC80E3F6E420E406E5BEC7C
:1017400018F0000E036E960E026EB1EC1BF0020E46
:101750003C6E6C0E3B6E000E3D6E000E3E6E160E25
:101760003F6E430E406E5BEC18F0010E036E2C0EC4
:10177000026EB1EC1BF0020E3C6E8A0E3B6E000E48
:101780003D6E000E3E6E160E3F6E430E406E5BECDD
:1017900018F0010E036E2C0E026EB1EC1BF0010E60
:1017A0003C6E7C0E3B6E000E3D6E000E3E6EC80E13
:1017B0003F6E420E406E5BEC18F0000E036E960E0C
:1017C000026EB1EC1BF0010E3C6EAE0E3B6E000ED5
:1017D0003D6E000E3E6EC80E3F6E420E406E5BECDC
:1017E00018F0000E036E960E026EB1EC1BF0010EA7
:1017F0003C6EF40E3B6E000E3D6E000E3E6EC80E4B
:101800003F6E420E406E5BEC18F0010E036E2C0E24
:10181000026EB1EC1BF0010E3C6EAE0E3B6E000E84
:101820003D6E000E3E6EC80E3F6E420E406E5BEC8B
:1018300018F0000E036E960E026EB1EC1BF0010E56
:101840003C6EF40E3B6E000E3D6E000E3E6EC80EFA
:101850003F6E420E406E5BEC18F0000E036E640E9D
:10186000026EB1EC1BF0020E3C6E3A0E3B6E000EA7
:101870003D6E000E3E6EC80E3F6E420E406E5BEC3B
:1018800018F0000E036EDC0E026EB1EC1BF0010EC0
:101890003C6EF40E3B6E000E3D6E000E3E6EC80EAA
:1018A0003F6E420E406E5BEC18F0010E036E2C0E84
:1018B000026EB1EC1BF0020E3C6EF80E3B6E000E99
:1018C0003D6E000E3E6EC80E3F6E420E406E5BECEB
:1018D00018F0000E036E640E026EB1EC1BF0020EE7
:1018E0003C6ED00E3B6E000E3D6E000E3E6EC80E7E
:1018F0003F6E420E406E5BEC18F0000E036E960ECB
:10190000026EB1EC1BF0020E3C6EA80E3B6E000E98
:101910003D6E000E3E6EC80E3F6E420E406E5BEC9A
:1019200018F0000E036E960E026EB1EC1BF0020E64
:101930003C6E6C0E3B6E000E3D6E000E3E6E160E43
:101940003F6E430E406E5BEC18F0010E036E2C0EE2
:10195000026EB1EC1BF0020E3C6E8A0E3B6E000E66
:101960003D6E000E3E6E480E3F6E430E406E5BECC9
:1019700018F0010E036E2C0E026EB1EC1BF0030E7C
:101980003C6EFC0E3B6E000E3D6E000E3E6EA00ED9
:101990003F6E420E406E5BEC18F0010E036E2C0E93
:1019A000026EB1EC1BF0030E3C6EFC0E3B6E000EA3
:1019B0003D6E000E3E6EA00E3F6E420E406E5BEC22
:1019C00018F0000E036E960E026EB1EC1BF0030EC3
:1019D0003C6EFC0E3B6E000E3D6E000E3E6EA00E89
:1019E0003F6E420E406E5BEC18F0010E036E2C0E43
:1019F000026EB1EC1BF0010E3C6E7C0E3B6E000ED5
:101A00003D6E000E3E6EC80E3F6E420E406E5BECA9
:101A100018F0010E036E2C0E026EB1EC1BF0010EDD
:101A20003C6EF40E3B6E000E3D6E000E3E6EC80E18
:101A30003F6E420E406E5BEC18F0010E036E2C0EF2
:101A4000026EB1EC1BF0020E3C6EF80E3B6E000E07
:101A50003D6E000E3E6EC80E3F6E420E406E5BEC59
:101A600018F0000E036E640E026EB1EC1BF0020E55
:101A70003C6ED00E3B6E000E3D6E000E3E6EC80EEC
:101A80003F6E420E406E5BEC18F0000E036E960E39
:101A9000026EB1EC1BF0020E3C6EA80E3B6E000E07
:101AA0003D6E000E3E6EC80E3F6E420E406E5BEC09
:101AB00018F0000E036E960E026EB1EC1BF0020ED3
:101AC0003C6E6C0E3B6E000E3D6E000E3E6E160EB2
:101AD0003F6E430E406E5BEC18F0010E036E2C0E51
:101AE000026EB1EC1BF0020E3C6E8A0E3B6E000ED5
:101AF0003D6E000E3E6E160E3F6E430E406E5BEC6A
:101B000018F0010E036E2C0E026EB1EC1BF0010EEC
:101B10003C6E7C0E3B6E000E3D6E000E3E6EC80E9F
:101B20003F6E420E406E5BEC18F0000E036E960E98
:101B3000026EB1EC1BF0010E3C6EAE0E3B6E000E61
:101B40003D6E000E3E6EC80E3F6E420E406E5BEC68
:101B500018F0000E036E960E026EB1EC1BF0010E33
:101B60003C6EF40E3B6E000E3D6E000E3E6EC80ED7
:101B70003F6E420E406E5BEC18F0010E036E2C0EB1
:101B8000026EB1EC1BF0010E3C6EAE0E3B6E000E11
:101B90003D6E000E3E6EC80E3F6E420E406E5BEC18
:101BA00018F0000E036E960E026EB1EC1BF0010EE3
:101BB0003C6EF40E3B6E000E3D6E000E3E6EC80E87
:101BC0003F6E420E406E5BEC18F0000E036E640E2A
:101BD000026EB1EC1BF0020E3C6E3A0E3B6E000E34
:101BE0003D6E000E3E6EC80E3F6E420E406E5BECC8
:101BF00018F0010E036EA40E026EB1EC1BF0020E83
:101C00003C6E490E3B6E000E3D6E000E3E6EC80EE1
:101C10003F6E420E406E5BEC18F0010E036EC20E7A
:101C2000026EB1EC1BF0020E3C6E260E3B6E000EF7
:101C30003D6E000E3E6EC80E3F6E420E406E5BEC77
:101C400018F0010E036EA40E026EB1EC1BF0010E33
:101C50003C6EF40E3B6E000E3D6E000E3E6EC80EE6
:101C60003F6E420E406E5BEC18F0010E036E680E84
:101C7000026EB1EC1BF0010E3C6E7C0E3B6E000E52
:101C80003D6E000E3E6EC80E3F6E420E406E5BEC27
:101C900018F0010E036E2C0E026EB1EC1BF0010E5B
:101CA0003C6EF40E3B6E000E3D6E000E3E6EC80E96
:101CB0003F6E420E406E5BEC18F0010E036E2C0E70
:101CC000026EB1EC1BF0010E3C6EF40E3B6E000E8A
:101CD0003D6E000E3E6EC80E3F6E420E406E5BECD7
:101CE00018F0000E036E960E026EB1EC1BF0010EA2
:101CF0003C6EF40E3B6E000E3D6E000E3E6EC80E46
:101D00003F6E420E406E5BEC18F0010E036E2C0E1F
:101D1000026EB1EC1BF0010E3C6EF40E3B6E000E39
:101D20003D6E000E3E6EC80E3F6E420E406E5BEC86
:101D300018F0010E036E2C0E026EB1EC1BF0020EB9
:101D40003C6EF80E3B6E000E3D6E000E3E6EC80EF1
:101D50003F6E420E406E5BEC18F0000E036E640E98
:101D6000026EB1EC1BF0020E3C6ED00E3B6E000E0C
:101D70003D6E000E3E6EC80E3F6E420E406E5BEC36
:101D800018F0000E036E960E026EB1EC1BF0020E00
:101D90003C6EA80E3B6E000E3D6E000E3E6EC80EF1
:101DA0003F6E420E406E5BEC18F0000E036E960E16
:101DB000026EB1EC1BF0020E3C6E6C0E3B6E000E20
:101DC0003D6E000E3E6E160E3F6E430E406E5BEC97
:101DD00018F0010E036E2C0E026EB1EC1BF0020E19
:101DE0003C6E8A0E3B6E000E3D6E000E3E6E160E71
:101DF0003F6E430E406E5BEC18F0010E036E2C0E2E
:101E0000026EB1EC1BF0010E3C6E7C0E3B6E000EC0
:101E10003D6E000E3E6EC80E3F6E420E406E5BEC95
:101E200018F0000E036E960E026EB1EC1BF0010E60
:101E30003C6EAE0E3B6E000E3D6E000E3E6EC80E4A
:101E40003F6E420E406E5BEC18F0000E036E960E75
:101E5000026EB1EC1BF0010E3C6EF40E3B6E000EF8
:101E60003D6E000E3E6EC80E3F6E420E406E5BEC45
:101E700018F0010E036E2C0E026EB1EC1BF0010E79
:101E80003C6EAE0E3B6E000E3D6E000E3E6EC80EFA
:101E90003F6E420E406E5BEC18F0000E036E960E25
:101EA000026EB1EC1BF0010E3C6EF40E3B6E000EA8
:101EB0003D6E000E3E6EC80E3F6E420E406E5BECF5
:101EC00018F0000E036E640E026EB1EC1BF0020EF1
:101ED0003C6E3A0E3B6E000E3D6E000E3E6EC80E1E
:101EE0003F6E420E406E5BEC18F0000E036EDC0E8F
:101EF000026EB1EC1BF0010E3C6EF40E3B6E000E58
:101F00003D6E000E3E6EC80E3F6E420E406E5BECA4
:101F100018F0010E036E2C0E026EB1EC1BF0020ED7
:101F20003C6EF80E3B6E000E3D6E000E3E6EC80E0F
:101F30003F6E420E406E5BEC18F0000E036E640EB6
:101F4000026EB1EC1BF0020E3C6ED00E3B6E000E2A
:101F50003D6E000E3E6EC80E3F6E420E406E5BEC54
:101F600018F0000E036E960E026EB1EC1BF0020E1E
:101F70003C6EA80E3B6E000E3D6E000E3E6EC80E0F
:101F80003F6E420E406E5BEC18F0000E036E960E34
:101F9000026EB1EC1BF0020E3C6E6C0E3B6E000E3E
:101FA0003D6E000E3E6E160E3F6E430E406E5BECB5
:101FB00018F0010E036E2C0E026EB1EC1BF0020E37
:101FC0003C6E8A0E3B6E000E3D6E000E3E6E480E5D
:101FD0003F6E430E406E5BEC18F0010E036E2C0E4C
:101FE000026EB1EC1BF0030E3C6EFC0E3B6E000E5D
:101FF0003D6E000E3E6EA00E3F6E420E406E5BECDC
:1020000018F0010E036E2C0E026EB1EC1BF0030EE5
:102010003C6EFC0E3B6E000E3D6E000E3E6EA00E42
:102020003F6E420E406E5BEC18F0000E036E960E93
:10203000026EB1EC1BF0030E3C6EFC0E3B6E000E0C
:102040003D6E000E3E6EA00E3F6E420E406E5BEC8B
:1020500018F0010E036E2C0E026EB1EC1BF0010E97
:102060003C6E7C0E3B6E000E3D6E000E3E6EC80E4A
:102070003F6E420E406E5BEC18F0010E036E2C0EAC
:10208000026EB1EC1BF0010E3C6EF40E3B6E000EC6
:102090003D6E000E3E6EC80E3F6E420E406E5BEC13
:1020A00018F0010E036E2C0E026EB1EC1BF0020E46
:1020B0003C6EF80E3B6E000E3D6E000E3E6EC80E7E
:1020C0003F6E420E406E5BEC18F0000E036E640E25
:1020D000026EB1EC1BF0020E3C6ED00E3B6E000E99
:1020E0003D6E000E3E6EC80E3F6E420E406E5BECC3
:1020F00018F0000E036E960E026EB1EC1BF0020E8D
:102100003C6EA80E3B6E000E3D6E000E3E6EC80E7D
:102110003F6E420E406E5BEC18F0000E036E960EA2
:10212000026EB1EC1BF0020E3C6E6C0E3B6E000EAC
:102130003D6E000E3E6E160E3F6E430E406E5BEC23
:1021400018F0010E036E2C0E026EB1EC1BF0020EA5
:102150003C6E8A0E3B6E000E3D6E000E3E6E160EFD
:102160003F6E430E406E5BEC18F0010E036E2C0EBA
:10217000026EB1EC1BF0010E3C6E7C0E3B6E000E4D
:102180003D6E000E3E6EC80E3F6E420E406E5BEC22
:1021900018F0000E036E960E026EB1EC1BF0010EED
:1021A0003C6EAE0E3B6E000E3D6E000E3E6EC80ED7
:1021B0003F6E420E406E5BEC18F0000E036E960E02
:1021C000026EB1EC1BF0010E3C6EF40E3B6E000E85
:1021D0003D6E000E3E6EC80E3F6E420E406E5BECD2
:1021E00018F0010E036E2C0E026EB1EC1BF0010E06
:1021F0003C6EAE0E3B6E000E3D6E000E3E6EC80E87
:102200003F6E420E406E5BEC18F0000E036E960EB1
:10221000026EB1EC1BF0010E3C6EF40E3B6E000E34
:102220003D6E000E3E6EC80E3F6E420E406E5BEC81
:1022300018F0000E036E640E026EB1EC1BF0020E7D
:102240003C6E3A0E3B6E000E3D6E000E3E6EC80EAA
:102250003F6E420E406E5BEC18F0010E036EA40E52
:10226000026EB1EC1BF0020E3C6E490E3B6E000E8E
:102270003D6E000E3E6EC80E3F6E420E406E5BEC31
:1022800018F0010E036EC20E026EB1EC1BF0020ECE
:102290003C6E260E3B6E000E3D6E000E3E6EC80E6E
:1022A0003F6E420E406E5BEC18F0010E036EA40E02
:1022B000026EB1EC1BF0010E3C6EF40E3B6E000E94
:1022C0003D6E000E3E6EC80E3F6E420E406E5BECE1
:1022D00018F0010E036E680E026EB1EC1BF0010ED9
:1022E0003C6E7C0E3B6E000E3D6E000E3E6EC80EC8
:1022F0003F6E420E406E5BEC18F0010E036E2C0E2A
:10230000026EB1EC1BF0010E3C6EF40E3B6E000E43
:102310003D6E000E3E6EC80E3F6E420E406E5BEC90
:1023200018F0010E036E2C0E026EB1EC1BF0010EC4
:102330003C6EF40E3B6E000E3D6E000E3E6EC80EFF
:102340003F6E420E406E5BEC18F0000E036E960E70
:10235000026EB1EC1BF0010E3C6EF40E3B6E000EF3
:102360003D6E000E3E6EC80E3F6E420E406E5BEC40
:1023700018F0010E036E2C0E026EB1EC1BF0010E74
:102380003C6EF40E3B6E000E3D6E000E3E6E700E07
:102390003F6E420E406E5BEC18F0000E036E960E20
:1023A000026EB1EC1BF0010E3C6EF40E3B6E000EA3
:1023B0003D6E000E3E6EA00E3F6E420E406E5BEC18
:1023C00018F0010E036E2C0E026EB1EC1BF0010E24
:1023D0003C6EF40E3B6E000E3D6E000E3E6E700EB7
:1023E0003F6E420E406E5BEC18F0010E036E5E0E07
:1023F000026EB1EC1BF0010E3C6EF40E3B6E000E53
:102400003D6E000E3E6EA00E3F6E420E406E5BECC7
:1024100018F0000E036E960E026EB1EC1BF0020E69
:102420003C6E440E3B6E000E3D6E000E3E6EA00EE6
:102430003F6E420E406E5BEC18F0010E036E5E0EB6
:10244000026EB1EC1BF0020E3C6E940E3B6E000E61
:102450003D6E000E3E6EA00E3F6E420E406E5BEC77
:1024600018F0000E036E960E026EB1EC1BF0010E1A
:102470003C6EF40E3B6E000E3D6E000E3E6EA00EE6
:102480003F6E420E406E5BEC18F0010E036E2C0E98
:10249000026EB1EC1BF0010E3C6EAE0E3B6E000EF8
:1024A0003D6E000E3E6EA00E3F6E420E406E5BEC27
:1024B00018F0000E036E960E026EB1EC1BF0010ECA
:1024C0003C6E7C0E3B6E000E3D6E000E3E6EA00E0E
:1024D0003F6E420E406E5BEC18F0020E036E580E1B
:1024E000026EB1EC1BF0010E3C6EF40E3B6E000E62
:1024F0003D6E000E3E6E700E3F6E420E406E5BEC07
:1025000018F0000E036E960E026EB1EC1BF0010E79
:102510003C6EF40E3B6E000E3D6E000E3E6EA00E45
:102520003F6E420E406E5BEC18F0010E036E2C0EF7
:10253000026EB1EC1BF0010E3C6EF40E3B6E000E11
:102540003D6E000E3E6E700E3F6E420E406E5BECB6
:1025500018F0010E036E5E0E026EB1EC1BF0010E60
:102560003C6EF40E3B6E000E3D6E000E3E6EA00EF5
:102570003F6E420E406E5BEC18F0000E036E960E3E
:10258000026EB1EC1BF0020E3C6E440E3B6E000E70
:102590003D6E000E3E6EA00E3F6E420E406E5BEC36
:1025A00018F0000E036E960E026EB1EC1BF0020ED8
:1025B0003C6E940E3B6E000E3D6E000E3E6EA00E05
:1025C0003F6E420E406E5BEC18F0020E036E260E5C
:1025D000026EB1EC1BF0030E3C6E660E3B6E000EFD
:1025E0003D6E000E3E6EA00E3F6E420E406E5BECE6
:1025F00018F0010E036E450E026EB1EC1BF0020ED8
:102600003C6EF80E3B6E000E3D6E000E3E6EA00E50
:102610003F6E420E406E5BEC18F0020E036E580ED9
:10262000026EB1EC1BF0010E3C6EF40E3B6E000E20
:102630003D6E000E3E6E700E3F6E420E406E5BECC5
:1026400018F0000E036E960E026EB1EC1BF0010E38
:102650003C6EF40E3B6E000E3D6E000E3E6EA00E04
:102660003F6E420E406E5BEC18F0010E036E2C0EB6
:10267000026EB1EC1BF0010E3C6EF40E3B6E000ED0
:102680003D6E000E3E6E700E3F6E420E406E5BEC75
:1026900018F0010E036E5E0E026EB1EC1BF0010E1F
:1026A0003C6EF40E3B6E000E3D6E000E3E6EA00EB4
:1026B0003F6E420E406E5BEC18F0000E036E960EFD
:1026C000026EB1EC1BF0020E3C6E440E3B6E000E2F
:1026D0003D6E000E3E6EA00E3F6E420E406E5BECF5
:1026E00018F0010E036E5E0E026EB1EC1BF0020ECE
:1026F0003C6E940E3B6E000E3D6E000E3E6EA00EC4
:102700003F6E420E406E5BEC18F0000E036E960EAC
:10271000026EB1EC1BF0010E3C6EF40E3B6E000E2F
:102720003D6E000E3E6EA00E3F6E420E406E5BECA4
:1027300018F0010E036E2C0E026EB1EC1BF0010EB0
:102740003C6EAE0E3B6E000E3D6E000E3E6EA00E59
:102750003F6E420E406E5BEC18F0000E036E960E5C
:10276000026EB1EC1BF0010E3C6E7C0E3B6E000E57
:102770003D6E000E3E6EA00E3F6E420E406E5BEC54
:1027800018F0020E036E580E026EB1EC1BF0020E32
:102790003C6E940E3B6E000E3D6E000E3E6EC80EFB
:1027A0003F6E420E406E5BEC18F0000E036E960E0C
:1027B000026EB1EC1BF0020E3C6E940E3B6E000EEE
:1027C0003D6E000E3E6EC80E3F6E420E406E5BECDC
:1027D00018F0010E036E2C0E026EB1EC1BF0020E0F
:1027E0003C6E940E3B6E000E3D6E000E3E6EC80EAB
:1027F0003F6E420E406E5BEC18F0010E036E2C0E25
:10280000026EB1EC1BF0010E3C6EFE0E3B6E000E34
:102810003D6E000E3E6EC80E3F6E420E406E5BEC8B
:1028200018F0000E036E640E026EB1EC1BF0020E87
:102830003C6E940E3B6E000E3D6E000E3E6EC80E5A
:102840003F6E420E406E5BEC18F0010E036E2C0ED4
:10285000026EB1EC1BF0030E3C6E020E3B6E000EDE
:102860003D6E000E3E6EC80E3F6E420E406E5BEC3B
:1028700018F0020E036E260E026EB1EC1BF0010E74
:102880003C6E7C0E3B6E000E3D6E000E3E6EC80E22
:102890003F6E420E406E5BEC18F0020E036E3F0E70
:1028A000026EB1EC1BF012000550800B0E6E05504D
:1028B0000524106E04BE10801050D8B40DD010281E
:1028C000D8A408D0000E026E000E036E000E046E37
:1028D000000E056E048E06D0000E026E000E036E12
:1028E000000E046E000E056E0950800B0F6E0E5028
:1028F0000F18D8A40E8C095009240F6E08BE0F8043
:102900000F50D8B40DD00F28D8A408D0000E066EF2
:10291000000E076E000E086E000E096E088E06D0BF
:10292000000E066E000E076E000E086E000E096E99
:1029300010500F5CD8B022D00EAC02D0800E0E1A10
:1029400010C011F00FC010F011C00FF002C011F054
:1029500006C002F011C006F003C011F007C003F07A
:1029600011C007F004C011F008C004F011C008F055
:1029700005C011F009C005F011C009F0000E116E7C
:1029800010500FC00AF00B6A0A5E000E0B5A0BBE05
:102990002CD00B5004E11A0E0A5CD8A026D00250AD
:1029A000031004100510D8B402D0010E01D0000E9F
:1029B000116E000E026E000E036E000E046E000E0D
:1029C000056E0FC010F015D011A005D0D8901130B1
:1029D0000109116E02D0D890113202B0118E053467
:1029E0000532043203320232102A0F50105CD8A094
:1029F000EBD70EBC28D01050D8A409D0000E026E20
:102A0000000E036E000E046E000E056E12000650DE
:102A1000022607500322085004220950052205A06F
:102A200071D011A005D0D89011300109116E02D0DB
:102A3000D890113202B0118E0534053204320332BF
:102A40000232102A5FD00650025C0750035808502B
:102A500004580550800A0A6E0950800A0A58D8B0F6
:102A600025D00250065C0A6E035007580B6E0450C6
:102A700008580C6E055009580D6EFF0E0A24026EA0
:102A8000FF0E0B20036EFF0E0C20046EFF0E0D20B8
:102A9000056E800E0E1A116C1150D8A40FD0010EC5
:102AA0000226000E03220422052208D00650025EF0
:102AB0000750035A0850045A0950055A025003108F
:102AC00004100510D8A41CD01150D8A419D0000EA1
:102AD000026E000E036E000E046E000E056E1200F4
:102AE000D890023603360436053611BE028011A096
:102AF00002D0D88001D0D89011361050D8A410063A
:102B000004AEEED7000E0F6E11AE0BD011C00AF05E
:102B10007F0E0A16D8B403D0010E0F6E02D002B099
:102B2000FBD70F50D8B420D0010E0226000E03228E
:102B30000422052205A018D002C00AF003C00BF041
:102B400004C00CF005C00DF00D340D320C320B3208
:102B50000A320AC002F00BC003F00CC004F00DC032
:102B600005F01028D8A4102A1028D8B403D010508B
:102B7000D8A40DD0000E026E000E036E000E046E7F
:102B8000000E056E1050D8A402D0000E0E6E10A0DC
:102B900002D0048E01D0049ED8901030056E0EBE77
:102BA000058E02C002F003C003F004C004F005C0AB
:102BB00005F012001350800B206E13501324276E63
:102BC00012BE27802750D8B40DD02728D8A408D00B
:102BD000000E106E000E116E000E126E000E136EBF
:102BE000128E06D0000E106E000E116E000E126EC8
:102BF000000E136E1750800B201A17501724286EE2
:102C000016BE28802850D8B40DD02828D8A408D0C3
:102C1000000E146E000E156E000E166E000E176E6E
:102C2000168E06D0000E146E000E156E000E166E77
:102C3000000E176E1450151016101710D8A417D0C8
:102C4000000E106E000E116E000E126E000E136E4E
:102C5000800E12127F0E13122050131210C010F0AB
:102C600011C011F012C012F013C013F0120027505F
:102C7000D8A409D0000E106E000E116E000E126E58
:102C8000000E136E1200285027C018F0196A185E43
:102C9000000E195A7F0E1824216E000E1920226E84
:102CA00010C01CF011C01DF012C01EF013C01FF0A8
:102CB000000E106E000E116E000E126E000E136EDE
:102CC000000E236E000E246E000E256E000E266E82
:102CD000000E286E28D02850D8B411D0D8901C36B9
:102CE0001D361E361F36D890103611361236133662
:102CF00026BE1080D890233624362536263614502A
:102D00001C5C15501D5816501E5817501F58D8A03F
:102D100009D0268C14501C5E15501D5A16501E5A90
:102D200017501F5A282A190E2864D5D71C501D1079
:102D30001E101F10D8B411D023800FD0D890103699
:102D400011361236133626BE1080D890233624361C
:102D5000253626362106D8A0220612AEEFD7000E61
:102D6000286E26AE17D0FF0E2314186EFF0E241403
:102D7000196EFF0E25141A6E7F0E26141B6E185046
:102D800019101A101B10D8B403D0010E286E02D0EF
:102D900010B0FBD72850D8B41FD0010E1026000E5B
:102DA00011221222132213A017D010C018F011C044
:102DB00019F012C01AF013C01BF01B341B321A3268
:102DC0001932183218C010F019C011F01AC012F0E0
:102DD0001BC013F0214A222A22BE10D0225003E148
:102DE0002128D8A00BD0000E226E2168000E106E94
:102DF000000E116E000E126E000E136E22BE05D074
:102E0000225011E12104D8B00ED0000E226E000E27
:102E1000216E000E106E000E116E000E126E000E6E
:102E2000136E000E206E21C027F027A002D0128E54
:102E300001D0129ED8902730136E0ED70A6E0A501A
:102E4000D8A405AE1AD002C006F003C007F004C033
:102E500008F005C009F0061E071E081E091E062AF6
:102E6000000E07220822092206C00CF007C00DF050
:102E700008C00EF009C00FF008D002C00CF003C06B
:102E80000DF004C00EF005C00FF002500310041046
:102E90000510D8A409D0000E026E000E036E000EBD
:102EA000046E000E056E1200960E0B6E06D00B2AF5
:102EB000D8900F320E320D320C32000E0C14066E0A
:102EC000000E0D14076E000E0E14086EFE0E0F1489
:102ED000096E0650071008100910D8B40DD0E7D7B6
:102EE0000B2A010E0C26000E0D220E220F22D89066
:102EF0000F320E320D320C32000E0C14066E000E24
:102F00000D14076E000E0E14086EFF0E0F14096EDE
:102F10000650071008100910D8B407D0E1D70B06E7
:102F2000D8900C360D360E360F360EBE03D0020E7C
:102F30000B60F5D70BA00E9ED8900B320BC006F09D
:102F4000076A086A096A06C009F0086A076A066A19
:102F500006500C1207500D1208500E1209500F1295
:102F60000A50D8A405AE01D00F8E0CC002F00DC0DF
:102F700003F00EC004F00FC005F01200000E176E33
:102F8000000E166E000E106E000E0F6E02D0094A73
:102F90000A2A010E156E09C0D9FF0AC0DAFF200EF9
:102FA000DE18D8B417D0F70E0B6EFF0E0C6E09C0EA
:102FB000D9FF0AC0DAFFDF500D6E0E6A0B500D26E6
:102FC0000C500E220E5004E1050E0D5CD8A002D06C
:102FD000000E156E15C011F0126A11501210D8B4FF
:102FE00008D0D5D7000E106E010E0F6E094A0A2ABE
:102FF0002ED009C0D9FF0AC0DAFFDF500B6E0C6A71
:103000000C50000AD8A423D00B502B0AD8B4EED70A
:10301000060AD8B4E7D71BD016C002F017C003F0D9
:10302000000E056E0A0E046E1DEC1CF009C0D9FFDF
:103030000AC0DAFFDF500B6E0B50025E000E035A1F
:10304000300E0224166E000E0320176ECFD7D00E5E
:103050000B6EFF0E0C6E09C0D9FF0AC0DAFFDF50FD
:103060000D6E0E6A0B500D260C500E220E5006E10E
:103070000A0E0D5CD8B002D0010E01D0000E136E06
:10308000146A13501410D8A4C7D70F501010D8A426
:103090000DD016C00BF017C00CF00B1E0C1E0B4A07
:1030A0000C2A0BC009F00CC00AF0120016C009F07F
:1030B00017C00AF012003BC002F03CC003F0000E43
:1030C000056E020E046ECBEC1AF002C03BF003C09A
:1030D0003CF03BC002F03CC003F0000E03BEFF0E0C
:1030E000046E056E010E1EEC17F002C014F003C052
:1030F00015F004C016F005C017F0000E106E240E77
:10310000116E740E126E490E136EDAEC15F010C0CB
:103110002DF011C02EF012C02FF013C030F0000EB1
:10312000296EFF0E2A6E7F0E2B6E470E2C6E6FECF3
:103130001BF029C031F02AC032F02BC033F02CC074
:1031400034F06EEC1AF031C04CF032C04DF04CC08F
:10315000CEFF4DC0CFFFCD80000E436E000E426EFD
:103160000AD0150E416EC60EE82EFED7412EFCD7B2
:1031700000D0424A432A42C002F043C003F0000E8E
:1031800003BEFF0E046E056E010E1EEC17F002C0AA
:1031900010F003C011F004C012F005C013F03DC0E0
:1031A00014F03EC015F03FC016F040C017F0DDEC43
:1031B00018F0D8A0D6D7CD901200000E1014186EBB
:1031C000000E1114196E800E12141A6E7F0E131455
:1031D0001B6E185019101A101B10D8A408D0000E1E
:1031E000106E000E116E000E126E000E136E000EA9
:1031F0001414186E000E1514196E800E16141A6E23
:103200007F0E17141B6E185019101A101B10D8A41B
:1032100008D0000E146E000E156E000E166E000E15
:10322000176E13AE09D0106C111ED8B0112A121EE1
:10323000D8B0122A800E135617AE09D0146C151E82
:10324000D8B0152A161ED8B0162A800E1756000EB2
:10325000101A000E111A000E121A800E131A000E08
:10326000141A000E151A000E161A800E171A145092
:10327000105C155011581650125817501358D8B0EA
:1032800002D0D8901200D88012000EC0D9FF0FC013
:10329000DAFFDECFF6FFDDCFF7FF0800F550250A95
:1032A000D8A440D00EC0D9FF0FC0DAFFDE2A000E2E
:1032B000DD22000E476E000E466E46C04AF047C043
:1032C0004BF0486849680EC0D9FF0FC0DAFFDECF67
:1032D000F6FFDDCFF7FF0800F550250AD8A416D079
:1032E0000EC0D9FF0FC0DAFFDE2A000EDD22000E6D
:1032F000046E250E036E0CC005F00DC006F00DEC3B
:103300001BF0000E0D6E010E0C6E12000EC0D9FFE8
:103310000FC0DAFFDE2A000EDD22000E0D6E000E59
:103320000C6E12000EC0D9FF0FC0DAFFDECFF6FF21
:10333000DDCFF7FF0800F550036E046A0CC005F0FE
:103340000DC006F00DEC1BF00EC0D9FF0FC0DAFF68
:10335000DE2A000EDD22D5D7000E00019B6F640E21
:103360009A6F52EC1CF0E3EC1BF03B0E1A6E100E41
:103370001B6E0AEC1CF030EC1CF0F28EF28C0F018C
:10338000389138939290929289928990210E1A6E78
:10339000100E1B6E0AEC1CF023EC08F0010E1A6EE6
:1033A000100E1B6E0AEC1CF0800E0E6E000E0F6EDF
:1033B000000E116E140E106E0FEC1AF00001805109
:1033C000D8B40AD0800E096E000E0A6EBEEC17F05B
:1033D00009C098F00AC099F09AC002F09BC003F0AF
:1033E000000E03BEFF0E046E056E010E1EEC17F0FC
:1033F00002C094F003C095F004C096F005C097F0A9
:1034000098C03BF099C03CF094C03DF095C03EF0B0
:1034100096C03FF097C040F05BEC18F0BFD7000EAD
:10342000146E000E136E48EC1CF0156E0D0E151880
:10343000D8A414D015C00CF00D6A3DEC1CF0000EA1
:103440000D6E0A0E0C6E3DEC1CF013500E24D96E5E
:1034500014500F20DA6E000EDF6E12007F0E15186A
:10346000D8B404D0080E1518D8A41BD014BEDBD7CE
:10347000145003E11304D8A0D6D715C00CF00D6A80
:103480003DEC1CF0000E0D6E200E0C6E3DEC1CF0A1
:1034900015C00CF00D6A3DEC1CF01306D8A0140604
:1034A000C2D71F0E1564BFD71050135C1450800A8A
:1034B000126E1150800A1258D8B0B5D715C00CF052
:1034C0000D6A3DEC1CF013500E24D96E14500F20E1
:1034D000DA6E15C0DFFF134A142AA5D7333434340B
:1034E0003A6E3A50D8A409D0000E316E000E326EFA
:1034F000000E336E000E346E120031C035F032C053
:1035000036F033C037F034C038F0200E05D0D890F4
:103510003832373236323532E82EF9D73550396EF7
:10352000338EFF0E3116FF0E3216FF0E3316000ECD
:103530003416960E3A5E3AAE0DD03A50800A970F86
:10354000D8A0D2D7D89034323332323231323A3EE8
:10355000F9D70DD01F0E3A6407D0C6D7D8903136B0
:103560003236333634363A063A50D8A4F7D7395083
:10357000D8B408D0341E331E321E316C000E3222F5
:103580003322342231C031F032C032F033C033F054
:1035900034C034F01200000E076E05AE06D0046C85
:1035A000051ED8B0052A010E076E03AE06D0026CC8
:1035B000031ED8B0032A010E071A000E096E000E72
:1035C000086E04500510D8B41CD0010E066E04D04D
:1035D000D89004360536062A05AEFAD7D8900836B4
:1035E00009360450025C05500358D8A005D0045099
:1035F000025E0550035A0880D89005320432062E28
:10360000EDD70750D8B404D0086C091ED8B0092AE9
:1036100008C002F009C003F0120005500610D8B42B
:1036200004D005500610D8A404D003505AEC1CF066
:1036300029D020EE04F00550D9260650DA22DE50BB
:10364000DE10D8B416D020EE04F00550D92606506E
:10365000DA2210EE02F00550E1260650E222DE509A
:10366000E65CE650800A0B6EDE50800A0B58D8B03C
:1036700009D020EE02F00550D9260650DA22DE2AC3
:10368000000EDD2203C003F0046A120014C018F01B
:1036900015C019F0000E456E000E446E12D012C017
:1036A0000CF013C00DF0180E0E6E000E0F6E16C04B
:1036B00010F017C011F045EC19F00C5044260D50D5
:1036C000452218C0F6FF19C0F7FF0800F5500009A1
:1036D000D8A4E5D744C012F045C013F01200000E84
:1036E0002D1A000E2E1A000E2F1A800E301A29C025
:1036F00002F02AC003F02BC004F02CC005F02DC04E
:1037000006F02EC007F02FC008F030C009F054ECCE
:1037100014F002C029F003C02AF004C02BF005C049
:103720002CF01200010E086E200E02180310D8B4FF
:1037300014D0F70E046EFF0E056E02C006F003C033
:1037400007F00450062605500722075004E1050E35
:10375000065CD8A002D0000E086E08C002F0036A12
:103760001200000E066E000E056E0AD0150E046ED5
:10377000C60EE82EFED7042EFCD700D0054A062A36
:103780000250055C0650800A046E0350800A0458FB
:10379000D8B01200EBD7D00E046EFF0E056E02C03B
:1037A00006F003C007F00450062605500722075014
:1037B00006E10A0E065CD8B002D0010E01D0000E60
:1037C000026E036A1200000E0F01386F000E3A6F8E
:1037D000949C948EAC98AC9CAC8AAB9CAB88AB8E22
:1037E000B896AC94330EAF6E000EB06E120000EEC1
:1037F00060F0200EEE6AE806FDE100EE44F00B0EEC
:10380000EE6AE806FDE14F904F92000EF86E00015F
:10381000ACEF19F01C0E1E6E000E1F6E000E126E25
:10382000000E136E1AC014F01BC015F01E0E166E9B
:10383000000E176E46EC1BF0120002500402F3CF8C
:1038400006F0F4CF07F002500502F35007260350AC
:103850000402F350072606C002F007C003F012006E
:10386000CD903F0ECD16CD82300ECD12000ECF6E14
:10387000000ECE6E9E909D8012000CC003F00DC015
:1038800004F0000E056E000E066E0DEC1BF012002B
:1038900005D0ABA203D0AB92AB98AB889EAAF9D768
:1038A000AE501200FC0ED316700ED3129B8CD3B404
:1038B0001200FDD7026EACA2FED702C0ADFF12000F
:020000040020DA
:08000000FFFFFFFFFFFFFFFF00
:020000040030CA
:0E000000FF281E3CFFBF85FF0FC00FE00F4022
:00000001FF
