:020000040000FA
:040000004EEF00F0CF
:100008005D829EA00AEF00F00CEF00F025EF00F0F3
:100018005BC0CEFF5CC0CFFF0001812B89B017EF1A
:1000280000F01AEF00F0010E1BEF00F0000EFF0ABF
:10003800016E89500118FE0B0118896E9E9025EFFC
:1000480000F08C0E00018119D8A42DEF00F02FEFDD
:1000580000F04CEF00F08005D8A435EF00F037EF42
:1000680000F04CEF00F0000E816F89B23EEF00F017
:1000780041EF00F0010E42EF00F0000EFF0A016EA2
:10008800014689500118FD0B0118896E4CEF00F0EC
:080098005D92110025EF15F047
:1010000000446967697461726520756E612066725B
:10101000657175656E7A6120696E746572613A20DA
:101020000042616368202D20626164696E657269A7
:0F1030002E0A0D000A0D52455345540A0D0000BB
:101040003050800B3D6E305030243F6E2FAE2BEF72
:1010500008F02DEF08F030EF08F03F8030EF08F097
:101060003F50D8B436EF08F038EF08F04FEF08F0F3
:101070003F28D8A43EEF08F040EF08F04AEF08F010
:10108000000E2D6E000E2E6E000E2F6E000E306EB6
:101090004AEF08F02F8E000E306E59EF08F0000E68
:1010A0002D6E000E2E6E000E2F6E000E306E59EF5C
:1010B00008F03450800B3E6E3D503E18D8B463EFBC
:1010C00008F065EF08F068EF08F03D8C68EF08F075
:1010D000345034243E6E33AE70EF08F072EF08F0F7
:1010E00075EF08F03E8075EF08F03E50D8B47BEF06
:1010F00008F07DEF08F094EF08F03E28D8A483EFC5
:1011000008F085EF08F08FEF08F0000E316E000E4A
:10111000326E000E336E000E346E8FEF08F0338E99
:10112000000E346E9EEF08F0000E316E000E326E2F
:10113000000E336E000E346E9EEF08F03F503E5CA2
:10114000D8B0A5EF08F0A7EF08F0D2EF08F03DAC5B
:10115000ACEF08F0AEEF08F0B2EF08F0800E3D1AE9
:10116000B2EF08F03FC040F03EC03FF040C03EF05C
:101170002DC040F031C02DF040C031F02EC040F005
:1011800032C02EF040C032F02FC040F033C02FF0FC
:1011900040C033F030C040F034C030F040C034F0D4
:1011A000D2EF08F0000E406E3F50356E366A351EA5
:1011B000361E354A362A3E50376E386A3550372645
:1011C0003650382238BEEEEF08F0385009E11A0EDA
:1011D000375CD8A0EEEF08F0F0EF08F02DEF09F043
:1011E0002D502E102F103010D8A4F9EF08F0FCEF7E
:1011F00008F0010EFDEF08F0000E406E000E2D6E9F
:10120000000E2E6E000E2F6E000E306E3EC03FF0B0
:1012100038EF09F02DEF09F040A011EF09F013EFBE
:1012200009F019EF09F0D89040300109406E1DEF28
:1012300009F0D89040321DEF09F02DA022EF09F0FF
:1012400024EF09F027EF09F0408E27EF09F0303442
:1012500030322F322E322D323F2A3E503F5CD8A002
:1012600034EF09F036EF09F00CEF09F038EF09F030
:101270003DBC3DEF09F03FEF09F087EF09F03F502B
:10128000D8A445EF09F047EF09F053EF09F0000E3D
:101290002D6E000E2E6E000E2F6E000E306EE1EFE2
:1012A0000AF0E1EF0AF031502D2632502E22335051
:1012B0002F223450302230A060EF09F062EF09F0A5
:1012C00037EF0AF040A067EF09F069EF09F06FEF20
:1012D00009F0D89040300109406E73EF09F0D890C2
:1012E000403273EF09F02DA078EF09F07AEF09F0A2
:1012F0007DEF09F0408E7DEF09F0303430322F322F
:101300002E322D323F2A37EF0AF037EF0AF03150F4
:101310002D5C32502E5833502F583050800A356E85
:101320003450800A3558D8B098EF09F09AEF09F098
:10133000D8EF09F02DC035F02EC036F02FC037F0B1
:1013400030C038F0351E361E371E381E352A000EC6
:1013500036223722382231503524396E3250362029
:101360003A6E335037203B6E345038203C6EFF0EBF
:1013700039242D6EFF0E3A202E6EFF0E3B202F6E6D
:10138000FF0E3C20306E800E3D1A406C4050D8A4B9
:10139000CCEF09F0CEEF09F0E0EF09F0010E2D26B9
:1013A000000E2E222F223022E0EF09F0E0EF09F0AC
:1013B00031502D5E32502E5A33502F5A3450305AFD
:1013C0002D502E102F103010D8A4E9EF09F0EBEFBC
:1013D00009F02CEF0AF04050D8A4F1EF09F0F3EF38
:1013E00009F02CEF0AF0000E2D6E000E2E6E000E8E
:1013F0002F6E000E306EE1EF0AF0E1EF0AF02CEFF5
:101400000AF0D8902D362E362F36303640AE0BEF00
:101410000AF00DEF0AF010EF0AF02D8010EF0AF03D
:1014200040A015EF0AF017EF0AF01BEF0AF0D88082
:1014300040361FEF0AF0D89040361FEF0AF03F50B9
:10144000D8B425EF0AF027EF0AF02CEF0AF03F0698
:101450002CEF0AF02CEF0AF02FAE31EF0AF033EF49
:101460000AF001EF0AF037EF0AF037EF0AF0000E4A
:101470003E6E40AE3EEF0AF040EF0AF05CEF0AF03D
:1014800040C035F07F0E3516D8B449EF0AF04BEF67
:101490000AF04FEF0AF0010E3E6E5CEF0AF02DA04D
:1014A00054EF0AF056EF0AF05CEF0AF0010E3E6EC0
:1014B0005CEF0AF05CEF0AF03E50D8B462EF0AF03D
:1014C00064EF0AF095EF0AF0010E2D26000E2E2291
:1014D0002F22302230A06FEF0AF071EF0AF095EF63
:1014E0000AF02DC035F02EC036F02FC037F030C0D6
:1014F00038F03834383237323632353235C02DF0A4
:1015000036C02EF037C02FF038C030F03F28D8B4A6
:101510008CEF0AF08EEF0AF095EF0AF03F2A95EF74
:101520000AF095EF0AF095EF0AF03F28D8B49BEF48
:101530000AF09DEF0AF0A7EF0AF03F50D8A4A3EFFE
:101540000AF0A5EF0AF0BDEF0AF0A7EF0AF0000ECF
:101550002D6E000E2E6E000E2F6E000E306E3F5060
:10156000D8A4B5EF0AF0B7EF0AF0BDEF0AF0000E0D
:101570003D6EBDEF0AF0BDEF0AF03FA0C2EF0AF0EA
:10158000C4EF0AF0C7EF0AF02F8ECAEF0AF02F9EC1
:10159000CAEF0AF0D8903F30306E3DAED2EF0AF07D
:1015A000D4EF0AF0D7EF0AF0308ED7EF0AF02DC053
:1015B0002DF02EC02EF02FC02FF030C030F0E1EF14
:1015C0000AF012001350800B206E13501324276E64
:1015D00012AEEDEF0AF0EFEF0AF0F2EF0AF027801B
:1015E000F2EF0AF02750D8B4F8EF0AF0FAEF0AF059
:1015F00011EF0BF02728D8A400EF0BF002EF0BF04F
:101600000CEF0BF0000E106E000E116E000E126E3D
:10161000000E136E0CEF0BF0128E000E136E1BEF0C
:101620000BF0000E106E000E116E000E126E000E0A
:10163000136E1BEF0BF01750800B201A1750172456
:10164000286E16AE26EF0BF028EF0BF02BEF0BF009
:1016500028802BEF0BF02850D8B431EF0BF033EF8C
:101660000BF04AEF0BF02828D8A439EF0BF03BEF32
:101670000BF045EF0BF0000E146E000E156E000E11
:10168000166E000E176E45EF0BF0168E000E176EDD
:1016900054EF0BF0000E146E000E156E000E166E59
:1016A000000E176E54EF0BF0145015101610171093
:1016B000D8A45DEF0BF05FEF0BF079EF0BF0000EAD
:1016C000106E000E116E000E126E000E136E800E64
:1016D00012127F0E13122050131210C010F011C0FE
:1016E00011F012C012F013C013F0F1EF0CF0F1EF93
:1016F0000CF02750D8A47FEF0BF081EF0BF095EFA3
:101700000BF0000E106E000E116E000E126E000E29
:10171000136E10C010F011C011F012C012F013C0FF
:1017200013F0F1EF0CF0F1EF0CF02850186E196A7D
:10173000181E191E184A192A27501A6E1B6A1850AB
:101740001A2619501B227F0E1A24216E000E1B2010
:10175000226E10C01CF011C01DF012C01EF013C08C
:101760001FF0000E106E000E116E000E126E000EB5
:10177000136E000E236E000E246E000E256E000EFA
:10178000266E000E286E01EF0CF02850D8B4CBEF77
:101790000BF0CDEF0BF0E6EF0BF0D8901C361D36BA
:1017A0001E361F36D890103611361236133626AE36
:1017B000DCEF0BF0DEEF0BF0DFEF0BF01080D890DA
:1017C0002336243625362636E6EF0BF014501C5C03
:1017D00015501D5816501E5817501F58D8A0F3EF1B
:1017E0000BF0F5EF0BF000EF0CF0268C14501C5EA4
:1017F00015501D5A16501E5A17501F5A00EF0CF064
:10180000282A190E286407EF0CF009EF0CF0C5EF39
:101810000BF00BEF0CF01C501D101E101F10D8B455
:1018200014EF0CF016EF0CF032EF0CF0238032EFD7
:101830000CF032EF0CF0D890103611361236133609
:1018400026AE25EF0CF027EF0CF028EF0CF01080FF
:10185000D89023362436253626362106D8A02206EF
:1018600032EF0CF012AE37EF0CF039EF0CF01BEF4B
:101870000CF03BEF0CF0000E286E26AE42EF0CF0A1
:1018800044EF0CF06CEF0CF0FF0E2314186EFF0EFB
:101890002414196EFF0E25141A6E7F0E26141B6E6B
:1018A000185019101A101B10D8B459EF0CF05BEF38
:1018B0000CF05FEF0CF0010E286E6CEF0CF010A036
:1018C00064EF0CF066EF0CF06CEF0CF0010E286E7C
:1018D0006CEF0CF06CEF0CF02850D8B472EF0CF0F9
:1018E00074EF0CF09CEF0CF0010E1026000E11228C
:1018F0001222132213A07FEF0CF081EF0CF09CEF6B
:101900000CF010C018F011C019F012C01AF013C07A
:101910001BF01B341B321A321932183218C010F067
:1019200019C011F01AC012F01BC013F0214A222A6C
:101930009CEF0CF09CEF0CF022BEA7EF0CF02250B5
:1019400008E12128D8A0A7EF0CF0A9EF0CF0B6EF22
:101950000CF0000E226E2168000E106E000E116E4B
:10196000000E126E000E136EB6EF0CF022BEC3EF27
:101970000CF0225006E12104D8B0C1EF0CF0C3EF07
:101980000CF0D3EF0CF0000E226E000E216E000E54
:10199000106E000E116E000E126E000E136E000E11
:1019A000206ED3EF0CF021C027F027A0DAEF0CF067
:1019B000DCEF0CF0DFEF0CF0128EE2EF0CF0129E79
:1019C000E2EF0CF0D8902730136E2050131210C0A5
:1019D00010F011C011F012C012F013C013F0F1EFAB
:1019E0000CF01200010E4C6E870E4B6E000E4E6E08
:1019F000E60E4D6E2AEC12F0010E4C6E870E4B6E09
:101A0000000E4E6EE60E4D6E2AEC12F0010E4C6E7C
:101A1000B80E4B6E010E4E6ECD0E4D6E2AEC12F0CE
:101A2000010E4C6E870E4B6E010E4E6ECD0E4D6E3E
:101A30002AEC12F0020E4C6E0B0E4B6E010E4E6E27
:101A4000CD0E4D6E2AEC12F0010E4C6EED0E4B6E6B
:101A5000030E4E6E9B0E4D6E2AEC12F0010E4C6E74
:101A6000870E4B6E000E4E6EE60E4D6E2AEC12F097
:101A7000010E4C6E870E4B6E000E4E6EE60E4D6ED6
:101A80002AEC12F0010E4C6EB80E4B6E010E4E6E2B
:101A9000CD0E4D6E2AEC12F0010E4C6E870E4B6E81
:101AA000010E4E6ECD0E4D6E2AEC12F0020E4C6EF3
:101AB0004B0E4B6E010E4E6ECD0E4D6E2AEC12F09B
:101AC000020E4C6E0B0E4B6E030E4E6E9B0E4D6E49
:101AD0002AEC12F0010E4C6E870E4B6E000E4E6E0D
:101AE000E60E4D6E2AEC12F0010E4C6E870E4B6E18
:101AF000000E4E6EE60E4D6E2AEC12F0030E4C6E8A
:101B00000F0E4B6E010E4E6ECD0E4D6E2AEC12F086
:101B1000020E4C6E930E4B6E010E4E6ECD0E4D6E40
:101B20002AEC12F0020E4C6E0B0E4B6E000E4E6E37
:101B3000E60E4D6E2AEC12F0020E4C6E0B0E4B6E42
:101B4000000E4E6EE60E4D6E2AEC12F0010E4C6E3B
:101B5000ED0E4B6E010E4E6ECD0E4D6E2AEC12F058
:101B6000010E4C6EB80E4B6E010E4E6ECD0E4D6ECC
:101B70002AEC12F0020E4C6EBA0E4B6E000E4E6E38
:101B8000E60E4D6E2AEC12F0020E4C6EBA0E4B6E43
:101B9000000E4E6EE60E4D6E2AEC12F0020E4C6EEA
:101BA000930E4B6E010E4E6ECD0E4D6E2AEC12F062
:101BB000020E4C6E0B0E4B6E010E4E6ECD0E4D6E28
:101BC0002AEC12F0020E4C6E4B0E4B6E010E4E6E56
:101BD000CD0E4D6E2AEC12F0020E4C6E0B0E4B6EBB
:101BE000030E4E6E9B0E4D6E2AEC12F0010E4C6EE3
:101BF000870E4B6E000E4E6EE60E4D6E2AEC12F006
:101C0000010E4C6E870E4B6E000E4E6EE60E4D6E44
:101C10002AEC12F0010E4C6EB80E4B6E010E4E6E99
:101C2000CD0E4D6E2AEC12F0010E4C6E870E4B6EEF
:101C3000010E4E6ECD0E4D6E2AEC12F0020E4C6E61
:101C40000B0E4B6E010E4E6ECD0E4D6E2AEC12F049
:101C5000010E4C6EED0E4B6E030E4E6E9B0E4D6ED6
:101C60002AEC12F0010E4C6E870E4B6E000E4E6E7B
:101C7000E60E4D6E2AEC12F0010E4C6E870E4B6E86
:101C8000000E4E6EE60E4D6E2AEC12F0010E4C6EFA
:101C9000B80E4B6E010E4E6ECD0E4D6E2AEC12F04C
:101CA000010E4C6E870E4B6E010E4E6ECD0E4D6EBC
:101CB0002AEC12F0020E4C6E4B0E4B6E010E4E6E65
:101CC000CD0E4D6E2AEC12F0020E4C6E0B0E4B6ECA
:101CD000030E4E6E9B0E4D6E2AEC12F0010E4C6EF2
:101CE000870E4B6E000E4E6EE60E4D6E2AEC12F015
:101CF000010E4C6E870E4B6E000E4E6EE60E4D6E54
:101D00002AEC12F0030E4C6E0F0E4B6E010E4E6E4F
:101D1000D10E4D6E2AEC12F0020E4C6E930E4B6EED
:101D2000010E4E6ED10E4D6E2AEC12F0020E4C6E6C
:101D30000B0E4B6E000E4E6EE80E4D6E2AEC12F03E
:101D4000020E4C6E0B0E4B6E000E4E6EE80E4D6E7C
:101D50002AEC12F0010E4C6EED0E4B6E010E4E6E23
:101D6000E00E4D6E2AEC12F0010E4C6EB80E4B6E6A
:101D7000010E4E6EE00E4D6E2AEC12F0020E4C6E0D
:101D8000BA0E4B6E000E4E6EF70E4D6E2AEC12F030
:101D9000020E4C6EBA0E4B6E000E4E6EF70E4D6E6E
:101DA0002AEC12F0020E4C6E930E4B6E020E4E6E2B
:101DB000000E4D6E2AEC12F0020E4C6E0B0E4B6EA6
:101DC000020E4E6E000E4D6E2AEC12F0020E4C6E9C
:101DD0004B0E4B6E020E4E6E000E4D6E2AEC12F044
:101DE000020E4C6E0B0E4B6E040E4E6E010E4D6EBF
:101DF0002AEC12F01200000E176E000E166E000E86
:101E0000106E000E0F6E09EF0FF0094A0A2A09EF53
:101E10000FF0010E156E09C0D9FF0AC0DAFF200EBF
:101E2000DE18D8B416EF0FF018EF0FF036EF0FF002
:101E3000F70E0B6EFF0E0C6E09C0D9FF0AC0DAFF59
:101E4000DF500D6E0E6A0B500D260C500E220E50F8
:101E500009E1050E0D5CD8A030EF0FF032EF0FF066
:101E600036EF0FF0000E156E36EF0FF015C011F0C3
:101E7000126A4CEF0FF009C0D9FF0AC0DAFFDF5039
:101E80000B6E0B50026E036A3FEC14F002C011F0AF
:101E900003C012F04CEF0FF011501210D8A453EF02
:101EA0000FF055EF0FF005EF0FF063EF0FF063EF5A
:101EB0000FF0000E106E010E0F6E5FEF0FF0094A6B
:101EC0000A2AA5EF0FF009C0D9FF0AC0DAFFDF50D8
:101ED0000B6E0C6A0C50000AD8B471EF0FF0A5EF2E
:101EE0000FF00B502B0AD8B45FEF0FF0060AD8B4EE
:101EF00059EF0FF0A5EF0FF0A5EF0FF0D00E0B6E1E
:101F0000FF0E0C6E09C0D9FF0AC0DAFFDF500D6E5C
:101F10000E6A0B500D260C500E220D1E0E1E0D4A81
:101F20000E2A16C002F017C003F0000E056E0A0E4E
:101F3000046EFCEC14F00D500224166E0E500320BB
:101F4000176E094A0A2AA5EF0FF0D00E0B6EFF0E8E
:101F50000C6E09C0D9FF0AC0DAFFDF500D6E0E6AA1
:101F60000B500D260C500E220E500AE10A0E0D5C8D
:101F7000D8A0BDEF0FF0C0EF0FF0010EC1EF0FF0D2
:101F8000000E136E146AD6EF0FF009C0D9FF0AC015
:101F9000DAFFDF500B6E0B50026E036AAAEC14F0EE
:101FA00002C013F003C014F0D6EF0FF0135014105A
:101FB000D8A4DDEF0FF0DFEF0FF07EEF0FF0E1EFD1
:101FC0000FF00F501010D8A4E8EF0FF0EAEF0FF069
:101FD000F8EF0FF016C00BF017C00CF00B1E0C1E24
:101FE0000B4A0C2A0BC009F00CC00AF0FEEF0FF0F0
:101FF00016C009F017C00AF0FEEF0FF012000A6ECB
:102000000A50D8B406EF10F008EF10F02AEF10F0E5
:1020100005BE0FEF10F00DEF10F02AEF10F002C028
:1020200006F003C007F004C008F005C009F0061E62
:10203000071E081E091E062A000E07220822092272
:1020400006C00CF007C00DF008C00EF009C00FF07C
:1020500034EF10F002C00CF003C00DF004C00EF01D
:1020600005C00FF034EF10F00250031004100510FB
:10207000D8A43DEF10F03FEF10F04BEF10F0000E42
:10208000026E000E036E000E046E000E056EECEF85
:1020900010F0ECEF10F0960E0B6E57EF10F00B2ACD
:1020A000D8900F320E320D320C3257EF10F0000E76
:1020B0000C14066E000E0D14076E000E0E14086E42
:1020C000FE0E0F14096E0650071008100910D8A450
:1020D0006CEF10F06EEF10F04FEF10F07EEF10F09D
:1020E0007EEF10F00B2A010E0C26000E0D220E22A0
:1020F0000F22D8900F320E320D320C32000E0C141B
:10210000066E000E0D14076E000E0E14086EFF0E04
:102110000F14096E0650071008100910D8A493EF89
:1021200010F095EF10F072EF10F0A1EF10F0A1EFAA
:1021300010F00B06D8900C360D360E360F36A1EF88
:1021400010F00EBEA6EF10F0A8EF10F0B2EF10F0F6
:10215000020E0B60AEEF10F0B0EF10F099EF10F040
:10216000B2EF10F00BB0B7EF10F0B9EF10F0BCEF1A
:1021700010F00E9EBCEF10F0D8900B320BC006F0A2
:10218000076A086A096A06C009F0086A076A066AE7
:1021900006500C1207500D1208500E1209500F1263
:1021A0000A50D8B4D6EF10F0D8EF10F0E2EF10F0EC
:1021B00005BEDFEF10F0DDEF10F0E2EF10F00F8E54
:1021C000E2EF10F00CC002F00DC003F00EC004F0FE
:1021D0000FC005F0ECEF10F01200433444344A6EA7
:1021E0004A50D8A4F6EF10F0F8EF10F004EF11F019
:1021F000000E416E000E426E000E436E000E446EE5
:1022000095EF11F095EF11F041C045F042C046F056
:1022100043C047F044C048F0200E14EF11F0D890AE
:102220004832473246324532E82E0FEF11F0455022
:10223000496E438EFF0E4116FF0E4216FF0E4316E7
:10224000000E4416960E4A5E4ABE2BEF11F029EF9F
:1022500011F04FEF11F04A50800A970FD8B033EFCA
:1022600011F035EF11F043EF11F0000E416E000E4A
:10227000426E000E436E000E446E95EF11F095EF26
:1022800011F043EF11F0D8904432433242324132E0
:102290004A3E43EF11F079EF11F079EF11F01F0E84
:1022A0004A6455EF11F057EF11F06DEF11F0000E89
:1022B000416E000E426E000E436E000E446E95EFAE
:1022C00011F095EF11F06DEF11F0D89041364236D4
:1022D000433644364A066DEF11F04A50D8A473EFE6
:1022E00011F075EF11F065EF11F079EF11F079EF62
:1022F00011F04950D8B47FEF11F081EF11F08BEF5E
:1023000011F0441E431E421E416C000E4222432225
:1023100044228BEF11F041C041F042C042F043C073
:1023200043F044C044F095EF11F01200000E146E1B
:10233000000E136E9CEF11F0C8EC14F0156E0D0E2C
:102340001518D8A4A6EF11F0A8EF11F0C1EF11F005
:1023500015C00CF00D6A59EC15F0000E0D6E0A0E4A
:102360000C6E59EC15F013500E24D96E14500F203A
:10237000DA6E000EDF6E29EF12F029EF12F09CEFFB
:1023800011F07F0E1518D8B4C8EF11F0CAEF11F094
:10239000D5EF11F0080E1518D8A4D1EF11F0D3EF36
:1023A00011F0F9EF11F0D5EF11F014BEE0EF11F0DC
:1023B000145008E11304D8A0E0EF11F0E2EF11F09F
:1023C0009CEF11F015C00CF00D6A59EC15F0000EE1
:1023D0000D6E200E0C6E59EC15F015C00CF00D6A48
:1023E00059EC15F01306D8A014069CEF11F09CEFE1
:1023F00011F01F0E1564FFEF11F001EF12F09CEFCA
:1024000011F01050135C1450800A126E1150800AA3
:102410001258D8B00EEF12F010EF12F09CEF11F03E
:1024200015C00CF00D6A59EC15F013500E24D96E3E
:1024300014500F20DA6E15C0DFFF134A142A9CEFE8
:1024400011F09CEF11F09CEF11F09CEF11F09CEF5C
:1024500011F01200000E146E000E156E800E166E36
:10246000400E176E4BC002F04CC003F0046A056AC0
:10247000000EFFEC0FF002C010F003C011F004C01A
:1024800012F005C013F0E2EC0AF010C041F011C0E8
:1024900042F012C043F013C044F0EDEC10F041C024
:1024A0004BF042C04CF0000E316EFF0E326E7F0ECC
:1024B000336E470E346E4BC002F04CC003F0046A1A
:1024C000056A000EFFEC0FF002C014F003C015F017
:1024D00004C016F005C017F0000E106E240E116E29
:1024E000740E126E490E136EE2EC0AF010C029F061
:1024F00011C02AF012C02BF013C02CF06CEC14F0B9
:1025000029C02DF02AC02EF02BC02FF02CC030F0A7
:1025100020EC08F02DC041F02EC042F02FC043F057
:1025200030C044F0EDEC10F041C05BF042C05CF014
:102530005BC0CEFF5CC0CFFFCD80000E516E000EA1
:10254000506EADEF12F0150E4F6EC60EE82EFED790
:102550004F2EFCD700D0504A512A4D50505C4E505F
:102560005158D8A0B6EF12F0B8EF12F0A3EF12F066
:10257000CD901200000E0001996F640E986F38EC38
:1025800015F011EC15F0340E1A6E100E1B6EE3EC04
:1025900014F066EC15F0F28EF28C0F01389138933E
:1025A0009290929289928990020E4C6EBA0E4B6E66
:1025B0000A0E4E6E9A0E4D6E2AEC12F0010E0001BC
:1025C000806F000E816F89B2E8EF12F0EBEF12F02E
:1025D000010EECEF12F0000EFF0A526E52468950C7
:1025E0005218FD0B5218896E060E036EB20E026E63
:1025F0008CEC14F0210E1A6E100E1B6EE3EC14F02E
:10260000F2EC0CF004EF13F0010E1A6E100E1B6EBC
:10261000E3EC14F0820E0E6E000E0F6E000E116EC3
:10262000140E106E96EC11F000018251D8B41BEF1D
:1026300013F01DEF13F029EF13F0820E096E000E58
:102640000A6EFBEC0EF009C096F00AC097F029EF75
:1026500013F096C04BF097C04CF098C04DF099C065
:102660004EF02AEC12F004EF13F004EF13F04EEFEB
:1026700000F00EC0D9FF0FC0DAFFDECFF6FFDDCFCE
:10268000F7FF0800F550250AD8A449EF13F04BEFE7
:1026900013F096EF13F00EC0D9FF0FC0DAFFDE2A59
:1026A000000EDD22000E566E000E556E55C059F01C
:1026B00056C05AF0576858680EC0D9FF0FC0DAFFED
:1026C000DECFF6FFDDCFF7FF0800F550250AD8A4CE
:1026D0006CEF13F06EEF13F087EF13F00EC0D9FF1D
:1026E0000FC0DAFFDE2A000EDD22000E046E250E7A
:1026F000036E0CC005F00DC006F0B6EC13F0000E32
:102700000D6E010E0C6EB5EF13F0B5EF13F00EC0A9
:10271000D9FF0FC0DAFFDE2A000EDD22000E0D6E9B
:10272000000E0C6EB5EF13F0B5EF13F00EC0D9FF2D
:102730000FC0DAFFDECFF6FFDDCFF7FF0800F55060
:10274000036E046A0CC005F00DC006F0B6EC13F081
:102750000EC0D9FF0FC0DAFFDE2A000EDD22000E08
:102760000D6E010E0C6EB5EF13F012000550061041
:10277000D8B4BDEF13F0BFEF13F0CAEF13F005505C
:102780000610D8A4C6EF13F0C8EF13F0CFEF13F084
:10279000CAEF13F003504AEC15F008EF14F020EEE6
:1027A00004F00550D9260650DA22DE50DE10D8B4E7
:1027B000DCEF13F0DEEF13F0FBEF13F020EE04F08C
:1027C0000550D9260650DA2210EE02F00550E12617
:1027D0000650E222DE50E65CE650800A0B6EDE50C8
:1027E000800A0B58D8B0F7EF13F0F9EF13F008EFA9
:1027F00014F0FBEF13F020EE02F00550D92606503E
:10280000DA22DE2A000EDD2208EF14F008EF14F0C1
:1028100003C003F0046A0DEF14F0120014C018F0A6
:1028200015C019F0000E546E000E536E2CEF14F00C
:1028300012C00CF013C00DF0180E0E6E000E0F6ECD
:1028400016C010F017C011F039EC13F00C505326DD
:102850000D5054222CEF14F018C0F6FF19C0F7FFEA
:102860000800F5500009D8A438EF14F03AEF14F03E
:1028700018EF14F053C012F054C013F01200010E00
:10288000086E200E02180310D8B449EF14F04BEF75
:1028900014F066EF14F0F70E046EFF0E056E02C022
:1028A00006F003C007F00450062605500722075023
:1028B00009E1050E065CD8A060EF14F062EF14F099
:1028C00066EF14F0000E086E66EF14F008C002F018
:1028D000036A6BEF14F0120029502A102B102C10F1
:1028E000D8B475EF14F077EF14F081EF14F0000E08
:1028F000291A000E2A1A000E2B1A800E2C1A81EFAC
:1029000014F029C029F02AC02AF02BC02BF02CC0CB
:102910002CF08BEF14F01200000E066E000E056E08
:102920009CEF14F0150E046EC60EE82EFED7042E92
:10293000FCD700D0054A062A0250055C0350065811
:10294000D8A0A5EF14F0A7EF14F092EF14F0A9EFC0
:1029500014F01200D00E046EFF0E056E02C006F0D9
:1029600003C007F0045006260550072207500AE16D
:102970000A0E065CD8A0BFEF14F0C2EF14F0010EEF
:10298000C3EF14F0000E026E036AC7EF14F01200DA
:10299000D6EF14F0ABA2CFEF14F0D1EF14F0D6EFD6
:1029A00014F0AB92AB98AB88D6EF14F09EAADBEF95
:1029B00014F0DDEF14F0CAEF14F0DFEF14F0AE50B6
:1029C000E2EF14F012001C0E1E6E000E1F6E000EC1
:1029D000126E000E136E1AC014F01BC015F01E0EFE
:1029E000166E000E176E0EEC14F012C01CF013C021
:1029F0001DF0FBEF14F0120002500402F3CF06F0BA
:102A0000F4CF07F002500502F350072603500402EA
:102A1000F350072606C002F007C003F010EF15F0D0
:102A20001200000E0F01386F000E3A6F949C948EC6
:102A3000AC98AC9CAC8AAB9CAB88AB8EB896AC9493
:102A4000330EAF6E000EB06E120000EE60F0220E7C
:102A5000EE6AE806FDE100EE53F00A0EEE6AE806C3
:102A6000FDE15D905D92000EF86E0001BAEF12F08C
:102A7000FC0ED316D388D38AD38C9B8C40EF15F0F1
:102A8000D3A445EF15F047EF15F040EF15F049EFEF
:102A900015F01200026E4DEF15F0ACA252EF15F0DA
:102AA00054EF15F04DEF15F056EF15F002C0ADFFE5
:102AB00012000CC003F00DC004F0000E056E000EF5
:102AC000066EB6EC13F065EF15F01200CD903F0ED8
:102AD000CD16CD82300ECD12000ECF6E000ECE6E12
:062AE0009E909D80120093
:020000040020DA
:08000000FFFFFFFFFFFFFFFF00
:020000040030CA
:0E000000FF281E3CFFBF85FF0FC00FE00F4022
:00000001FF
