:020000040000FA
:0400000031EF00F0EC
:1000080047829EA012D043C0CEFF44C0CFFF462AED
:1000180089A002D0010E01D0000EFF0A016E89509E
:100028000118FE0B0118896E9E908C0E4618D8A4F4
:1000380012D04504D8A40FD0000E466E89A202D073
:10004800010E01D0000EFF0A016E01468950011809
:0E005800FD0B0118896E47921100B0EF56F0B3
:1010000000446967697461726520756E612066725B
:10101000657175656E7A6120696E746572613A20DA
:1010200000506167616E696E69202D2043617072A6
:10103000696363696F206E2E352E0A0D000A0D520A
:10104000455345540A0D0000020E3C6EBA0E3B6E2D
:10105000000E3E6E880E3D6E92EC53F0000E036E55
:10106000050E026E60EC56F0020E3C6EBA0E3B6E40
:10107000060E3E6EB20E3D6E92EC53F0030E3C6EC9
:101080003E0E3B6E000E3E6E470E3D6E92EC53F0F0
:10109000040E3C6E160E3B6E000E3E6E470E3D6E0D
:1010A00092EC53F0050E3C6E740E3B6E000E3E6EDD
:1010B000470E3D6E92EC53F0060E3C6E7D0E3B6E7D
:1010C000000E3E6E470E3D6E92EC53F0080E3C6EE5
:1010D0002D0E3B6E000E3E6E470E3D6E92EC53F0B1
:1010E0000A0E3C6EE90E3B6E000E3E6E470E3D6EE4
:1010F00092EC53F00C0E3C6EFA0E3B6E000E3E6E00
:10110000470E3D6E92EC53F0100E3C6E5A0E3B6E45
:10111000000E3E6E470E3D6E92EC53F0150E3C6E87
:10112000D30E3B6E020E3E6EF90E3D6E92EC53F006
:10113000000E036E5F0E026E60EC56F0130E3C6EF6
:10114000720E3B6E000E3E6E470E3D6E92EC53F0FB
:10115000110E3C6E520E3B6E000E3E6E470E3D6E03
:1011600092EC53F0100E3C6E5A0E3B6E000E3E6E2B
:10117000470E3D6E92EC53F00E0E3C6E910E3B6EA0
:10118000000E3E6E470E3D6E92EC53F00C0E3C6E20
:10119000FA0E3B6E000E3E6E470E3D6E92EC53F023
:1011A0000C0E3C6E3F0E3B6E000E3E6E470E3D6ECB
:1011B00092EC53F00A0E3C6EE90E3B6E000E3E6E52
:1011C000470E3D6E92EC53F00A0E3C6E4D0E3B6E98
:1011D000000E3E6E470E3D6E92EC53F0080E3C6ED4
:1011E000A90E3B6E000E3E6E470E3D6E92EC53F024
:1011F000080E3C6E2D0E3B6E000E3E6E470E3D6E91
:1012000092EC53F0070E3C6E480E3B6E000E3E6EA5
:10121000470E3D6E92EC53F0060E3C6E7D0E3B6E1B
:10122000000E3E6E470E3D6E92EC53F0060E3C6E85
:101230001F0E3B6E000E3E6E470E3D6E92EC53F05D
:10124000050E3C6E740E3B6E000E3E6E470E3D6EFC
:1012500092EC53F0050E3C6E260E3B6E000E3E6E79
:10126000470E3D6E92EC53F0040E3C6E540E3B6EF6
:10127000000E3E6E470E3D6E92EC53F0040E3C6E37
:10128000160E3B6E000E3E6E470E3D6E92EC53F016
:10129000030E3C6EA40E3B6E000E3E6E470E3D6E7E
:1012A00092EC53F0030E3C6E3E0E3B6E000E3E6E13
:1012B000470E3D6E92EC53F0030E3C6E0F0E3B6EEC
:1012C000000E3E6E470E3D6E92EC53F0020E3C6EE9
:1012D000BA0E3B6E020E3E6EF90E3D6E92EC53F06E
:1012E000000E036E5F0E026E60EC56F0030E3C6E55
:1012F0003E0E3B6E000E3E6E470E3D6E92EC53F07E
:10130000040E3C6E160E3B6E000E3E6E470E3D6E9A
:1013100092EC53F0050E3C6E740E3B6E000E3E6E6A
:10132000470E3D6E92EC53F0060E3C6E7D0E3B6E0A
:10133000000E3E6E470E3D6E92EC53F0080E3C6E72
:101340002D0E3B6E000E3E6E470E3D6E92EC53F03E
:101350000A0E3C6EE90E3B6E000E3E6E470E3D6E71
:1013600092EC53F00C0E3C6EFA0E3B6E000E3E6E8D
:10137000470E3D6E92EC53F0100E3C6E5A0E3B6ED3
:10138000000E3E6E470E3D6E92EC53F0150E3C6E15
:10139000D30E3B6E000E3E6E470E3D6E92EC53F048
:1013A000190E3C6EF40E3B6E020E3E6EF90E3D6E53
:1013B00092EC53F0000E036E5F0E026E60EC56F07E
:1013C000180E3C6E7F0E3B6E000E3E6E470E3D6E5D
:1013D00092EC53F0150E3C6ED30E3B6E000E3E6E3B
:1013E000470E3D6E92EC53F0140E3C6E9A0E3B6E1F
:1013F000000E3E6E470E3D6E92EC53F0110E3C6EA9
:10140000520E3B6E000E3E6E470E3D6E92EC53F058
:10141000100E3C6E5A0E3B6E000E3E6E470E3D6E39
:1014200092EC53F00E0E3C6E910E3B6E000E3E6E33
:10143000470E3D6E92EC53F00C0E3C6EFA0E3B6E76
:10144000000E3E6E470E3D6E92EC53F00C0E3C6E5D
:101450003F0E3B6E000E3E6E470E3D6E92EC53F01B
:101460000A0E3C6EE90E3B6E000E3E6E470E3D6E60
:1014700092EC53F00A0E3C6E4D0E3B6E000E3E6E2B
:10148000470E3D6E92EC53F0080E3C6EA90E3B6E7B
:10149000000E3E6E470E3D6E92EC53F0080E3C6E11
:1014A0002D0E3B6E000E3E6E470E3D6E92EC53F0DD
:1014B000070E3C6E480E3B6E000E3E6E470E3D6EB4
:1014C00092EC53F0060E3C6E7D0E3B6E000E3E6EAF
:1014D000470E3D6E92EC53F0060E3C6E1F0E3B6EB7
:1014E000000E3E6E470E3D6E92EC53F0050E3C6EC4
:1014F000740E3B6E000E3E6E470E3D6E92EC53F046
:10150000050E3C6E260E3B6E000E3E6E470E3D6E87
:1015100092EC53F0040E3C6E540E3B6E000E3E6E89
:10152000470E3D6E92EC53F0040E3C6E160E3B6E71
:10153000000E3E6E470E3D6E92EC53F0030E3C6E75
:10154000A40E3B6E000E3E6E470E3D6E92EC53F0C5
:10155000030E3C6E3E0E3B6E000E3E6E470E3D6E21
:1015600092EC53F0030E3C6E0F0E3B6E000E3E6E7F
:10157000470E3D6E92EC53F0020E3C6EBA0E3B6E7F
:10158000020E3E6EF90E3D6E92EC53F0000E036EAD
:101590005F0E026E60EC56F0030E3C6E3E0E3B6E2C
:1015A000000E3E6E470E3D6E92EC53F0040E3C6E04
:1015B000160E3B6E000E3E6E470E3D6E92EC53F0E3
:1015C000050E3C6E740E3B6E000E3E6E470E3D6E79
:1015D00092EC53F0060E3C6E7D0E3B6E000E3E6E9E
:1015E000470E3D6E92EC53F0080E3C6E2D0E3B6E96
:1015F000000E3E6E470E3D6E92EC53F00A0E3C6EAE
:10160000E90E3B6E000E3E6E470E3D6E92EC53F0BF
:101610000C0E3C6EFA0E3B6E000E3E6E470E3D6E9B
:1016200092EC53F0100E3C6E5A0E3B6E000E3E6E66
:10163000470E3D6E92EC53F0150E3C6ED30E3B6E92
:10164000000E3E6E470E3D6E92EC53F0190E3C6E4E
:10165000F40E3B6E000E3E6E470E3D6E92EC53F064
:10166000200E3C6EB40E3B6E020E3E6EF90E3D6EC9
:1016700092EC53F0000E036E5F0E026E60EC56F0BB
:101680001D0E3C6E220E3B6E000E3E6E470E3D6EF2
:1016900092EC53F0190E3C6EF40E3B6E000E3E6E53
:1016A000470E3D6E92EC53F0180E3C6E7F0E3B6E73
:1016B000000E3E6E470E3D6E92EC53F0150E3C6EE2
:1016C000D30E3B6E000E3E6E470E3D6E92EC53F015
:1016D000140E3C6E9A0E3B6E000E3E6E470E3D6E33
:1016E00092EC53F0110E3C6E520E3B6E000E3E6EAD
:1016F000470E3D6E92EC53F0100E3C6E5A0E3B6E50
:10170000000E3E6E470E3D6E92EC53F00E0E3C6E98
:10171000910E3B6E000E3E6E470E3D6E92EC53F006
:101720000C0E3C6EFA0E3B6E000E3E6E470E3D6E8A
:1017300092EC53F00C0E3C6E3F0E3B6E000E3E6E74
:10174000470E3D6E92EC53F00A0E3C6EE90E3B6E76
:10175000000E3E6E470E3D6E92EC53F00A0E3C6E4C
:101760004D0E3B6E000E3E6E470E3D6E92EC53F0FA
:10177000080E3C6EA90E3B6E000E3E6E470E3D6E8F
:1017800092EC53F0080E3C6E2D0E3B6E000E3E6E3A
:10179000470E3D6E92EC53F0070E3C6E480E3B6ECA
:1017A000000E3E6E470E3D6E92EC53F0060E3C6E00
:1017B0007D0E3B6E000E3E6E470E3D6E92EC53F07A
:1017C000060E3C6E1F0E3B6E000E3E6E470E3D6ECB
:1017D00092EC53F0050E3C6E740E3B6E000E3E6EA6
:1017E000470E3D6E92EC53F0050E3C6E260E3B6E9E
:1017F000000E3E6E470E3D6E92EC53F0040E3C6EB2
:10180000540E3B6E000E3E6E470E3D6E92EC53F052
:10181000040E3C6E160E3B6E000E3E6E470E3D6E85
:1018200092EC53F0030E3C6EA40E3B6E000E3E6E27
:10183000470E3D6E92EC53F0030E3C6E3E0E3B6E37
:10184000000E3E6E470E3D6E92EC53F0030E3C6E62
:101850000F0E3B6E000E3E6E470E3D6E92EC53F047
:10186000020E3C6EBA0E3B6E020E3E6EF90E3D6EDF
:1018700092EC53F0000E036E5F0E026E60EC56F0B9
:10188000030E3C6E3E0E3B6E000E3E6E470E3D6EEE
:1018900092EC53F0040E3C6E160E3B6E000E3E6E44
:1018A000470E3D6E92EC53F0050E3C6E740E3B6E8F
:1018B000000E3E6E470E3D6E92EC53F0060E3C6EEF
:1018C0007D0E3B6E000E3E6E470E3D6E92EC53F069
:1018D000080E3C6E2D0E3B6E000E3E6E470E3D6EAA
:1018E00092EC53F00A0E3C6EE90E3B6E000E3E6E1B
:1018F000470E3D6E92EC53F00C0E3C6EFA0E3B6EB2
:10190000000E3E6E470E3D6E92EC53F0100E3C6E94
:101910005A0E3B6E000E3E6E470E3D6E92EC53F03B
:10192000150E3C6ED30E3B6E000E3E6E470E3D6EA6
:1019300092EC53F0190E3C6EF40E3B6E000E3E6EB0
:10194000470E3D6E92EC53F0200E3C6EB40E3B6E93
:10195000000E3E6E470E3D6E92EC53F02B0E3C6E29
:10196000A70E3B6E020E3E6EF90E3D6E92EC53F0EA
:10197000000E036E5F0E026E60EC56F0260E3C6E9B
:10198000E40E3B6E000E3E6E470E3D6E92EC53F041
:10199000220E3C6EA50E3B6E000E3E6E470E3D6E57
:1019A00092EC53F0200E3C6EB40E3B6E000E3E6E79
:1019B000470E3D6E92EC53F01D0E3C6E220E3B6EB8
:1019C000000E3E6E470E3D6E92EC53F0190E3C6ECB
:1019D000F40E3B6E000E3E6E470E3D6E92EC53F0E1
:1019E000180E3C6E7F0E3B6E000E3E6E470E3D6E37
:1019F00092EC53F0150E3C6ED30E3B6E000E3E6E15
:101A0000470E3D6E92EC53F0140E3C6E9A0E3B6EF8
:101A1000000E3E6E470E3D6E92EC53F0110E3C6E82
:101A2000520E3B6E000E3E6E470E3D6E92EC53F032
:101A3000100E3C6E5A0E3B6E000E3E6E470E3D6E13
:101A400092EC53F00E0E3C6E910E3B6E000E3E6E0D
:101A5000470E3D6E92EC53F00C0E3C6EFA0E3B6E50
:101A6000000E3E6E470E3D6E92EC53F00C0E3C6E37
:101A70003F0E3B6E000E3E6E470E3D6E92EC53F0F5
:101A80000A0E3C6EE90E3B6E000E3E6E470E3D6E3A
:101A900092EC53F00A0E3C6E4D0E3B6E000E3E6E05
:101AA000470E3D6E92EC53F0080E3C6EA90E3B6E55
:101AB000000E3E6E470E3D6E92EC53F0080E3C6EEB
:101AC0002D0E3B6E000E3E6E470E3D6E92EC53F0B7
:101AD000070E3C6E480E3B6E000E3E6E470E3D6E8E
:101AE00092EC53F0060E3C6E7D0E3B6E000E3E6E89
:101AF000470E3D6E92EC53F0060E3C6E1F0E3B6E91
:101B0000000E3E6E470E3D6E92EC53F0050E3C6E9D
:101B1000740E3B6E000E3E6E470E3D6E92EC53F01F
:101B2000050E3C6E260E3B6E000E3E6E470E3D6E61
:101B300092EC53F0040E3C6E540E3B6E000E3E6E63
:101B4000470E3D6E92EC53F0040E3C6E160E3B6E4B
:101B5000000E3E6E470E3D6E92EC53F0030E3C6E4F
:101B6000A40E3B6E000E3E6E470E3D6E92EC53F09F
:101B7000030E3C6E3E0E3B6E000E3E6E470E3D6EFB
:101B800092EC53F0030E3C6E0F0E3B6E000E3E6E59
:101B9000410E3D6E92EC53F0000E036E050E026E88
:101BA00060EC56F0020E3C6EBA0E3B6E010E3E6EBD
:101BB000C20E3D6E92EC53F0020E3C6EE30E3B6E95
:101BC000000E3E6E4B0E3D6E92EC53F0030E3C6EDB
:101BD0000F0E3B6E000E3E6E4B0E3D6E92EC53F0C0
:101BE000030E3C6E3E0E3B6E000E3E6E4B0E3D6E87
:101BF00092EC53F0030E3C6E700E3B6E000E3E6E88
:101C00004B0E3D6E92EC53F0030E3C6EA40E3B6EF9
:101C1000000E3E6E4B0E3D6E92EC53F0030E3C6E8A
:101C2000DB0E3B6E000E3E6E4B0E3D6E92EC53F0A3
:101C3000040E3C6E160E3B6E000E3E6E4B0E3D6E5D
:101C400092EC53F0040E3C6E540E3B6E000E3E6E52
:101C50004B0E3D6E92EC53F0040E3C6E960E3B6EB6
:101C6000000E3E6E440E3D6E92EC53F0040E3C6E40
:101C7000DC0E3B6E000E3E6E440E3D6E92EC53F059
:101C8000050E3C6E260E3B6E000E3E6E440E3D6E03
:101C900092EC53F0050E3C6E740E3B6E000E3E6EE1
:101CA000440E3D6E92EC53F0050E3C6EC70E3B6E3B
:101CB000000E3E6E440E3D6E92EC53F0060E3C6EEE
:101CC0001F0E3B6E000E3E6E440E3D6E92EC53F0C6
:101CD000060E3C6E7D0E3B6E000E3E6E440E3D6E5B
:101CE00092EC53F0060E3C6EE00E3B6E000E3E6E24
:101CF000440E3D6E92EC53F0070E3C6E480E3B6E68
:101D0000000E3E6E3E0E3D6E92EC53F0070E3C6EA2
:101D1000B70E3B6E000E3E6E3E0E3D6E92EC53F0E3
:101D2000080E3C6E2D0E3B6E000E3E6E3E0E3D6E5E
:101D300092EC53F0080E3C6EA90E3B6E000E3E6E08
:101D40003E0E3D6E92EC53F0090E3C6E2D0E3B6E36
:101D5000000E3E6E3E0E3D6E92EC53F0090E3C6E50
:101D6000B90E3B6E000E3E6E3E0E3D6E92EC53F091
:101D70000A0E3C6E4D0E3B6E000E3E6E3E0E3D6EEC
:101D800092EC53F00A0E3C6EE90E3B6E000E3E6E76
:101D90003E0E3D6E92EC53F00A0E3C6E4D0E3B6EC5
:101DA000000E3E6E3E0E3D6E92EC53F0090E3C6E00
:101DB000B90E3B6E000E3E6E3E0E3D6E92EC53F041
:101DC000090E3C6E2D0E3B6E000E3E6E3E0E3D6EBD
:101DD00092EC53F0080E3C6EA90E3B6E000E3E6E68
:101DE0003E0E3D6E92EC53F0080E3C6E2D0E3B6E97
:101DF000000E3E6E440E3D6E92EC53F0070E3C6EAC
:101E0000B70E3B6E000E3E6E440E3D6E92EC53F0EC
:101E1000070E3C6E480E3B6E000E3E6E440E3D6E4D
:101E200092EC53F0060E3C6EE00E3B6E000E3E6EE2
:101E3000440E3D6E92EC53F0060E3C6E7D0E3B6EF2
:101E4000000E3E6E470E3D6E92EC53F0060E3C6E59
:101E50001F0E3B6E000E3E6E470E3D6E92EC53F031
:101E6000050E3C6EC70E3B6E000E3E6E470E3D6E7D
:101E700092EC53F0050E3C6E740E3B6E000E3E6EFF
:101E8000470E3D6E92EC53F0050E3C6E260E3B6EF7
:101E9000000E3E6E470E3D6E92EC53F0040E3C6E0B
:101EA000DC0E3B6E000E3E6E470E3D6E92EC53F024
:101EB000040E3C6E960E3B6E000E3E6E470E3D6E5F
:101EC00092EC53F0040E3C6E540E3B6E000E3E6ED0
:101ED000470E3D6E92EC53F0040E3C6E160E3B6EB8
:101EE000000E3E6E4B0E3D6E92EC53F0030E3C6EB8
:101EF000DB0E3B6E000E3E6E4B0E3D6E92EC53F0D1
:101F0000030E3C6EA40E3B6E000E3E6E4B0E3D6EFD
:101F100092EC53F0030E3C6E700E3B6E000E3E6E64
:101F20004B0E3D6E92EC53F0030E3C6E3E0E3B6E3C
:101F3000000E3E6E530E3D6E92EC53F0030E3C6E5F
:101F40000F0E3B6E000E3E6E530E3D6E92EC53F044
:101F5000020E3C6EE30E3B6E000E3E6E4C0E3D6E6E
:101F600092EC53F0000E036E060E026E60EC56F01B
:101F7000020E3C6EBA0E3B6E030E3E6EE70E3D6ED9
:101F800092EC53F0030E3C6E3E0E3B6E000E3E6E26
:101F9000820E3D6E92EC53F0000E036E050E026E43
:101FA00060EC56F0060E3C6E7D0E3B6E010E3E6EF2
:101FB000C60E3D6E92EC53F0020E036E7C0E026E66
:101FC00060EC56F0020E3C6EBA0E3B6E000E3E6E9A
:101FD0003F0E3D6E92EC53F0000E036E1A0E026E31
:101FE00060EC56F0030E3C6E3E0E3B6E000E3E6EF5
:101FF0003F0E3D6E92EC53F0000E036E1A0E026E11
:1020000060EC56F0040E3C6E160E3B6E000E3E6EFB
:102010003B0E3D6E92EC53F0000E036E1D0E026EF1
:1020200060EC56F0030E3C6E3E0E3B6E000E3E6EB4
:102030003B0E3D6E92EC53F0000E036E1D0E026ED1
:1020400060EC56F0030E3C6E0F0E3B6E000E3E6EC3
:102050003F0E3D6E92EC53F0000E036E1A0E026EB0
:1020600060EC56F0030E3C6EA40E3B6E000E3E6E0E
:102070003F0E3D6E92EC53F0000E036E1A0E026E90
:1020800060EC56F0040E3C6E160E3B6E000E3E6E7B
:102090003B0E3D6E92EC53F0000E036E1D0E026E71
:1020A00060EC56F0030E3C6EA40E3B6E000E3E6ECE
:1020B0003B0E3D6E92EC53F0000E036E1D0E026E51
:1020C00060EC56F0030E3C6E3E0E3B6E000E3E6E14
:1020D0003F0E3D6E92EC53F0000E036E1A0E026E30
:1020E00060EC56F0050E3C6E740E3B6E000E3E6EBC
:1020F0003F0E3D6E92EC53F0000E036E1A0E026E10
:1021000060EC56F0040E3C6EDC0E3B6E000E3E6E34
:102110003F0E3D6E92EC53F0000E036E1A0E026EEF
:1021200060EC56F0040E3C6E540E3B6E000E3E6E9C
:102130003B0E3D6E92EC53F0000E036E1D0E026ED0
:1021400060EC56F0040E3C6E160E3B6E000E3E6EBA
:102150003F0E3D6E92EC53F0000E036E1A0E026EAF
:1021600060EC56F0030E3C6EA40E3B6E000E3E6E0D
:102170003F0E3D6E92EC53F0000E036E1A0E026E8F
:1021800060EC56F0030E3C6E3E0E3B6E000E3E6E53
:102190003F0E3D6E92EC53F0000E036E1A0E026E6F
:1021A00060EC56F0030E3C6E0F0E3B6E000E3E6E62
:1021B0003B0E3D6E92EC53F0000E036E1D0E026E50
:1021C00060EC56F0020E3C6EBA0E3B6E000E3E6E98
:1021D0003F0E3D6E92EC53F0000E036E1A0E026E2F
:1021E00060EC56F0030E3C6E3E0E3B6E000E3E6EF3
:1021F0003F0E3D6E92EC53F0000E036E1A0E026E0F
:1022000060EC56F0040E3C6E160E3B6E000E3E6EF9
:102210003B0E3D6E92EC53F0000E036E1D0E026EEF
:1022200060EC56F0030E3C6E3E0E3B6E000E3E6EB2
:102230003B0E3D6E92EC53F0000E036E1D0E026ECF
:1022400060EC56F0030E3C6E0F0E3B6E000E3E6EC1
:102250003F0E3D6E92EC53F0000E036E1A0E026EAE
:1022600060EC56F0030E3C6EA40E3B6E000E3E6E0C
:102270003F0E3D6E92EC53F0000E036E1A0E026E8E
:1022800060EC56F0040E3C6E160E3B6E000E3E6E79
:102290003B0E3D6E92EC53F0000E036E1D0E026E6F
:1022A00060EC56F0030E3C6EA40E3B6E000E3E6ECC
:1022B0003B0E3D6E92EC53F0000E036E1D0E026E4F
:1022C00060EC56F0030E3C6E3E0E3B6E000E3E6E12
:1022D0003F0E3D6E92EC53F0000E036E1A0E026E2E
:1022E00060EC56F0050E3C6E740E3B6E000E3E6EBA
:1022F0003F0E3D6E92EC53F0000E036E1A0E026E0E
:1023000060EC56F0040E3C6EDC0E3B6E000E3E6E32
:102310003F0E3D6E92EC53F0000E036E1A0E026EED
:1023200060EC56F0040E3C6E540E3B6E000E3E6E9A
:102330003B0E3D6E92EC53F0000E036E1D0E026ECE
:1023400060EC56F0040E3C6E160E3B6E000E3E6EB8
:102350003F0E3D6E92EC53F0000E036E1A0E026EAD
:1023600060EC56F0030E3C6EA40E3B6E000E3E6E0B
:102370003F0E3D6E92EC53F0000E036E1A0E026E8D
:1023800060EC56F0030E3C6E3E0E3B6E000E3E6E51
:102390003F0E3D6E92EC53F0000E036E1A0E026E6D
:1023A00060EC56F0030E3C6E0F0E3B6E000E3E6E60
:1023B0003B0E3D6E92EC53F0000E036E1D0E026E4E
:1023C00060EC56F0020E3C6EBA0E3B6E000E3E6E96
:1023D0003F0E3D6E92EC53F0000E036E1A0E026E2D
:1023E00060EC56F0030E3C6E700E3B6E000E3E6EBF
:1023F0003F0E3D6E92EC53F0000E036E1A0E026E0D
:1024000060EC56F0040E3C6E160E3B6E000E3E6EF7
:102410003B0E3D6E92EC53F0000E036E1D0E026EED
:1024200060EC56F0030E3C6E700E3B6E000E3E6E7E
:102430003B0E3D6E92EC53F0000E036E1D0E026ECD
:1024400060EC56F0020E3C6EBA0E3B6E000E3E6E15
:102450003F0E3D6E92EC53F0000E036E1A0E026EAC
:1024600060EC56F0030E3C6EA40E3B6E000E3E6E0A
:102470003F0E3D6E92EC53F0000E036E1A0E026E8C
:1024800060EC56F0040E3C6E540E3B6E000E3E6E39
:102490003B0E3D6E92EC53F0000E036E1D0E026E6D
:1024A00060EC56F0030E3C6EA40E3B6E000E3E6ECA
:1024B0003B0E3D6E92EC53F0000E036E1D0E026E4D
:1024C00060EC56F0020E3C6E6E0E3B6E000E3E6EE1
:1024D0003F0E3D6E92EC53F0000E036E1A0E026E2C
:1024E00060EC56F0030E3C6E0F0E3B6E000E3E6E1F
:1024F0003F0E3D6E92EC53F0000E036E1A0E026E0C
:1025000060EC56F0040E3C6E540E3B6E000E3E6EB8
:102510003F0E3D6E92EC53F0000E036E1A0E026EEB
:1025200060EC56F0030E3C6E0F0E3B6E000E3E6EDE
:102530003B0E3D6E92EC53F0000E036E1D0E026ECC
:1025400060EC56F0020E3C6E6E0E3B6E000E3E6E60
:102550003F0E3D6E92EC53F0000E036E1A0E026EAB
:1025600060EC56F0030E3C6E3E0E3B6E000E3E6E6F
:102570003F0E3D6E92EC53F0000E036E1A0E026E8B
:1025800060EC56F0040E3C6E160E3B6E000E3E6E76
:102590003F0E3D6E92EC53F0000E036E1A0E026E6B
:1025A00060EC56F0030E3C6E3E0E3B6E000E3E6E2F
:1025B0003B0E3D6E92EC53F0000E036E1D0E026E4C
:1025C00060EC56F0020E3C6E930E3B6E000E3E6EBB
:1025D0003F0E3D6E92EC53F0000E036E1A0E026E2B
:1025E00060EC56F0030E3C6E0F0E3B6E000E3E6E1E
:1025F0003F0E3D6E92EC53F0000E036E1A0E026E0B
:1026000060EC56F0040E3C6E540E3B6E000E3E6EB7
:102610003B0E3D6E92EC53F0000E036E1D0E026EEB
:1026200060EC56F0030E3C6EA40E3B6E000E3E6E48
:102630003B0E3D6E92EC53F0000E036E1D0E026ECB
:1026400060EC56F0030E3C6E3E0E3B6E000E3E6E8E
:102650003F0E3D6E92EC53F0000E036E1A0E026EAA
:1026600060EC56F0020E3C6EBA0E3B6E000E3E6EF3
:102670003F0E3D6E92EC53F0000E036E1A0E026E8A
:1026800060EC56F0050E3C6E740E3B6E000E3E6E16
:102690003B0E3D6E92EC53F0000E036E1D0E026E6B
:1026A00060EC56F0030E3C6EDB0E3B6E000E3E6E91
:1026B0003B0E3D6E92EC53F0000E036E1D0E026E4B
:1026C00060EC56F0040E3C6E160E3B6E000E3E6E35
:1026D0003F0E3D6E92EC53F0000E036E1A0E026E2A
:1026E00060EC56F0050E3C6E260E3B6E000E3E6E04
:1026F0003F0E3D6E92EC53F0000E036E1A0E026E0A
:1027000060EC56F0060E3C6E1F0E3B6E000E3E6EE9
:102710003F0E3D6E92EC53F0000E036E1A0E026EE9
:1027200060EC56F0080E3C6E2D0E3B6E000E3E6EB9
:102730003B0E3D6E92EC53F0000E036E1D0E026ECA
:1027400060EC56F00A0E3C6E4D0E3B6E000E3E6E77
:102750003F0E3D6E92EC53F0000E036E1A0E026EA9
:1027600060EC56F00C0E3C6E3F0E3B6E000E3E6E63
:102770003F0E3D6E92EC53F0000E036E1A0E026E89
:1027800060EC56F00E0E3C6E910E3B6E000E3E6EEF
:102790003F0E3D6E92EC53F0000E036E1A0E026E69
:1027A00060EC56F0100E3C6E5A0E3B6E000E3E6E04
:1027B0003B0E3D6E92EC53F0000E036E1D0E026E4A
:1027C00060EC56F0050E3C6E740E3B6E000E3E6ED5
:1027D0003F0E3D6E92EC53F0000E036E1A0E026E29
:1027E00060EC56F0060E3C6E7D0E3B6E000E3E6EAB
:1027F0003F0E3D6E92EC53F0000E036E1A0E026E09
:1028000060EC56F0080E3C6E2D0E3B6E000E3E6ED8
:102810003B0E3D6E92EC53F0000E036E1D0E026EE9
:1028200060EC56F0060E3C6E7D0E3B6E000E3E6E6A
:102830003B0E3D6E92EC53F0000E036E1D0E026EC9
:1028400060EC56F0060E3C6E1F0E3B6E000E3E6EA8
:102850003F0E3D6E92EC53F0000E036E1A0E026EA8
:1028600060EC56F0070E3C6E480E3B6E000E3E6E5E
:102870003F0E3D6E92EC53F0000E036E1A0E026E88
:1028800060EC56F0080E3C6E2D0E3B6E000E3E6E58
:102890003B0E3D6E92EC53F0000E036E1D0E026E69
:1028A00060EC56F0070E3C6E480E3B6E000E3E6E1E
:1028B0003B0E3D6E92EC53F0000E036E1D0E026E49
:1028C00060EC56F0060E3C6E7D0E3B6E000E3E6ECA
:1028D0003F0E3D6E92EC53F0000E036E1A0E026E28
:1028E00060EC56F00A0E3C6EE90E3B6E000E3E6E3A
:1028F0003F0E3D6E92EC53F0000E036E1A0E026E08
:1029000060EC56F0090E3C6EB90E3B6E000E3E6E4A
:102910003F0E3D6E92EC53F0000E036E1A0E026EE7
:1029200060EC56F0080E3C6EA90E3B6E000E3E6E3B
:102930003B0E3D6E92EC53F0000E036E1D0E026EC8
:1029400060EC56F0080E3C6E2D0E3B6E000E3E6E97
:102950003F0E3D6E92EC53F0000E036E1A0E026EA7
:1029600060EC56F0070E3C6E480E3B6E000E3E6E5D
:102970003F0E3D6E92EC53F0000E036E1A0E026E87
:1029800060EC56F0060E3C6E7D0E3B6E000E3E6E09
:102990003F0E3D6E92EC53F0000E036E1A0E026E67
:1029A00060EC56F0060E3C6E1F0E3B6E000E3E6E47
:1029B0003B0E3D6E92EC53F0000E036E1D0E026E48
:1029C00060EC56F0050E3C6E740E3B6E000E3E6ED3
:1029D0003F0E3D6E92EC53F0000E036E1A0E026E27
:1029E00060EC56F0060E3C6E7D0E3B6E000E3E6EA9
:1029F0003F0E3D6E92EC53F0000E036E1A0E026E07
:102A000060EC56F0080E3C6E2D0E3B6E000E3E6ED6
:102A10003B0E3D6E92EC53F0000E036E1D0E026EE7
:102A200060EC56F0060E3C6E7D0E3B6E000E3E6E68
:102A30003B0E3D6E92EC53F0000E036E1D0E026EC7
:102A400060EC56F0060E3C6E1F0E3B6E000E3E6EA6
:102A50003F0E3D6E92EC53F0000E036E1A0E026EA6
:102A600060EC56F0070E3C6E480E3B6E000E3E6E5C
:102A70003F0E3D6E92EC53F0000E036E1A0E026E86
:102A800060EC56F0080E3C6E2D0E3B6E000E3E6E56
:102A90003B0E3D6E92EC53F0000E036E1D0E026E67
:102AA00060EC56F0070E3C6E480E3B6E000E3E6E1C
:102AB0003B0E3D6E92EC53F0000E036E1D0E026E47
:102AC00060EC56F0060E3C6E7D0E3B6E000E3E6EC8
:102AD0003F0E3D6E92EC53F0000E036E1A0E026E26
:102AE00060EC56F00A0E3C6EE90E3B6E000E3E6E38
:102AF0003F0E3D6E92EC53F0000E036E1A0E026E06
:102B000060EC56F0090E3C6EB90E3B6E000E3E6E48
:102B10003F0E3D6E92EC53F0000E036E1A0E026EE5
:102B200060EC56F0080E3C6EA90E3B6E000E3E6E39
:102B30003B0E3D6E92EC53F0000E036E1D0E026EC6
:102B400060EC56F0080E3C6E2D0E3B6E000E3E6E95
:102B50003F0E3D6E92EC53F0000E036E1A0E026EA5
:102B600060EC56F0070E3C6E480E3B6E000E3E6E5B
:102B70003F0E3D6E92EC53F0000E036E1A0E026E85
:102B800060EC56F0060E3C6E7D0E3B6E000E3E6E07
:102B90003F0E3D6E92EC53F0000E036E1A0E026E65
:102BA00060EC56F0060E3C6E1F0E3B6E000E3E6E45
:102BB0003B0E3D6E92EC53F0000E036E1D0E026E46
:102BC00060EC56F0050E3C6E740E3B6E000E3E6ED1
:102BD0003F0E3D6E92EC53F0000E036E1A0E026E25
:102BE00060EC56F0060E3C6EE00E3B6E000E3E6E44
:102BF0003F0E3D6E92EC53F0000E036E1A0E026E05
:102C000060EC56F0080E3C6E2D0E3B6E000E3E6ED4
:102C10003B0E3D6E92EC53F0000E036E1D0E026EE5
:102C200060EC56F0060E3C6EE00E3B6E000E3E6E03
:102C30003B0E3D6E92EC53F0000E036E1D0E026EC5
:102C400060EC56F00A0E3C6EE90E3B6E000E3E6ED6
:102C50003F0E3D6E92EC53F0000E036E1A0E026EA4
:102C600060EC56F0090E3C6EB90E3B6E000E3E6EE7
:102C70003F0E3D6E92EC53F0000E036E1A0E026E84
:102C800060EC56F0080E3C6EA90E3B6E000E3E6ED8
:102C90003B0E3D6E92EC53F0000E036E1D0E026E65
:102CA00060EC56F0080E3C6E2D0E3B6E000E3E6E34
:102CB0003B0E3D6E92EC53F0000E036E1D0E026E45
:102CC00060EC56F0060E3C6EE00E3B6E000E3E6E63
:102CD0003F0E3D6E92EC53F0000E036E1A0E026E24
:102CE00060EC56F0070E3C6E480E3B6E000E3E6EDA
:102CF0003F0E3D6E92EC53F0000E036E1A0E026E04
:102D000060EC56F00C0E3C6E3F0E3B6E000E3E6EBD
:102D10003F0E3D6E92EC53F0000E036E1A0E026EE3
:102D200060EC56F00A0E3C6EE90E3B6E000E3E6EF5
:102D30003B0E3D6E92EC53F0000E036E1D0E026EC4
:102D400060EC56F0090E3C6EB90E3B6E000E3E6E06
:102D50003F0E3D6E92EC53F0000E036E1A0E026EA3
:102D600060EC56F0080E3C6EA90E3B6E000E3E6EF7
:102D70003F0E3D6E92EC53F0000E036E1A0E026E83
:102D800060EC56F0080E3C6E2D0E3B6E000E3E6E53
:102D90003F0E3D6E92EC53F0000E036E1A0E026E63
:102DA00060EC56F0070E3C6E480E3B6E000E3E6E19
:102DB0003B0E3D6E92EC53F0000E036E1D0E026E44
:102DC00060EC56F0060E3C6E7D0E3B6E000E3E6EC5
:102DD0003F0E3D6E92EC53F0000E036E1A0E026E23
:102DE00060EC56F0060E3C6E1F0E3B6E000E3E6E03
:102DF0003F0E3D6E92EC53F0000E036E1A0E026E03
:102E000060EC56F0050E3C6E740E3B6E000E3E6E8E
:102E10003B0E3D6E92EC53F0000E036E1D0E026EE3
:102E200060EC56F0040E3C6EDC0E3B6E000E3E6E07
:102E30003B0E3D6E92EC53F0000E036E1D0E026EC3
:102E400060EC56F0040E3C6E960E3B6E000E3E6E2D
:102E50003F0E3D6E92EC53F0000E036E1A0E026EA2
:102E600060EC56F0040E3C6EDC0E3B6E000E3E6EC7
:102E70003F0E3D6E92EC53F0000E036E1A0E026E82
:102E800060EC56F0050E3C6E740E3B6E000E3E6E0E
:102E90003B0E3D6E92EC53F0000E036E1D0E026E63
:102EA00060EC56F0040E3C6E540E3B6E000E3E6E0F
:102EB0003B0E3D6E92EC53F0000E036E1D0E026E43
:102EC00060EC56F0040E3C6E160E3B6E000E3E6E2D
:102ED0003F0E3D6E92EC53F0000E036E1A0E026E22
:102EE00060EC56F0040E3C6EDC0E3B6E000E3E6E47
:102EF0003F0E3D6E92EC53F0000E036E1A0E026E02
:102F000060EC56F0060E3C6E7D0E3B6E000E3E6E83
:102F10003F0E3D6E92EC53F0000E036E1A0E026EE1
:102F200060EC56F0040E3C6E160E3B6E000E3E6ECC
:102F30003B0E3D6E92EC53F0000E036E1D0E026EC2
:102F400060EC56F0030E3C6EA40E3B6E000E3E6E1F
:102F50003F0E3D6E92EC53F0000E036E1A0E026EA1
:102F600060EC56F0040E3C6E540E3B6E000E3E6E4E
:102F70003F0E3D6E92EC53F0000E036E1A0E026E81
:102F800060EC56F0060E3C6E1F0E3B6E000E3E6E61
:102F90003F0E3D6E92EC53F0000E036E1A0E026E61
:102FA00060EC56F0030E3C6EA40E3B6E000E3E6EBF
:102FB0003B0E3D6E92EC53F0000E036E1D0E026E42
:102FC00060EC56F0030E3C6E3E0E3B6E000E3E6E05
:102FD0003F0E3D6E92EC53F0000E036E1A0E026E21
:102FE00060EC56F0040E3C6E160E3B6E000E3E6E0C
:102FF0003F0E3D6E92EC53F0000E036E1A0E026E01
:1030000060EC56F0050E3C6E740E3B6E000E3E6E8C
:103010003B0E3D6E92EC53F0000E036E1D0E026EE1
:1030200060EC56F0030E3C6E3E0E3B6E000E3E6EA4
:103030003B0E3D6E92EC53F0000E036E1D0E026EC1
:1030400060EC56F0030E3C6E0F0E3B6E000E3E6EB3
:103050003F0E3D6E92EC53F0000E036E1A0E026EA0
:1030600060EC56F0030E3C6EA40E3B6E000E3E6EFE
:103070003F0E3D6E92EC53F0000E036E1A0E026E80
:1030800060EC56F0040E3C6EDC0E3B6E000E3E6EA5
:103090003B0E3D6E92EC53F0000E036E1D0E026E61
:1030A00060EC56F0030E3C6E0F0E3B6E000E3E6E53
:1030B0003B0E3D6E92EC53F0000E036E1D0E026E41
:1030C00060EC56F0020E3C6EBA0E3B6E000E3E6E89
:1030D0003F0E3D6E92EC53F0000E036E1A0E026E20
:1030E00060EC56F0030E3C6E3E0E3B6E000E3E6EE4
:1030F0003F0E3D6E92EC53F0000E036E1A0E026E00
:1031000060EC56F0040E3C6E540E3B6E000E3E6EAC
:103110003F0E3D6E92EC53F0000E036E1A0E026EDF
:1031200060EC56F0020E3C6EBA0E3B6E000E3E6E28
:103130003B0E3D6E92EC53F0000E036E1D0E026EC0
:1031400060EC56F0020E3C6E930E3B6E000E3E6E2F
:103150003F0E3D6E92EC53F0000E036E1A0E026E9F
:1031600060EC56F0030E3C6E3E0E3B6E000E3E6E63
:103170003F0E3D6E92EC53F0000E036E1A0E026E7F
:1031800060EC56F0040E3C6E540E3B6E000E3E6E2C
:103190003F0E3D6E92EC53F0000E036E1A0E026E5F
:1031A00060EC56F0020E3C6E930E3B6E000E3E6ECF
:1031B0003B0E3D6E92EC53F0000E036E1D0E026E40
:1031C00060EC56F0020E3C6E6E0E3B6E000E3E6ED4
:1031D0003F0E3D6E92EC53F0000E036E1A0E026E1F
:1031E00060EC56F0030E3C6E0F0E3B6E000E3E6E12
:1031F0003F0E3D6E92EC53F0000E036E1A0E026EFF
:1032000060EC56F0040E3C6E540E3B6E000E3E6EAB
:103210003B0E3D6E92EC53F0000E036E1D0E026EDF
:1032200060EC56F0030E3C6E0F0E3B6E000E3E6ED1
:103230003B0E3D6E92EC53F0000E036E1D0E026EBF
:1032400060EC56F0030E3C6E3E0E3B6E000E3E6E82
:103250003F0E3D6E92EC53F0000E036E1A0E026E9E
:1032600060EC56F0040E3C6E160E3B6E000E3E6E89
:103270003F0E3D6E92EC53F0000E036E1A0E026E7E
:1032800060EC56F0040E3C6EDC0E3B6E000E3E6EA3
:103290003B0E3D6E92EC53F0000E036E1D0E026E5F
:1032A00060EC56F0060E3C6E7D0E3B6E000E3E6EE0
:1032B0003B0E3D6E92EC53F0000E036E1D0E026E3F
:1032C00060EC56F0030E3C6EA40E3B6E000E3E6E9C
:1032D0003F0E3D6E92EC53F0000E036E1A0E026E1E
:1032E00060EC56F0040E3C6E540E3B6E000E3E6ECB
:1032F0003F0E3D6E92EC53F0000E036E1A0E026EFE
:1033000060EC56F0060E3C6E1F0E3B6E000E3E6EDD
:103310003F0E3D6E92EC53F0000E036E1A0E026EDD
:1033200060EC56F0070E3C6E480E3B6E000E3E6E93
:103330003B0E3D6E92EC53F0000E036E1D0E026EBE
:1033400060EC56F0040E3C6E160E3B6E000E3E6EA8
:103350003F0E3D6E92EC53F0000E036E1A0E026E9D
:1033600060EC56F0040E3C6EDC0E3B6E000E3E6EC2
:103370003F0E3D6E92EC53F0000E036E1A0E026E7D
:1033800060EC56F0060E3C6E7D0E3B6E000E3E6EFF
:103390003F0E3D6E92EC53F0000E036E1A0E026E5D
:1033A00060EC56F0080E3C6E2D0E3B6E000E3E6E2D
:1033B0003B0E3D6E92EC53F0000E036E1D0E026E3E
:1033C00060EC56F0040E3C6E540E3B6E000E3E6EEA
:1033D0003F0E3D6E92EC53F0000E036E1A0E026E1D
:1033E00060EC56F0050E3C6E740E3B6E000E3E6EA9
:1033F0003F0E3D6E92EC53F0000E036E1A0E026EFD
:1034000060EC56F0060E3C6E7D0E3B6E000E3E6E7E
:103410003B0E3D6E92EC53F0000E036E1D0E026EDD
:1034200060EC56F0080E3C6EA90E3B6E000E3E6E30
:103430003B0E3D6E92EC53F0000E036E1D0E026EBD
:1034400060EC56F0040E3C6E960E3B6E000E3E6E27
:103450003F0E3D6E92EC53F0000E036E1A0E026E9C
:1034600060EC56F0070E3C6EB70E3B6E000E3E6EE3
:103470003F0E3D6E92EC53F0000E036E1A0E026E7C
:1034800060EC56F0060E3C6E7D0E3B6E000E3E6EFE
:103490003B0E3D6E92EC53F0000E036E1D0E026E5D
:1034A00060EC56F0050E3C6E740E3B6E000E3E6EE8
:1034B0003B0E3D6E92EC53F0000E036E1D0E026E3D
:1034C00060EC56F0040E3C6EDC0E3B6E000E3E6E61
:1034D0003F0E3D6E92EC53F0000E036E1A0E026E1C
:1034E00060EC56F0090E3C6EB90E3B6E000E3E6E5F
:1034F0003F0E3D6E92EC53F0000E036E1A0E026EFC
:1035000060EC56F0080E3C6E2D0E3B6E000E3E6ECB
:103510003F0E3D6E92EC53F0000E036E1A0E026EDB
:1035200060EC56F0060E3C6E7D0E3B6E000E3E6E5D
:103530003B0E3D6E92EC53F0000E036E1D0E026EBC
:1035400060EC56F0040E3C6EDC0E3B6E000E3E6EE0
:103550003F0E3D6E92EC53F0000E036E1A0E026E9B
:1035600060EC56F0080E3C6EA90E3B6E000E3E6EEF
:103570003F0E3D6E92EC53F0000E036E1A0E026E7B
:1035800060EC56F0070E3C6E480E3B6E000E3E6E31
:103590003F0E3D6E92EC53F0000E036E1A0E026E5B
:1035A00060EC56F0060E3C6E1F0E3B6E000E3E6E3B
:1035B0003B0E3D6E92EC53F0000E036E1D0E026E3C
:1035C00060EC56F0050E3C6E740E3B6E000E3E6EC7
:1035D0003F0E3D6E92EC53F0000E036E1A0E026E1B
:1035E00060EC56F00C0E3C6EFA0E3B6E000E3E6E1A
:1035F0003F0E3D6E92EC53F0000E036E1A0E026EFB
:1036000060EC56F00C0E3C6E3F0E3B6E000E3E6EB4
:103610003B0E3D6E92EC53F0000E036E1D0E026EDB
:1036200060EC56F00A0E3C6EE90E3B6E000E3E6EEC
:103630003B0E3D6E92EC53F0000E036E1D0E026EBB
:1036400060EC56F0090E3C6EB90E3B6E000E3E6EFD
:103650003F0E3D6E92EC53F0000E036E1A0E026E9A
:1036600060EC56F0080E3C6EA90E3B6E000E3E6EEE
:103670003F0E3D6E92EC53F0000E036E1A0E026E7A
:1036800060EC56F0080E3C6E2D0E3B6E000E3E6E4A
:103690003B0E3D6E92EC53F0000E036E1D0E026E5B
:1036A00060EC56F0050E3C6E740E3B6E000E3E6EE6
:1036B0003B0E3D6E92EC53F0000E036E1D0E026E3B
:1036C00060EC56F0080E3C6EA90E3B6E000E3E6E8E
:1036D0003F0E3D6E92EC53F0000E036E1A0E026E1A
:1036E00060EC56F00C0E3C6E3F0E3B6E000E3E6ED4
:1036F0003F0E3D6E92EC53F0000E036E1A0E026EFA
:1037000060EC56F00A0E3C6EE90E3B6E000E3E6E0B
:103710003F0E3D6E92EC53F0000E036E1A0E026ED9
:1037200060EC56F0090E3C6EB90E3B6E000E3E6E1C
:103730003B0E3D6E92EC53F0000E036E1D0E026EBA
:1037400060EC56F0090E3C6E2D0E3B6E000E3E6E88
:103750003F0E3D6E92EC53F0000E036E1A0E026E99
:1037600060EC56F0080E3C6E2D0E3B6E000E3E6E69
:103770003F0E3D6E92EC53F0000E036E1A0E026E79
:1037800060EC56F0070E3C6EB70E3B6E000E3E6EC0
:103790003F0E3D6E92EC53F0000E036E1A0E026E59
:1037A00060EC56F0060E3C6E1F0E3B6E000E3E6E39
:1037B0003B0E3D6E92EC53F0000E036E1D0E026E3A
:1037C00060EC56F0080E3C6E2D0E3B6E000E3E6E09
:1037D0003F0E3D6E92EC53F0000E036E1A0E026E19
:1037E00060EC56F00A0E3C6EE90E3B6E000E3E6E2B
:1037F0003F0E3D6E92EC53F0000E036E1A0E026EF9
:1038000060EC56F0090E3C6EB90E3B6E000E3E6E3B
:103810003B0E3D6E92EC53F0000E036E1D0E026ED9
:1038200060EC56F0080E3C6EA90E3B6E000E3E6E2C
:103830003B0E3D6E92EC53F0000E036E1D0E026EB9
:1038400060EC56F0080E3C6E2D0E3B6E000E3E6E88
:103850003F0E3D6E92EC53F0000E036E1A0E026E98
:1038600060EC56F0070E3C6E480E3B6E000E3E6E4E
:103870003F0E3D6E92EC53F0000E036E1A0E026E78
:1038800060EC56F0060E3C6EE00E3B6E000E3E6E97
:103890003B0E3D6E92EC53F0000E036E1D0E026E59
:1038A00060EC56F0050E3C6E740E3B6E000E3E6EE4
:1038B0003B0E3D6E92EC53F0000E036E1D0E026E39
:1038C00060EC56F0070E3C6E480E3B6E000E3E6EEE
:1038D0003F0E3D6E92EC53F0000E036E1A0E026E18
:1038E00060EC56F0090E3C6EB90E3B6E000E3E6E5B
:1038F0003F0E3D6E92EC53F0000E036E1A0E026EF8
:1039000060EC56F0080E3C6EA90E3B6E000E3E6E4B
:103910003F0E3D6E92EC53F0000E036E1A0E026ED7
:1039200060EC56F0080E3C6E2D0E3B6E000E3E6EA7
:103930003B0E3D6E92EC53F0000E036E1D0E026EB8
:1039400060EC56F0070E3C6E480E3B6E000E3E6E6D
:103950003F0E3D6E92EC53F0000E036E1A0E026E97
:1039600060EC56F0060E3C6E7D0E3B6E000E3E6E19
:103970003F0E3D6E92EC53F0000E036E1A0E026E77
:1039800060EC56F0060E3C6E1F0E3B6E000E3E6E57
:103990003F0E3D6E92EC53F0000E036E1A0E026E57
:1039A00060EC56F0040E3C6EDC0E3B6E000E3E6E7C
:1039B0003B0E3D6E92EC53F0000E036E1D0E026E38
:1039C00060EC56F0060E3C6E7D0E3B6E000E3E6EB9
:1039D0003F0E3D6E92EC53F0000E036E1A0E026E17
:1039E00060EC56F0080E3C6EA90E3B6E000E3E6E6B
:1039F0003F0E3D6E92EC53F0000E036E1A0E026EF7
:103A000060EC56F0080E3C6E2D0E3B6E000E3E6EC6
:103A10003B0E3D6E92EC53F0000E036E1D0E026ED7
:103A200060EC56F0070E3C6E480E3B6E000E3E6E8C
:103A30003B0E3D6E92EC53F0000E036E1D0E026EB7
:103A400060EC56F0060E3C6E7D0E3B6E000E3E6E38
:103A50003F0E3D6E92EC53F0000E036E1A0E026E96
:103A600060EC56F0060E3C6E1F0E3B6E000E3E6E76
:103A70003F0E3D6E92EC53F0000E036E1A0E026E76
:103A800060EC56F0050E3C6E740E3B6E000E3E6E02
:103A90003B0E3D6E92EC53F0000E036E1D0E026E57
:103AA00060EC56F0040E3C6EDC0E3B6E000E3E6E7B
:103AB0003B0E3D6E92EC53F0000E036E1D0E026E37
:103AC00060EC56F0040E3C6E960E3B6E000E3E6EA1
:103AD0003F0E3D6E92EC53F0000E036E1A0E026E16
:103AE00060EC56F0050E3C6E740E3B6E000E3E6EA2
:103AF0003F0E3D6E92EC53F0000E036E1A0E026EF6
:103B000060EC56F0060E3C6E7D0E3B6E000E3E6E77
:103B10003F0E3D6E92EC53F0000E036E1A0E026ED5
:103B200060EC56F0070E3C6EB70E3B6E000E3E6E1C
:103B30003B0E3D6E92EC53F0000E036E1D0E026EB6
:103B400060EC56F0090E3C6E2D0E3B6E000E3E6E84
:103B50003F0E3D6E92EC53F0000E036E1A0E026E95
:103B600060EC56F00A0E3C6EE90E3B6E000E3E6EA7
:103B70003F0E3D6E92EC53F0000E036E1A0E026E75
:103B800060EC56F00C0E3C6EFA0E3B6E000E3E6E74
:103B90003F0E3D6E92EC53F0000E036E1A0E026E55
:103BA00060EC56F0090E3C6E2D0E3B6E000E3E6E24
:103BB0003B0E3D6E92EC53F0000E036E1D0E026E36
:103BC00060EC56F00C0E3C6EFA0E3B6E000E3E6E34
:103BD0003F0E3D6E92EC53F0000E036E1A0E026E15
:103BE00060EC56F0090E3C6EB90E3B6E000E3E6E58
:103BF0003F0E3D6E92EC53F0000E036E1A0E026EF5
:103C000060EC56F0080E3C6E2D0E3B6E000E3E6EC4
:103C10003B0E3D6E92EC53F0000E036E1D0E026ED5
:103C200060EC56F0060E3C6E7D0E3B6E000E3E6E56
:103C30003B0E3D6E92EC53F0000E036E1D0E026EB5
:103C400060EC56F0040E3C6EDC0E3B6E000E3E6ED9
:103C50003F0E3D6E92EC53F0000E036E1A0E026E94
:103C600060EC56F0040E3C6E160E3B6E000E3E6E7F
:103C70003F0E3D6E92EC53F0000E036E1A0E026E74
:103C800060EC56F0030E3C6E3E0E3B6E000E3E6E38
:103C90003B0E3D6E92EC53F0000E036E1D0E026E55
:103CA00060EC56F0020E3C6E6E0E3B6E000E3E6EE9
:103CB0003B0E3D6E92EC53F0000E036E1D0E026E35
:103CC00060EC56F00C0E3C6E3F0E3B6E000E3E6EEE
:103CD0003F0E3D6E92EC53F0000E036E1A0E026E14
:103CE00060EC56F0090E3C6EB90E3B6E000E3E6E57
:103CF0003F0E3D6E92EC53F0000E036E1A0E026EF4
:103D000060EC56F0070E3C6E480E3B6E000E3E6EA9
:103D10003F0E3D6E92EC53F0000E036E1A0E026ED3
:103D200060EC56F0060E3C6E1F0E3B6E000E3E6EB3
:103D30003B0E3D6E92EC53F0000E036E1D0E026EB4
:103D400060EC56F0040E3C6EDC0E3B6E000E3E6ED8
:103D50003F0E3D6E92EC53F0000E036E1A0E026E93
:103D600060EC56F0030E3C6EA40E3B6E000E3E6EF1
:103D70003F0E3D6E92EC53F0000E036E1A0E026E73
:103D800060EC56F0030E3C6E0F0E3B6E000E3E6E66
:103D90003F0E3D6E92EC53F0000E036E1A0E026E53
:103DA00060EC56F0020E3C6E6E0E3B6E000E3E6EE8
:103DB0003B0E3D6E92EC53F0000E036E1D0E026E34
:103DC00060EC56F0020E3C6EBA0E3B6E000E3E6E7C
:103DD0003F0E3D6E92EC53F0000E036E1A0E026E13
:103DE00060EC56F00C0E3C6EFA0E3B6E000E3E6E12
:103DF0003F0E3D6E92EC53F0000E036E1A0E026EF3
:103E000060EC56F00C0E3C6E3F0E3B6E000E3E6EAC
:103E10003F0E3D6E92EC53F0000E036E1A0E026ED2
:103E200060EC56F00B0E3C6E8F0E3B6E000E3E6E3D
:103E30003B0E3D6E92EC53F0000E036E1D0E026EB3
:103E400060EC56F00A0E3C6EE90E3B6E000E3E6EC4
:103E50003F0E3D6E92EC53F0000E036E1A0E026E92
:103E600060EC56F00A0E3C6E4D0E3B6E000E3E6E40
:103E70003F0E3D6E92EC53F0000E036E1A0E026E72
:103E800060EC56F0090E3C6EB90E3B6E000E3E6EB5
:103E90003B0E3D6E92EC53F0000E036E1D0E026E53
:103EA00060EC56F0090E3C6E2D0E3B6E000E3E6E21
:103EB0003B0E3D6E92EC53F0000E036E1D0E026E33
:103EC00060EC56F0080E3C6EA90E3B6E000E3E6E86
:103ED0003F0E3D6E92EC53F0000E036E1A0E026E12
:103EE00060EC56F0080E3C6E2D0E3B6E000E3E6EE2
:103EF0003F0E3D6E92EC53F0000E036E1A0E026EF2
:103F000060EC56F0070E3C6EB70E3B6E000E3E6E38
:103F10003F0E3D6E92EC53F0000E036E1A0E026ED1
:103F200060EC56F0070E3C6E480E3B6E000E3E6E87
:103F30003B0E3D6E92EC53F0000E036E1D0E026EB2
:103F400060EC56F0060E3C6EE00E3B6E000E3E6ED0
:103F50003F0E3D6E92EC53F0000E036E1A0E026E91
:103F600060EC56F0060E3C6E7D0E3B6E000E3E6E13
:103F70003F0E3D6E92EC53F0000E036E1A0E026E71
:103F800060EC56F0060E3C6E1F0E3B6E000E3E6E51
:103F90003F0E3D6E92EC53F0000E036E1A0E026E51
:103FA00060EC56F0050E3C6EC70E3B6E000E3E6E8A
:103FB0003B0E3D6E92EC53F0000E036E1D0E026E32
:103FC00060EC56F0050E3C6E740E3B6E000E3E6EBD
:103FD0003F0E3D6E92EC53F0000E036E1A0E026E11
:103FE00060EC56F0050E3C6E260E3B6E000E3E6EEB
:103FF0003F0E3D6E92EC53F0000E036E1A0E026EF1
:1040000060EC56F0040E3C6EDC0E3B6E000E3E6E15
:104010003B0E3D6E92EC53F0000E036E1D0E026ED1
:1040200060EC56F0040E3C6E960E3B6E000E3E6E3B
:104030003B0E3D6E92EC53F0000E036E1D0E026EB1
:1040400060EC56F0040E3C6E540E3B6E000E3E6E5D
:104050003F0E3D6E92EC53F0000E036E1A0E026E90
:1040600060EC56F0040E3C6E160E3B6E000E3E6E7B
:104070003F0E3D6E92EC53F0000E036E1A0E026E70
:1040800060EC56F0030E3C6EDB0E3B6E000E3E6E97
:104090003B0E3D6E92EC53F0000E036E1D0E026E51
:1040A00060EC56F0030E3C6EA40E3B6E000E3E6EAE
:1040B0003B0E3D6E92EC53F0000E036E1D0E026E31
:1040C00060EC56F0030E3C6E3E0E3B6E000E3E6EF4
:1040D0003F0E3D6E92EC53F0000E036E1A0E026E10
:1040E00060EC56F0040E3C6E160E3B6E000E3E6EFB
:1040F0003F0E3D6E92EC53F0000E036E1A0E026EF0
:1041000060EC56F0050E3C6E740E3B6E000E3E6E7B
:104110003F0E3D6E92EC53F0000E036E1A0E026ECF
:1041200060EC56F0040E3C6EDC0E3B6E000E3E6EF4
:104130003B0E3D6E92EC53F0000E036E1D0E026EB0
:1041400060EC56F0030E3C6E0F0E3B6E000E3E6EA2
:104150003F0E3D6E92EC53F0000E036E1A0E026E8F
:1041600060EC56F0040E3C6EDC0E3B6E000E3E6EB4
:104170003F0E3D6E92EC53F0000E036E1A0E026E6F
:1041800060EC56F0040E3C6E540E3B6E000E3E6E1C
:104190003F0E3D6E92EC53F0000E036E1A0E026E4F
:1041A00060EC56F0030E3C6EA40E3B6E000E3E6EAD
:1041B0003B0E3D6E92EC53F0000E036E1D0E026E30
:1041C00060EC56F0030E3C6E3E0E3B6E000E3E6EF3
:1041D0003F0E3D6E92EC53F0000E036E1A0E026E0F
:1041E00060EC56F0040E3C6E160E3B6E000E3E6EFA
:1041F0003F0E3D6E92EC53F0000E036E1A0E026EEF
:1042000060EC56F0020E3C6E6E0E3B6E000E3E6E83
:104210003B0E3D6E92EC53F0000E036E1D0E026ECF
:1042200060EC56F0030E3C6E3E0E3B6E000E3E6E92
:104230003B0E3D6E92EC53F0000E036E1D0E026EAF
:1042400060EC56F0030E3C6E0F0E3B6E000E3E6EA1
:104250003F0E3D6E92EC53F0000E036E1A0E026E8E
:1042600060EC56F0040E3C6EDC0E3B6E000E3E6EB3
:104270003F0E3D6E92EC53F0000E036E1A0E026E6E
:1042800060EC56F0040E3C6E540E3B6E000E3E6E1B
:104290003B0E3D6E92EC53F0000E036E1D0E026E4F
:1042A00060EC56F0030E3C6EA40E3B6E000E3E6EAC
:1042B0003B0E3D6E92EC53F0000E036E1D0E026E2F
:1042C00060EC56F0030E3C6E3E0E3B6E000E3E6EF2
:1042D0003F0E3D6E92EC53F0000E036E1A0E026E0E
:1042E00060EC56F0040E3C6E160E3B6E000E3E6EF9
:1042F0003F0E3D6E92EC53F0000E036E1A0E026EEE
:1043000060EC56F0020E3C6E6E0E3B6E000E3E6E82
:104310003F0E3D6E92EC53F0000E036E1A0E026ECD
:1043200060EC56F0030E3C6E3E0E3B6E000E3E6E91
:104330003B0E3D6E92EC53F0000E036E1D0E026EAE
:1043400060EC56F0030E3C6E0F0E3B6E000E3E6EA0
:104350003F0E3D6E92EC53F0000E036E1A0E026E8D
:1043600060EC56F0040E3C6EDC0E3B6E000E3E6EB2
:104370003F0E3D6E92EC53F0000E036E1A0E026E6D
:1043800060EC56F0040E3C6E540E3B6E000E3E6E1A
:104390003F0E3D6E92EC53F0000E036E1A0E026E4D
:1043A00060EC56F0030E3C6EA40E3B6E000E3E6EAB
:1043B0003B0E3D6E92EC53F0000E036E1D0E026E2E
:1043C00060EC56F0030E3C6E3E0E3B6E000E3E6EF1
:1043D0003F0E3D6E92EC53F0000E036E1A0E026E0D
:1043E00060EC56F0040E3C6EDC0E3B6E000E3E6E32
:1043F0003F0E3D6E92EC53F0000E036E1A0E026EED
:1044000060EC56F0040E3C6E160E3B6E000E3E6ED7
:104410003B0E3D6E92EC53F0000E036E1D0E026ECD
:1044200060EC56F0030E3C6E3E0E3B6E000E3E6E90
:104430003B0E3D6E92EC53F0000E036E1D0E026EAD
:1044400060EC56F0020E3C6EE30E3B6E000E3E6ECC
:104450003F0E3D6E92EC53F0000E036E1A0E026E8C
:1044600060EC56F0040E3C6EDC0E3B6E000E3E6EB1
:104470003F0E3D6E92EC53F0000E036E1A0E026E6C
:1044800060EC56F0040E3C6E160E3B6E000E3E6E57
:104490003B0E3D6E92EC53F0000E036E1D0E026E4D
:1044A00060EC56F0020E3C6EE30E3B6E000E3E6E6C
:1044B0003B0E3D6E92EC53F0000E036E1D0E026E2D
:1044C00060EC56F0020E3C6EBA0E3B6E000E3E6E75
:1044D0003F0E3D6E92EC53F0000E036E1A0E026E0C
:1044E00060EC56F0040E3C6E540E3B6E000E3E6EB9
:1044F0003F0E3D6E92EC53F0000E036E1A0E026EEC
:1045000060EC56F0030E3C6E3E0E3B6E000E3E6EAF
:104510003F0E3D6E92EC53F0000E036E1A0E026ECB
:1045200060EC56F0020E3C6EBA0E3B6E000E3E6E14
:104530003B0E3D6E92EC53F0000E036E1D0E026EAC
:1045400060EC56F0020E3C6E6E0E3B6E000E3E6E40
:104550003F0E3D6E92EC53F0000E036E1A0E026E8B
:1045600060EC56F0040E3C6E160E3B6E000E3E6E76
:104570003F0E3D6E92EC53F0000E036E1A0E026E6B
:1045800060EC56F0020E3C6EE30E3B6E000E3E6E8B
:104590003F0E3D6E92EC53F0000E036E1A0E026E4B
:1045A00060EC56F0020E3C6E6E0E3B6E000E3E6EE0
:1045B0003B0E3D6E92EC53F0000E036E1D0E026E2C
:1045C00060EC56F0020E3C6EBA0E3B6E000E3E6E74
:1045D0003F0E3D6E92EC53F0000E036E1A0E026E0B
:1045E00060EC56F0080E3C6EA90E3B6E000E3E6E5F
:1045F0003F0E3D6E92EC53F0000E036E1A0E026EEB
:1046000060EC56F0060E3C6E7D0E3B6E000E3E6E6C
:104610003B0E3D6E92EC53F0000E036E1D0E026ECB
:1046200060EC56F0050E3C6E740E3B6E000E3E6E56
:104630003B0E3D6E92EC53F0000E036E1D0E026EAB
:1046400060EC56F0040E3C6EDC0E3B6E000E3E6ECF
:104650003F0E3D6E92EC53F0000E036E1A0E026E8A
:1046600060EC56F0080E3C6E2D0E3B6E000E3E6E5A
:104670003F0E3D6E92EC53F0000E036E1A0E026E6A
:1046800060EC56F0060E3C6EE00E3B6E000E3E6E89
:104690003B0E3D6E92EC53F0000E036E1D0E026E4B
:1046A00060EC56F0040E3C6EDC0E3B6E000E3E6E6F
:1046B0003B0E3D6E92EC53F0000E036E1D0E026E2B
:1046C00060EC56F0040E3C6E540E3B6E000E3E6ED7
:1046D0003F0E3D6E92EC53F0000E036E1A0E026E0A
:1046E00060EC56F0070E3C6E480E3B6E000E3E6EC0
:1046F0003F0E3D6E92EC53F0000E036E1A0E026EEA
:1047000060EC56F0050E3C6E740E3B6E000E3E6E75
:104710003F0E3D6E92EC53F0000E036E1A0E026EC9
:1047200060EC56F0040E3C6E540E3B6E000E3E6E76
:104730003B0E3D6E92EC53F0000E036E1D0E026EAA
:1047400060EC56F0040E3C6E160E3B6E000E3E6E94
:104750003F0E3D6E92EC53F0000E036E1A0E026E89
:1047600060EC56F0060E3C6EE00E3B6E000E3E6EA8
:104770003F0E3D6E92EC53F0000E036E1A0E026E69
:1047800060EC56F0040E3C6EDC0E3B6E000E3E6E8E
:104790003F0E3D6E92EC53F0000E036E1A0E026E49
:1047A00060EC56F0040E3C6E160E3B6E000E3E6E34
:1047B0003B0E3D6E92EC53F0000E036E1D0E026E2A
:1047C00060EC56F0040E3C6E540E3B6E000E3E6ED6
:1047D0003F0E3D6E92EC53F0000E036E1A0E026E09
:1047E00060EC56F0070E3C6E480E3B6E000E3E6EBF
:1047F0003F0E3D6E92EC53F0000E036E1A0E026EE9
:1048000060EC56F0050E3C6E740E3B6E000E3E6E74
:104810003B0E3D6E92EC53F0000E036E1D0E026EC9
:1048200060EC56F0040E3C6E540E3B6E000E3E6E75
:104830003B0E3D6E92EC53F0000E036E1D0E026EA9
:1048400060EC56F0030E3C6EDB0E3B6E000E3E6ECF
:104850003F0E3D6E92EC53F0000E036E1A0E026E88
:1048600060EC56F0060E3C6E7D0E3B6E000E3E6E0A
:104870003F0E3D6E92EC53F0000E036E1A0E026E68
:1048800060EC56F0050E3C6E740E3B6E000E3E6EF4
:104890003B0E3D6E92EC53F0000E036E1D0E026E49
:1048A00060EC56F0030E3C6EDB0E3B6E000E3E6E6F
:1048B0003B0E3D6E92EC53F0000E036E1D0E026E29
:1048C00060EC56F0030E3C6EA40E3B6E000E3E6E86
:1048D0003F0E3D6E92EC53F0000E036E1A0E026E08
:1048E00060EC56F0050E3C6EC70E3B6E000E3E6E41
:1048F0003F0E3D6E92EC53F0000E036E1A0E026EE8
:1049000060EC56F0040E3C6E540E3B6E000E3E6E94
:104910003F0E3D6E92EC53F0000E036E1A0E026EC7
:1049200060EC56F0030E3C6EA40E3B6E000E3E6E25
:104930003B0E3D6E92EC53F0000E036E1D0E026EA8
:1049400060EC56F0030E3C6E3E0E3B6E000E3E6E6B
:104950003F0E3D6E92EC53F0000E036E1A0E026E87
:1049600060EC56F0050E3C6E740E3B6E000E3E6E13
:104970003F0E3D6E92EC53F0000E036E1A0E026E67
:1049800060EC56F0030E3C6EDB0E3B6E000E3E6E8E
:104990003F0E3D6E92EC53F0000E036E1A0E026E47
:1049A00060EC56F0030E3C6E3E0E3B6E000E3E6E0B
:1049B0003B0E3D6E92EC53F0000E036E1D0E026E28
:1049C00060EC56F0030E3C6EA40E3B6E000E3E6E85
:1049D0003F0E3D6E92EC53F0000E036E1A0E026E07
:1049E00060EC56F00B0E3C6E8F0E3B6E000E3E6E72
:1049F0003F0E3D6E92EC53F0000E036E1A0E026EE7
:104A000060EC56F0080E3C6EA90E3B6E000E3E6E3A
:104A10003B0E3D6E92EC53F0000E036E1D0E026EC7
:104A200060EC56F0070E3C6E480E3B6E000E3E6E7C
:104A30003B0E3D6E92EC53F0000E036E1D0E026EA7
:104A400060EC56F0060E3C6E7D0E3B6E000E3E6E28
:104A50003F0E3D6E92EC53F0000E036E1A0E026E86
:104A600060EC56F00A0E3C6EE90E3B6E000E3E6E98
:104A70003F0E3D6E92EC53F0000E036E1A0E026E66
:104A800060EC56F0090E3C6E2D0E3B6E000E3E6E35
:104A90003B0E3D6E92EC53F0000E036E1D0E026E47
:104AA00060EC56F0060E3C6E7D0E3B6E000E3E6EC8
:104AB0003B0E3D6E92EC53F0000E036E1D0E026E27
:104AC00060EC56F0050E3C6EC70E3B6E000E3E6E5F
:104AD0003F0E3D6E92EC53F0000E036E1A0E026E06
:104AE00060EC56F0090E3C6EB90E3B6E000E3E6E49
:104AF0003F0E3D6E92EC53F0000E036E1A0E026EE6
:104B000060EC56F0070E3C6E480E3B6E000E3E6E9B
:104B10003F0E3D6E92EC53F0000E036E1A0E026EC5
:104B200060EC56F0050E3C6EC70E3B6E000E3E6EFE
:104B30003B0E3D6E92EC53F0000E036E1D0E026EA6
:104B400060EC56F0050E3C6E740E3B6E000E3E6E31
:104B50003F0E3D6E92EC53F0000E036E1A0E026E85
:104B600060EC56F0090E3C6E2D0E3B6E000E3E6E54
:104B70003F0E3D6E92EC53F0000E036E1A0E026E65
:104B800060EC56F0060E3C6E7D0E3B6E000E3E6EE7
:104B90003F0E3D6E92EC53F0000E036E1A0E026E45
:104BA00060EC56F0050E3C6E740E3B6E000E3E6ED1
:104BB0003B0E3D6E92EC53F0000E036E1D0E026E26
:104BC00060EC56F0050E3C6EC70E3B6E000E3E6E5E
:104BD0003F0E3D6E92EC53F0000E036E1A0E026E05
:104BE00060EC56F0090E3C6EB90E3B6E000E3E6E48
:104BF0003F0E3D6E92EC53F0000E036E1A0E026EE5
:104C000060EC56F0070E3C6E480E3B6E000E3E6E9A
:104C10003B0E3D6E92EC53F0000E036E1D0E026EC5
:104C200060EC56F0050E3C6EC70E3B6E000E3E6EFD
:104C30003B0E3D6E92EC53F0000E036E1D0E026EA5
:104C400060EC56F0050E3C6E260E3B6E000E3E6E7E
:104C50003F0E3D6E92EC53F0000E036E1A0E026E84
:104C600060EC56F0080E3C6EA90E3B6E000E3E6ED8
:104C70003F0E3D6E92EC53F0000E036E1A0E026E64
:104C800060EC56F0070E3C6E480E3B6E000E3E6E1A
:104C90003B0E3D6E92EC53F0000E036E1D0E026E45
:104CA00060EC56F0050E3C6E260E3B6E000E3E6E1E
:104CB0003B0E3D6E92EC53F0000E036E1D0E026E25
:104CC00060EC56F0040E3C6EDC0E3B6E000E3E6E49
:104CD0003F0E3D6E92EC53F0000E036E1A0E026E04
:104CE00060EC56F0070E3C6EB70E3B6E000E3E6E4B
:104CF0003F0E3D6E92EC53F0000E036E1A0E026EE4
:104D000060EC56F0050E3C6EC70E3B6E000E3E6E1C
:104D10003F0E3D6E92EC53F0000E036E1A0E026EC3
:104D200060EC56F0040E3C6EDC0E3B6E000E3E6EE8
:104D30003B0E3D6E92EC53F0000E036E1D0E026EA4
:104D400060EC56F0040E3C6E540E3B6E000E3E6E50
:104D50003F0E3D6E92EC53F0000E036E1A0E026E83
:104D600060EC56F0070E3C6E480E3B6E000E3E6E39
:104D70003F0E3D6E92EC53F0000E036E1A0E026E63
:104D800060EC56F0050E3C6E260E3B6E000E3E6E3D
:104D90003F0E3D6E92EC53F0000E036E1A0E026E43
:104DA00060EC56F0040E3C6E540E3B6E000E3E6EF0
:104DB0003B0E3D6E92EC53F0000E036E1D0E026E24
:104DC00060EC56F0040E3C6EDC0E3B6E000E3E6E48
:104DD0003F0E3D6E92EC53F0000E036E1A0E026E03
:104DE00060EC56F00F0E3C6E6F0E3B6E000E3E6E8A
:104DF0003F0E3D6E92EC53F0000E036E1A0E026EE3
:104E000060EC56F00B0E3C6E8F0E3B6E000E3E6E4D
:104E10003B0E3D6E92EC53F0000E036E1D0E026EC3
:104E200060EC56F0090E3C6EB90E3B6E000E3E6E05
:104E30003B0E3D6E92EC53F0000E036E1D0E026EA3
:104E400060EC56F0080E3C6EA90E3B6E000E3E6EF6
:104E50003F0E3D6E92EC53F0000E036E1A0E026E82
:104E600060EC56F00E0E3C6E910E3B6E000E3E6EE8
:104E70003F0E3D6E92EC53F0000E036E1A0E026E62
:104E800060EC56F00C0E3C6E3F0E3B6E000E3E6E1C
:104E90003B0E3D6E92EC53F0000E036E1D0E026E43
:104EA00060EC56F0080E3C6EA90E3B6E000E3E6E96
:104EB0003B0E3D6E92EC53F0000E036E1D0E026E23
:104EC00060EC56F0070E3C6EB70E3B6E000E3E6E69
:104ED0003F0E3D6E92EC53F0000E036E1A0E026E02
:104EE00060EC56F00C0E3C6EFA0E3B6E000E3E6E01
:104EF0003F0E3D6E92EC53F0000E036E1A0E026EE2
:104F000060EC56F0090E3C6EB90E3B6E000E3E6E24
:104F10003F0E3D6E92EC53F0000E036E1A0E026EC1
:104F200060EC56F0070E3C6EB70E3B6E000E3E6E08
:104F30003B0E3D6E92EC53F0000E036E1D0E026EA2
:104F400060EC56F0070E3C6E480E3B6E000E3E6E57
:104F50003F0E3D6E92EC53F0000E036E1A0E026E81
:104F600060EC56F00C0E3C6E3F0E3B6E000E3E6E3B
:104F70003F0E3D6E92EC53F0000E036E1A0E026E61
:104F800060EC56F0080E3C6EA90E3B6E000E3E6EB5
:104F90003F0E3D6E92EC53F0000E036E1A0E026E41
:104FA00060EC56F0070E3C6E480E3B6E000E3E6EF7
:104FB0003B0E3D6E92EC53F0000E036E1D0E026E22
:104FC00060EC56F0060E3C6E7D0E3B6E000E3E6EA3
:104FD0003F0E3D6E92EC53F0000E036E1A0E026E01
:104FE00060EC56F00C0E3C6EFA0E3B6E000E3E6E00
:104FF0003F0E3D6E92EC53F0000E036E1A0E026EE1
:1050000060EC56F00C0E3C6E3F0E3B6E000E3E6E9A
:105010003B0E3D6E92EC53F0000E036E1D0E026EC1
:1050200060EC56F00B0E3C6E8F0E3B6E000E3E6E2B
:105030003B0E3D6E92EC53F0000E036E1D0E026EA1
:1050400060EC56F00A0E3C6EE90E3B6E000E3E6EB2
:105050003F0E3D6E92EC53F0000E036E1A0E026E80
:1050600060EC56F00A0E3C6E4D0E3B6E000E3E6E2E
:105070003F0E3D6E92EC53F0000E036E1A0E026E60
:1050800060EC56F0090E3C6EB90E3B6E000E3E6EA3
:105090003B0E3D6E92EC53F0000E036E1D0E026E41
:1050A00060EC56F0090E3C6E2D0E3B6E000E3E6E0F
:1050B0003B0E3D6E92EC53F0000E036E1D0E026E21
:1050C00060EC56F0080E3C6EA90E3B6E000E3E6E74
:1050D0003F0E3D6E92EC53F0000E036E1A0E026E00
:1050E00060EC56F0080E3C6E2D0E3B6E000E3E6ED0
:1050F0003F0E3D6E92EC53F0000E036E1A0E026EE0
:1051000060EC56F0070E3C6EB70E3B6E000E3E6E26
:105110003F0E3D6E92EC53F0000E036E1A0E026EBF
:1051200060EC56F0070E3C6E480E3B6E000E3E6E75
:105130003B0E3D6E92EC53F0000E036E1D0E026EA0
:1051400060EC56F0060E3C6EE00E3B6E000E3E6EBE
:105150003F0E3D6E92EC53F0000E036E1A0E026E7F
:1051600060EC56F0060E3C6E7D0E3B6E000E3E6E01
:105170003F0E3D6E92EC53F0000E036E1A0E026E5F
:1051800060EC56F0060E3C6E1F0E3B6E000E3E6E3F
:105190003F0E3D6E92EC53F0000E036E1A0E026E3F
:1051A00060EC56F0050E3C6EC70E3B6E000E3E6E78
:1051B0003B0E3D6E92EC53F0000E036E1D0E026E20
:1051C00060EC56F0050E3C6E740E3B6E000E3E6EAB
:1051D0003F0E3D6E92EC53F0000E036E1A0E026EFF
:1051E00060EC56F0050E3C6E260E3B6E000E3E6ED9
:1051F0003F0E3D6E92EC53F0000E036E1A0E026EDF
:1052000060EC56F0040E3C6EDC0E3B6E000E3E6E03
:105210003B0E3D6E92EC53F0000E036E1D0E026EBF
:1052200060EC56F0040E3C6E960E3B6E000E3E6E29
:105230003B0E3D6E92EC53F0000E036E1D0E026E9F
:1052400060EC56F0040E3C6E540E3B6E000E3E6E4B
:105250003F0E3D6E92EC53F0000E036E1A0E026E7E
:1052600060EC56F0040E3C6E160E3B6E000E3E6E69
:105270003F0E3D6E92EC53F0000E036E1A0E026E5E
:1052800060EC56F0030E3C6EDB0E3B6E000E3E6E85
:105290003B0E3D6E92EC53F0000E036E1D0E026E3F
:1052A00060EC56F0030E3C6EA40E3B6E000E3E6E9C
:1052B0003B0E3D6E92EC53F0000E036E1D0E026E1F
:1052C00060EC56F0030E3C6E3E0E3B6E000E3E6EE2
:1052D0003F0E3D6E92EC53F0000E036E1A0E026EFE
:1052E00060EC56F0030E3C6EDB0E3B6E000E3E6E25
:1052F0003F0E3D6E92EC53F0000E036E1A0E026EDE
:1053000060EC56F0050E3C6E260E3B6E000E3E6EB7
:105310003F0E3D6E92EC53F0000E036E1A0E026EBD
:1053200060EC56F0040E3C6EDC0E3B6E000E3E6EE2
:105330003B0E3D6E92EC53F0000E036E1D0E026E9E
:1053400060EC56F0030E3C6E0F0E3B6E000E3E6E90
:105350003F0E3D6E92EC53F0000E036E1A0E026E7D
:1053600060EC56F0040E3C6EDC0E3B6E000E3E6EA2
:105370003F0E3D6E92EC53F0000E036E1A0E026E5D
:1053800060EC56F0040E3C6E540E3B6E000E3E6E0A
:105390003F0E3D6E92EC53F0000E036E1A0E026E3D
:1053A00060EC56F0030E3C6EA40E3B6E000E3E6E9B
:1053B0003B0E3D6E92EC53F0000E036E1D0E026E1E
:1053C00060EC56F0030E3C6E3E0E3B6E000E3E6EE1
:1053D0003F0E3D6E92EC53F0000E036E1A0E026EFD
:1053E00060EC56F00A0E3C6E4D0E3B6E000E3E6EAB
:1053F0003F0E3D6E92EC53F0000E036E1A0E026EDD
:1054000060EC56F0090E3C6EB90E3B6E000E3E6E1F
:105410003B0E3D6E92EC53F0000E036E1D0E026EBD
:1054200060EC56F0090E3C6E2D0E3B6E000E3E6E8B
:105430003B0E3D6E92EC53F0000E036E1D0E026E9D
:1054400060EC56F0080E3C6EA90E3B6E000E3E6EF0
:105450003F0E3D6E92EC53F0000E036E1A0E026E7C
:1054600060EC56F0080E3C6E2D0E3B6E000E3E6E4C
:105470003F0E3D6E92EC53F0000E036E1A0E026E5C
:1054800060EC56F0070E3C6EB70E3B6E000E3E6EA3
:105490003B0E3D6E92EC53F0000E036E1D0E026E3D
:1054A00060EC56F0070E3C6E480E3B6E000E3E6EF2
:1054B0003B0E3D6E92EC53F0000E036E1D0E026E1D
:1054C00060EC56F0060E3C6EE00E3B6E000E3E6E3B
:1054D0003F0E3D6E92EC53F0000E036E1A0E026EFC
:1054E00060EC56F0060E3C6E7D0E3B6E000E3E6E7E
:1054F0003F0E3D6E92EC53F0000E036E1A0E026EDC
:1055000060EC56F0060E3C6E1F0E3B6E000E3E6EBB
:105510003F0E3D6E92EC53F0000E036E1A0E026EBB
:1055200060EC56F0050E3C6EC70E3B6E000E3E6EF4
:105530003B0E3D6E92EC53F0000E036E1D0E026E9C
:1055400060EC56F0050E3C6E740E3B6E000E3E6E27
:105550003F0E3D6E92EC53F0000E036E1A0E026E7B
:1055600060EC56F0050E3C6E260E3B6E000E3E6E55
:105570003F0E3D6E92EC53F0000E036E1A0E026E5B
:1055800060EC56F0040E3C6EDC0E3B6E000E3E6E80
:105590003F0E3D6E92EC53F0000E036E1A0E026E3B
:1055A00060EC56F0040E3C6E960E3B6E000E3E6EA6
:1055B0003B0E3D6E92EC53F0000E036E1D0E026E1C
:1055C00060EC56F0040E3C6E540E3B6E000E3E6EC8
:1055D0003F0E3D6E92EC53F0000E036E1A0E026EFB
:1055E00060EC56F0040E3C6E160E3B6E000E3E6EE6
:1055F0003F0E3D6E92EC53F0000E036E1A0E026EDB
:1056000060EC56F0030E3C6EDB0E3B6E000E3E6E01
:105610003B0E3D6E92EC53F0000E036E1D0E026EBB
:1056200060EC56F0030E3C6EA40E3B6E000E3E6E18
:105630003B0E3D6E92EC53F0000E036E1D0E026E9B
:1056400060EC56F0030E3C6E700E3B6E000E3E6E2C
:105650003F0E3D6E92EC53F0000E036E1A0E026E7A
:1056600060EC56F0030E3C6E3E0E3B6E000E3E6E3E
:105670003F0E3D6E92EC53F0000E036E1A0E026E5A
:1056800060EC56F0030E3C6E0F0E3B6E000E3E6E4D
:105690003B0E3D6E92EC53F0000E036E1D0E026E3B
:1056A00060EC56F0020E3C6EE30E3B6E000E3E6E5A
:1056B0003B0E3D6E92EC53F0000E036E1D0E026E1B
:1056C00060EC56F0020E3C6E930E3B6E000E3E6E8A
:1056D0003F0E3D6E92EC53F0000E036E1A0E026EFA
:1056E00060EC56F0040E3C6E540E3B6E000E3E6EA7
:1056F0003F0E3D6E92EC53F0000E036E1A0E026EDA
:1057000060EC56F0030E3C6EDB0E3B6E000E3E6E00
:105710003F0E3D6E92EC53F0000E036E1A0E026EB9
:1057200060EC56F0030E3C6E3E0E3B6E000E3E6E7D
:105730003B0E3D6E92EC53F0000E036E1D0E026E9A
:1057400060EC56F0020E3C6E6E0E3B6E000E3E6E2E
:105750003F0E3D6E92EC53F0000E036E1A0E026E79
:1057600060EC56F0030E3C6EDB0E3B6E000E3E6EA0
:105770003F0E3D6E92EC53F0000E036E1A0E026E59
:1057800060EC56F0030E3C6E700E3B6E000E3E6EEB
:105790003F0E3D6E92EC53F0000E036E1A0E026E39
:1057A00060EC56F0020E3C6EE30E3B6E000E3E6E59
:1057B0003B0E3D6E92EC53F0000E036E1D0E026E1A
:1057C00060EC56F0020E3C6E930E3B6E000E3E6E89
:1057D0003F0E3D6E92EC53F0000E036E1A0E026EF9
:1057E00060EC56F0050E3C6E260E3B6E000E3E6ED3
:1057F0003F0E3D6E92EC53F0000E036E1A0E026ED9
:1058000060EC56F0030E3C6EDB0E3B6E000E3E6EFF
:105810003B0E3D6E92EC53F0000E036E1D0E026EB9
:1058200060EC56F0030E3C6E3E0E3B6E000E3E6E7C
:105830003B0E3D6E92EC53F0000E036E1D0E026E99
:1058400060EC56F0030E3C6E0F0E3B6E000E3E6E8B
:105850003F0E3D6E92EC53F0000E036E1A0E026E78
:1058600060EC56F0040E3C6E960E3B6E000E3E6EE3
:105870003F0E3D6E92EC53F0000E036E1A0E026E58
:1058800060EC56F0030E3C6EDB0E3B6E000E3E6E7F
:105890003B0E3D6E92EC53F0000E036E1D0E026E39
:1058A00060EC56F0030E3C6E3E0E3B6E000E3E6EFC
:1058B0003B0E3D6E92EC53F0000E036E1D0E026E19
:1058C00060EC56F0020E3C6EE30E3B6E000E3E6E38
:1058D0003F0E3D6E92EC53F0000E036E1A0E026EF8
:1058E00060EC56F0050E3C6EC70E3B6E000E3E6E31
:1058F0003F0E3D6E92EC53F0000E036E1A0E026ED8
:1059000060EC56F0040E3C6E540E3B6E000E3E6E84
:105910003F0E3D6E92EC53F0000E036E1A0E026EB7
:1059200060EC56F0030E3C6E700E3B6E000E3E6E49
:105930003B0E3D6E92EC53F0000E036E1D0E026E98
:1059400060EC56F0030E3C6E0F0E3B6E000E3E6E8A
:105950003F0E3D6E92EC53F0000E036E1A0E026E77
:1059600060EC56F0050E3C6E260E3B6E000E3E6E51
:105970003F0E3D6E92EC53F0000E036E1A0E026E57
:1059800060EC56F0040E3C6E540E3B6E000E3E6E04
:105990003F0E3D6E92EC53F0000E036E1A0E026E37
:1059A00060EC56F0030E3C6EA40E3B6E000E3E6E95
:1059B0003B0E3D6E92EC53F0000E036E1D0E026E18
:1059C00060EC56F0030E3C6E3E0E3B6E000E3E6EDB
:1059D0003F0E3D6E92EC53F0000E036E1A0E026EF7
:1059E00060EC56F0060E3C6E7D0E3B6E000E3E6E79
:1059F0003F0E3D6E92EC53F0000E036E1A0E026ED7
:105A000060EC56F0040E3C6EDC0E3B6E000E3E6EFB
:105A10003F0E3D6E92EC53F0000E036E1A0E026EB6
:105A200060EC56F0030E3C6EDB0E3B6E000E3E6EDD
:105A30003B0E3D6E92EC53F0000E036E1D0E026E97
:105A400060EC56F0030E3C6E700E3B6E000E3E6E28
:105A50003F0E3D6E92EC53F0000E036E1A0E026E76
:105A600060EC56F0050E3C6EC70E3B6E000E3E6EAF
:105A70003F0E3D6E92EC53F0000E036E1A0E026E56
:105A800060EC56F0040E3C6EDC0E3B6E000E3E6E7B
:105A90003B0E3D6E92EC53F0000E036E1D0E026E37
:105AA00060EC56F0030E3C6E700E3B6E000E3E6EC8
:105AB0003B0E3D6E92EC53F0000E036E1D0E026E17
:105AC00060EC56F0020E3C6EE30E3B6E000E3E6E36
:105AD0003F0E3D6E92EC53F0000E036E1A0E026EF6
:105AE00060EC56F0040E3C6EDC0E3B6E000E3E6E1B
:105AF0003F0E3D6E92EC53F0000E036E1A0E026ED6
:105B000060EC56F0040E3C6E160E3B6E000E3E6EC0
:105B10003F0E3D6E92EC53F0000E036E1A0E026EB5
:105B200060EC56F0060E3C6E7D0E3B6E000E3E6E37
:105B30003B0E3D6E92EC53F0000E036E1D0E026E96
:105B400060EC56F0040E3C6EDC0E3B6E000E3E6EBA
:105B50003F0E3D6E92EC53F0000E036E1A0E026E75
:105B600060EC56F0080E3C6E2D0E3B6E000E3E6E45
:105B70003F0E3D6E92EC53F0000E036E1A0E026E55
:105B800060EC56F0060E3C6E7D0E3B6E000E3E6ED7
:105B90003F0E3D6E92EC53F0000E036E1A0E026E35
:105BA00060EC56F00B0E3C6E8F0E3B6E000E3E6EA0
:105BB0003B0E3D6E92EC53F0000E036E1D0E026E16
:105BC00060EC56F00A0E3C6E4D0E3B6E000E3E6EC3
:105BD0003F0E3D6E92EC53F0000E036E1A0E026EF5
:105BE00060EC56F0080E3C6EA90E3B6E000E3E6E49
:105BF0003F0E3D6E92EC53F0000E036E1A0E026ED5
:105C000060EC56F0060E3C6E7D0E3B6E000E3E6E56
:105C10003B0E3D6E92EC53F0000E036E1D0E026EB5
:105C200060EC56F0050E3C6E260E3B6E000E3E6E8E
:105C30003B0E3D6E92EC53F0000E036E1D0E026E95
:105C400060EC56F0040E3C6E160E3B6E000E3E6E7F
:105C50003F0E3D6E92EC53F0000E036E1A0E026E74
:105C600060EC56F0040E3C6E540E3B6E000E3E6E21
:105C70003F0E3D6E92EC53F0000E036E1A0E026E54
:105C800060EC56F0050E3C6E260E3B6E000E3E6E2E
:105C90003B0E3D6E92EC53F0000E036E1D0E026E35
:105CA00060EC56F0040E3C6E540E3B6E000E3E6EE1
:105CB0003B0E3D6E92EC53F0000E036E1D0E026E15
:105CC00060EC56F0030E3C6EDB0E3B6E000E3E6E3B
:105CD0003F0E3D6E92EC53F0000E036E1A0E026EF4
:105CE00060EC56F0030E3C6E700E3B6E000E3E6E86
:105CF0003F0E3D6E92EC53F0000E036E1A0E026ED4
:105D000060EC56F0030E3C6E3E0E3B6E000E3E6E97
:105D10003F0E3D6E92EC53F0000E036E1A0E026EB3
:105D200060EC56F0020E3C6EE30E3B6E000E3E6ED3
:105D30003B0E3D6E92EC53F0000E036E1D0E026E94
:105D400060EC56F0050E3C6E740E3B6E000E3E6E1F
:105D50003F0E3D6E92EC53F0000E036E1A0E026E73
:105D600060EC56F0050E3C6EC70E3B6E000E3E6EAC
:105D70003F0E3D6E92EC53F0000E036E1A0E026E53
:105D800060EC56F0060E3C6EE00E3B6E000E3E6E72
:105D90003F0E3D6E92EC53F0000E036E1A0E026E33
:105DA00060EC56F0050E3C6EC70E3B6E000E3E6E6C
:105DB0003B0E3D6E92EC53F0000E036E1D0E026E14
:105DC00060EC56F0050E3C6E260E3B6E000E3E6EED
:105DD0003F0E3D6E92EC53F0000E036E1A0E026EF3
:105DE00060EC56F0040E3C6EDC0E3B6E000E3E6E18
:105DF0003F0E3D6E92EC53F0000E036E1A0E026ED3
:105E000060EC56F0040E3C6E540E3B6E000E3E6E7F
:105E10003B0E3D6E92EC53F0000E036E1D0E026EB3
:105E200060EC56F0030E3C6EDB0E3B6E000E3E6ED9
:105E30003B0E3D6E92EC53F0000E036E1D0E026E93
:105E400060EC56F0070E3C6E480E3B6E000E3E6E48
:105E50003F0E3D6E92EC53F0000E036E1A0E026E72
:105E600060EC56F0070E3C6EB70E3B6E000E3E6EB9
:105E70003F0E3D6E92EC53F0000E036E1A0E026E52
:105E800060EC56F0090E3C6EB90E3B6E000E3E6E95
:105E90003B0E3D6E92EC53F0000E036E1D0E026E33
:105EA00060EC56F0070E3C6EB70E3B6E000E3E6E79
:105EB0003B0E3D6E92EC53F0000E036E1D0E026E13
:105EC00060EC56F00A0E3C6E4D0E3B6E000E3E6EC0
:105ED0003F0E3D6E92EC53F0000E036E1A0E026EF2
:105EE00060EC56F0070E3C6EB70E3B6E000E3E6E39
:105EF0003F0E3D6E92EC53F0000E036E1A0E026ED2
:105F000060EC56F0060E3C6E7D0E3B6E000E3E6E53
:105F10003F0E3D6E92EC53F0000E036E1A0E026EB1
:105F200060EC56F0050E3C6E260E3B6E000E3E6E8B
:105F30003B0E3D6E92EC53F0000E036E1D0E026E92
:105F400060EC56F0040E3C6EDC0E3B6E000E3E6EB6
:105F50003F0E3D6E92EC53F0000E036E1A0E026E71
:105F600060EC56F0050E3C6E260E3B6E000E3E6E4B
:105F70003F0E3D6E92EC53F0000E036E1A0E026E51
:105F800060EC56F0040E3C6E960E3B6E000E3E6EBC
:105F90003F0E3D6E92EC53F0000E036E1A0E026E31
:105FA00060EC56F0030E3C6EDB0E3B6E000E3E6E58
:105FB0003B0E3D6E92EC53F0000E036E1D0E026E12
:105FC00060EC56F0030E3C6E700E3B6E000E3E6EA3
:105FD0003F0E3D6E92EC53F0000E036E1A0E026EF1
:105FE00060EC56F0040E3C6E540E3B6E000E3E6E9E
:105FF0003F0E3D6E92EC53F0000E036E1A0E026ED1
:1060000060EC56F0050E3C6E260E3B6E000E3E6EAA
:106010003B0E3D6E92EC53F0000E036E1D0E026EB1
:1060200060EC56F0040E3C6E540E3B6E000E3E6E5D
:106030003B0E3D6E92EC53F0000E036E1D0E026E91
:1060400060EC56F0030E3C6EDB0E3B6E000E3E6EB7
:106050003F0E3D6E92EC53F0000E036E1A0E026E70
:1060600060EC56F0040E3C6E960E3B6E000E3E6EDB
:106070003F0E3D6E92EC53F0000E036E1A0E026E50
:1060800060EC56F0050E3C6E260E3B6E000E3E6E2A
:106090003B0E3D6E92EC53F0000E036E1D0E026E31
:1060A00060EC56F0040E3C6E960E3B6E000E3E6E9B
:1060B0003B0E3D6E92EC53F0000E036E1D0E026E11
:1060C00060EC56F0040E3C6E540E3B6E000E3E6EBD
:1060D0003F0E3D6E92EC53F0000E036E1A0E026EF0
:1060E00060EC56F0060E3C6EE00E3B6E000E3E6E0F
:1060F0003F0E3D6E92EC53F0000E036E1A0E026ED0
:1061000060EC56F0060E3C6E7D0E3B6E000E3E6E51
:106110003F0E3D6E92EC53F0000E036E1A0E026EAF
:1061200060EC56F0050E3C6EC70E3B6E000E3E6EE8
:106130003B0E3D6E92EC53F0000E036E1D0E026E90
:1061400060EC56F0050E3C6E260E3B6E000E3E6E69
:106150003F0E3D6E92EC53F0000E036E1A0E026E6F
:1061600060EC56F0040E3C6E960E3B6E000E3E6EDA
:106170003F0E3D6E92EC53F0000E036E1A0E026E4F
:1061800060EC56F0040E3C6E540E3B6E000E3E6EFC
:106190003F0E3D6E92EC53F0000E036E1A0E026E2F
:1061A00060EC56F0030E3C6EDB0E3B6E000E3E6E56
:1061B0003B0E3D6E92EC53F0000E036E1D0E026E10
:1061C00060EC56F0030E3C6E700E3B6E000E3E6EA1
:1061D0003F0E3D6E92EC53F0000E036E1A0E026EEF
:1061E00060EC56F0040E3C6E540E3B6E000E3E6E9C
:1061F0003F0E3D6E92EC53F0000E036E1A0E026ECF
:1062000060EC56F0050E3C6E260E3B6E000E3E6EA8
:106210003B0E3D6E92EC53F0000E036E1D0E026EAF
:1062200060EC56F0040E3C6E540E3B6E000E3E6E5B
:106230003B0E3D6E92EC53F0000E036E1D0E026E8F
:1062400060EC56F0030E3C6E700E3B6E000E3E6E20
:106250003F0E3D6E92EC53F0000E036E1A0E026E6E
:1062600060EC56F0050E3C6E260E3B6E000E3E6E48
:106270003F0E3D6E92EC53F0000E036E1A0E026E4E
:1062800060EC56F0060E3C6E1F0E3B6E000E3E6E2E
:106290003B0E3D6E92EC53F0000E036E1D0E026E2F
:1062A00060EC56F0050E3C6E260E3B6E000E3E6E08
:1062B0003B0E3D6E92EC53F0000E036E1D0E026E0F
:1062C00060EC56F0030E3C6EA40E3B6E000E3E6E6C
:1062D0003F0E3D6E92EC53F0000E036E1A0E026EEE
:1062E00060EC56F0050E3C6E260E3B6E000E3E6EC8
:1062F0003F0E3D6E92EC53F0000E036E1A0E026ECE
:1063000060EC56F0060E3C6E1F0E3B6E000E3E6EAD
:106310003F0E3D6E92EC53F0000E036E1A0E026EAD
:1063200060EC56F0050E3C6E260E3B6E000E3E6E87
:106330003B0E3D6E92EC53F0000E036E1D0E026E8E
:1063400060EC56F0030E3C6EDB0E3B6E000E3E6EB4
:106350003F0E3D6E92EC53F0000E036E1A0E026E6D
:1063600060EC56F0040E3C6E960E3B6E000E3E6ED8
:106370003F0E3D6E92EC53F0000E036E1A0E026E4D
:1063800060EC56F0050E3C6EC70E3B6E000E3E6E86
:106390003F0E3D6E92EC53F0000E036E1A0E026E2D
:1063A00060EC56F0040E3C6E960E3B6E000E3E6E98
:1063B0003B0E3D6E92EC53F0000E036E1D0E026E0E
:1063C00060EC56F0030E3C6EDB0E3B6E000E3E6E34
:1063D0003F0E3D6E92EC53F0000E036E1A0E026EED
:1063E00060EC56F0040E3C6EDC0E3B6E000E3E6E12
:1063F0003F0E3D6E92EC53F0000E036E1A0E026ECD
:1064000060EC56F0050E3C6EC70E3B6E000E3E6E05
:106410003B0E3D6E92EC53F0000E036E1D0E026EAD
:1064200060EC56F0040E3C6EDC0E3B6E000E3E6ED1
:106430003B0E3D6E92EC53F0000E036E1D0E026E8D
:1064400060EC56F0040E3C6E540E3B6E000E3E6E39
:106450003F0E3D6E92EC53F0000E036E1A0E026E6C
:1064600060EC56F0050E3C6E260E3B6E000E3E6E46
:106470003F0E3D6E92EC53F0000E036E1A0E026E4C
:1064800060EC56F0050E3C6EC70E3B6E000E3E6E85
:106490003B0E3D6E92EC53F0000E036E1D0E026E2D
:1064A00060EC56F0050E3C6E260E3B6E000E3E6E06
:1064B0003B0E3D6E92EC53F0000E036E1D0E026E0D
:1064C00060EC56F0040E3C6EDC0E3B6E000E3E6E31
:1064D0003F0E3D6E92EC53F0000E036E1A0E026EEC
:1064E00060EC56F0070E3C6EB70E3B6E000E3E6E33
:1064F0003F0E3D6E92EC53F0000E036E1A0E026ECC
:1065000060EC56F0070E3C6E480E3B6E000E3E6E81
:106510003F0E3D6E92EC53F0000E036E1A0E026EAB
:1065200060EC56F0060E3C6E7D0E3B6E000E3E6E2D
:106530003B0E3D6E92EC53F0000E036E1D0E026E8C
:1065400060EC56F0050E3C6EC70E3B6E000E3E6EC4
:106550003F0E3D6E92EC53F0000E036E1A0E026E6B
:1065600060EC56F0050E3C6E260E3B6E000E3E6E45
:106570003F0E3D6E92EC53F0000E036E1A0E026E4B
:1065800060EC56F0040E3C6EDC0E3B6E000E3E6E70
:106590003F0E3D6E92EC53F0000E036E1A0E026E2B
:1065A00060EC56F0040E3C6E540E3B6E000E3E6ED8
:1065B0003B0E3D6E92EC53F0000E036E1D0E026E0C
:1065C00060EC56F0030E3C6EDB0E3B6E000E3E6E32
:1065D0003F0E3D6E92EC53F0000E036E1A0E026EEB
:1065E00060EC56F0040E3C6EDC0E3B6E000E3E6E10
:1065F0003F0E3D6E92EC53F0000E036E1A0E026ECB
:1066000060EC56F0050E3C6EC70E3B6E000E3E6E03
:106610003B0E3D6E92EC53F0000E036E1D0E026EAB
:1066200060EC56F0040E3C6EDC0E3B6E000E3E6ECF
:106630003B0E3D6E92EC53F0000E036E1D0E026E8B
:1066400060EC56F0030E3C6EDB0E3B6E000E3E6EB1
:106650003F0E3D6E92EC53F0000E036E1A0E026E6A
:1066600060EC56F0050E3C6EC70E3B6E000E3E6EA3
:106670003F0E3D6E92EC53F0000E036E1A0E026E4A
:1066800060EC56F0060E3C6EE00E3B6E000E3E6E69
:106690003B0E3D6E92EC53F0000E036E1D0E026E2B
:1066A00060EC56F0050E3C6EC70E3B6E000E3E6E63
:1066B0003B0E3D6E92EC53F0000E036E1D0E026E0B
:1066C00060EC56F0040E3C6E160E3B6E000E3E6EF5
:1066D0003F0E3D6E92EC53F0000E036E1A0E026EEA
:1066E00060EC56F0050E3C6EC70E3B6E000E3E6E23
:1066F0003F0E3D6E92EC53F0000E036E1A0E026ECA
:1067000060EC56F0060E3C6EE00E3B6E000E3E6EE8
:106710003F0E3D6E92EC53F0000E036E1A0E026EA9
:1067200060EC56F0050E3C6EC70E3B6E000E3E6EE2
:106730003B0E3D6E92EC53F0000E036E1D0E026E8A
:1067400060EC56F0040E3C6E540E3B6E000E3E6E36
:106750003F0E3D6E92EC53F0000E036E1A0E026E69
:1067600060EC56F0050E3C6E260E3B6E000E3E6E43
:106770003F0E3D6E92EC53F0000E036E1A0E026E49
:1067800060EC56F0060E3C6E7D0E3B6E000E3E6ECB
:106790003F0E3D6E92EC53F0000E036E1A0E026E29
:1067A00060EC56F0050E3C6E260E3B6E000E3E6E03
:1067B0003B0E3D6E92EC53F0000E036E1D0E026E0A
:1067C00060EC56F0040E3C6E960E3B6E000E3E6E74
:1067D0003F0E3D6E92EC53F0000E036E1A0E026EE9
:1067E00060EC56F0070E3C6EB70E3B6E000E3E6E30
:1067F0003F0E3D6E92EC53F0000E036E1A0E026EC9
:1068000060EC56F0060E3C6E7D0E3B6E000E3E6E4A
:106810003B0E3D6E92EC53F0000E036E1D0E026EA9
:1068200060EC56F0040E3C6E960E3B6E000E3E6E13
:106830003B0E3D6E92EC53F0000E036E1D0E026E89
:1068400060EC56F0040E3C6E540E3B6E000E3E6E35
:106850003F0E3D6E92EC53F0000E036E1A0E026E68
:1068600060EC56F0080E3C6EA90E3B6E000E3E6EBC
:106870003F0E3D6E92EC53F0000E036E1A0E026E48
:1068800060EC56F0060E3C6EE00E3B6E000E3E6E67
:106890003B0E3D6E92EC53F0000E036E1D0E026E29
:1068A00060EC56F0050E3C6EC70E3B6E000E3E6E61
:1068B0003B0E3D6E92EC53F0000E036E1D0E026E09
:1068C00060EC56F0050E3C6E260E3B6E000E3E6EE2
:1068D0003F0E3D6E92EC53F0000E036E1A0E026EE8
:1068E00060EC56F0080E3C6EA90E3B6E000E3E6E3C
:1068F0003F0E3D6E92EC53F0000E036E1A0E026EC8
:1069000060EC56F0070E3C6E480E3B6E000E3E6E7D
:106910003F0E3D6E92EC53F0000E036E1A0E026EA7
:1069200060EC56F0050E3C6E260E3B6E000E3E6E81
:106930003B0E3D6E92EC53F0000E036E1D0E026E88
:1069400060EC56F0040E3C6E960E3B6E000E3E6EF2
:106950003F0E3D6E92EC53F0000E036E1A0E026E67
:1069600060EC56F0090E3C6E2D0E3B6E000E3E6E36
:106970003F0E3D6E92EC53F0000E036E1A0E026E47
:1069800060EC56F0070E3C6EB70E3B6E000E3E6E8E
:106990003F0E3D6E92EC53F0000E036E1A0E026E27
:1069A00060EC56F0050E3C6EC70E3B6E000E3E6E60
:1069B0003B0E3D6E92EC53F0000E036E1D0E026E08
:1069C00060EC56F0040E3C6E960E3B6E000E3E6E72
:1069D0003F0E3D6E92EC53F0000E036E1A0E026EE7
:1069E00060EC56F0080E3C6E2D0E3B6E000E3E6EB7
:1069F0003F0E3D6E92EC53F0000E036E1A0E026EC7
:106A000060EC56F0060E3C6EE00E3B6E000E3E6EE5
:106A10003B0E3D6E92EC53F0000E036E1D0E026EA7
:106A200060EC56F0050E3C6EC70E3B6E000E3E6EDF
:106A30003B0E3D6E92EC53F0000E036E1D0E026E87
:106A400060EC56F0040E3C6E960E3B6E000E3E6EF1
:106A50003F0E3D6E92EC53F0000E036E1A0E026E66
:106A600060EC56F0040E3C6E160E3B6E000E3E6E51
